:10000000F9C0000028C1000026C1000024C1000082
:1000100022C1000020C100001EC100001CC1000060
:100020001AC1000018C1000016C1000014C1000070
:1000300012C1000010C100000EC100000CC1000080
:100040000AC1000008C1000006C1000004C1000090
:1000500002C1000000C10000FEC000000C94AC37DB
:10006000FAC000000C94AC3A0C94E23AF4C00000E0
:10007000F2C00000F0C00000EEC00000ECC00000C4
:10008000EAC00000E8C00000E6C00000E4C00000D4
:100090000C94383B0C946E3BDEC000000C94232E75
:1000A000DAC00000D8C00000D6C00000D4C00000F4
:1000B000D2C00000D0C00000CEC00000CCC0000004
:1000C000CAC00000C8C000000C9453330C94C43B59
:1000D0000C94FA3BC0C000000C94503C0C94863C3D
:1000E000BAC0000000000A0B02090C0D0E0807033D
:1000F00004010000000000000000000000000000FB
:1001000000000000000000000000000000000000EF
:1001100012111000000000000000000000000000AC
:100120000000000000000000000001021020200874
:100130000810204010204080020102010804020142
:1001400001020408102040808040201008040201B1
:10015000800402018040201008040201080402010A
:100160000102040810204080010204081020408091
:1001700005050505070508080808020202020A0A23
:100180000808040404040101010101010101030341
:10019000030303030303040707070C0C0C0C0C0CEC
:1001A0000C0C0202020206060606060606060B0BE9
:1001B0000B0B0B0B0B0B00002200250028002B0063
:1001C0002E003100340002010000050108010B017E
:1001D00000002100240027002A002D0030003300F9
:1001E00001010000040107010A011E330B3B973B8C
:1001F000233CAF3C11241FBECFEFD1E2DEBFCDBF09
:1002000000E00CBF12E0A0E0B2E0ECEDFAE700E0A5
:100210000BBF02C007900D92A63EB107D9F72AE0A6
:10022000A6EEB2E001C01D92A432B207E1F710E0E1
:10023000CAEFD0E000E006C021970109802FFE013F
:100240000E943B3DC53FD10780E00807A9F70E9407
:1002500055340C946C3DD4CE611102C00C94193904
:100260006130E1F362E0FACF662319F061E00C94AB
:10027000553960E0FCCF90E080E008950F931F9324
:10028000009709F485C06115710509F481C00091DA
:1002900018021091190220911A0230911B020E3F90
:1002A0001F4F2F4F3F4F09F064C04FEF5FEFBA0170
:1002B000409318025093190260931A0270931B0224
:1002C000409118025091190260911A0270911B021C
:1002D000DC011296ED91FC9180819181A281B38124
:1002E0008093500390935103A0935203B093530310
:1002F00084819581A681B78180934C0390934D03AF
:10030000A0934E03B0934F0380859185A285B3855A
:100310008093480390934903A0934A03B0934B03FF
:1003200084859585A685B78580934403909345037E
:10033000A0934603B09347031092400310924103E9
:1003400010924203109243030E94B10E86ED9EE08C
:100350009093E7028093E6020E94A00D009731F48B
:1003600021E030E030935503209354031F910F9107
:100370000895009118021091190220911A023091EB
:100380001B02DB010D931D932D933C93139798CF84
:100390008FEF9FEFEBCF8F929F92AF92BF92CF9252
:1003A000DF92EF92FF921F93CF93DF934B015C019B
:1003B0001091570382E090E090935503809354038B
:1003C00081149104A104B10441F480915703811177
:1003D00004C080915603C1E08111C0E0C12CD12C32
:1003E000760180915703811106C0809156038111D7
:1003F00002C0CC23D9F083E090E090935503809322
:100400005403CC2381F1CCE9DFEF111102C00E942B
:100410003A12CE01DF91CF911F91FF90EF90DF90C4
:10042000CF90BF90AF909F908F9008956AE070E05A
:1004300080E090E00E941B3880E1C80E87E2D81E61
:10044000E11CF11C8FEF88169806A806B80631F05B
:10045000C1E08C149D04AE04BF0408F0C0E080E04D
:100460000E94D40DBECFD0E0C0E0CFCFCF92DF92BC
:10047000EF92FF921F93CF93DF938F3F910511F07F
:1004800008F04CC0209154033091550323303105BE
:1004900039F020915403309155032130310531F466
:1004A00024E030E030935503209354036A017B012C
:1004B000EC01892BA1F011E0AE01C701B6010E9449
:1004C0009F0DAB01BC01CE011123E1F0DF91CF9173
:1004D0001F91FF90EF90DF90CF900C946314809168
:1004E000E6029091E702892B31F30E946D14029786
:1004F00011F7E091E602F091E70290E080E01995B3
:10050000182FDACF0E94851490E080E0DF91CF9120
:100510001F91FF90EF90DF90CF9008958FEF9FEFA6
:10052000F5CF80E00C94D40DCF93DF9386E090E07C
:1005300090935503809354030E942D0EEC0110926A
:10054000E7021092E6020E94D21110925503109217
:100550005403CE01DF91CF91089580915603089501
:1005600080913F030895609318027093190280935D
:100570001A0290931B0290E080E008952F923F9220
:100580004F925F926F927F928F929F92AF92BF92A3
:10059000CF92DF92EF92FF920F931F93CF93DF934F
:1005A000CDB7DEB764970FB6F894DEBF0FBECDBFF0
:1005B0008B018C8B9B8B80910A0A90910B0AA091E6
:1005C0000C0AB0910D0A8B839C83AD83BE8340904F
:1005D000D2095090D3096090D4097090D5092B812D
:1005E0003C814D815E81B8018C899B890E94553583
:1005F0001816CCF464960FB6F894DEBF0FBECDBFCC
:10060000DF91CF911F910F91FF90EF90DF90CF90EE
:10061000BF90AF909F908F907F906F905F904F9022
:100620003F902F90089520E030E040E85FE3B8016C
:100630008C899B890E94453718160CF066C02B8167
:100640003C814D815E81B8018C899B890E94553522
:1006500087FF5BC020E030E040E85FE3B8018C89B1
:100660009B890E94DE345B016C01A30192010E9410
:10067000DE340E94C13561507109660F771F660F25
:10068000771FFB01E858F64F62A573A584A595A5D1
:100690000E94C13561507109660F771F660F771F81
:1006A000DB01A85BB64F7D01A3019201B8018C89E3
:1006B0009B890E94DE340E94C13561507109660F2A
:1006C000771F660F771FFB01E858F64F62A573A5E9
:1006D00084A595A50E94C13561507109660F771FE9
:1006E000660F771FFB01E85BF64F22A533A544A5F3
:1006F00055A5F70162A573A584A595A50E9455355A
:1007000087FF03C08501CC8ADB8A20E030E040E02F
:100710005FE3B8018C899B890E9449376B017C019A
:1007200020E030E0A9010E94553587FFB5C0C70120
:10073000B6010E9442356B017C0198014C895B89AE
:10074000C301B2010E94DE344B015C010E94C1353D
:1007500061507109660F771F660F771FCB018858AC
:10076000964F9A838983DC019A968D919D910D9085
:10077000BC91A02D8F839887A987BA87BC01CD0132
:100780000E94C1351B01B1E02B1A3108A701960167
:10079000C301B2010E94DE346B017C010E94C135AD
:1007A00061507109660F771F660F771FFB01E858CC
:1007B000F64FF88BEF8782A593A5A4A5B5A58B87E7
:1007C0009C87AD87BE87220C331C220C331CF101A1
:1007D000E15CF64F1F01CF0109969A8B898B6B85DF
:1007E0007C858D859E850E94C13561507109660F9B
:1007F000771F660F771FFB01E85BF64F22A533A535
:1008000044A555A5A989BA899A966D917D918D9136
:100810009C919D970E94553587FFECCE8B859C85DA
:10082000AD85BE85E981FA8182A793A7A4A7B5A764
:100830008F819885A985BA85EF85F88982A793A7C6
:10084000A4A7B5A7A981BA819A966D917D918D9142
:100850009C919D970E94C13561507109660F771F69
:10086000660F771FFB01E055F64F82A693A6A4A65C
:10087000B5A6F101EF58FF4FC2A6D3A6E4A6F5A690
:1008800098014C895B89B8018C899B890E94DE3470
:100890008B018C8B9B8BA3CEC701B6010E942F3698
:1008A0004ACF2F923F924F925F926F927F928F9298
:1008B0009F92AF92BF92CF92DF92EF92FF920F93EF
:1008C0001F93CF93DF93CDB7DEB764970FB6F8943D
:1008D000DEBF0FBECDBF8B018C8B9B8B80910E0A30
:1008E00090910F0AA091100AB091110A9C01AD01DC
:1008F00050582B833C834D835E834090D2095090A7
:10090000D3096090D4097090D5092B813C814D8129
:100910005E81B8018C899B890E94453787FF19C089
:1009200064960FB6F894DEBF0FBECDBFDF91CF91B6
:100930001F910F91FF90EF90DF90CF90BF90AF90FD
:100940009F908F907F906F905F904F903F902F90EF
:10095000089520E030E040E85FEBB8018C899B8986
:100960000E94553587FF6BC02B813C814D815E8194
:10097000B8018C899B890E94453718160CF05FC01E
:1009800020E030E040E85FE3B8018C899B890E9459
:10099000DD345B016C01A3019201B8018C899B8954
:1009A0000E94DE340E94C13561507109660F771FC5
:1009B000660F771FFB01E858F64F62A573A584A563
:1009C00095A50E94C13561507109660F771F660FAA
:1009D000771FAB01485B564F7A019501A601C30111
:1009E000B2010E94DE340E94C13561507109660F68
:1009F000771F660F771FFB01E858F64F62A573A5B6
:100A000084A595A50E94C13561507109660F771FB5
:100A1000660F771FFB01E85BF64F22A533A544A5BF
:100A200055A5D7019A966D917D918D919C919D9739
:100A30000E94553587FF03C08501CC8ADB8A20E000
:100A400030E040E05FE3B8018C899B890E94493720
:100A50006B017C0120E030E0A9010E94553587FF41
:100A6000B3C0C701B6010E9442354B015C01980139
:100A70004C895B89C301B2010E94DE346B017C01A9
:100A80000E94C13561507109660F771F660F771F8D
:100A9000FB01E858F64FF88BEF8722A533A544A554
:100AA00055A52F83388749875A87A5019401C3012B
:100AB000B2010E94DE344B015C010E94C1356150DD
:100AC0007109660F771F660F771FFB01E858F64F15
:100AD000FA83E98322A533A544A555A52B873C8736
:100AE0004D875E87CA01B9010E94C1356150710905
:100AF000660F771F660F771FFB01E15CF64F1F0142
:100B00009F01275F3F4F3A8B298B6F8178858985BD
:100B10009A850E94C13561507109660F771F660F73
:100B2000771FFB01E85BF64F22A533A544A555A529
:100B3000A989BA899A966D917D918D919C919D9785
:100B40000E94553587FFECCE2F81388549855A851F
:100B5000A981BA819A962D933D934D935C939D976D
:100B60002B853C854D855E85AF85B8899A962D93FA
:100B70003D934D935C939D97E981FA8162A573A59E
:100B800084A595A50E94C13561507109660F771F34
:100B9000660F771FFB01E055F64F82A693A6A4A629
:100BA000B5A6F101EF58FF4FC2A6D3A6E4A6F5A65D
:100BB00098014C895B89B8018C899B890E94DE343D
:100BC0008B018C8B9B8BA1CEC701B6010E942F3667
:100BD0004CCFCF92DF92EF92FF926B017C019F7717
:100BE00020E030E040E859E50E94553587FF2BC0F2
:100BF00020E030E040E05FE3C701B6010E944537E6
:100C000087FD0EC020E030E040E05FE3C701B601A1
:100C10000E94DE34FF90EF90DF90CF900C942F363F
:100C200020E030E040E05FEBC701B6010E944537AD
:100C3000181684F420E030E0A901C701B6010E9433
:100C400049376B017C01C701B601FF90EF90DF903F
:100C5000CF90089520E030E040E05FE3C701B601A7
:100C60000E94DD34FF90EF90DF90CF900C944235DE
:100C70002F923F924F925F926F927F928F929F92AC
:100C8000AF92BF92CF92DF92EF92FF920F931F939A
:100C9000CF93DF93CDB7DEB76D970FB6F894DEBF75
:100CA0000FBECDBF4AE15AE06BE279E087E299E0FE
:100CB0000E94CE32C0901E0AD0901F0AE090200AF7
:100CC000F090210AC701B6010E94F4352B013C01C6
:100CD00020911002309111024091120250911302A2
:100CE0000E94553587FFC5C1F7FCC3C1809008023B
:100CF00090900902A0900A02B0900B0220E030E030
:100D000040E85FE360910C0270910D0280910E0249
:100D100090910F020E94DD349B01AC01C301B2012E
:100D20000E94453787FDA9C110921E0A10921F0A22
:100D30001092200A1092210A20910402309105029B
:100D4000409106025091070260912709709128098D
:100D50008091290990912A090E944537181644F478
:100D60008090000290900102A0900202B0900302D5
:100D7000C501B4012EDF6B017C0120E030E040E8CA
:100D800053E40E9455356FEF87FF0EC020E030E03E
:100D9000A901C701B6010E94453760E087FD04C084
:100DA000C701B6010E94C6358DE05EDA80916909FF
:100DB00090916A09A0916B09B0916C090197A10506
:100DC000B10509F4BAC081E090E0A0E0B0E0809302
:100DD000690990936A09A0936B09B0936C09809399
:100DE0006D0980E3E2E7F9E0DF01282F1D922A95E3
:100DF000E9F7EAEDF9E0DF01282F1D922A95E9F7DE
:100E0000E2EAF9E0DF011D928A95E9F780E090E0DF
:100E1000A0E4B1E480936E0990936F09A0937009E8
:100E2000B09371098093D6099093D709A093D809FC
:100E3000B093D90980E090E0A0EEB0E48093D209AD
:100E40009093D309A093D409B093D50980E090E0A2
:100E5000A0EAB0E480930A0A90930B0AA0930C0ACC
:100E6000B0930D0A80E090E0A0ECB0E480930E0A0D
:100E700090930F0AA093100AB093110AE6E0FAE0EB
:100E8000FA83E983812C912CF0E4AF2EF1E4BF2E9C
:100E9000C12CD12CA0E8EA2EAFE3FA2E10E000E03E
:100EA000B801012E000C880B990B0E94F4359B01B0
:100EB000AC0160E070E080E491E40E94DD342B013D
:100EC0003C0120E030E040E050E40E9449360E94BE
:100ED000C135672B09F0DFC0A981BA81CD92DD92BF
:100EE000ED92FC92139720E030E040E85FE3C70109
:100EF000B6010E94DE346B017C01A981BA816D913B
:100F00007D918D919C910E94C13561507109660F50
:100F1000771F660F771FFB01E858F64F42A653A6CE
:100F200064A675A60F5F1F4FE981FA813497FA8393
:100F3000E9830C30110509F0B3CFC090D609D090E9
:100F4000D709E090D809F090D909C701B6010E94ED
:100F5000C13561507109660F771F660F771FFB015E
:100F6000E15CF64F83A994A9A5A9B6A989839A83C0
:100F7000AB83BC838090270990902809A090290911
:100F8000B0902A0983AA94AAA5AAB6AAE556FF4F4B
:100F900040805180628073804092330950923409BE
:100FA000609235097092360920E030E040E85FE356
:100FB000C701B6010E94DE346B017C01C092D609E4
:100FC000D092D709E092D809F092D90920E030E018
:100FD00040E85FE360916E0970916F09809170093C
:100FE000909171090E94DE349B01AC01C701B601EA
:100FF0000E94553581110CC080E090E0A0E8BFE36D
:101000008093D6099093D709A093D809B093D909B2
:101010008091D2099091D309A091D409B091D509BA
:101020008D839E83AF83B8879C01AD01C301B2015C
:101030000E9445372D813E814F81588518160CF04E
:1010400008C2C301B2010E94DD346B017C01298119
:101050003A814B815C81C501B4010E944537181665
:101060005CF5A7019601C701B6010E94DE3486DA5D
:1010700005C1812C912C540141CE2FEFC21AD20A06
:10108000E20AF20AC0921E0AD0921F0AE092200AD7
:10109000F092210A51CEE981FA8180829182A28266
:1010A000B38220E030E040E85FE3C501B4010E9474
:1010B000DD344B015C0121CF909137099E87A091CF
:1010C0003809AF87B0913909B88BE0913A09E98BBB
:1010D000F0913B09FA8B20913C092B8B30913D0913
:1010E0003C8B80913E098D8B20E030E0A901C70147
:1010F000B6010E94453718163CF18E859F85A88958
:10110000B9898093370990933809A0933909B0932E
:101110003A098A899B89AC89BD8980933B09909360
:101120003C09A0933D09B0933E0920E030E0A901BD
:10113000C701B6010E9455358111A0C060E070E082
:1011400080E89FEBAEDB9AC0A70196016D817E819E
:101150008F8198850E94DE344B015C010E94C1356D
:1011600061507109660F771F660F771FDB01A85862
:10117000B64FBD8FAC8F9A96BC91B983EC8DFD8D27
:10118000F3A5FB87AC8DBD8D9C96BC91BC87EC8D87
:10119000FD8DF5A5FD8769817B858B2F9F2F0E9493
:1011A000C1358B010150110920E030E040E05FE3E0
:1011B000C701B6010E9449370E942F366B017C019E
:1011C000AC019B016D817E818F8198850E94DE3408
:1011D0001B018E8B99870E94C13561507109660F82
:1011E000771F660F771F9B012858364F398F288F3E
:1011F000D9019A964D905D906D907C909D97000FCF
:10120000111F000F111F015C164FF8013996FB8F5B
:10121000EA8FC301B2010E94C13561507109660FA6
:10122000771F660F771FFB01E85BF64F22A533A5FA
:1012300044A555A5AA8DBB8D9A966D917D918D91F2
:101240009C919D970E94553587FDC4C08E859F85D2
:10125000A889B9898093370990933809A0933909EF
:10126000B0933A098A899B89AC89BD8980933B09EF
:1012700090933C09A0933D09B0933E09C090D209D8
:10128000D090D309E090D409F090D50920E030E067
:1012900040E85FE3C701B6010E94DD340E94C1351A
:1012A00061507109660F771F660F771FFB01EE55BE
:1012B000F64F60817181828193810E94C135DB018B
:1012C0001197AA0FBB1FAA0FBB1FA15CB64FBA8311
:1012D000A983C701B6010E94C13561507109660F2B
:1012E000771F660F771FFB01EE55F64F6081718106
:1012F000828193810E94C13561507109660F771F09
:10130000660F771FFB01E15CF64F23A934A945A9BD
:1013100056A9E981FA8163A974A985A996A90E94B1
:10132000DE3420E030E040E05FE30E944937609324
:101330002F097093300980933109909332094AE163
:101340005AE06BE279E087E299E00E941D336091F8
:1013500016037091170380911803909119036F5F22
:101360007F4F8F4F9F4F60931603709317038093A7
:101370001803909319030E94F2359B01AC01609110
:101380001A0370911B0380911C0390911D030E940E
:10139000493760931203709313038093140390935F
:1013A00015036D960FB6F894DEBF0FBECDBFDF916B
:1013B000CF911F910F91FF90EF90DF90CF90BF9052
:1013C000AF909F908F907F906F905F904F903F90E5
:1013D0002F900895EC8DFD8D42A653A664A675A6A8
:1013E00089819B85AC85BD85E88DF98D82A793A702
:1013F000A4A7B5A7AC8DBD8D9A966D917D918D9169
:101400009C919D970E94C13561507109660F771FAD
:10141000660F771FFB01E055F64F82A693A6A4A6A0
:10142000B5A6F801EF58FF4FC101AE89B98582A773
:1014300093A7A4A7B5A7B981BA8BEB85EB8BFC85E5
:10144000FC8B2D852D8B2E863F86A88B8985898BDD
:101450004BCEC301B2010E94553587FF6DC12D816E
:101460003E814F815885C301B2010E94DD346B017A
:101470007C0129813A814B815C81C501B4010E94C4
:10148000553587FF07C0A7019601C701B6010E9425
:10149000DE3458CE90913709988BA0913809A98BEA
:1014A000B0913909BA8BE0913A09EB8BF0913B0985
:1014B000FC8B20913C092D8B20903D0930903E09FA
:1014C00020E030E0A901C701B6010E94553587FD33
:1014D0002DC088899989AA89BB89809337099093FF
:1014E0003809A0933909B0933A098C899D89D101B3
:1014F00080933B0990933C09A0933D09B0933E092A
:10150000409233095092340960923509709236093D
:1015100020E030E0A901C701B6010E9455358111D4
:10152000ADCE60E070E080E89FE3A1CD20E030E048
:1015300040E05FE3C701B6010E9449372B013C013F
:1015400020E030E0A9010E94553520E030E040E085
:1015500050E887FF06C0C301B2010E9442359B01DB
:10156000AC016D817E818F8198850E94DE344B01B4
:101570005C010E94C13561507109660F771F660FCB
:10158000771FCB018858964F9B8F8A8FDC019A96E4
:10159000BC91B983FC01F3A5FB87DC019C96BC914F
:1015A000BC87FC01F5A5FD8769817B858B2F9F2F6B
:1015B0000E94C1359B01215031093A872987A70133
:1015C00096016D817E818F8198850E94DE348B012A
:1015D0008E879F870E94C13561507109660F771F02
:1015E000660F771FCB018858964F9F8B8E8BDC013F
:1015F0009A96CD90DD90ED90FC909D9769857A85C7
:10160000660F771F660F771FFB01E15CF64FFA87C5
:10161000E9873996F98FE88FC701B6010E94C13575
:1016200061507109660F771F660F771FFB01E85B3A
:10163000F64F22A533A544A555A5A88DB98D9A9638
:101640006D917D918D919C919D970E94553587FD5F
:1016500020C088899989AA89BB898093370990938A
:101660003809A0933909B0933A098C899D89D10131
:1016700080933B0990933C09A0933D09B0933E09A8
:1016800040923309509234096092350970923609BC
:10169000F5CDEA8DFB8DC2A6D3A6E4A6F5A6898179
:1016A0009B85AC85BD85EE89FF8982A793A7A4A7FA
:1016B000B5A7AA8DBB8D9A966D917D918D919C91C8
:1016C0009D970E94C13561507109660F771F660FA3
:1016D000771FFB01E055F64F82A693A6A4A6B5A6F8
:1016E000E985FA85EF58FF4FC801AE85BF8582A70F
:1016F00093A7A4A7B5A720E030E0A901C301B201D8
:101700000E945535C12CD12CE12C40E8F42E87FFE6
:1017100006C0C301B2010E9442356B017C01B98150
:10172000BC8BEB85ED8B2C843D84088B198BFE855F
:10173000FA8B2F852B8BC4CE20E030E0A90160917D
:101740000E0A70910F0A8091100A9091110A0E945E
:101750005535882329F060E070E080E89FEBA1D840
:1017600020E030E0A90160910A0A70910B0A809193
:101770000C0A90910D0A0E94453718160CF4D1CE30
:101780007DCDCF92DF92EF92FF92CF93DF93ECEF7C
:10179000F2E080E090E0A0E8BFEB82A393A3A4A3D3
:1017A000B5A38DEC9CECACECBDE3868F978FA0A32A
:1017B000B1A38EEC9AE7AEECBBEE84839583A6834F
:1017C000B78385E29FEEA6E1B3E680879187A28783
:1017D000B3878FE19CE2A9E5B2ED84879587A68760
:1017E000B7878BE394E7A1E3BCE5808B918BA28B59
:1017F000B38BA0EFB2E0B383A283E8EEF2E01196E0
:10180000FC93EE9385E392E09183808393838283BC
:10181000958384839783868380E193E015969C93D8
:101820008E93149780E093E013969C938E93129777
:1018300082E193E017969C938E9316978AE19AE043
:101840000E94CB32CFE3D9E010921A0A10921B0A01
:1018500010921C0A10921D0A1092120AC12CD12C4F
:101860007601C394C092130AD092140AE092150A2A
:10187000F092160A61E08DE00E942C0181E08093D5
:10188000170A1882C982DA82EB82FC82CEA2DFA21A
:10189000E8A6F9A61AA61BA61CA61DA68D83DF9195
:1018A000CF91FF90EF90DF90CF9008958091120A32
:1018B000811103C081E08093120A80913F09811158
:1018C00036C081E080933F098091400990914109A1
:1018D000A0914209B09143090197A105B10539F5DD
:1018E00080914409882319F18FEF9FEFDC018093E9
:1018F000650990936609A0936709B0936809809180
:10190000690990916A09A0916B09B0916C090197DE
:10191000A105B10561F482E090E0A0E0B0E0809321
:10192000690990936A09A0936B09B0936C090895B3
:101930004F925F926F927F928F929F92AF92BF92DF
:10194000CF92DF92EF92FF920F931F93F894409003
:101950002F03509030036090310370903203C09099
:101960002303D0902403E0902503F0902603452B19
:1019700009F0A6C09B01AC01241935094609570995
:1019800029013A0100912B0310912C0320912D0382
:1019900030912E0348015901840C951CA61CB71CDC
:1019A00080169106A206B306A0F4009127031091B9
:1019B00028032091290330912A030F5F1F4F2F4FD7
:1019C0003F4F00932703109328032093290330935C
:1019D0002A0380922B0390922C03A0922D03B092A5
:1019E0002E030091270310912803209129033091A1
:1019F0002A038092330390923403A0923503B0926D
:101A00003603009337031093380320933903309340
:101A10003A0360932F0370933003809331039093C4
:101A20003203A301920160EA76E881E090E00E942F
:101A30000A3D6C0D7D1D8E1D9F1D609323037093C9
:101A4000240380932503909326030091180210919C
:101A5000190220911A0230911B020F3F1F4F2F4F86
:101A60003F4FF1F0009118021091190220911A02D3
:101A700030911B020E3F1F4F2F4F3F4F89F0C090F8
:101A80001802D0901902E0901A02F0901B0221E097
:101A90008C149D04AE04BF0408F420E020933F039F
:101AA00078941F910F91FF90EF90DF90CF90BF90AF
:101AB000AF909F908F907F906F905F904F90089520
:101AC0004B015C0184189508A608B708A301920190
:101AD000261B370B480B590B6415750586059705B2
:101AE000E0F082169306A406B50640F420E030E04C
:101AF000A90181149104A104B104A1F460EA76E87B
:101B000081E090E00E940A3DA7019601261B370B59
:101B1000480B590BCA01B901C3CF82169306A4061C
:101B2000B50660F7A501940160EA76E881E090E0EF
:101B30000E940A3D6C0D7D1D8E1D9F1DB1CFF8CEFC
:101B4000CF93DF9300D01F92CDB7DEB71C821B82EC
:101B50001A82198210923B0310923C0310923D03AB
:101B600010923E03BE016F5F7F4FCE0103960E942D
:101B70005A2A69817A818B819C810E947C230097FB
:101B800061F4BE016F5F7F4FCE0103960E94662A0B
:101B900069817A818B819C812ED50F900F900F9057
:101BA0000F90DF91CF910895FF920F931F93CF93E2
:101BB000DF93082F60E070E0CB010E941B38FF2408
:101BC000F3940E946522EC01892B89F010E0CE3F4E
:101BD0008FEFD80769F0002361F160E070E0CB017E
:101BE0000E941B3881E090E0892B59F322C011E05C
:101BF00025D5EC01892B21F0CE3F8FEFD80759F77F
:101C000011111EC011E0229609F410E00E94152265
:101C1000EC01892B21F0CE3F8FEFD807E1F61111AF
:101C200011C011E0CE3F8FEFD80709F410E0011189
:101C30000BC0CE01DF91CF911F910F91FF900895BE
:101C400011E0E4CF11E0F3CF60E070E0CB010E943F
:101C50001B381F25812F90E0C7CFCF93DF93809152
:101C60003F03882321F060E070E0CB014CD635D6ED
:101C7000D0E0C0E0892B71F06AE070E080E090E095
:101C80000E941B3881E090DF28D62196C03D27E0D6
:101C9000D20781F727D60E94D023109257031092C3
:101CA0005603109250031092510310925203109257
:101CB000530310924C0310924D0310924E03109256
:101CC0004F03109248031092490310924A03109256
:101CD0004B03109244031092450310924603109256
:101CE0004703109240031092410310924203109256
:101CF00043034EEF5FEF6FEF7FEF40931802509377
:101D0000190260931A0270931B0210923F03E3E3DF
:101D1000F3E028E0DF011D922A95E9F710922F03E6
:101D200010923003109231031092320310922B0361
:101D300010922C0310922D0310922E031092270361
:101D4000109228031092290310922A031092230361
:101D5000109224031092250310922603DF91CF9155
:101D60000895109263031092640310926503109219
:101D700066031092620380916B0390916C039093C1
:101D800061038093600310925F0310925E031092D0
:101D90005A0310925B0310925C0310925D03109241
:101DA00068031092670390E080E00895CF92DF927D
:101DB000EF92FF920F931F93CF938C01892B09F021
:101DC00055C020916B0330916C038091600390911A
:101DD000610340916B0350916C03509361034093F6
:101DE00060032817390781F010925F0310925E0399
:101DF00010925A0310925B0310925C0310925D03E1
:101E0000109268031092670380916B0390916C03AA
:101E1000019761F58091670390916803892B21F404
:101E200080911C02811112C0809167039091680318
:101E30000197E1F480915A0390915B03A0915C03B8
:101E4000B0915D030197A105B10581F410925A0389
:101E500010925B0310925C0310925D0310921C02BF
:101E600082E090E0909368038093670380916B0316
:101E700090916C03019709F01CC1809181039091AE
:101E800082038017910709F014C180917D0390911E
:101E90007E03A0917F03B0918003009709F409C1EC
:101EA00020917C0321110DC040917D0350917E0350
:101EB00060917F0370918003452B462B472B09F4DB
:101EC000F8C020916703309168032230310509F092
:101ED000F0C020915E032111ECC0FC01C080D180D4
:101EE000E280F38080916203882309F4D3C080915B
:101EF0006E0390916F03892B09F4FDC020916E034E
:101F000030916F0381E02230310509F080E02091AB
:101F10006E0330916F03C1E02130310549F020910B
:101F20006E0330916F03C1E02230310509F0C0E04B
:101F3000882309F456C020917803309179034091A9
:101F40007A0350917B03C701B6010E94453787FD94
:101F500014C0209178033091790340917A03509115
:101F60007B0360916303709164038091650390919A
:101F700066030E94553587FD22C020917803309179
:101F8000790340917A0350917B03C701B6010E9407
:101F90004537181634F52091780330917903409134
:101FA0007A0350917B036091630370916403809185
:101FB0006503909166030E945535811112C080918E
:101FC000700390917103A0917203B0917303892BF8
:101FD0008A2B8B2B19F481E080935F0381E080933F
:101FE0005E03CC2309F456C0209178033091790325
:101FF00040917A0350917B03C701B6010E94553589
:1020000087FF14C0209178033091790340917A03BF
:1020100050917B0360916303709164038091650329
:10202000909166030E94453787FF22C02091780374
:102030003091790340917A0350917B03C701B60137
:102040000E945535811126C0209178033091790383
:1020500040917A0350917B03609163037091640314
:1020600080916503909166030E944537181694F499
:102070008091700390917103A0917203B0917303EA
:10208000892B8A2B8B2B19F481E080935F0381E0ED
:1020900080935E0381E090915E03911180E08093D4
:1020A0006203C0926303D0926403E0926503F092EE
:1020B0006603012B09F067C1809167039091680363
:1020C000892BD9F410926D0310925E0380911C024B
:1020D000882379F082E090E090936803809367030F
:1020E00010921C0220916B0330916C0381E0232B32
:1020F000E9F080E01BC081E00ACF10921C028091C1
:102100006D03882349F010925F03109268031092C8
:10211000670310926D03EDCF80916B0390916C0378
:10212000892BE1F080915E0310925E03209167039A
:10213000309168032230310509F45EC088F421151E
:10214000310509F448C02130310509F4F3C010927B
:102150005F0310925E0310926D0338C081E0E6CFFA
:102160002330310509F4B1C02430310581F74091A5
:102170005A0350915B0360915C0370915D034115BC
:1021800051056105710561F04150510961097109FD
:1021900040935A0350935B0360935C0370935D0319
:1021A00040915A0350915B0360915C0370915D0311
:1021B000452B462B472BD9F42091690330916A03B4
:1021C0002130310509F046C010925F031092680378
:1021D000109267030CC080911C02882341F082E0BA
:1021E00090E0909368038093670310921C02109212
:1021F000580380915F03CEC08823C9F38091700398
:1022000090917103A0917203B0917303181619068F
:102210001A061B060CF07DC080916B0390916C0335
:10222000019709F076C08091700390917103A0919D
:102230007203B091730380935A0390935B03A0934E
:102240005C03B0935D0383E090E090936803809318
:102250006703CDCF4091740350917503609176036D
:1022600070917703452B462B472BA9F010925F0303
:102270008091740390917503A0917603B0917703D8
:1022800080935A0390935B03A0935C03B0935D0328
:1022900081E090E0DACF882399F080911D0290913F
:1022A0001E02A0911F02B091200280935A039093C6
:1022B0005B03A0935C03B0935D0384E090E0C5CF23
:1022C00010925F0382E090E0C0CF80915A0390911A
:1022D0005B03A0915C03B0915D030097A105B1057C
:1022E00059F00197A109B10980935A0390935B03B8
:1022F000A0935C03B0935D0380915A0390915B03BC
:10230000A0915C03B0915D03892B8A2B8B2B09F084
:102310006ECF80911D0290911E02A0911F02B0917C
:102320002002892B8A2B8B2B09F44ECF81E08093DE
:102330005F03B3CF40915A0350915B0360915C03FC
:1023400070915D03411551056105710561F04150C2
:1023500051096109710940935A0350935B036093DB
:102360005C0370935D0340915A0350915B0360914D
:102370005C0370915D03452B462B472B09F037CF4B
:102380008111C7CF9FCF80915803882309F431CFA3
:1023900080915903CF911F910F91FF90EF90DF90A3
:1023A000CF90089510926303109264031092650316
:1023B00010926603109262031092680310926703F2
:1023C00010926103109260031092820310928103B5
:1023D00010925F0310925E0310925A0310925B03F7
:1023E00010925C0310925D031092590310925803EF
:1023F00010927D0310927E0310927F03109280034F
:1024000010927C03109278031092790310927A0351
:1024100010927B0388EE93E0A0E0B0E080931D0271
:1024200090931E02A0931F02B09320021092740397
:102430001092750310927603109277031092700336
:1024400010927103109272031092730310926F0333
:1024500010926E0381E080931C0210926D03109223
:102460006C0310926B0310926A031092690390E060
:1024700080E0089580916B0390916C03892B19F58E
:1024800080911C02882351F080916D03811106C058
:1024900081E08093590380935803089520916D0340
:1024A00030911C0281E090E0332311F090E080E055
:1024B00030E082239323892B21F01092590381E08D
:1024C000EACF10925803089582E090E0FA019183D8
:1024D00080838FEF9FEF0895CF93DF93EA010097FA
:1024E00011F00E94FE241982188290E080E0DF91B2
:1024F000CF910895DB01009719F48FEF8C93089525
:102500002EEF2C93FC013F96EF30F10508F034C01C
:102510008827E257FD4E8F4F0C943B3DBA12B812FC
:10252000B612B412B212AE12B012AC12AA12A812A3
:10253000A512A1129D12A312BC1280E311968C93D6
:10254000089589E2FBCF82E2F9CF11961C9208959B
:1025500083E2F4CF81E2F2CF81E1F0CF87E2EECFE8
:102560008AE2ECCF80E1EACF84E2E8CF88E2E6CFEE
:1025700086E2E4CF81E3E2CF80E2E0CF80918F0377
:102580009091900308959093900380938F03089502
:1025900080918E03089590918E03892B80938E03F2
:1025A0000895982F909580918E03892380938E03B0
:1025B000089580918D03089580918B0390918C03F1
:1025C00008956115710559F0FB0130E020E070E0DD
:1025D00060E02417350719F06115710511F0CB0182
:1025E0000895A081B181A817B90709F4BF012F5F31
:1025F0003F4F3696EECF8091910381111CC060D27F
:1026000066D290938403809383030E94FE1C0E94F1
:10261000101D90938803809387030E947D210E9460
:102620008421909386038093850381E080939103B6
:1026300090E080E0089584EF9FEF08958F929F923D
:10264000AF92BF92CF92DF92EF92FF920F931F93C0
:10265000CF93DF9300D000D000D01F92CDB7DEB76C
:102660001A86198618861F821E821D821C821B8272
:102670001A8219828091910307EF1FEF882309F4D2
:102680009CC08E010D5F1F4F9E012B5F3F4FAE011F
:10269000495F5F4FBE01675F7F4F90E080E00E941F
:1026A00001238C01009721F00596029708F0DBC00A
:1026B00029853A852115310509F402C1ED80FE8096
:1026C0004B815C81B701640F751F8F8198858617D8
:1026D000970708F4F5C0E20EF31ED7019C91903CD9
:1026E00009F07FC04230510508F47BC011968C91EF
:1026F00040918F0350919003452B09F49CC0913F6A
:1027000008F071C02CE1290F2D3008F48BC02DE2A8
:10271000290F203108F489C0903C21F48150823087
:1027200008F483C088E3890F8B3008F481C09AE7EE
:10273000C92E92E1D92EE4E6F2E16D817E81AE01EF
:102740004F5F5F4F89859A8519955C01C114D1044B
:10275000A1F189809A808114910479F18B819C8107
:102760008815990508F487C010E000E04B815C8172
:1027700070E060E0C7010E94653D01151105E9F4B4
:1027800049815A8169857A858D819E81680F791F7B
:10279000C501F6011995E980FA800D811E812F810E
:1027A000388549855A856FEF7FEF81E090E00E9480
:1027B0009C228C01892B09F056C0C8012A960FB6BD
:1027C000F894DEBF0FBECDBFDF91CF911F910F9167
:1027D000FF90EF90DF90CF90BF90AF909F908F9041
:1027E000089580E085CF30E020E0220F331FF9010B
:1027F000ED57FC4F0190F081E02D309709F497CF11
:10280000892F90E01995009709F491CFDC01129679
:10281000ED91FC9113971496CD90DC90309709F0D0
:102820008CCF1FC021E030E0E0CF22E030E0DDCFF0
:1028300023E030E0DACFD12CC12CECE6F2E19F3F6F
:1028400009F07BCFE0918303F0918403309721F46A
:10285000C90104EF1FEF0CC08FEF90E019950097AE
:10286000A9F604EF1FEF89859A85009709F4A5CF93
:102870000E94FE24A2CF0E94CB238C0189859A85D9
:102880000E94FE2470E060E0C4010E9464239887E7
:102890008F830E9499229E838D836F817885611535
:1028A000710559F0C8010E948A269A87898706EF28
:1028B0001FEF892B09F058CF59CF08EF1FEF56CFE4
:1028C00008EF1FEFD0CF20919103222319F020E0D1
:1028D0000C94151D87EF9FEF089580918F039091C1
:1028E000900308950E9489210E94E320F5D0E3E837
:1028F000F3E088E0DF011D928A95E9F710929103D9
:1029000090E080E008950C94431F21E040E050E007
:10291000BA010C94151D86E090E0FA019183808342
:1029200090E080E0089547E050E068E372E049CE2F
:10293000DF92EF92FF920F931F93CF93DF938A0161
:10294000EC01C60FD71FE0909503F0909603D98055
:102950000E94B323D816190678F082E090E0F801BF
:10296000918380838EEF9FEFDF91CF911F910F9125
:10297000FF90EF90DF900895EF2841F482E090E01F
:10298000F8019183808384EF9FEFEECF898180935C
:10299000940390E00196F8019183808390E080E0B9
:1029A000E3CFCF93DF93EA010E94F41F882321F045
:1029B0000E94C0230E94F51F82E090E099838883E3
:1029C0008BEF9FEFDF91CF910895CF93DF93EB01D2
:1029D00086E0FB0111928A95E9F78FEF8883D8DDB5
:1029E0008983E7DD8A83E8DD9D838C83DF91CF9146
:1029F0000895CF93DF93EA010E94F71F811109C068
:102A000082E090E09983888385EF9FEFDF91CF91FB
:102A1000089590E080E0B7DD81E090E099838883BD
:102A200090E080E0F3CF0F931F93CF93DF93EA0101
:102A30008C01060F171F0E94F71F81110BC082E047
:102A400090E09983888385EF9FEFDF91CF911F916D
:102A50000F910895F8018181823038F082E090E092
:102A6000998388838EEF9FEFF0CF81E090E08BDD3C
:102A700088E090E09983888390E080E0E6CFCF9370
:102A8000DF930097D1F4EB01FB01329686E0DF0182
:102A90001D928A95E9F78FEF888385E089831A82F2
:102AA0000E94B3238B830E94B2239D838C8381E099
:102AB0008E838F83DF91CF910895DF91CF911ACDCF
:102AC00083E994E190939303809392030895809116
:102AD000920390919303089510929303109292039E
:102AE000089580919503909196030895411105C032
:102AF000611571058105910561F0609395037093EF
:102B0000960380939703909398034093990381E0F1
:102B1000089580E00895FF920F931F93CF93DF9362
:102B20008A01EC01C60FD71FF9800E94B323F81663
:102B3000190668F082E090E0F801918380838EEFBF
:102B40009FEFDF91CF911F910F91FF9008956C81BE
:102B50007D818E819F814B81C9DF811108C082E018
:102B600090E0F8019183808384EF9FEFEACF898121
:102B70008093940390E00196F8019183808390E024
:102B800080E0DFCFCF93DF93EA01FC01E60FF71F70
:102B900064817581868197814381A8DF811109C095
:102BA00082E090E09983888384EF9FEFDF91CF915B
:102BB000089581E090E09983888390E080E0F6CFEB
:102BC000E5E9F3E04081518162817381480F511D35
:102BD000611D711D40835183628373830895CF9378
:102BE000C09194034C2F50E060919503709196032F
:102BF00001960E945C3D8C2FE3DF10929403CF91ED
:102C00000895009799F480919503909196032FEF82
:102C1000FB012083892B59F02091940330E02F5F32
:102C20003F4F2417350719F4CB01D9CF63CC089552
:102C3000009799F480919503909196032FEFFB01F3
:102C40002083892B59F02091940330E02F5F3F4F70
:102C50002417350719F4CB01C2CF4CCC089523E1DA
:102C6000AC01249FC001259F900D1124E0919E038B
:102C7000F0919F03E80FF91F23813481225031091D
:102C800081E02230310508F080E008950F931F9312
:102C9000CF93DF930091A0031091A103D0E0C0E097
:102CA00080E00C171D0749F491E0811190E0892F15
:102CB000DF91CF911F910F9108958111F5CFCE0132
:102CC000CEDF2196EECFA0919E03B0919F03109787
:102CD00029F12091A0033091A10382179307F0F40A
:102CE00053E1589F9001599F300D1124A20FB31F3B
:102CF000ED91FC911197309789F012968C9168179D
:102D000068F48BE0689FE00DF11D112480819181B2
:102D1000892B21F081E09281491708F080E0089525
:102D20009C0143E1429FC001439F900D1124E0911B
:102D30009E03F0919F03E80FF91F8385823091F481
:102D400081E090E0658176814091210250912202DC
:102D50006417750711F490E080E0892B19F081E089
:102D6000232B09F080E00895EF92FF920F931F93B9
:102D7000CF93DF93EA01FC01E60FF71F0281138175
:102D8000E480F5804F2D6E2DC8019DDF81110DC0AF
:102D900082E090E0998388838EEF9FEFDF91CF915F
:102DA0001F910F91FF90EF900895C80158DF88237D
:102DB00039F082E090E09983888388EF9FEFEECF2F
:102DC0001093280200932702E0922902F0922A022F
:102DD00081E090E09983888390E080E0DFCFCF921C
:102DE000DF92EF92FF920F931F93CF93DF937A01BD
:102DF000EC01C60FD71FC0902702D0902802009187
:102E0000290210912A02412F602FC6015CDF811137
:102E100010C082E090E0F701918380838AEF9FEFFA
:102E2000DF91CF911F910F91FF90EF90DF90CF90A6
:102E30000895C60114DF882341F082E090E0F70195
:102E40009183808388EF9FEFEBCF4C815D816E8112
:102E50007F819A8189818F3F41F082E090E0F70184
:102E6000918380838EEF9FEFDBCFE3E1EC9D9001B8
:102E7000ED9D300D1124E0919E03F0919F03E20F30
:102E8000F31F0190F081E02D2BE0029FE00DF11D7A
:102E900011240190F081E02D27E0129FE00DF11D3B
:102EA0001124808391838B81828343835483658340
:102EB00076831F5F10932A0281E090E0F7019183EF
:102EC000808390E080E0ACCFEF92FF920F931F934E
:102ED000CF93DF937A018C01060F171FC0919E03D9
:102EE000D0919F03209781F021E030E0F8018281AA
:102EF00093814091A0035091A1038417950710F08E
:102F000030E020E0232B71F482E090E0F701918320
:102F100080838EEF9FEFDF91CF911F910F91FF90F4
:102F2000EF90089543E1489F9001499F300D11248F
:102F3000C20FD31F94DE882341F082E090E0F701B6
:102F40009183808388EF9FEFE6CFF801248135815C
:102F500020383105C8F687818111D6CF4181842F71
:102F600090E08F7E009741F082E090E0F70191833E
:102F7000808386EF9FEFCFCF4F833E832D832681C3
:102F800028871986223010F421E0288721E030E0DC
:102F9000F70131832083BFCF88E090E0FA0191836D
:102FA000808390E080E00895FB018FEF808381E1D2
:102FB00081838FEF9FEF9383828380E890E09583F6
:102FC0008483168217820895FB018FEF808391E03E
:102FD000918382839383848384E3858381E090E07B
:102FE000978386830895DF92EF92FF920F931F934A
:102FF000CF93DF93EA01FC01E60FF71F8181813057
:1030000071F082E090E0998388838FEF9FEFDF91EA
:10301000CF911F910F91FF90EF90DF9008958281E3
:103020009381D4802581E680F78000919E031091E2
:103030009F030115110539F482E090E0998388839C
:103040008CEF9FEFE4CF4091A0035091A103841730
:10305000950738F082E090E0998388838EEF9FEFA8
:10306000D6CF892B39F082E090E09983888386EF70
:103070009FEFCDCF8D2D8D7FB1F72130A1F781E06E
:10308000D11006C091E0E916F10431F080E004C0EF
:10309000E2E0EE16F104D0F3882329F390E080E01B
:1030A000DEDD882339F082E090E09983888388EF21
:1030B0009FEFADCFF801D38681E08487F686E58661
:1030C000108A178681E090E09983888390E080E001
:1030D0009ECF4CE050E062E672E073CA8F929F92FE
:1030E000BF92CF92DF92EF92FF920F931F93CF93F5
:1030F000DF93EA01FC01E60FF71F828193810481CF
:10310000B580E0919E03F0919F03309791F482E0A7
:1031100090E0998388838CEF9FEFDF91CF911F918F
:103120000F91FF90EF90DF90CF90BF909F908F9086
:1031300008952091A0033091A1038217930738F0DE
:1031400082E090E0998388838EEF9FEFE6CF23E1C2
:10315000289F6001299FD00C1124EC0DFD1DE080FB
:10316000F180E114F10499F28281081748F78BE0AD
:10317000089F80011124E00EF11EF70180819181EA
:10318000892B29F6BB20E1F2F7E0BF9E4001112414
:10319000C4010E94B024F70191838083E0919E03D3
:1031A000F0919F03EC0DFD1D0190F081E02DE00FEB
:1031B000F11F80819181009739F482E090E099833A
:1031C00088838DEF9FEFA9CFA40170E060E00E949B
:1031D000653D80919E0390919F03C80ED91EF60114
:1031E00080819181080F191FF801B28281E090E07F
:1031F0009983888390E080E090CFAF92BF92CF9286
:10320000DF92FF920F931F93CF93DF93EA01FC01AC
:10321000E60FF71F82819381F48000919E03109145
:103220009F030115110581F482E090E09983888362
:103230008CEF9FEFDF91CF911F910F91FF90DF9067
:10324000CF90BF90AF9008952091A0033091A1033B
:103250008217930738F082E090E0998388838EEF9D
:103260009FEFE8CF2FEF2F0D2C3FA8F723E1289FEA
:103270006001299FD00C11240C0D1D1DF8018081C7
:103280009181892B89F6FBE0FF9E50011124C50135
:103290000E94B024F80191838083E0919E03F09115
:1032A0009F03EC0DFD1D80819181009739F482E030
:1032B00090E0998388838DEF9FEFBCCFA50170E0EC
:1032C00060E00E94653DE0919E03F0919F03EC0D4C
:1032D000FD1DF28281E090E09983888390E080E098
:1032E000A9CFCF92DF92EF92FF920F931F93CF93CC
:1032F000DF93860F971FFC010281138180919E034B
:1033000090919F03892B81F082E090E0FA019183F4
:1033100080838CEF9FEFDF91CF911F910F91FF90F2
:10332000EF90DF90CF900895C801B0E0A0E0019742
:10333000A109B1098F3F9F4FA105B10540F082E07F
:1033400090E0FA01918380838EEF9FEFE4CF7A01C2
:1033500083E1809F6001819FD00C1124C6010E94EF
:10336000B024EC01009741F482E090E0F7019183F2
:1033700080838DEF9FEFCFCFA60170E060E00E94C9
:10338000653DD0939F03C0939E031093A1030093C8
:10339000A00390E080E02FEF3FEF41E061E070E0BC
:1033A0008017910741F481E090E0F70191838083D9
:1033B00090E080E0B0CF3A8B298B1B864C877E87CC
:1033C0006D87188A1F8601966396EACFCF92DF92A7
:1033D000EF92FF920F931F93CF93DF93EC01D12CC9
:1033E000C12C10E000E0F12CE12C6A81601711067D
:1033F00009F0CCF483E0689FB0011124AE014F5E68
:103400005F4FC7010E942A25009721F02FEF3FEF61
:103410003A8B298BDF91CF911F910F91FF90EF9005
:10342000DF90CF900895E881F981EC0DFD1D438177
:1034300054818D859E85489F9001499F300D589FEE
:10344000300D1124C90101960115110519F44F81A0
:1034500044FD049661E070E00E946423E816F906DA
:1034600008F47C010F5F1F4F8BE0C80ED11CBDCF4D
:10347000F89420919C0330919D0381E02115310542
:1034800009F080E0232B09F0789408952F923F9261
:103490004F925F926F927F928F929F92AF92BF9264
:1034A000CF92DF92EF92FF920F931F93CF93DF9310
:1034B0003C01660E771EF301828193814C01B12C91
:1034C000A12CC0919E03D0919F03209769F021E029
:1034D00030E06091A0037091A1038617970710F068
:1034E00030E020E0232BD1F482E090E0FA019183D8
:1034F00080838EEF9FEFDF91CF911F910F91FF900F
:10350000EF90DF90CF90BF90AF909F908F907F9083
:103510006F905F904F903F902F90089580922B0274
:1035200090922C02A0922D02B0922E0263E1689F2D
:103530009001699F300D1124C20FD31FF3018181C7
:10354000833040F082E090E0FA019183808386EF3F
:103550009FEFD1CF2A012B813C81232BF1F42881CD
:1035600039819F8191FF2EC0232B09F46FC02091D8
:10357000A3039A81422F490F5527551FBA0141E0F5
:1035800050E06138710514F050E040E0452B09F43B
:103590005DC02A87920F9093A3038150823008F474
:1035A00081C066DF882309F4D6C0F30181818130B0
:1035B00009F48DC008F47BC0823009F4C4C090E0E7
:1035C00080E0ADC0232B09F441C02091A2039A8171
:1035D000E22FE90FFF27FF1F41E050E0ED3FF1052B
:1035E00014F050E040E0452B89F12A87920F909328
:1035F000A203D3CFA081B181A20FB31F11966C910A
:10360000060F111D0196295F3F4F8417950794F30C
:103610008D859E85089F1001099F300C189F300CE6
:103620001124C114D104D1F48F8184FF17C00E94EA
:10363000B223F5E02F0E311C21E08215930508F42A
:1036400020E0A701455F5F4F21110EC082E090E0AE
:10365000F2019183808387EF9FEF4DCF0E94B223C9
:103660002FEF221A320AE8CF88819981E80EF91EDD
:10367000F70114830383FFEFCF1ADF0A7A018A81EF
:103680008C151D0409F00CF48CCFE881F981EE0D46
:10369000FF1D428150E030E020E010E000E090E0CB
:1036A00080E0B3CFF12CE12CD12CC12CE8CF81E00C
:1036B00090E09C838B83EADA882309F480CF81E051
:1036C00090E00E94C31280E40E94D11278CF8989D1
:1036D0009A89019661F083E090E09C838B8382E07D
:1036E00090E00E94C31280E40E94CB1268CF2D812B
:1036F0003E81809121029091220228173907D1F44E
:103700006091250270912602AE014F5E5F4F80915D
:103710002302909124020E9449260097E1F27894B6
:1037200022E030E0F20131832083892B89F08DEF94
:103730009FEFE1CE89288A288B2869F6CE0146DEE4
:10374000188A1F86EACF82E090E09C838B8337CF74
:1037500090E080E0D0CE82E090E0F201918380831F
:1037600085EF9FEFC8CE8F929F92AF92BF92CF927C
:10377000DF92EF92FF920F931F93CF93DF93EA01B3
:103780008C01060F171FF8018181833098F082E0C9
:1037900090E09983888386EF9FEFDF91CF911F910F
:1037A0000F91FF90EF90DF90CF90BF90AF909F90E0
:1037B0008F90089580919E0390919F03892B61F0D3
:1037C00081E090E02091A0033091A103232B11F41C
:1037D00090E080E0892B39F482E090E0998388833F
:1037E0008EEF9FEFDACF44DE882309F4DDC0F801C5
:1037F0008181813009F493C0E8F0823099F42091FE
:10380000A0033091A103E0919E03F0919F0390E00B
:1038100080E041E050E02817390709F0BBC036DAF4
:10382000811117C0789481E090E09983888390E0BB
:1038300080E0B3CF2091A0033091A103E0919E03DB
:10384000F0919F0390E080E041E050E028173907B5
:1038500041F481E090E00E94C31280E40E94D11202
:10386000E1CF63817481672B11F054834383019608
:103870007396ECCFE0919E03F0919F03E00FF11F50
:103880002381348122303105D9F4218932892F3FB7
:103890003F4FB1F44581568120912102309122029F
:1038A0004217530761F5AF014F5E5F4F60912502EC
:1038B0007091260280912302909124020E94492651
:1038C000EFEFCE1ADE0AEE0AFE0A0D5E1F4F4091A0
:1038D000A0035091A10370E060E0C416D506E6068F
:1038E000F7062CF5009731F27894892B09F49BCFD9
:1038F00082E090E0998388838DEF9FEF4ECFC114D3
:10390000D104E104F104E1F6CF0160DDE0919E0312
:10391000F0919F03E00FF11F108A1786D1CF10E0BE
:1039200000E090E080E0C12CD12C7601D0CF009750
:10393000D9F610E000E0812C912C540183E0E82EB0
:10394000F12C1AC0E0919E03F0919F03E00FF11F4C
:1039500083819481029749F4F482E38282E090E0CB
:103960000E94C31280E40E94CB12FFEF8F1A9F0ABD
:10397000AF0ABF0A0D5E1F4F8091A0039091A10373
:10398000B0E0A0E088169906AA06BB06DCF290E03B
:1039900080E0AACF638174816230710511F4548391
:1039A00043830196739637CF82E090E099838883B2
:1039B00085EF9FEFF2CE0097B9F48FEFFB01808384
:1039C00020912B0230912C0243E1429FC001439F82
:1039D000900D1124E0919E03F0919F03E80FF91FD1
:1039E0008285FB01818308950C947A1288E090E02F
:1039F000FA019183808390E080E0089510929D0306
:103A000010929C03EEE9F3E086E0DF011D928A95B7
:103A1000E9F789E698E190939B0380939A030895D0
:103A200080919A0390919B0308952F923F924F9219
:103A30005F926F927F928F929F92AF92BF92CF923E
:103A4000DF92EF92FF920F931F93CF93DF93CDB747
:103A5000DEB760970FB6F894DEBF0FBECDBFF89407
:103A6000E0919C03F0919D033196F0939D03E093C8
:103A70009C037894A0919E03B0919F03BA83A9837D
:103A8000109709F4FAC1E091A003F091A103EF2B84
:103A900009F4F3C128874B875C876D877E879A87F7
:103AA0008987B88BAF87312C212CF12C512C412CDC
:103AB0008091A0039091A1032816390610F4FF20ED
:103AC00029F1F89480919C0390919D030197909324
:103AD0009D0380939C037894C20160960FB6F8947E
:103AE000DEBF0FBECDBFDF91CF911F910F91FF9031
:103AF000EF90DF90CF90BF90AF909F908F907F908E
:103B00006F905F904F903F902F900895B10190E09B
:103B100080E086D4682EEF85F889878181FD3DC0DD
:103B2000838194810397C9F5258136813C832B835A
:103B300089859A852817390781F5C101F1D8782E32
:103B40008823A9F1AF85B8891F968D919C915097D4
:103B5000019621E01D964D915C918417950709F01F
:103B600020E02F83B12CA12CEF85F88982818A1562
:103B70001B0419F014F0FF20E9F0F885FF2309F485
:103B80006CC1AF85B88950961C921E921F97662013
:103B900021F0B10190E080E045D4FFEF2F1A3F0AF9
:103BA0002F8538892D5E3F4F388B2F8781CFB1E02D
:103BB000BF83D8CFBED49E838D83E885EE23E9F002
:103BC000772009F43CC1AF85B8891F968D919C91EF
:103BD000892B79F0BBE0BA9DC001BB9D900D1124EB
:103BE000AF85B889ED91FC91E80FF91F8581968129
:103BF00005D7BFEFAB1ABB0AB7CF81E0772039F00A
:103C0000EF85F88927853089232B09F080E0F82E8D
:103C1000E12CA114B10439F4AF85B8891796EC9062
:103C2000E4FAEE24E0F8BBE0BA9D6001BB9DD00C45
:103C30001124882309F424C1AF85B889ED91FC9142
:103C40001197EC0DFD1D438154811D962D913C91E2
:103C5000429FC001439F900D529F900D1124E1108F
:103C60005DC001969087878361E070E087819085D1
:103C70002BD5EF85F88921893289008111810C0DBE
:103C80001D1D2F3F320709F44BC0BC01C9010E9422
:103C90008A26D80116969C938E931597AF85B8897E
:103CA000ED91FC911197EC0DFD1D0581168101151B
:103CB000110509F4CDC0ED81FE810E0F1F1F1A966C
:103CC0008C918A0DD8018C93E1102FC00F5F1F4F8C
:103CD000AF85B889ED91FC91EC0DFD1D1287018730
:103CE000AF85B889ED91FC91EC0DFD1D8581968124
:103CF000892B09F4A4C080912102909122022B818A
:103D00003C812817390709F465C0772011F0018537
:103D10001285912C812C1A8219824AC00596A2CF55
:103D20001FD6F80196838583B9CF8B859C85AD8599
:103D3000BE85F80181839283A383B4830B5F1F4FF9
:103D4000C7CFE080F180E80CF91CD70113966D9184
:103D50007C9114978C918F3F09F473C0E1E0F0E0FF
:103D600002C0EE0FFF1F8A95E2F7CF01092E000C6B
:103D7000AA0BBB0BFB0140815181628173818423BB
:103D80009523A623B72321E0892B8A2B8B2B09F4BB
:103D900020E0D8012C93D70111968C91080F111DAA
:103DA000E981FA813196FA83E983F7E08F0E911C5D
:103DB000AF85B889ED91FC91EC0DFD1D82812981C3
:103DC0003A818217130611F00CF0BBCF772011F067
:103DD000128701873F81332391F1AF85B889ED9137
:103DE000FC91EC0DFD1D61E070E0878190856CD445
:103DF000AF85B889ED91FC91EC0DFD1DE780F08455
:103E000045815681E1E0F0E0662011F0F0E0E0E06D
:103E10000D811E819C01B101882799278E1B9F0B64
:103E20008BD32C01892B59F0EF85F8898081918102
:103E3000C80ED91ED60115968D919C91DFD5F12C17
:103E4000D8CEF701418150E0C8010E945C3DA3CF6C
:103E500086EF482E55245A94CCCEEF85F889878575
:103E600090890196908B87872585368582179307E1
:103E700009F08DCE108A17868ACE512C412C21CE86
:103E800010E000E02DCF2F923F924F925F926F9201
:103E90007F928F929F92AF92BF92CF92DF92EF92DA
:103EA000FF920F931F93CF93DF9380919E03909186
:103EB0009F0310E000E0892BA9F0DADA0AEF1FEF88
:103EC000882381F02090A0033090A103C0919E032D
:103ED000D0919F03D12CC12C10E000E02C143D04A4
:103EE000A9F47894C801DF91CF911F910F91FF90B1
:103EF000EF90DF90CF90BF90AF909F908F907F908A
:103F00006F905F904F903F902F900895C6010E9450
:103F10009016882309F18B819C810397E9F48F85A2
:103F20009889892BC9F0B60190E080E079D221E030
:103F300030E0882311F030E020E044245524421A78
:103F4000530AB12CA12C912C812C8A81881519043B
:103F500009F038F4188A1F864FEFC41AD40A639602
:103F6000BDCFE881F981EA0DFB1D85819681892B02
:103F7000A1F161E070E087819085A6D33C01D9D2A0
:103F80008C01E881F981EA0DFB1D818592852581EF
:103F90003681200F311FAC01421B530B9A01478120
:103FA0005085421B530B70E060E00E94653DE88144
:103FB000F981EA0DFB1DE780F0844581568193016C
:103FC000B601C201B9D28C01892B39F0E881F9819F
:103FD000EA0DFB1D8581968111D55FEF851A950A43
:103FE0008BE0A80EB11CB1CF43CA789408952F92EC
:103FF0003F924F925F926F927F929F92AF92BF9249
:10400000CF92DF92EF92FF920F931F93CF93DF93A4
:1040100000D000D0CDB7DEB700919E0310919F0372
:10402000992493940115110509F43EC0A090A003B2
:10403000B090A1031DDA982E8823B1F110929F034E
:1040400010929E031092A1031092A0031092A2035B
:104050001092A3038FEF9FEFDC0180932B029093CC
:104060002C02A0932D02B0932E0278947DD31E8350
:104070000D83C12CD12C7601C501B0E0A0E089836D
:104080009A83AB83BC8322242A94322C89819A811F
:10409000AB81BC81C816D906EA06FB06F4F0C8015C
:1040A000ADD480E40E94D112892D26960FB6F894E3
:1040B000DEBF0FBECDBFDF91CF911F910F91FF905B
:1040C000EF90DF90CF90BF90AF909F907F906F90D8
:1040D0005F904F903F902F900895AD81BE811596CF
:1040E0002D913C91169780912102909122022817E0
:1040F0003907D1F451968D919C91FAD5ED81FE81CD
:1041000080819181B12CA12C412C512C3201892B21
:1041100079F5BFEFCB1ADB0AEB0AFB0AED81FE81D2
:104120007396FE83ED83B2CFC114D104E104F10490
:1041300029F7ED81FE81818992898F3F980709F0E7
:1041400037D5AD81BE8152963C922E925197D6CFF3
:104150008A0D9B1DDC018D919C91009709F04ED436
:10416000BFEF4B1A5B0A6B0A7B0AEBE0AE0EB11C89
:10417000AD81BE818D919C91119712964C9150E02A
:1041800070E060E044165506660677060CF336D4F8
:10419000C0CFCF93DF93EA012ADF811109C082E00B
:1041A00090E09983888385EF9FEFDF91CF91089509
:1041B00081E090E00E94C31281E090E099838883BF
:1041C00090E080E0F2CF13DF10929B0310929A03ED
:1041D000089542E050E06AEA72E00C94E112FF9226
:1041E0000F931F93CF93DF938A01EC01C60FD71F64
:1041F000F980B9D20897F816190671F068F082E0D4
:1042000090E0F801918380838EEF9FEFDF91CF9153
:104210001F910F91FF9008956C817D818E819F8108
:104220004B810E947615811108C082E090E0F80170
:104230009183808384EF9FEFE9CFF9800E9471150D
:104240004F2D50E0BE01685F7F4F0E945C3D898129
:104250000E94E01581E090E0F8019183808390E076
:1042600080E0D4CFDF92EF92FF920F931F93CF9312
:10427000DF938A01EC01C60FD71F0E9471157C01E4
:10428000D98071D2DD2059F0029721E030E0D816B4
:10429000190619F010F030E020E0232B79F482E0C9
:1042A00090E0F801918380838EEF9FEFDF91CF91B3
:1042B0001F910F91FF90EF90DF900895EF2841F448
:1042C00082E090E0F8019183808384EF9FEFEECF4E
:1042D000F9800E9471154F2D50E0BE016E5F7F4F37
:1042E0000E945C3D89810E94E01581E090E0F80128
:1042F0009183808390E080E0D9CF89EE90E2909323
:10430000A5038093A40308958091A4039091A5032D
:1043100008950895FC011182108293838283089589
:10432000DB011D921C92DC011296ED91FC9113971A
:104330007183608313967C936E9312970895FC01AA
:1043400080819181DB018D939C93A081B181109735
:1043500041F08D919C9191838083892B11F4F3839B
:10436000E2830895FC0180819181DB018D939C9310
:10437000892B11F473836283718360830895FC0138
:1043800011821082938382830895CF93DF931F92CB
:104390001F92CDB7DEB71A821982F894BE016F5F03
:1043A0007F4F8BEA93E0CBDF89819A81009709F0F8
:1043B00025D389819A81892B89F7BE016F5F7F4F51
:1043C0008FEA93E0BCDF89819A81009709F016D3C8
:1043D00089819A81892B89F778940F900F90DF91CA
:1043E000CF910895CF93DF931F921F92CDB7DEB781
:1043F0001A821982F894BE016F5F7F4F87EA93E0BB
:104400009EDF89819A81009709F0F8D289819A818B
:10441000892B89F778940F900F90DF91CF910895B1
:1044200081E0089590E080E00895EF92FF920F936D
:104430001F93CF93DF931F921F92CDB7DEB71A82DF
:1044400019828091A60307EF1FEF8823A1F1F8944A
:10445000BE016F5F7F4F8FEA93E071DF78948981AF
:104460009A81EE24E394F12C892B51F4F894BE0147
:104470006F5F7F4F8BEA93E062DF7894F12CE12C41
:1044800089819A810EEF1FEF0097A9F0FC0142810C
:10449000538164E070E042D68C01892B61F0F8947E
:1044A00069817A81C701880F991F880F991F8555E7
:1044B0009C4F58DF7894C8010F900F90DF91CF91F7
:1044C0001F910F91FF90EF9008950F931F93CF933B
:1044D000DF9300D01F92CDB7DEB71C821B821A82F9
:1044E00019828091A60307EF1FEF8823C1F0AE0168
:1044F0004D5F5F4F64E070E0CE01019682D68C0183
:10450000892B69F4E981FA818B819C819383828371
:10451000F89469817A8187EA93E002DF7894C80190
:104520000F900F900F900F90DF91CF911F910F91EF
:10453000089587D7049608958F929F92AF92BF9265
:10454000CF92DF92EF92FF920F931F93CF93DF935F
:104550001F921F92CDB7DEB71A821982BC016F5F1E
:104560007F4F6330710598F0AA24AA94BA2CC50134
:104570000F900F90DF91CF911F910F91FF90EF90CF
:10458000DF90CF90BF90AF909F908F90089541158E
:10459000510551F3480159018A016C01CADF8815A0
:1045A000990511F7E114F104F9F28E0D9F1DA8167B
:1045B000B906D0F28091A6038823F1F0F894B501F2
:1045C000645071099701AE014F5F5F4FC8010496B7
:1045D000ADD65C01892B71F489819A81F8019383AE
:1045E0008283C601880F991F880F991FB8018555CE
:1045F0009C4F96DE7894BBCF87EFA82EBB24BA944D
:10460000B6CFAF92BF92CF92DF92EF92FF920F930D
:104610001F93CF93DF931F921F92CDB7DEB71A82FD
:104620001982892B09F047C06115710509F443C04F
:104630004115510509F43FC02115310509F43BC06E
:1046400001151105C1F18091A6038823B9F1790103
:104650006A015B01F894BE016F5F7F4F87EA93E0C8
:104660006EDE789489819A81009759F1DC01129667
:104670006D917C91A801049672D68C01E981FA8132
:10468000D501ED93FC93828193810496F601918389
:1046900080834FDFD7018D939C93C8010F900F90BB
:1046A000DF91CF911F910F91FF90EF90DF90CF900E
:1046B000BF90AF9008950FEF1FEFEFCF07EF1FEF01
:1046C000ECCF0EEF1FEFE9CFCF93DF93EC01672B19
:1046D00071F4C0D68C179D0760F0B3D62496C80F2E
:1046E000D91FB2D68C0F9D1FDF91CF910895AFD601
:1046F000F1CF90E080E0F8CF0F931F93CF93DF933B
:104700002091A60321112BC08B01EC018BEA93E0D1
:1047100001DE8FEA93E0FEDD87EA93E0FBDD97D0D0
:104720000097C1F497D670E060E0CEDF4FE252E030
:1047300062E070E08FD1009769F480912F02909130
:1047400030029AD6B801CE01CFD4009719F421E0F7
:104750002093A603DF91CF911F910F91089584EFCD
:104760009FEFF8CF74C676C6CF93DF9376D6EC0171
:10477000892B11F40ADE36DECE01DF91CF91089548
:10478000CF93DF936AD6EC01892B09F4FEDDCE01CD
:10479000DF91CF91089580912F029091300208957A
:1047A000CF93DF938091A603D0E0C0E08823D1F0BF
:1047B00068D6EC01892BB1F4E8DD14DE80912F027C
:1047C00090913002F5D1F6D2EC01892B59F48BEAA5
:1047D00093E0D5DD8FEA93E0D2DD87EA93E0CFDD89
:1047E0001092A603CE01DF91CF910895EF92FF9230
:1047F0000F931F93CF93DF93EC017A018B010F5F2F
:104800001F4F0E9DA0010F9D500D1E9D500D112498
:1048100070E060E00E94653D90E080E0F0E0E0E064
:104820002FEFE816F90639F4DF91CF911F910F9120
:10483000FF90EF9008951A8219822883309711F023
:10484000D283C1830196FE01C00FD11FEACFCF9260
:10485000DF92EF92FF920F931F93CF93DF9308EEB7
:1048600014E00C7F86EBE82E82E0F82E9CEBC92E3C
:1048700092E0D92EC7E5D5E0D7014D915D917D013C
:10488000F601619171916F01198308835D834C83F7
:104890005B834A837F836E839B012F5F3F4F249FFF
:1048A000C001259F900D349F900D11249987888712
:1048B0000115110511F0C80199DF88859985080F48
:1048C000191F2A96FCEBEF16F2E0FF06A9F6E5EBBE
:1048D000F3E080E391E0DF019C011D922150304024
:1048E000E1F71092B4031092B30310927605109280
:1048F000750510927A05109279051092780510923C
:10490000770510927C0510927B0510927E0510921F
:104910007D051092800510927F05109284051092FB
:1049200083051092820510928105109286051092DF
:1049300085051092880510928705109254051092F3
:104940005305109256051092550590E080E0DF91D6
:10495000CF911F910F91FF90EF90DF90CF9008952E
:10496000009799F1F8948931910550F48091590597
:1049700090915A05892B39F020E090E080E018C032
:104980008132910550F48091630590916405892BE3
:1049900031F021E081E090E00BC0C197A8F4809154
:1049A0006D0590916E05892B79F022E082E090E010
:1049B000EAE0E89FD001E99FB00D1124A95ABA4F4F
:1049C0008D919C91009721F4789490E080E0089577
:1049D000E29FF0011124E95AFA4FDC0111964D9142
:1049E0005C915183408342815381415051095383EB
:1049F0004283FC012193CF0178940895009749F1F7
:104A0000DC018E91853041F4E0915505F091560519
:104A10003097F9F0CD0119948530D8F4282F30E083
:104A2000F8948FEF8C938AE0829FF001839FF00DC2
:104A30001124E95AFA4F8081918112969C938E93AA
:104A40001197B183A083828193810196938382839E
:104A500078940895CF92DF92EF92FF920F931F9375
:104A6000CF93DF939C0188EB93E08C7F4115510538
:104A700009F49BC02115310509F497C06115710532
:104A800009F493C07A01AB01B9016D5F7F4F6C7F70
:104A90009B012F5F3F4F249F8001259F100D349F66
:104AA000100D1124F8942091750530917605232B73
:104AB00059F420917D0530917E052115310569F16C
:104AC0002017310708F058C020917F0530918005EC
:104AD000232B91F420917D0530917E05820F931F49
:104AE00020918705309188052115310509F441C0D1
:104AF0002017310708F056C07894CFEFDFEF86EF2C
:104B00009FEFF701D183C083DF91CF911F910F9168
:104B1000FF90EF90DF90CF900895C3E0D0E0C09079
:104B2000B303D090B4032DE231E02C193D092017D6
:104B3000310710F32AE02C9FF0012D9FF00D112476
:104B4000E95AFA4F91838083558344835383428388
:104B50007783668311870087009709F047DE0C0D85
:104B60001D1D1093B4030093B303789490E080E08C
:104B7000C8CFC4E0D0E0D3CFC3E0D0E02AE02C9F80
:104B8000F0012D9FF00D1124E95AFA4F9183808393
:104B9000558344835383428377836683009729F345
:104BA00025DEE3CFC4E0D0E0E9CF8FEF9FEFACCFBD
:104BB0009C010397029708F069C0F89484E09AE09A
:104BC000482F50E0241735070CF44DC091E08AE0DF
:104BD000829FF001839FF00D1124E95AFA4F118250
:104BE00010821582148213821282178216829923F0
:104BF000B1F180917F0590918005892BA9F42091D6
:104C00008705309188052115310571F08091B30336
:104C10009091B403821B930B9093B4038093B303DE
:104C20001092880510928705809175059091760500
:104C3000892BA9F420917D0530917E052115310540
:104C400071F08091B3039091B403821B930B909306
:104C5000B4038093B30310927E0510927D0578947F
:104C600090E080E00895949FF001959FF00D11244D
:104C7000E95AFA4F40815181452B31F440855185E5
:104C8000452B11F481509CCF90E0A1CF8FEF9FEF87
:104C900008954115510549F1009739F161157105E4
:104CA00021F1F8942091530530915405232BB9F448
:104CB0002091550530915605232B89F49093540586
:104CC000809353057093560560935505789425E0BD
:104CD00030E090E080E0FA013183208308957894F9
:104CE0002FEF3FEF86EF9FEFF6CF8FEF9FEF089507
:104CF000059769F4F8941092540510925305109298
:104D0000560510925505789490E080E008958FEF55
:104D10009FEF08956115710519F4F0E0E0E011C00E
:104D20008530910581F4E0915305F0915405309759
:104D3000A1F3CB0101961995009779F3FC0185E069
:104D40008193CF0108959C01235031092230310510
:104D500020F72AE0289FD001299FB00D1124A95ADD
:104D6000BA4F2D913C911197232BB9F216962D91A4
:104D70003C9117972617370780F2F89412962D91D9
:104D80003C9113972115310529F0ED91FC91119774
:104D9000309711F47894C1CF4181528111965C9380
:104DA0004E932150310913963C932E931297819381
:104DB0007894C7CFE5EEF4E08EE6DF011D928A9588
:104DC000E9F7E5EBF3E080E391E0DF019C011D9260
:104DD00021503040E1F71092B4031092B303E7E59D
:104DE000F5E082E3DF011D928A95E9F7E3E5F5E05E
:104DF00084E0DF011D928A95E9F790E080E0089554
:104E0000CF93DF93C0913102D0913202CF3FDC07C4
:104E100061F40E94B433909332028093310297FF81
:104E200009C0D0933202C093310284EF9FEFDF912B
:104E3000CF91089590E080E0FACF8230910528F478
:104E40008093890590E080E008958FEF9FEF0895AB
:104E50004F925F926F927F92AF92BF92CF92DF920A
:104E6000EF92FF920F931F93CF93DF931F921F92A6
:104E7000CDB7DEB71A821982009709F47AC061159E
:104E8000710509F476C0209131023091320207EFAA
:104E90001FEF2F3F3F4F09F446C06B015C01412CCF
:104EA000512C3201F12CE12C10E000E09E012F5F2B
:104EB0003F4FA6014E195F09B5016E0D7F1D809110
:104EC0003102909132020E941234892B09F04BC0BA
:104ED00089819A81009741F4E114F10429F4209129
:104EE0008905222309F442C0E80EF91EEC14FD04E2
:104EF000D0F480E8481684E858068EE1680671040C
:104F000020F560E070E0CB010E941B382AE0420EE1
:104F1000511C611C711C0A3F4FEF140721F0043F24
:104F20008FEF1807A1F4C8010F900F90DF91CF9178
:104F30001F910F91FF90EF90DF90CF90BF90AF90B7
:104F40007F906F905F904F90089501EF1FEF81E089
:104F500090E0013F2FEF120711F090E080E0892BE5
:104F600009F4A4CFE0CF04EF1FEFDDCF0AEF1FEF6E
:104F7000DACF0FEF1FEFD7CF4F925F926F927F92F2
:104F8000AF92BF92CF92DF92EF92FF920F931F9357
:104F9000CF93DF931F921F92CDB7DEB71A8219828B
:104FA000009709F47AC06115710509F476C0209163
:104FB00031023091320207EF1FEF2F3F3F4F09F4CC
:104FC00046C06B015C01412C512C3201F12CE12CCB
:104FD00010E000E09E012F5F3F4FA6014E195F09D0
:104FE000B5016E0D7F1D80913102909132020E94B9
:104FF000C833892B09F04BC089819A81009741F40D
:10500000E114F10429F420918905222309F442C016
:10501000E80EF91EEC14FD04D0F480E8481686E989
:10502000580688E96806710420F560E070E0CB015D
:105030000E941B382AE0420E511C611C711C0E3F5D
:105040004FEF140721F0043F8FEF1807A1F4C801B8
:105050000F900F90DF91CF911F910F91FF90EF90E4
:10506000DF90CF90BF90AF907F906F905F904F9008
:10507000089502EF1FEF81E090E0023F2FEF12074B
:1050800011F090E080E0892B09F4A4CFE0CF04EF89
:105090001FEFDDCF0EEF1FEFDACF0FEF1FEFD7CFF0
:1050A00080913102909132028F3F980751F00E9417
:1050B000AC33892B49F48FEF9FEF909332028093AA
:1050C000310290E080E0089584EF9FEF0895FC01A5
:1050D000680F791F90E080E0E617F70709F408955C
:1050E0002191820F911DF8CF20918A05211113C0C3
:1050F00087DE009791F41092900510928F05109220
:105100008E0510928D0510928C0510928B0521E072
:1051100020938A05089584EF9FEF0895AF92BF9280
:10512000CF92DF92EF92FF920F931F93CF93DF9373
:10513000009709F460C04630510508F45CC0209126
:105140008A05C7EFDFEF222309F449C08C01060F5F
:10515000171FF801C080D180C114D10409F44EC0DA
:1051600096012A5F3F4F4217530708F447C07C015E
:1051700080918F059091900593838283B6016C5F37
:105180007F4F5801A60EB71EC801A1DFF50191831C
:10519000808364E070E0C8015BDEEC01892BF9F4E8
:1051A00081E090E04ADEB601C801049651DEEC01D0
:1051B000892B91F462E070E0C5014ADEEC01892B95
:1051C00059F4C7011BDC80918F05909190050196E1
:1051D0009093900580938F0590E080E02EDECE01C5
:1051E000DF91CF911F910F91FF90EF90DF90CF90C3
:1051F000BF90AF900895CFEFDFEFF1CFC9EFDFEFB2
:10520000EECF6F927F928F929F92AF92BF92CF928A
:10521000DF92EF92FF920F931F93CF93DF9300D013
:105220001F92CDB7DEB7009709F47AC0411551053A
:1052300009F476C020918A0507EF1FEF222309F4B5
:105240004DC03A017B015C0164E070E0CE01019643
:1052500093DE8C01892B09F041C009811A81011567
:10526000110509F45AC0480186E0880E911CB70167
:10527000680D791D80913302909134024BDD6C01F1
:10528000009709F450C0A70170E060E00E94653DFE
:1052900089819A81AB81BC81EC0CFD1CF701819363
:1052A0009193A193B1937F0181E090E0C6DDB801B5
:1052B000C70162DE892B31F562E070E0C701800F23
:1052C000911F5ADE8C01892BE9F490E080E0B5DD76
:1052D000F501D182C082F30191828082C8010F90D2
:1052E0000F900F900F90DF91CF911F910F91FF9032
:1052F000EF90DF90CF90BF90AF909F908F907F9076
:105300006F90089590E080E098DDF50111821082A1
:10531000F30111821082C60171DB09EF1FEFDECFAE
:105320000FEF1FEFDBCF06EF1FEFD8CF0097A1F0F5
:105330004115510589F02115310571F0F9013696B5
:105340006E177F0748F0DC012D933C93DA01ED9353
:10535000FC9390E080E008958FEF9FEF0895AF9267
:10536000BF92CF92DF92EF92FF920F931F93CF9352
:10537000DF93009709F45FC04115510509F45BC044
:105380006530710508F457C020918A05C7EFDFEF3B
:10539000222391F1DC01CD90DC9011971296ED91D2
:1053A000FC9196012A5F3F4FC9EFDFEF26173707C1
:1053B00019F5C0918B05D0918C05209749F521E016
:1053C00030E030938C0520938B057A018C01F093AB
:1053D0008E05E0938D055601B4E0AB0EB11CB5010E
:1053E00076DE0A0D1B1DF80120813181821793079B
:1053F00029F5D701CD92DC92CE01DF91CF911F919B
:105400000F91FF90EF90DF90CF90BF90AF900895F5
:1054100020918D0530918E052F5F3F4FCCEFDFEF50
:10542000E217F30790F2CBEFDFEF2E173F0768F29A
:10543000D0E0C0E0CACFCFEFDFEFDECFC3EFDFEFCA
:10544000DBCF84E090E0089582E090E008958CEF57
:105450009FEF089580E290E00895109290051092D9
:105460008F0510928E0510928D0510928C0510926A
:105470008B0590E080E0089590933402809333028E
:10548000089580918A05882391F00ADE009789F4B7
:105490001092900510928F0510928E0510928D0536
:1054A00010928C0510928B0510928A05089590E059
:1054B00080E00895009749F06115710531F0FC0115
:1054C00011821082FB01118210820895F3CF90E0C7
:1054D00080E008958091840690918506891B990B40
:1054E000089590918506809184062FEF3FEF9817DD
:1054F00048F4E92FF0E0EA57F94F208130E09F5F50
:1055000090938506C9010895E091850680918406EF
:10551000E81730F4F0E0EA57F94F808190E0089501
:105520008FEF9FEF08950895CF93DF93EC01E09103
:105530005C06F0915D063097F1F0909185068091C0
:1055400084069817C0F090E0292F30E0261737071F
:1055500054F4DE01A20FB31F4C912A57394FD901E1
:105560004C939F5FF1CF1092850660938406CB0128
:10557000DF91CF911994DF91CF910895E0915E066C
:10558000F0915F06309729F0109262061092610642
:105590001994089581E080936006609383061092C9
:1055A000620610926106089510924F0681E0809382
:1055B0004D0610924C0661E084E10E94553961E08D
:1055C00085E10E945539E9EBF0E080818E7F808390
:1055D00080818D7F808388E48093B80085E4809308
:1055E000BC000895109285061092840610926206FF
:1055F00010926106D9DF8EEB9AE290934506809374
:10560000440684E99AE29093430680934206089503
:10561000ECEBF0E080818A7B808360E084E10E9493
:10562000553960E085E10C9455392091FE05260F2F
:105630003327331F21323105E4F420914F06243003
:10564000D1F4FC0190E080E0861760F4A091FE05A3
:105650002191AC0140505A4FA40FB52FB11D2C938E
:105660000196F2CF8091FE05680F6093FE0580E001
:10567000089581E0089582E00895CF93DF931F920B
:10568000CDB7DEB76983209160062223F9F020911F
:105690006106203258F021E030E0FC0133832283A0
:1056A00090E080E00F90DF91CF91089580916206A5
:1056B000E82FF0E0ED59F94F998190838F5F809347
:1056C00062068093610681E090E0ECCF61E0CE015C
:1056D0000196ABDFF8CFCF92DF92EF92FF920F935C
:1056E0001F93CF93DF937C01CB018A012091600649
:1056F000222389F0EB016B01C40ED51ECC15DD050C
:1057000061F06991D701ED91FC910190F081E02D5C
:10571000C7011995F3CF642F88DFC801DF91CF91BE
:105720001F910F91FF90EF90DF90CF90089585EC3F
:105730008093BC0010924F060895CF93DF9391E0C1
:1057400090934706882351F0C091B800D091BA00D9
:105750005FDF2ADFD093BA00C093B800DF91CF910A
:1057600008954F925F926F927F928F929F92AF9225
:10577000BF92CF92DF92EF92FF920F931F93CF933E
:10578000DF93D82F162F072FC42FB22E413250F59A
:105790000E94F6376B017C0180914F068823A9F1A6
:1057A0008091480690914906A0914A06B0914B0617
:1057B000892B8A2B8B2B81F30E94F6374090480669
:1057C0005090490660904A0670904B066C197D090E
:1057D0008E099F094616570668067906E8F68091F5
:1057E0004606ABDFC0E08C2FDF91CF911F910F9168
:1057F000FF90EF90DF90CF90BF90AF909F908F90F1
:105800007F906F905F904F90089581E080934F0656
:10581000B0924D069FEF9093DC05109221069C0FED
:105820009093200680934E0680914E06DD0FD82B74
:10583000D0934E0680914C06813009F05AC01092E8
:105840004C060E94F6376B017C0180914E068093D6
:10585000BB008091480690914906A0914A06B091FC
:105860004B06892B8A2B8B2B79F58091BC0083FD0D
:10587000ECCF85EC8093BC000E94F6376B017C0175
:1058800080914F068130B9F5809148069091490684
:10589000A0914A06B0914B06892B8A2B8B2B81F362
:1058A0000E94F6378090480690904906A0904A06DC
:1058B000B0904B066C197D098E099F0986169706D4
:1058C000A806B906E8F68BCF0E94F6378090480606
:1058D00090904906A0904A06B0904B066C197D093D
:1058E0008E099F0986169706A806B90608F0BDCF4F
:1058F00076CF85EEBFCF809121068C1710F4C09132
:105900002106A2E2B6E0912FE12FF02F8E2F891B06
:105910008C1708F068CF8D918193F8CF4F925F92EA
:105920006F927F928F929F92AF92BF92EF92FF926F
:105930000F931F93CF93DF93413208F0D2C0F22E22
:10594000D42FE72E162FC82F0E94F6374B015C018B
:1059500080914F06882391F18091480690914906E5
:10596000A0914A06B0914B06892B8A2B8B2B81F391
:105970000E94F637409048065090490660904A06CB
:1059800070904B06681979098A099B0946165706D3
:1059900068067906E8F680914606CFDE85E0DF915D
:1059A000CF911F910F91FF90EF90BF90AF909F907C
:1059B0008F907F906F905F904F90089582E08093DA
:1059C0004F0600934D068FEF8093DC051092210661
:1059D000D0932006912FA2E2B6E0E12FFE2D8E2F6C
:1059E000891B8D1718F481918D93F9CF10924E0673
:1059F00080914E06CC0FC82BC0934E0680914C066A
:105A0000813009F041C010924C060E94F6374B01DC
:105A10005C0180914E068093BB0080914806909176
:105A20004906A0914A06B0914B06892B8A2B8B2BF5
:105A3000B9F48091BC0083FDECCF85EC8093BC0071
:105A40000E94F6374B015C01FF2021F080914F0648
:105A50008230E1F08091DC058F3FC9F580E09FCF77
:105A60000E94F637009148061091490620914A0697
:105A700030914B06681979098A099B09061717079F
:105A800028073907B0F687CF85EED8CF8091480632
:105A900090914906A0914A06B0914B06892B8A2B1A
:105AA0008B2B91F20E94F63700914806109149061F
:105AB00020914A0630914B06681979098A099B0999
:105AC000061717072807390708F0BECF64CF809163
:105AD000DC05803241F08091DC05803331F084E0D8
