:10000000F9C0000028C1000026C1000024C1000082
:1000100022C1000020C100001EC100001CC1000060
:100020001AC1000018C1000016C1000014C1000070
:1000300012C1000010C100000EC100000CC1000080
:100040000AC1000008C1000006C1000004C1000090
:1000500002C1000000C10000FEC000000C94642F2B
:10006000FAC000000C9464320C949A32F4C0000080
:10007000F2C00000F0C00000EEC00000ECC00000C4
:10008000EAC00000E8C00000E6C00000E4C00000D4
:100090000C94F0320C942633DEC000000C94DA2568
:1000A000DAC00000D8C00000D6C00000D4C00000F4
:1000B000D2C00000D0C00000CEC00000CCC0000004
:1000C000CAC00000C8C000000C940A2B0C947C33FA
:1000D0000C94B233C0C000000C9408340C943E342D
:1000E000BAC0000000000A0B02090C0D0E0807033D
:1000F00004010000000000000000000000000000FB
:1001000000000000000000000000000000000000EF
:1001100012111000000000000000000000000000AC
:100120000000000000000000000001021020200874
:100130000810204010204080020102010804020142
:1001400001020408102040808040201008040201B1
:10015000800402018040201008040201080402010A
:100160000102040810204080010204081020408091
:1001700005050505070508080808020202020A0A23
:100180000808040404040101010101010101030341
:10019000030303030303040707070C0C0C0C0C0CEC
:1001A0000C0C0202020206060606060606060B0BE9
:1001B0000B0B0B0B0B0B00002200250028002B0063
:1001C0002E003100340002010000050108010B017E
:1001D00000002100240027002A002D0030003300F9
:1001E00001010000040107010A01D52AC3324F337F
:1001F000DB33673411241FBECFEFD1E2DEBFCDBFAA
:1002000000E00CBF12E0A0E0B2E0EEE2FAE600E0AF
:100210000BBF02C007900D92AE3DB107D9F729E0A0
:10022000AEEDB2E001C01D92AE32B207E1F710E0D0
:10023000CAEFD0E000E006C021970109802FFE013F
:100240000E94E434C53FD10780E00807A9F70E9467
:10025000602C0C941535D4CE611102C00C94D130B1
:100260006130E1F362E0FACF662319F061E00C94AB
:100270000D3160E0FCCF90E080E008950F931F9374
:10028000009709F487C06115710509F483C00091D6
:1002900010021091110220911202309113020E3FB0
:1002A0001F4F2F4F3F4F09F066C04FEF5FEFBA016E
:1002B0004093100250931102609312027093130244
:1002C000409110025091110260911202709113023C
:1002D000DC011296ED91FC9180819181A281B38124
:1002E00080934C0390934D03A0934E03B0934F0320
:1002F00084819581A681B7818093480390934903B7
:10030000A0934A03B0934B0380859185A285B38562
:100310008093440390934503A0934603B09347030F
:1003200084859585A685B785809340039093410386
:10033000A0934203B093430310923C0310923D03F9
:1003400010923E0310923F03E4D48EEA96E090931D
:10035000DF028093DE029093E1028093E002C8D333
:10036000009731F421E030E03093510320935003A3
:100370001F910F9108950091100210911102209188
:10038000120230911302DB010D931D932D933C93C8
:10039000139796CF8FEF9FEFEBCF8F929F92AF92F5
:1003A000BF92CF92DF92EF92FF921F93CF93DF9392
:1003B0004B015C011091530382E090E09093510354
:1003C0008093500381149104A104B10441F48091FD
:1003D0005303811104C080915203C1E08111C0E038
:1003E000C12CD12C760180915303811106C08091DC
:1003F0005203811102C0CC23D9F083E090E09093A6
:10040000510380935003CC2379F1CCE9DFEF111134
:1004100002C00E94120ACE01DF91CF911F91FF907E
:10042000EF90DF90CF90BF90AF909F908F90089506
:100430006AE070E080E090E00E94D32F80E1C80E77
:1004400087E2D81EE11CF11C8FEF88169806A806DB
:10045000B80631F0C1E08C149D04AE04BF0408F06E
:10046000C0E080E079D3BFCFD0E0C0E0D0CFCF9262
:10047000DF92EF92FF920F931F93CF93DF938F3F03
:10048000910511F008F050C02091500330915103B4
:100490002330310539F02091500330915103213040
:1004A000310531F424E030E03093510320935003C0
:1004B0006A017B01EC0182309105A0F011E0AE01F0
:1004C000C701B60114D3AB01BC01CE011123F9F071
:1004D000DF91CF911F910F91FF90EF90DF90CF9020
:1004E0000C943B0C8C01000F111F02521D4FD801C0
:1004F0008D919C91892B11F30E94450C0297F1F686
:10050000D801ED91FC91CE011995182FD8CF0E94FA
:100510005D0C90E080E0DF91CF911F910F91FF90F3
:10052000EF90DF90CF9008958FEF9FEFF4CF80E0B2
:1005300013C3CF93DF9386E090E0909351038093B1
:10054000500363D3EC01EEEDF2E084E0DF011D9295
:100550008A95E9F7FFD61092510310925003CE010D
:10056000DF91CF91089580915203089580913B03CC
:100570000895609310027093110280931202909379
:10058000130290E080E00895FC0191E0809119034E
:10059000811190E091830895CF92DF92EF92FF92C4
:1005A0006B017C019F7720E030E040E859E50E9434
:1005B000602D87FF2BC020E030E040E05FE3C70103
:1005C000B6010E94FD2E87FD0EC020E030E040E025
:1005D0005FE3C701B6010E94E92CFF90EF90DF9026
:1005E000CF900C94352E20E030E040E05FEBC70167
:1005F000B6010E94FD2E181684F420E030E0A90117
:10060000C701B6010E94012F6B017C01C701B60131
:10061000FF90EF90DF90CF90089520E030E040E031
:100620005FE3C701B6010E94E82CFF90EF90DF90D6
:10063000CF900C944D2D809119038F5F8436E8F58F
:100640008093190340E259E064E179E080E199E0A8
:100650000E94852A40E259E064E179E080E199E076
:100660000E94D42A60910C0370910D0380910E03B7
:1006700090910F036F5F7F4F8F4F9F4F60930C03DD
:1006800070930D0380930E0390930F030E94F82D37
:100690009B01AC01609110037091110380911203D2
:1006A000909113030E94012F609308037093090334
:1006B00080930A0390930B03089510921903C2CFFD
:1006C0004F925F926F927F928F929F92AF92BF9262
:1006D000CF92DF92EF92FF92C0902809D090290923
:1006E000E0902A09F0902B09C701B6010E94FA2D6B
:1006F0002B013C01209108023091090240910A022D
:1007000050910B020E94602D87FF66C0F7FC64C009
:100710008090000290900102A0900202B09003022B
:1007200020E030E040E85FE3609104027091050250
:1007300080910602909107020E94E82C9B01AC0177
:10074000C301B2010E94FD2E87FD4AC01092280904
:100750001092290910922A0910922B09C501B4019F
:100760001BDF6B017C0120E030E040E853E40E9495
:10077000602D6FEF87FF0EC020E030E0A901C701B8
:10078000B6010E94FD2E60E087FD04C0C701B601DE
:100790000E94CC2D8DE068DD8091140390911503AB
:1007A000A0911603B09117030196A11DB11D80936E
:1007B000140390931503A0931603B0931703FF90AF
:1007C000EF90DF90CF90BF90AF909F908F907F90F1
:1007D0006F905F904F900895812C912C5401A0CF81
:1007E0008FEFC81AD80AE80AF80AC0922809D092EE
:1007F0002909E0922A09F0922B09B0CFCF93DF9319
:10080000E2EFF2E080E090E0A0E8BFEB80A791A7E4
:10081000A2A7B3A78FE692E1A3E8BAE3868F978FEA
:10082000A0A3B1A383EB95EBA0E4B9EF84839583F8
:10083000A683B7838EEC9BEFA2E7BBE3808791870B
:10084000A287B3878FE39AECA7E8B8E384879587FC
:10085000A687B78785E596EBA4E6B4E8808B918BF5
:10086000A28BB38BA6EEB2E0B383A283E2EEF2E0FA
:100870001196FC93EE938DE292E0918380839383B3
:10088000828386E093E015969C938E93149786EF6F
:1008900092E013969C938E93129788E093E01796BC
:1008A0009C938E93169780E299E00E94822AC8E179
:1008B000D9E0188619861A861B86188281E090E096
:1008C000A0E0B0E089839A83AB83BC8361E08DE0D4
:1008D000C3DC81E08D83DF91CF9108958091180969
:1008E000811103C081E08093180908954F925F92AF
:1008F0006F927F928F929F92AF92BF92CF92DF9230
:10090000EF92FF920F931F93F89440902B03509017
:100910002C0360902D0370902E03C0901F03D09085
:100920002003E0902103F0902203452B09F0A4C09E
:100930009B01AC01241935094609570929013A01DF
:1009400000912703109128032091290330912A0355
:1009500048015901840C951CA61CB71C80169106F1
:10096000A206B306A0F40091230310912403209162
:100970002503309126030F5F1F4F2F4F3F4F0093EA
:10098000230310932403209325033093260380929E
:10099000270390922803A0922903B0922A03009182
:1009A0002303109124032091250330912603809284
:1009B0002F0390923003A0923103B0923203009340
:1009C000330310933403209335033093360360933D
:1009D0002B0370932C0380932D0390932E03A8EE8A
:1009E000B3E0A30192010E94EC346C0D7D1D8E1DBD
:1009F0009F1D60931F0370932003809321039093A6
:100A000022030091100210911102209112023091E4
:100A100013020F3F1F4F2F4F3F4FF1F00091100275
:100A20001091110220911202309113020E3F1F4FBC
:100A30002F4F3F4F89F0C0901002D0901102E090EC
:100A40001202F090130221E08C149D04AE04BF0446
:100A500008F420E020933B0378941F910F91FF90BE
:100A6000EF90DF90CF90BF90AF909F908F907F904E
:100A70006F905F904F9008954B015C01841895082A
:100A8000A608B708A3019201261B370B480B590B88
:100A90006415750586059705D0F082169306A406A1
:100AA000B50640F420E030E0A90181149104A104CE
:100AB000B10491F4A8EEB3E00E94EC34A7019601D2
:100AC000261B370B480B590BCA01B901C5CF82163B
:100AD0009306A406B50670F7A8EEB3E0A50194014D
:100AE0000E94EC346C0D7D1D8E1D9F1DB5CFFECE7A
:100AF000CF93DF9300D01F92CDB7DEB71C821B824D
:100B00001A82198210923703109238031092390317
:100B100010923A03BE016F5F7F4FCE0103960E9491
:100B2000112269817A818B819C810E94651B0097CB
:100B300061F4BE016F5F7F4FCE0103960E941D22BC
:100B400069817A818B819C812ED50F900F900F90B7
:100B50000F90DF91CF910895FF920F931F93CF9342
:100B6000DF93082F60E070E0CB010E94D32FFF24B9
:100B7000F3940E944E1AEC01892B89F010E0CE3FCD
:100B80008FEFD80769F0002361F160E070E0CB01DE
:100B90000E94D32F81E090E0892B59F322C011E00D
:100BA00025D5EC01892B21F0CE3F8FEFD80759F7DF
:100BB00011111EC011E0229609F410E00E94FE19E6
:100BC000EC01892B21F0CE3F8FEFD807E1F6111110
:100BD00011C011E0CE3F8FEFD80709F410E00111EA
:100BE0000BC0CE01DF91CF911F910F91FF9008951F
:100BF00011E0E4CF11E0F3CF60E070E0CB010E94A0
:100C0000D32F1F25812F90E0C7CFCF93DF93809103
:100C10003B03882321F060E070E0CB014CD635D651
:100C2000D0E0C0E0892B71F06AE070E080E090E0F5
:100C30000E94D32F81E090DF28D62196C03D27E087
:100C4000D20781F727D60E94B91B10925303109246
:100C5000520310924C0310924D0310924E031092C7
:100C60004F03109248031092490310924A031092C6
:100C70004B031092440310924503109246031092C6
:100C800047031092400310924103109242031092C6
:100C9000430310923C0310923D0310923E031092C6
:100CA0003F034EEF5FEF6FEF7FEF409310025093E3
:100CB0001102609312027093130210923B03EFE251
:100CC000F3E028E0DF011D922A95E9F710922B034B
:100CD00010922C0310922D0310922E0310922703D2
:100CE000109228031092290310922A0310922303D2
:100CF00010922403109225031092260310921F03D2
:100D0000109220031092210310922203DF91CF91C1
:100D1000089510925F031092600310926103109285
:100D2000620310925E038091670390916803909331
:100D30005D0380935C0310925B0310925A03109240
:100D400056031092570310925803109259031092B1
:100D500064031092630390E080E00895CF92DF92E5
:100D6000EF92FF920F931F93CF938C01892B09F081
:100D700055C0209167033091680380915C03909186
:100D80005D03409167035091680350935D03409366
:100D90005C032817390781F010925B0310925A0305
:100DA0001092560310925703109258031092590351
:100DB000109264031092630380916703909168031B
:100DC000019761F58091630390916403892B21F46D
:100DD00080911402811112C0809163039091640389
:100DE0000197E1F48091560390915703A091580325
:100DF000B09159030197A105B10581F410925603F2
:100E00001092570310925803109259031092140233
:100E100082E090E090936403809363038091670382
:100E200090916803019709F01CC180917D03909116
:100E30007E038017910709F014C180917903909186
:100E40007A03A0917B03B0917C03009709F409C158
:100E50002091780321110DC04091790350917A03BC
:100E600060917B0370917C03452B462B472B09F443
:100E7000F8C020916303309164032230310509F0FA
:100E8000F0C020915A032111ECC0FC01C080D18038
:100E9000E280F38080915E03882309F4D3C08091BF
:100EA0006A0390916B03892B09F4FDC020916A03BA
:100EB00030916B0381E02230310509F080E0209110
:100EC0006A0330916B03C1E02130310549F0209174
:100ED0006A0330916B03C1E02230310509F0C0E0B4
:100EE000882309F456C02091740330917503409112
:100EF000760350917703C701B6010E94FD2E87FD4E
:100F000014C0209174033091750340917603509181
:100F1000770360915F03709160038091610390910A
:100F200062030E94602D87FD22C0209174033091DE
:100F300075034091760350917703C701B6010E9473
:100F4000FD2E181634F520917403309175034091ED
:100F500076035091770360915F03709160038091F5
:100F60006103909162030E94602D811112C08091F3
:100F70006C0390916D03A0916E03B0916F03892B68
:100F80008A2B8B2B19F481E080935B0381E08093A3
:100F90005A03CC2309F456C0209174033091750391
:100FA0004091760350917703C701B6010E94602DEE
:100FB00087FF14C02091740330917503409176032C
:100FC0005091770360915F0370916003809161039A
:100FD000909162030E94FD2E87FF22C0209174032E
:100FE000309175034091760350917703C701B601A4
:100FF0000E94602D811126C02091740330917503E9
:10100000409176035091770360915F037091600384
:1010100080916103909162030E94FD2E181694F452
:1010200080916C0390916D03A0916E03B0916F035A
:10103000892B8A2B8B2B19F481E080935B0381E051
:1010400080935A0381E090915A03911180E080933C
:101050005E03C0925F03D0926003E0926103F0925E
:101060006203012B09F067C18091630390916403CF
:10107000892BD9F41092690310925A0380911402BB
:10108000882379F082E090E0909364038093630377
:1010900010921402209167033091680381E0232BA2
:1010A000E9F080E01BC081E00ACF10921402809129
:1010B0006903882349F010925B0310926403109235
:1010C000630310926903EDCF8091670390916803E9
:1010D000892BE1F080915A0310925A032091630307
:1010E000309164032230310509F45EC088F4211583
:1010F000310509F448C02130310509F4F3C01092DC
:101100005B0310925A031092690338C081E0E6CF66
:101110002330310509F4B1C02430310581F7409105
:10112000560350915703609158037091590341152C
:1011300051056105710561F041505109610971095D
:101140004093560350935703609358037093590389
:101150004091560350915703609158037091590381
:10116000452B462B472BD9F420916503309166031C
:101170002130310509F046C010925B0310926403E0
:10118000109263030CC080911402882341F082E026
:1011900090E0909364038093630310921402109282
:1011A000540380915B03CEC08823C9F380916C0304
:1011B00090916D03A0916E03B0916F0318161906FC
:1011C0001A061B060CF07DC080916703909168039E
:1011D000019709F076C080916C0390916D03A09106
:1011E0006E03B0916F038093560390935703A093BF
:1011F0005803B093590383E090E090936403809385
:101200006303CDCF409170035091710360917203DD
:1012100070917303452B462B472BA9F010925B036B
:101220008091700390917103A0917203B091730348
:101230008093560390935703A0935803B093590398
:1012400081E090E0DACF882399F0809115029091A7
:101250001602A0911702B091180280935603909342
:101260005703A0935803B093590384E090E0C5CF8F
:1012700010925B0382E090E0C0CF80915603909182
:101280005703A0915803B09159030097A105B105E8
:1012900059F00197A109B109809356039093570320
:1012A000A0935803B093590380915603909157032C
:1012B000A0915803B0915903892B8A2B8B2B09F0ED
:1012C0006ECF8091150290911602A0911702B091F5
:1012D0001802892B8A2B8B2B09F44ECF81E0809347
:1012E0005B03B3CF4091560350915703609158036D
:1012F00070915903411551056105710561F0415027
:101300005109610971094093560350935703609343
:1013100058037093590340915603509157036091BD
:10132000580370915903452B462B472B09F037CFB3
:101330008111C7CF9FCF80915403882309F431CF07
:1013400080915503CF911F910F91FF90EF90DF9007
:10135000CF90089510925F03109260031092610382
:101360001092620310925E03109264031092630362
:1013700010925D0310925C0310927E0310927D0325
:1013800010925B0310925A03109256031092570367
:10139000109258031092590310925503109254035F
:1013A0001092790310927A0310927B0310927C03BF
:1013B00010927803109274031092750310927603C2
:1013C0001092770388EE93E0A0E0B0E080931502DE
:1013D00090931602A0931702B09318021092700314
:1013E00010927103109272031092730310926C03A7
:1013F00010926D0310926E0310926F0310926B03A4
:1014000010926A0381E08093140210926903109293
:10141000680310926703109266031092650390E0D0
:1014200080E008958091670390916803892B19F5F6
:1014300080911402882351F080916903811106C0C4
:1014400081E08093550380935403089520916903AC
:101450003091140281E090E0332311F090E080E0BD
:1014600030E082239323892B21F01092550381E0F1
:10147000EACF10925403089582E090E0FA0191833C
:1014800080838FEF9FEF0895CF93DF93EA0100975A
:1014900011F00E94E21C1982188290E080E0DF9136
:1014A000CF910895DB01009719F48FEF8C93089585
:1014B0002EEF2C93FC013F96EF30F10508F034C07D
:1014C0008827EA59F54F8F4F0C94E434920A900A1A
:1014D0008E0A8C0A8A0A860A880A840A820A800A84
:1014E0007D0A790A750A7B0A940A80E311968C9327
:1014F000089589E2FBCF82E2F9CF11961C920895FC
:1015000083E2F4CF81E2F2CF81E1F0CF87E2EECF48
:101510008AE2ECCF80E1EACF84E2E8CF88E2E6CF4E
:1015200086E2E4CF81E3E2CF80E2E0CF80918B03DB
:1015300090918C03089590938C0380938B0308956E
:1015400080918A03089590918A03892B80938A035E
:101550000895982F909580918A03892380938A0318
:10156000089580918903089580918703909188035D
:1015700008956115710559F0FB0130E020E070E03D
:1015800060E02417350719F06115710511F0CB01E2
:101590000895A081B181A817B90709F4BF012F5F91
:1015A0003F4F3696EECF80918D0381111CC060D2E3
:1015B00066D29093800380937F030E94E6140E947A
:1015C000F81490938403809383030E9466190E9409
:1015D0006D19909382038093810381E080938D0342
:1015E00090E080E0089584EF9FEF08958F929F929E
:1015F000AF92BF92CF92DF92EF92FF920F931F9321
:10160000CF93DF9300D000D000D01F92CDB7DEB7CC
:101610001A86198618861F821E821D821C821B82D2
:101620001A82198280918D0307EF1FEF882309F436
:101630009CC08E010D5F1F4F9E012B5F3F4FAE017F
:10164000495F5F4FBE01675F7F4F90E080E00E947F
:10165000EA1A8C01009721F00596029708F0DBC08A
:1016600029853A852115310509F402C1ED80FE80F6
:101670004B815C81B701640F751F8F819885861738
:10168000970708F4F5C0E20EF31ED7019C91903C39
:1016900009F07FC04230510508F47BC011968C914F
:1016A00040918B0350918C03452B09F49CC0913FD2
:1016B00008F071C02CE1290F2D3008F48BC02DE209
:1016C000290F203108F489C0903C21F481508230E8
:1016D00008F483C088E3890F8B3008F481C092E559
:1016E000C92E9AE0D92EECE3FAE06D817E81AE013D
:1016F0004F5F5F4F89859A8519955C01C114D104AC
:10170000A1F189809A808114910479F18B819C8167
:101710008815990508F487C010E000E04B815C81D2
:1017200070E060E0C7010E940E3501151105E9F473
:1017300049815A8169857A858D819E81680F791FDB
:10174000C501F6011995E980FA800D811E812F816E
:10175000388549855A856FEF7FEF81E090E00E94E0
:10176000851A8C01892B09F056C0C8012A960FB63C
:10177000F894DEBF0FBECDBFDF91CF911F910F91C7
:10178000FF90EF90DF90CF90BF90AF909F908F90A1
:10179000089580E085CF30E020E0220F331FF9016B
:1017A000E158FC4F0190F081E02D309709F497CF7C
:1017B000892F90E01995009709F491CFDC011296DA
:1017C000ED91FC9113971496CD90DC90309709F031
:1017D0008CCF1FC021E030E0E0CF22E030E0DDCF51
:1017E00023E030E0DACFD12CC12CE4E4FAE09F3FD3
:1017F00009F07BCFE0917F03F0918003309721F4D3
:10180000C90104EF1FEF0CC08FEF90E0199500970E
:10181000A9F604EF1FEF89859A85009709F4A5CFF3
:101820000E94E21CA2CF0E94B41B8C0189859A857C
:101830000E94E21C70E060E0C4010E944D1B98878A
:101840008F830E94821A9E838D836F8178856115B4
:10185000710559F0C8010E94411E9A87898706EFD9
:101860001FEF892B09F058CF59CF08EF1FEF56CF44
:1018700008EF1FEFD0CF20918D03222319F020E035
:101880000C94FD1487EF9FEF089580918B03909146
:101890008C0308950E9472190E94CC18F5D0EFE7CE
:1018A000F3E088E0DF011D928A95E9F710928D033D
:1018B00090E080E008950C942B1721E040E050E088
:1018C000BA010C94FD1486E090E0FA0191838083C4
:1018D00090E080E0089547E050E060E372E049CE98
:1018E000DF92EF92FF920F931F93CF93DF938A01C2
:1018F000EC01C60FD71FE0909103F0909203D980BE
:101900000E949C1BD816190678F082E090E0F8013E
:10191000918380838EEF9FEFDF91CF911F910F9185
:10192000FF90EF90DF900895EF2841F482E090E07F
:10193000F8019183808384EF9FEFEECF89818093BC
:10194000900390E00196F8019183808390E080E01D
:10195000E3CFCF93DF93EA010E94DC17882321F0C5
:101960000E94A91B0E94DD1782E090E09983888382
:101970008BEF9FEFDF91CF910895CF93DF93EB0132
:1019800086E0FB0111928A95E9F78FEF8883D8DD15
:101990008983E7DD8A83E8DD9D838C83DF91CF91A6
:1019A0000895CF93DF93EA010E94DF17811109C0E8
:1019B00082E090E09983888385EF9FEFDF91CF915C
:1019C000089590E080E0B7DD81E090E0998388831E
:1019D00090E080E0F3CF0F931F93CF93DF93EA0162
:1019E0008C01060F171F0E94DF1781110BC082E0C8
:1019F00090E09983888385EF9FEFDF91CF911F91CE
:101A00000F910895F8018181823038F082E090E0F2
:101A1000998388838EEF9FEFF0CF81E090E08BDD9C
:101A200088E090E09983888390E080E0E6CFCF93D0
:101A3000DF930097D1F4EB01FB01329686E0DF01E2
:101A40001D928A95E9F78FEF888385E089831A8252
:101A50000E949C1B8B830E949B1B9D838C8381E037
:101A60008E838F83DF91CF910895DF91CF911ACD2F
:101A70008BE69CE090938F0380938E030895809172
:101A80008E0390918F03089510928F0310928E030E
:101A9000089580919103909192030895411105C09A
:101AA000611571058105910561F060939103709353
:101AB000920380939303909394034093950381E062
:101AC000089580E00895FF920F931F93CF93DF93C3
:101AD0008A01EC01C60FD71FF9800E949C1BF816E3
:101AE000190668F082E090E0F801918380838EEF20
:101AF0009FEFDF91CF911F910F91FF9008956C811F
:101B00007D818E819F814B81C9DF811108C082E078
:101B100090E0F8019183808384EF9FEFEACF898181
:101B20008093900390E00196F8019183808390E088
:101B300080E0DFCFCF93DF93EA01FC01E60FF71FD0
:101B400064817581868197814381A8DF811109C0F5
:101B500082E090E09983888384EF9FEFDF91CF91BB
:101B6000089581E090E09983888390E080E0F6CF4B
:101B7000E1E9F3E04081518162817381480F511D99
:101B8000611D711D40835183628373830895CF93D8
:101B9000C09190034C2F50E060919103709192039B
:101BA00001960E9405358C2FE3DF10929003CF91B0
:101BB0000895009799F480919103909192032FEFEB
:101BC000FB012083892B59F02091900330E02F5F97
:101BD0003F4F2417350719F4CB01D9CF63CC0895B3
:101BE000009799F480919103909192032FEFFB015C
:101BF0002083892B59F02091900330E02F5F3F4FD5
:101C00002417350719F4CB01C2CF4CCC089523E13A
:101C1000AC01249FC001259F900D1124E0919A03EF
:101C2000F0919B03E80FF91F238134812250310981
:101C300081E02230310508F080E008950F931F9372
:101C4000CF93DF9300919C0310919D03D0E0C0E0FF
:101C500080E00C171D0749F491E0811190E0892F75
:101C6000DF91CF911F910F9108958111F5CFCE0192
:101C7000CEDF2196EECFA0919A03B0919B031097EF
:101C800029F120919C0330919D0382179307F0F472
:101C900053E1589F9001599F300D1124A20FB31F9B
:101CA000ED91FC911197309789F012968C916817FD
:101CB00068F48BE0689FE00DF11D11248081918113
:101CC000892B21F081E09281491708F080E0089586
:101CD0009C0143E1429FC001439F900D1124E0917C
:101CE0009A03F0919B03E80FF91F8385823099F4E2
:101CF00081E090E0658176814091190250911A024D
:101D00006417750711F490E080E0892B21F081E0E1
:101D10002230310508F080E00895EF92FF920F9392
:101D20001F93CF93DF93EA01FC01E60FF71F0281B7
:101D30001381E480F5804F2D6E2DC8019CDF811149
:101D40000DC082E090E0998388838EEF9FEFDF9152
:101D5000CF911F910F91FF90EF900895C80157DF29
:101D6000882339F082E090E09983888388EF9FEFA1
:101D7000EECF1093200200931F02E0922102F09216
:101D8000220281E090E09983888390E080E0DFCFB9
:101D9000CF92DF92EF92FF920F931F93CF93DF9337
:101DA0007A01EC01C60FD71FC0901F02D09020020D
:101DB0000091210210912202412F602FC6015BDFAA
:101DC000811110C082E090E0F701918380838AEF57
:101DD0009FEFDF91CF911F910F91FF90EF90DF90D8
:101DE000CF900895C60113DF882341F082E090E090
:101DF000F7019183808388EF9FEFEBCF4C815D816A
:101E00006E817F819A8189818F3F41F082E090E0ED
:101E1000F701918380838EEF9FEFDBCFE3E1EC9DB1
:101E20009001ED9D300D1124E0919A03F0919B03F8
:101E3000E20FF31F0190F081E02D2BE0029FE00DF7
:101E4000F11D11240190F081E02D27E0129FE00D9B
:101E5000F11D1124808391838B818283438354837A
:101E6000658376831F5F1093220281E090E0F70183
:101E70009183808390E080E0ACCFEF92FF920F934C
:101E80001F93CF93DF937A018C01060F171FC09128
:101E90009A03D0919B03209781F021E030E0F80174
:101EA0008281938140919C0350919D0384179507F3
:101EB00010F030E020E0232B71F482E090E0F70195
:101EC000918380838EEF9FEFDF91CF911F910F91D0
:101ED000FF90EF90089543E1489F9001499F300D96
:101EE0001124C20FD31F93DE882341F082E090E0DB
:101EF000F7019183808388EF9FEFE6CFF80124817B
:101F0000358120383105C8F687818111D6CF4181CE
:101F1000842F90E08F7E009741F082E090E0F701FF
:101F20009183808386EF9FEFCFCF4F833E832D83B6
:101F3000268128871986223010F421E0288721E0A5
:101F400030E0F70131832083BFCF88E090E0FA01D1
:101F50009183808390E080E00895FB018FEF808380
:101F600081E181838FEF9FEF9383828380E890E00C
:101F700095838483168217820895FB018FEF8083F7
:101F800091E0918382839383848384E3858381E0DA
:101F900090E0978386830895BF92CF92DF92EF926D
:101FA000FF920F931F93CF93DF93DA01FC01E60FAB
:101FB000F71F8181813081F082E090E08D939C93C6
:101FC0008FEF9FEFDF91CF911F910F91FF90EF90D7
:101FD000DF90CF90BF900895C281D381B480858176
:101FE00006811781E0909A03F0909B03E114F104BD
:101FF00039F482E090E08D939C938CEF9FEFE2CFD9
:1020000020919C0330919D03C217D30738F082E0E2
:1020100090E08D939C938EEF9FEFD4CFC230D1058B
:1020200038F082E090E08D939C9386EF9FEFCACFCB
:102030009B2D9D7FB1F78130A1F7B11005C0013014
:10204000110531F080E004C081E002301105D0F3C9
:10205000882339F36D01CE01DADD882341F082E077
:1020600090E0F6019183808388EF9FEFABCF83E10F
:102070008C9FF0018D9FF00D1124EE0DFF1DB38696
:1020800081E0848716870587108A178681E090E0B3
:10209000F6019183808390E080E094CF4CE050E0A3
:1020A0006AE572E066CA8F929F92BF92CF92DF92EA
:1020B000EF92FF920F931F93CF93DF93EA01FC01FE
:1020C000E60FF71F828193810481B580E0919A0326
:1020D000F0919B03309791F482E090E0998388839C
:1020E0008CEF9FEFDF91CF911F910F91FF90EF90B9
:1020F000DF90CF90BF909F908F90089520919C0388
:1021000030919D038217930738F082E090E0998325
:1021100088838EEF9FEFE6CF23E1289F6001299F00
:10212000D00C1124EC0DFD1DE080F180E114F104D0
:1021300099F28281081748F78BE0089F80011124EB
:10214000E00EF11EF70180819181892B29F6BB20D9
:10215000E1F2F7E0BF9E40011124C4010E94941CEB
:10216000F70191838083E0919A03F0919B03EC0D3A
:10217000FD1D0190F081E02DE00FF11F8081918124
:10218000009739F482E090E0998388838DEF9FEF88
:10219000A9CFA40170E060E00E940E3580919A03FF
:1021A00090919B03C80ED91EF60180819181080F82
:1021B000191FF801B28281E090E09983888390E052
:1021C00080E090CFAF92BF92CF92DF92FF920F93B9
:1021D0001F93CF93DF93EA01FC01E60FF71F828183
:1021E0009381F48000919A0310919B0301151105CE
:1021F00081F482E090E0998388838CEF9FEFDF91F8
:10220000CF911F910F91FF90DF90CF90BF90AF9033
:10221000089520919C0330919D038217930738F015
:1022200082E090E0998388838EEF9FEFE8CF2FEFD5
:102230002F0D2C3FA8F723E1289F6001299FD00C88
:1022400011240C0D1D1DF80180819181892B89F6C7
:10225000FBE0FF9E50011124C5010E94941CF8016F
:1022600091838083E0919A03F0919B03EC0DFD1D17
:1022700080819181009739F482E090E0998388838E
:102280008DEF9FEFBCCFA50170E060E00E940E359E
:10229000E0919A03F0919B03EC0DFD1DF28281E029
:1022A00090E09983888390E080E0A9CFCF92DF927D
:1022B000EF92FF920F931F93CF93DF93860F971F99
:1022C000FC010281138180919A0390919B03892BD9
:1022D00081F082E090E0FA01918380838CEF9FEFA0
:1022E000DF91CF911F910F91FF90EF90DF90CF90F2
:1022F0000895C801B0E0A0E00197A109B1098F3F9E
:102300009F4FA105B10540F082E090E0FA01918372
:1023100080838EEF9FEFE4CF7A0183E1809F60019D
:10232000819FD00C1124C6010E94941CEC010097DF
:1023300041F482E090E0F701918380838DEF9FEF7D
:10234000CFCFA60170E060E00E940E35D0939B03D2
:10235000C0939A0310939D0300939C0390E080E048
:102360002FEF3FEF41E061E070E08017910741F40B
:1023700081E090E0F7019183808390E080E0B0CF2E
:102380003A8B298B1B864C877E876D87188A1F8620
:1023900001966396EACFCF92DF92EF92FF920F936E
:1023A0001F93CF93DF93EC01D12CC12C10E000E000
:1023B000F12CE12C6A816017110609F0CCF483E05E
:1023C000689FB0011124AE014F5E5F4FC7010E94AC
:1023D0000E1D009721F02FEF3FEF3A8B298BDF91F5
:1023E000CF911F910F91FF90EF90DF90CF900895C4
:1023F000E881F981EC0DFD1D438154818D859E8519
:10240000489F9001499F300D589F300D1124C901FC
:1024100001960115110519F44F8144FD049661E000
:1024200070E00E944D1BE816F90608F47C010F5F6E
:102430001F4F8BE0C80ED11CBDCFF894209198039C
:102440003091990381E02115310509F080E0232BBB
:1024500009F0789408952F923F924F925F926F9275
:102460007F928F929F92AF92BF92CF92DF92EF9224
:10247000FF920F931F93CF93DF933C01660E771E5D
:10248000F301828193814C01B12CA12CC0919A035C
:10249000D0919B03209769F021E030E060919C038C
:1024A00070919D038617970710F030E020E0232BF2
:1024B000D1F482E090E0FA01918380838EEF9FEF68
:1024C000DF91CF911F910F91FF90EF90DF90CF9010
:1024D000BF90AF909F908F907F906F905F904F9044
:1024E0003F902F9008958092230290922402A09210
:1024F0002502B092260263E1689F9001699F300D2A
:102500001124C20FD31FF3018181833040F082E098
:1025100090E0FA019183808386EF9FEFD1CF2A016B
:102520002B813C81232BF1F4288139819F8191FFFC
:102530002EC0232B09F46FC020919F039A81422F54
:10254000490F5527551FBA0141E050E06138710528
:1025500014F050E040E0452B09F45DC02A87920F4B
:1025600090939F038150823008F481C066DF8823F6
:1025700009F4D8C0F3018181813009F48DC008F4D9
:102580007BC0823009F4C6C090E080E0ADC0232B50
:1025900009F441C020919E039A81E22FE90FFF27A1
:1025A000FF1F41E050E0ED3FF10514F050E040E046
:1025B000452B89F12A87920F90939E03D3CFA08158
:1025C000B181A20FB31F11966C91060F111D0196D8
:1025D000295F3F4F8417950794F38D859E85089F4B
:1025E0001001099F300C189F300C1124C114D10424
:1025F000D1F48F8184FF17C00E949B1BF5E02F0E42
:10260000311C21E08215930508F420E0A701455F05
:102610005F4F21110EC082E090E0F2019183808330
:1026200087EF9FEF4DCF0E949B1B2FEF221A320A9C
:10263000E8CF88819981E80EF91EF701148303839E
:10264000FFEFCF1ADF0A7A018A818C151D0409F089
:102650000CF48CCFE881F981EE0DFF1D428150E032
:1026600030E020E010E000E090E080E0B3CFF12C1B
:10267000E12CD12CC12CE8CF81E090E09C838B83AE
:10268000DDDA882309F480CF81E090E00E949B0A84
:1026900080E40E94A90A78CF89899A89019661F01D
:1026A00083E090E09C838B8382E090E00E949B0A11
:1026B00080E40E94A30A68CF2D813E818091190297
:1026C00090911A0228173907D1F460911D02709178
:1026D0001E02AE014F5E5F4F80911B0290911C0263
:1026E0000E94001E0097E1F2789422E030E0F201AF
:1026F00031832083892B99F08DEF9FEFE1CE22E08B
:1027000082169104A104B1045CF6CE0144DE188A5D
:102710001F86E8CF82E090E09C838B8335CF90E0EA
:1027200080E0CECE82E090E0F2019183808385EF5D
:102730009FEFC6CE8F929F92AF92BF92CF92DF92C1
:10274000EF92FF920F931F93CF93DF93EA018C01D7
:10275000060F171FF8018181833098F082E090E026
:102760009983888386EF9FEFDF91CF911F910F911F
:10277000FF90EF90DF90CF90BF90AF909F908F90A1
:10278000089580919A0390919B03892B61F081E0D9
:1027900090E020919C0330919D03232B11F490E055
:1027A00080E0892B39F482E090E0998388838EEF72
:1027B0009FEFDACF42DE882309F4DEC0F801818181
:1027C000813009F494C0E8F0823099F420919C03A0
:1027D00030919D03E0919A03F0919B0390E080E09B
:1027E00041E050E02817390709F0BCC027DA811111
:1027F00017C0789481E090E09983888390E080E02E
:10280000B3CF20919C0330919D03E0919A03F09106
:102810009B0390E080E041E050E02817390741F445
:1028200081E090E00E949B0A80E40E94A90AE1CF27
:1028300063817481672B11F05483438301967396EF
:10284000ECCFE0919A03F0919B03E00FF11F2381FD
:10285000348122303105D9F4218932892F3F3F4F0D
:10286000B1F4458156812091190230911A02421724
:10287000530761F5AF014F5E5F4F60911D0270918C
:102880001E0280911B0290911C020E94001E4FEFBD
:10289000C41AD40AE40AF40A0D5E1F4F40919C0347
:1028A00050919D0370E060E0C416D506E606F70679
:1028B00034F5009731F27894892B09F49BCF82E0AC
:1028C00090E0998388838DEF9FEF4ECF22E0C21670
:1028D000D104E104F104DCF6CF015DDDE0919A035F
:1028E000F0919B03E00FF11F108A1786D0CF10E004
:1028F00000E090E080E0C12CD12C7601CFCF009792
:10290000D1F610E000E0812C912C540183E0E82EF8
:10291000F12C1AC0E0919A03F0919B03E00FF11F94
:1029200083819481029749F4F482E38282E090E00B
:102930000E949B0A80E40E94A30A8FEF881A980ADB
:10294000A80AB80A0D5E1F4F80919C0390919D03C9
:10295000B0E0A0E088169906AA06BB06DCF290E07B
:1029600080E0A9CF638174816230710511F45483D2
:1029700043830196739636CF82E090E099838883F3
:1029800085EF9FEFF1CE0097B9F48FEFFB018083C5
:10299000209123023091240243E1429FC001439FD2
:1029A000900D1124E0919A03F0919B03E80FF91F19
:1029B0008285FB01818308950C94520A88E090E09F
:1029C000FA019183808390E080E00895109299034A
:1029D00010929803EAE9F3E086E0DF011D928A9500
:1029E000E9F78EE490E1909397038093960308951E
:1029F000809196039091970308952F923F924F9262
:102A00005F926F927F928F929F92AF92BF92CF927E
:102A1000DF92EF92FF920F931F93CF93DF93CDB787
:102A2000DEB760970FB6F894DEBF0FBECDBFF89447
:102A3000E0919803F09199033196F0939903E09314
:102A400098037894A0919A03B0919B03BA83A983C9
:102A5000109709F4FAC1E0919C03F0919D03EF2BCC
:102A600009F4F3C128874B875C876D877E879A8737
:102A70008987B88BAF87312C212CF12C512C412C1C
:102A800080919C0390919D032816390610F4FF2035
:102A900029F1F8948091980390919903019790936C
:102AA0009903809398037894C20160960FB6F894C6
:102AB000DEBF0FBECDBFDF91CF911F910F91FF9071
:102AC000EF90DF90CF90BF90AF909F908F907F90CE
:102AD0006F905F904F903F902F900895B10190E0DC
:102AE00080E087D4682EEF85F889878181FD3DC01D
:102AF000838194810397C9F5258136813C832B839B
:102B000089859A852817390781F5C101E1D8782E82
:102B10008823A9F1AF85B8891F968D919C91509714
:102B2000019621E01D964D915C918417950709F05F
:102B300020E02F83B12CA12CEF85F88982818A15A2
:102B40001B0419F014F0FF20E9F0F885FF2309F4C5
:102B50006CC1AF85B88950961C921E921F97662053
:102B600021F0B10190E080E046D4FFEF2F1A3F0A38
:102B70002F8538892D5E3F4F388B2F8781CFB1E06D
:102B8000BF83D8CFBFD49E838D83E885EE23E9F041
:102B9000772009F43CC1AF85B8891F968D919C912F
:102BA000892B79F0BBE0BA9DC001BB9D900D11242B
:102BB000AF85B889ED91FC91E80FF91F8581968169
:102BC00001D7BFEFAB1ABB0AB7CF81E0772039F04E
:102BD000EF85F88927853089232B09F080E0F82ECE
:102BE000E12CA114B10439F4AF85B8891796EC90A3
:102BF000E4FAEE24E0F8BBE0BA9D6001BB9DD00C86
:102C00001124882309F424C1AF85B889ED91FC9182
:102C10001197EC0DFD1D438154811D962D913C9122
:102C2000429FC001439F900D529F900D1124E110CF
:102C30005DC001969087878361E070E08781908511
:102C40002CD5EF85F88921893289008111810C0DFD
:102C50001D1D2F3F320709F44BC0BC01C9010E9462
:102C6000411ED80116969C938E931597AF85B8890F
:102C7000ED91FC911197EC0DFD1D0581168101155B
:102C8000110509F4CDC0ED81FE810E0F1F1F1A96AC
:102C90008C918A0DD8018C93E1102FC00F5F1F4FCC
:102CA000AF85B889ED91FC91EC0DFD1D1287018770
:102CB000AF85B889ED91FC91EC0DFD1D8581968164
:102CC000892B09F4A4C08091190290911A022B81DA
:102CD0003C812817390709F465C0772011F0018578
:102CE0001285912C812C1A8219824AC00596A2CF96
:102CF0001BD6F80196838583B9CF8B859C85AD85DE
:102D0000BE85F80181839283A383B4830B5F1F4F39
:102D1000C7CFE080F180E80CF91CD70113966D91C4
:102D20007C9114978C918F3F09F473C0E1E0F0E03F
:102D300002C0EE0FFF1F8A95E2F7CF01092E000CAB
:102D4000AA0BBB0BFB0140815181628173818423FB
:102D50009523A623B72321E0892B8A2B8B2B09F4FB
:102D600020E0D8012C93D70111968C91080F111DEA
:102D7000E981FA813196FA83E983F7E08F0E911C9D
:102D8000AF85B889ED91FC91EC0DFD1D8281298103
:102D90003A818217130611F00CF0BBCF772011F0A7
:102DA000128701873F81332391F1AF85B889ED9177
:102DB000FC91EC0DFD1D61E070E0878190856DD484
:102DC000AF85B889ED91FC91EC0DFD1DE780F08495
:102DD00045815681E1E0F0E0662011F0F0E0E0E0AE
:102DE0000D811E819C01B101882799278E1B9F0BA5
:102DF0008CD32C01892B59F0EF85F8898081918142
:102E0000C80ED91ED60115968D919C91DBD5F12C5B
:102E1000D8CEF701418150E0C8010E940535A3CF0B
:102E200086EF482E55245A94CCCEEF85F8898785B5
:102E300090890196908B8787258536858217930721
:102E400009F08DCE108A17868ACE512C412C21CEC6
:102E500010E000E02DCF2F923F924F925F926F9241
:102E60007F928F929F92AF92BF92CF92DF92EF921A
:102E7000FF920F931F93CF93DF9380919A039091CA
:102E80009B0310E000E0892BA9F0D7DA0AEF1FEFCF
:102E9000882381F020909C0330909D03C0919A0379
:102EA000D0919B03D12CC12C10E000E02C143D04E8
:102EB000A9F47894C801DF91CF911F910F91FF90F1
:102EC000EF90DF90CF90BF90AF909F908F907F90CA
:102ED0006F905F904F903F902F900895C6010E9491
:102EE000680E882309F18B819C810397E9F48F8513
:102EF0009889892BC9F0B60190E080E07AD221E070
:102F000030E0882311F030E020E044245524421AB8
:102F1000530AB12CA12C912C812C8A81881519047B
:102F200009F038F4188A1F864FEFC41AD40A639642
:102F3000BDCFE881F981EA0DFB1D85819681892B42
:102F4000A1F161E070E087819085A7D33C01DAD2DE
:102F50008C01E881F981EA0DFB1D8185928525812F
:102F60003681200F311FAC01421B530B9A01478160
:102F70005085421B530B70E060E00E940E35E881E3
:102F8000F981EA0DFB1DE780F084458156819301AC
:102F9000B601C201BAD28C01892B39F0E881F981DE
:102FA000EA0DFB1D858196810DD55FEF851A950A87
:102FB0008BE0A80EB11CB1CF40CA789408952F922F
:102FC0003F924F925F926F927F929F92AF92BF9289
:102FD000CF92DF92EF92FF920F931F93CF93DF93E5
:102FE00000D000D0CDB7DEB700919A0310919B03BB
:102FF000992493940115110509F43EC0A0909C03F7
:10300000B0909D031ADA982E8823B1F110929B0399
:1030100010929A0310929D0310929C0310929E03AB
:1030200010929F038FEF9FEFDC0180932302909318
:103030002402A0932502B093260278947ED31E83A7
:103040000D83C12CD12C7601C501B0E0A0E08983AD
:103050009A83AB83BC8322242A94322C89819A815F
:10306000AB81BC81C816D906EA06FB06F4F0C8019C
:10307000A9D480E40E94A90A892D26960FB6F89457
:10308000DEBF0FBECDBFDF91CF911F910F91FF909B
:10309000EF90DF90CF90BF90AF909F907F906F9018
:1030A0005F904F903F902F900895AD81BE8115960F
:1030B0002D913C9116978091190290911A02281730
:1030C0003907D1F451968D919C91C9D5ED81FE813E
:1030D00080819181B12CA12C412C512C3201892B62
:1030E00081F5BFEFCB1ADB0AEB0AFB0AED81FE810B
:1030F0007396FE83ED83B2CFB2E0CB16D104E10428
:10310000F10424F7ED81FE81818992898F3F980730
:1031100009F020D5AD81BE8152963C922E925197F6
:10312000D5CF8A0D9B1DDC018D919C91009709F0F4
:1031300049D4BFEF4B1A5B0A6B0A7B0AEBE0AE0E79
:10314000B11CAD81BE818D919C91119712964C91CD
:1031500050E070E060E044165506660677060CF312
:1031600031D4BFCFCF93DF93EA0129DF811109C0AA
:1031700082E090E09983888385EF9FEFDF91CF9184
:10318000089581E090E00E949B0A81E090E099839D
:10319000888390E080E0F2CF12DF109297031092C4
:1031A0009603089542E050E062EA72E00C94B90A96
:1031B000FF920F931F93CF93DF938A01EC01C60F09
:1031C000D71FF980B9D20897F816190671F068F080
:1031D00082E090E0F801918380838EEF9FEFDF9192
:1031E000CF911F910F91FF9008956C817D818E8109
:1031F0009F814B810E944E0D811108C082E090E0BA
:10320000F8019183808384EF9FEFE9CFF9800E94DA
:10321000490D4F2D50E0BE01685F7F4F0E9405357C
:1032200089810E94B80D81E090E0F801918380834C
:1032300090E080E0D4CFDF92EF92FF920F931F9344
:10324000CF93DF938A01EC01C60FD71F0E94490D6F
:103250007C01D98071D2DD2059F0029721E030E065
:10326000D816190619F010F030E020E0232B79F47D
:1032700082E090E0F801918380838EEF9FEFDF91F1
:10328000CF911F910F91FF90EF90DF900895EF285D
:1032900041F482E090E0F8019183808384EF9FEF16
:1032A000EECFF9800E94490D4F2D50E0BE016E5FB8
:1032B0007F4F0E94053589810E94B80D81E090E022
:1032C000F8019183808390E080E0D9CF82ED98E18E
:1032D0009093A1038093A00308958091A0039091FF
:1032E000A10308950895FC011182108293838283C3
:1032F0000895DB011D921C92DC011296ED91FC9168
:1033000013977183608313967C936E93129708953D
:10331000FC0180819181DB018D939C93A081B1811F
:10332000109741F08D919C9191838083892B11F4AA
:10333000F383E2830895FC0180819181DB018D9309
:103340009C93892B11F47383628371836083089546
:10335000FC0111821082938382830895CF93DF93BF
:103360001F921F92CDB7DEB71A821982F894BE0160
:103370006F5F7F4F87EA93E0CBDF89819A81009767
:1033800009F020D389819A81892B89F7BE016F5F6B
:103390007F4F8BEA93E0BCDF89819A81009709F027
:1033A00011D389819A81892B89F778940F900F9096
:1033B000DF91CF910895CF93DF931F921F92CDB7E6
:1033C000DEB71A821982F894BE016F5F7F4F83EADD
:1033D00093E09EDF89819A81009709F0F3D2898179
:1033E0009A81892B89F778940F900F90DF91CF9174
:1033F000089581E0089590E080E00895EF92FF92B3
:103400000F931F93CF93DF931F921F92CDB7DEB719
:103410001A8219828091A20307EF1FEF8823A1F17E
:10342000F894BE016F5F7F4F8BEA93E071DF789471
:1034300089819A81EE24E394F12C892B51F4F8943C
:10344000BE016F5F7F4F87EA93E062DF7894F12CD3
:10345000E12C89819A810EEF1FEF0097A9F0FC0102
:103460004281538164E070E010D68C01892B61F0B9
:10347000F89469817A81C701880F991F880F991F75
:1034800089559C4F58DF7894C8010F900F90DF91B9
:10349000CF911F910F91FF90EF9008950F931F937D
:1034A000CF93DF9300D01F92CDB7DEB71C821B8273
:1034B0001A8219828091A20307EF1FEF8823C1F0BF
:1034C000AE014D5F5F4F64E070E0CE01019650D6D3
:1034D0008C01892B69F4E981FA818B819C8193832A
:1034E0008283F89469817A8183EA93E002DF789499
:1034F000C8010F900F900F900F90DF91CF911F9107
:103500000F91089555D7049608958F929F92AF9288
:10351000BF92CF92DF92EF92FF920F931F93CF93C0
:10352000DF931F921F92CDB7DEB71A821982BC01BA
:103530006F5F7F4F6330710598F0AA24AA94BA2C6C
:10354000C5010F900F90DF91CF911F910F91FF90C8
:10355000EF90DF90CF90BF90AF909F908F900895A5
:103560004115510551F3480159018A016C01CADF27
:103570008815990511F7E114F104F9F28E0D9F1DDC
:10358000A816B906D0F28091A2038823F1F0F8942E
:10359000B501645071099701AE014F5F5F4FC801DB
:1035A00004967BD65C01892B71F489819A81F8019C
:1035B00093838283C601880F991F880F991FB801D2
:1035C00089559C4F96DE7894BBCF87EFA82EBB24FD
:1035D000BA94B6CFAF92BF92CF92DF92EF92FF92A2
:1035E0000F931F93CF93DF931F921F92CDB7DEB738
:1035F0001A821982892B09F047C06115710509F4F7
:1036000043C04115510509F43FC02115310509F4A6
:103610003BC001151105C1F18091A2038823B9F1C6
:1036200079016A015B01F894BE016F5F7F4F83EA05
:1036300093E06EDE789489819A81009759F1DC01DC
:1036400012966D917C91A801049640D68C01E98177
:10365000FA81D501ED93FC93828193810496F60162
:10366000918380834FDFD7018D939C93C8010F9086
:103670000F90DF91CF911F910F91FF90EF90DF900E
:10368000CF90BF90AF9008950FEF1FEFEFCF07EFF0
:103690001FEFECCF0EEF1FEFE9CFCF93DF93EC01DD
:1036A000672B71F48ED68C179D0760F081D6249617
:1036B000C80FD91F80D68C0F9D1FDF91CF91089521
:1036C0007DD6F1CF90E080E0F8CF0F931F93CF939A
:1036D000DF932091A20321112BC08B01EC0187EA1B
:1036E00093E001DE8BEA93E0FEDD83EA93E0FBDD0D
:1036F00097D00097C1F465D670E060E0CEDF47E276
:1037000052E062E070E08AD1009769F4809127026C
:103710009091280268D6B801CE019DD4009719F483
:1037200021E02093A203DF91CF911F910F91089583
:1037300084EF9FEFF8CF42C644C6CF93DF9344D6C1
:10374000EC01892B11F40ADE36DECE01DF91CF9138
:103750000895CF93DF9338D6EC01892B09F4FEDD71
:10376000CE01DF91CF910895809127029091280298
:103770000895CF93DF938091A203D0E0C0E0882327
:10378000D1F036D6EC01892BB1F4E8DD14DE80915E
:10379000270290912802DED1C4D2EC01892B59F482
:1037A00087EA93E0D5DD8BEA93E0D2DD83EA93E00C
:1037B000CFDD1092A203CE01DF91CF910895EF9259
:1037C000FF920F931F93CF93DF93EC017A018B014C
:1037D0000F5F1F4F0E9DA0010F9D500D1E9D500DA0
:1037E000112470E060E00E940E3590E080E0F0E08F
:1037F000E0E02FEFE816F90639F4DF91CF911F9141
:103800000F91FF90EF9008951A82198228833097C4
:1038100011F0D283C1830196FE01C00FD11FEACF00
:10382000AF92BF92CF92DF92EF92FF920F931F93CE
:10383000CF93DF938CEC94E07C012CEFE2228EEAB4
:10384000C82E82E0D82E94EBA92E92E0B92EC3E3C5
:10385000D5E08E01D6014D915D916D01F50161912B
:1038600071915F01D8011196FC92EE9215965C93CE
:103870004E93149713965C934E93129717967C93DE
:103880006E9316979B012F5F3F4F249FC001259F8A
:10389000900D349F900D112419969C938E93189738
:1038A000E114F10411F0C7018ADFF80180859185E8
:1038B000E80EF91E065F1F4FF4EBCF16F2E0DF06AD
:1038C00049F6E1EBF3E088E191E0DF019C011D9214
:1038D00021503040E1F71092B0031092AF0381E520
:1038E00095E01F8E1E8E1BA21AA219A218A21DA25D
:1038F0001CA21FA21EA22A968C179D0791F7109258
:10390000300510922F05109232051092310590E08B
:1039100080E0DF91CF911F910F91FF90EF90DF90AA
:10392000CF90BF90AF900895009799F1F8948131AE
:10393000910550F48091350590913605892B39F029
:1039400020E090E080E018C08132910550F4809131
:103950003F0590914005892B31F021E081E090E016
:103960000BC0C197A8F48091490590914A05892B15
:1039700079F022E082E090E0EAE0E89FD001E99F60
:10398000B00D1124AD5CBA4F8D919C91009721F43C
:10399000789490E080E00895E29FF0011124ED5CBE
:1039A000FA4FDC0111964D915C9151834083428125
:1039B00053814150510953834283FC012193CF012C
:1039C00078940895009749F1DC018E91863041F496
:1039D000E0913105F09132053097F9F0CD0119945D
:1039E0008630D8F4282F30E0F8948FEF8C938AE05B
:1039F000829FF001839FF00D1124ED5CFA4F8081CE
:103A0000918112969C938E931197B183A0838281AA
:103A1000938101969383828378940895CF92DF9265
:103A2000EF92FF920F931F93CF93DF939C0184EB50
:103A300093E08C7F4115510509F489C021153105AA
:103A400009F485C06115710509F481C08A01AB01D3
:103A5000B9016D5F7F4F6C7F9B012F5F3F4F249FAC
:103A60007001259FF00C349FF00C1124F894E3E3CF
:103A7000F5E023E030E0E901A6A1B7A1C68CD78C20
:103A8000CD2809F058C0109709F03EC0C090AF0390
:103A9000D090B00325E131E02C193D092E153F05EA
:103AA00030F47894CFEFDFEF86EF9FEF21C02AE06C
:103AB0002C9FF0012D9FF00D1124ED5CFA4F9183A6
:103AC0008083558344835383428377836683F1865F
:103AD000E086009709F073DEEC0CFD1CF092B00359
:103AE000E092AF037894CF3FDC07F1F290E080E002
:103AF000F801D183C083DF91CF911F910F91FF9087
:103B0000EF90DF90CF900895AE15BF05A0F02AE0AA
:103B10002C9FF0012D9FF00D1124ED5CFA4F918345
:103B200080835583448353834283778366830097DE
:103B3000C9F245DED7CF8A0F9B1F2F5F3F4F3A96C2
:103B40002630310509F097CFCFEFDFEFCBCF8FEFE6
:103B50009FEFD1CF9C010397039708F04EC0F894D4
:103B600085E09AE0482F50E0241735079CF191E05A
:103B70008AE0829FF001839FF00D1124ED5CFA4FE3
:103B80001182108215821482138212821782168289
:103B90009923E1F08091AF039091B003E3E3F5E066
:103BA00022A933A9232B49F422AD33AD21153105C8
:103BB00021F0821B930B13AE12AE3A9725E0E5314C
:103BC000F20771F79093B0038093AF03789490E07D
:103BD00080E00895949FF001959FF00D1124ED5C15
:103BE000FA4F40815181452B31F440855185452B59
:103BF00011F48150B7CF90E0BBCF8FEF9FEF0895C6
:103C00004115510549F1009739F16115710521F10F
:103C1000F89420912F0530913005232BB9F4209191
:103C2000310530913205232B89F490933005809330
:103C30002F057093320560933105789426E030E0CB
:103C400090E080E0FA0131832083089578942FEF8B
:103C50003FEF86EF9FEFF6CF8FEF9FEF0895069728
:103C600069F4F8941092300510922F0510923205E5
:103C700010923105789490E080E008958FEF9FEFE7
:103C800008956115710519F4F0E0E0E011C0863087
:103C9000910581F4E0912F05F09130053097A1F363
:103CA000CB0101961995009779F3FC0186E0819389
:103CB000CF0108959C01235031092330310520F7AD
:103CC0002AE0289FD001299FB00D1124AD5CBA4F86
:103CD0002D913C911197232BB9F216962D913C9181
:103CE00017972617370780F2F89412962D913C917A
:103CF00013972115310529F0ED91FC91119730971B
:103D000011F47894C1CF4181528111965C934E9306
:103D10002150310913963C932E93129781937894F6
:103D2000C7CFE9ECF4E086E6DF011D928A95E9F75A
:103D3000E1EBF3E088E191E0DF019C011D9221506D
:103D40003040E1F71092B0031092AF03E3E3F5E0E7
:103D50008CE3DF011D928A95E9F7EFE2F5E084E05C
:103D6000DF011D928A95E9F790E080E00895CF93F6
:103D7000DF93C0912902D0912A02CF3FDC0761F482
:103D80000E946B2B90932A028093290297FF09C00F
:103D9000D0932A02C093290284EF9FEFDF91CF9145
:103DA000089590E080E0FACF8230910528F4809366
:103DB0006F0590E080E008958FEF9FEF08954F9298
:103DC0005F926F927F92AF92BF92CF92DF92EF920B
:103DD000FF920F931F93CF93DF931F921F92CDB744
:103DE000DEB71A821982009709F47AC0611571054D
:103DF00009F476C02091290230912A0207EF1FEFC3
:103E00002F3F3F4F09F446C06B015C01412C512C00
:103E10003201F12CE12C10E000E09E012F5F3F4FBA
:103E2000A6014E195F09B5016E0D7F1D8091290213
:103E300090912A020E94C92B892B09F04BC08981DD
:103E40009A81009741F4E114F10429F420916F055F
:103E5000222309F442C0E80EF91EEC14FD04D0F44C
:103E600080E8481684E858068EE16806710420F55B
:103E700060E070E0CB010E94D32F2AE0420E511C7B
:103E8000611C711C0A3F4FEF140721F0043F8FEFB4
:103E90001807A1F4C8010F900F90DF91CF911F91E7
:103EA0000F91FF90EF90DF90CF90BF90AF907F90F9
:103EB0006F905F904F90089501EF1FEF81E090E0C9
:103EC000013F2FEF120711F090E080E0892B09F4F9
:103ED000A4CFE0CF04EF1FEFDDCF0AEF1FEFDACF63
:103EE0000FEF1FEFD7CF4F925F926F927F92AF92FB
:103EF000BF92CF92DF92EF92FF920F931F93CF93D7
:103F0000DF931F921F92CDB7DEB71A8219820097F6
:103F100009F47AC06115710509F476C0209129026F
:103F200030912A0207EF1FEF2F3F3F4F09F446C0A1
:103F30006B015C01412C512C3201F12CE12C10E081
:103F400000E09E012F5F3F4FA6014E195F09B501AA
:103F50006E0D7F1D8091290290912A020E947F2B75
:103F6000892B09F04BC089819A81009741F4E114B3
:103F7000F10429F420916F05222309F442C0E80ED0
:103F8000F91EEC14FD04D0F480E8481686E95806C2
:103F900088E96806710420F560E070E0CB010E94BA
:103FA000D32F2AE0420E511C611C711C0E3F4FEFB3
:103FB000140721F0043F8FEF1807A1F4C8010F90F8
:103FC0000F90DF91CF911F910F91FF90EF90DF90B5
:103FD000CF90BF90AF907F906F905F904F9008957B
:103FE00002EF1FEF81E090E0023F2FEF120711F088
:103FF00090E080E0892B09F4A4CFE0CF04EF1FEF1D
:10400000DDCF0EEF1FEFDACF0FEF1FEFD7CF80918D
:10401000290290912A028F3F980751F00E94632B4A
:10402000892B49F48FEF9FEF90932A028093290206
:1040300090E080E0089584EF9FEF0895FC01680F01
:10404000791F90E080E0E617F70709F408952191C1
:10405000820F911DF8CF20917005211113C087DECA
:10406000009791F4109276051092750510927405E0
:1040700010927305109272051092710521E0209341
:104080007005089584EF9FEF0895AF92BF92CF928D
:10409000DF92EF92FF920F931F93CF93DF930097DE
:1040A00009F460C04630510508F45CC020917005E9
:1040B000C7EFDFEF222309F449C08C01060F171F59
:1040C000F801C080D180C114D10409F44EC096011A
:1040D0002A5F3F4F4217530708F447C07C01809185
:1040E00075059091760593838283B6016C5F7F4F4F
:1040F0005801A60EB71EC801A1DFF5019183808388
:1041000064E070E0C8015BDEEC01892BF9F481E02A
:1041100090E04ADEB601C801049651DEEC01892B1D
:1041200091F462E070E0C5014ADEEC01892B59F49C
:10413000C70148DC809175059091760501969093B2
:1041400076058093750590E080E02EDECE01DF914C
:10415000CF911F910F91FF90EF90DF90CF90BF9084
:10416000AF900895CFEFDFEFF1CFC9EFDFEFEECFE4
:104170006F927F928F929F92AF92BF92CF92DF9277
:10418000EF92FF920F931F93CF93DF9300D01F9274
:10419000CDB7DEB7009709F47AC04115510509F48F
:1041A00076C02091700507EF1FEF222309F44DC060
:1041B0003A017B015C0164E070E0CE01019693DE80
:1041C0008C01892B09F041C009811A810115110563
:1041D00009F45AC0480186E0880E911CB701680DA9
:1041E000791D80912B0290912C024BDD6C01009780
:1041F00009F450C0A70170E060E00E940E3589818B
:104200009A81AB81BC81EC0CFD1CF70181939193E9
:10421000A193B1937F0181E090E0C6DDB801C701B1
:1042200062DE892B31F562E070E0C701800F911FDB
:104230005ADE8C01892BE9F490E080E0B5DDF501D0
:10424000D182C082F30191828082C8010F900F90C9
:104250000F900F90DF91CF911F910F91FF90EF90F2
:10426000DF90CF90BF90AF909F908F907F906F9096
:10427000089590E080E098DDF50111821082F3014D
:1042800011821082C6019EDB09EF1FEFDECF0FEF18
:104290001FEFDBCF06EF1FEFD8CF0097A1F041153E
:1042A000510589F02115310571F0F90136966E1727
:1042B0007F0748F0DC012D933C93DA01ED93FC93EA
:1042C00090E080E008958FEF9FEF0895AF92BF9246
:1042D000CF92DF92EF92FF920F931F93CF93DF93D2
:1042E000009709F45FC04115510509F45BC06530C2
:1042F000710508F457C020917005C7EFDFEF222346
:1043000091F1DC01CD90DC9011971296ED91FC912A
:1043100096012A5F3F4FC9EFDFEF2617370719F5E0
:10432000C0917105D0917205209749F521E030E0E8
:1043300030937205209371057A018C01F093740516
:10434000E09373055601B4E0AB0EB11CB50176DE07
:104350000A0D1B1DF801208131818217930729F571
:10436000D701CD92DC92CE01DF91CF911F910F91B9
:10437000FF90EF90DF90CF90BF90AF900895209185
:104380007305309174052F5F3F4FCCEFDFEFE217DD
:10439000F30790F2CBEFDFEF2E173F0768F2D0E084
:1043A000C0E0CACFCFEFDFEFDECFC3EFDFEFDBCF71
:1043B00084E090E0089582E090E008958CEF9FEF14
:1043C000089580E290E008951092760510927505A8
:1043D0001092740510927305109272051092710577
:1043E00090E080E0089590932C0280932B02089532
:1043F00080917005882391F00ADE009789F410926D
:10440000760510927505109274051092730510923E
:1044100072051092710510927005089590E080E089
:104420000895009749F06115710531F0FC01118282
:104430001082FB01118210820895F3CF90E080E09A
:10444000089580916A0690916B06891B990B0895D7
:1044500090916B0680916A062FEF3FEF981748F412
:10446000E92FF0E0E459F94F208130E09F5F90930D
:104470006B06C9010895E0916B0680916A06E81702
:1044800030F4F0E0E459F94F808190E008958FEF27
:104490009FEF08950895CF93DF93EC01E0914206DA
:1044A000F09143063097F1F090916B0680916A0687
:1044B0009817C0F090E0292F30E02617370754F402
:1044C000DE01A20FB31F4C912459394FD9014C93EF
:1044D0009F5FF1CF10926B0660936A06CB01DF916C
:1044E000CF911994DF91CF910895E0914406F09116
:1044F0004506309729F01092480610924706199405
:10450000089581E0809346066093690610924806FC
:104510001092470608951092350681E08093330685
:104520001092320661E084E10E940D3161E085E184
:104530000E940D31E9EBF0E080818E7F80838081E5
:104540008D7F808388E48093B80085E48093BC00ED
:10455000089510926B0610926A0610924806109207
:104560004706D9DF85E792E290932B0680932A06CF
:104570008BE492E290932906809328060895ECEB51
:10458000F0E080818A7B808360E084E10E940D31CD
:1045900060E085E10C940D312091E405260F33276E
:1045A000331F21323105E4F4209135062430D1F453
:1045B000FC0190E080E0861760F4A091E405219171
:1045C000AC014A515A4FA40FB52FB11D2C9301963F
:1045D000F2CF8091E405680F6093E40580E00895D0
:1045E00081E0089582E00895CF93DF931F92CDB7C5
:1045F000DEB76983209146062223F9F02091470611
:10460000203258F021E030E0FC013383228390E037
:1046100080E00F90DF91CF91089580914806E82FB8
:10462000F0E0E75BF94F998190838F5F80934806B4
:104630008093470681E090E0ECCF61E0CE010196E7
:10464000ABDFF8CFCF92DF92EF92FF920F931F93E1
:10465000CF93DF937C01CB018A0120914606222370
:1046600089F0EB016B01C40ED51ECC15DD0561F0A0
:104670006991D701ED91FC910190F081E02DC70186
:104680001995F3CF642F88DFC801DF91CF911F9177
:104690000F91FF90EF90DF90CF90089585EC80937D
:1046A000BC00109235060895CF93DF9391E090936C
:1046B0002D06882351F0C091B800D091BA005FDF79
:1046C0002ADFD093BA00C093B800DF91CF9108954C
:1046D0004F925F926F927F928F929F92AF92BF9212
:1046E000CF92DF92EF92FF920F931F93CF93DF93BE
:1046F000D82F162F072FC42FB22E413250F50E940B
:10470000AE2F6B017C01809135068823A9F1809141
:104710002E0690912F06A0913006B0913106892B7C
:104720008A2B8B2B81F30E94AE2F40902E06509047
:104730002F0660903006709031066C197D098E0945
:104740009F094616570668067906E8F680912C06FA
:10475000ABDFC0E08C2FDF91CF911F910F91FF90C5
:10476000EF90DF90CF90BF90AF909F908F907F9011
:104770006F905F904F90089581E080933506B092DE
:1047800033069FEF9093C205109207069C0F9093FB
:1047900006068093340680913406DD0FD82BD09323
:1047A000340680913206813009F05AC010923206E8
:1047B0000E94AE2F6B017C01809134068093BB0078
:1047C00080912E0690912F06A0913006B09131066F
:1047D000892B8A2B8B2B79F58091BC0083FDECCF44
:1047E00085EC8093BC000E94AE2F6B017C01809110
:1047F00035068130B9F580912E0690912F06A09153
:104800003006B0913106892B8A2B8B2B81F30E94C5
:10481000AE2F80902E0690902F06A0903006B0907C
:1048200031066C197D098E099F0986169706A80620
:10483000B906E8F68BCF0E94AE2F80902E0690909E
:104840002F06A0903006B09031066C197D098E09B4
:104850009F0986169706A806B90608F0BDCF76CF41
:1048600085EEBFCF809107068C1710F4C091070624
:10487000A8E0B6E0912FE12FF02F8E2F891B8C1727
:1048800008F068CF8D918193F8CF4F925F926F922D
:104890007F928F929F92AF92BF92EF92FF920F936F
:1048A0001F93CF93DF93413208F0D2C0F22ED42F62
:1048B000E72E162FC82F0E94AE2F4B015C0180916E
:1048C0003506882391F180912E0690912F06A091B4
:1048D0003006B0913106892B8A2B8B2B81F30E94F5
:1048E000AE2F40902E0650902F06609030067090AC
:1048F0003106681979098A099B0946165706680620
:104900007906E8F680912C06CFDE85E0DF91CF9125
:104910001F910F91FF90EF90BF90AF909F908F905D
:104920007F906F905F904F90089582E0809335065E
:10493000009333068FEF8093C20510920706D09341
:104940000606912FA8E0B6E0E12FFE2D8E2F891BE1
:104950008D1718F481918D93F9CF109234068091C0
:104960003406CC0FC82BC0933406809132068130B8
:1049700009F041C0109232060E94AE2F4B015C013B
:10498000809134068093BB0080912E0690912F0673
:10499000A0913006B0913106892B8A2B8B2BB9F46C
:1049A0008091BC0083FDECCF85EC8093BC000E941D
:1049B000AE2F4B015C01FF2021F080913506823043
:1049C000E1F08091C2058F3FC9F580E09FCF0E9442
:1049D000AE2F00912E0610912F06209130063091B7
:1049E0003106681979098A099B09061717072807EC
:1049F0003907B0F687CF85EED8CF80912E069091FB
:104A00002F06A0913006B0913106892B8A2B8B2B73
:104A100091F20E94AE2F00912E0610912F06209148
:104A2000300630913106681979098A099B09061701
:104A300017072807390708F0BECF64CF8091C20559
:104A4000803241F08091C205803331F084E05ECF46
:104A500081E05CCF82E05ACF83E058CF0F93062FDE
:104A600021E04091470669E476E0809169060DDF18
:104A70001092480610924706109246060F9108952C
:104A80004F925F926F927F92AF92BF92CF92EF92CE
:104A9000FF920F931F93CF93DF935C01F62ED42FD9
:104AA00028013901EE2009F12CDDCE2DC43008F0AB
:104AB000C3E0C150B8F028E0C29FC0011124A30197
:104AC000920104C056954795379527958A95D2F758
:104AD000B901D501ED91FC910190F081E02DC50166
:104AE0001995E7CF60E0C501B9DF4D2FD13208F04D
:104AF00040E22C2D6CE676E08F2DEADD10926B06FD
:104B000080936A06DF91CF911F910F91FF90EF90F4
:104B1000CF90BF90AF907F906F905F904F9008952F
:104B2000CF92EF920F931F93C22EE12C00E010E082
:104B30009801A6DF1F910F91EF90CF90089521E08B
:104B4000EFCF61E08BCF85ED8093BC0080912E0686
:104B500090912F06A0913006B09131060796A11DC5
:104B6000B11D23E0B695A795979587952A95D1F71E
:104B70002091BC0024FF1BC040912E0650912F06AF
:104B80006091300670913106452B462B472B81F3FF
:104B90000097A105B10541F02AE22A95F1F700C07E
:104BA0000197A109B109E4CF80912C067DCD109227
:104BB000350608951F920F920FB60F9211240BB66F
:104BC0000F922F933F934F935F936F937F938F93A6
:104BD0009F93AF93BF93EF93FF938091B900887F2A
:104BE000803609F44CC008F03FC0883209F4A8C0F0
:104BF00028F5803109F49CC0C8F4882309F4F8C072
:104C0000883009F495C0FF91EF91BF91AF919F91CA
:104C10008F917F916F915F914F913F912F910F9065
:104C20000BBE0F900FBE0F901F901895883109F49E
:104C300087C0803241F78093C20514C0803409F4E4
:104C40009CC040F48033B9F38833E9F68093C20501
:104C500025DDD9CF803509F484C0883509F495C0A5
:104C6000883489F670DFCFCF883909F48CC038F5E5
:104C7000883729F050F4883611F0803721F683E028
:104C8000809335061092C30557C0883809F47BC05D
:104C9000803919F0803809F0B6CF8091C305803291
:104CA00008F071C0E091C30581E08E0F8093C305C9
:104CB0008091BB00F0E0EC53FA4F80833DC0803B15
:104CC00039F0E0F4803A09F479C0883A09F09BCFD2
:104CD00084E0809335061092E5051092E405E0919A
:104CE0002A06F0912B0619958091E40581110FC0D9
:104CF00081E08093E4051092E60509C0803C09F448
:104D000075C0883C09F472C0883B09F07CCFE09103
:104D1000E50581E08E0F8093E505F0E0EA51FA4F5A
:104D200080818093BB009091E5058091E40529C0C6
:104D3000809134068093BB0085EC8093BC0063CFE8
:104D40009091070680910606981758F5E09107069E
:104D500081E08E0F80930706F0E0E85FF94F8081D5
:104D6000E9CFE091070681E08E0F809307068091DE
:104D7000BB00F0E0E85FF94F8083909107068091D7
:104D800006069817C8F285E8D8CFE091070681E0BB
:104D90008E0F809307068091BB00F0E0E85FF94F2B
:104DA00080838091330681115DCF81E0809332064C
:104DB00084EA8093BC001092350625CF6FDC809189
:104DC000C305803230F4E091C305F0E0EC53FA4FB4
:104DD00010826091C30570E0E0912806F0912906E9
:104DE00084EC95E019951092C3050DCF85ECE1CFC9
:104DF0001092C20537CFCF92DF92FF920F931F938D
:104E0000CF93DF93EC016B01042F67E786E396E015
:104E100078DBF601608186E396E0E6DB86E396E0E8
:104E200090DEC65BDF4F8883811117C0002E000C17
:104E3000110BA80167E770E086E396E080DEF12CB5
:104E4000CF2DD0E0C017D1078CF486E396E000DBCD
:104E5000CC0DDD1D8883F394F3CF80E0DF91CF91FB
:104E60001F910F91FF90DF90CF90089581E0F6CFD2
:104E70000F931F93CF93DF931F921F92CDB7DEB78F
:104E80008A01698342E0BE016F5F7F4FB4DF8823F0
:104E900081F089819A81982789279827F801918341
:104EA000808381E00F900F90DF91CF911F910F9140
:104EB0000895F80111821082F5CF0F931F93CF93BD
:104EC000DF931F921F92CDB7DEB78A01698342E05C
:104ED000BE016F5F7F4F8FDF882381F089819A81C8
:104EE000982789279827F8019183808381E00F9084
:104EF0000F90DF91CF911F910F910895F8011182CA
:104F00001082F5CF4F925F926F927F928F929F9215
:104F1000AF92BF92CF92DF92EF92FF92CF93DF9347
:104F2000EC0186E396E015DBAE016AEACE01A0DF74
:104F3000811110C080E0DF91CF91FF90EF90DF9062
:104F4000CF90BF90AF909F908F907F906F905F9029
:104F50004F900895AE014E5F5F4F6CEACE0188DF3F
:104F6000882341F3AE014C5F5F4F6EEACE0180DFD4
:104F7000882301F3AE01405F5F4F60EBCE019DDF00
:104F80008823C1F2AE014E5E5F4F62EBCE0195DF2A
:104F9000882381F2AE014C5E5F4F64EBCE018DDF62
:104FA000882341F2AE014A5F5F4F66EBCE0160DFBE
:104FB000882309F4BFCFAE01485F5F4F68EBCE0195
:104FC00057DF882309F4B6CFAE01465F5F4F6AEB27
:104FD000CE014EDF882309F4ADCFAE01445F5F4FB1
:104FE0006CEBCE0145DF882309F4A4CFAE01425F0C
:104FF0005F4F6EEBCE013CDF882309F49BCF6C81C1
:105000007D81072E000C880B990BF4D520E030E051
:1050100040EA5BE3F6D62B013C016889798990E090
:1050200080E0E6D52FE632E143E053E3EAD66B01B8
:105030007C016E817F81072E000C880B990BDAD5DD
:1050400020E030E048EC57E3DCD64B015C016A8994
:105050007B8990E080E0CCD52DEC3CEC4CE454E333
:10506000D0D66E8B7F8B888F998F6C897D8990E0ED
:1050700080E0BED56A8F7B8F8C8F9D8F6C857D8500
:10508000072E000C880B990BB5D52AE037ED43EAC3
:105090005DE3B7D66E8F7F8F88A399A36E857F85DA
:1050A000072E000C880B990BA5D520E030E040E2DC
:1050B00053E40AD56AA37BA38CA39DA3688179815D
:1050C000072E000C880B990B95D56EA37FA388A79C
:1050D00099A76A817B81072E000C880B990B8AD5D2
:1050E00020E030E040EA5CE38CD66AA77BA78CA77F
:1050F0009DA768857985072E000C880B990B7AD5BA
:1051000020E030E048E45AE37CD66EA77FA788AB66
:1051100099AB20E030E040E057E4C701B60171D61A
:105120006AAB7BAB8CAB9DABA7019601C301B2010F
:1051300068D66EAB7FAB88AF99AFA5019401C7016C
:10514000B6015FD66AAF7BAF8CAF9DAFFE01FE9616
:105150008CEE91E5A7E1B0E480839183A283B383D1
:10516000349680E394E3AEE7BFE380839183A28328
:10517000B383CA5BDF4F80E097E5A4E9B6E3888399
:105180009983AA83BB8381E0D6CEEF92FF921F93CF
:10519000CF93DF93EC017B01142F67E786E396E062
:1051A000B0D9412F110F550BB70186E396E04ADACB
:1051B00086E396E0C6DC982FC65BDF4F888381E0EC
:1051C000911180E0DF91CF911F91FF90EF900895B2
:1051D000CF93DF931F921F92CDB7DEB724EF2983C1
:1051E0002EE22A8342E0BE016F5F7F4FCEDF811146
:1051F00085E00F900F90DF91CF9108958F929F924D
:10520000AF92BF92DF92EF92FF920F931F93CF93D3
:10521000DF931F921F92CDB7DEB78C017B0186EF23
:10522000898342E0BE016F5F7F4FC801E4DDD82E65
:10523000882309F43AC0698170E090E080E0DAD414
:1052400020E030E040E853E4DCD54B015C016A81AA
:1052500070E090E080E0CED49B01AC01C501B401C8
:10526000B8D3F801228D338D448D558DB1D3F8011B
:1052700026893789408D518DC4D54B015C01F801D9
:1052800022A133A144A155A1A4D39B01AC01F801F3
:10529000668D778D80A191A117D4A501940199D332
:1052A000F70160837183828393838D2D0F900F901C
:1052B000DF91CF911F910F91FF90EF90DF90BF9002
:1052C000AF909F908F9008951F93CF93DF931F927D
:1052D0001F92CDB7DEB79C0194EF99836230D9F06D
:1052E0006330E9F0613099F084E38A8315E042E0AD
:1052F000BE016F5F7F4FC90148DF811101C010E01F
:10530000812F0F900F90DF91CF911F91089584E727
:105310008A8318E0ECCF84EB8A831EE0E8CF9A837F
:105320001AE1E5CF3F924F925F926F927F928F92F8
:105330009F92AF92BF92CF92DF92EF92FF920F9324
:105340001F93CF93DF9300D000D000D0CDB7DEB74E
:105350008C017D836C837A0186EF898343E0BE01F3
:105360006F5F7F4FC80147DD382E882309F4B1C035
:1053700020E030E048EC51E4F701608171818281E6
:10538000938126D36B017C01AC019B013AD54B0183
:105390005C01698170E090E080E02CD420E030E096
:1053A00040E853E42ED52B013C016A8170E090E087
:1053B00080E020D49B01AC01C301B2010AD32B01D0
:1053C0003C016B8170E090E080E014D420E030E09C
:1053D00040E85BE316D59B01AC01C301B201F9D2F1
:1053E0006E837F8388879987F80126A537A540A912
:1053F00051A9C501B40105D52B013C01F80122A535
:1054000033A544A555A5C701B601FBD49B01AC014A
:10541000C301B201DED2F80126A137A140A551A5F2
:10542000D8D29B01AC016E817F8188859985D0D2CD
:105430002B013C01F80122AD33AD44AD55ADC501A2
:10544000B401DFD44B015C01F80126A937A940ADB6
:1054500051ADC701B601D5D49B01AC01C501B40162
:10546000B8D2F80122A933A944A955A9B2D29B0107
:10547000AC01C301B20128D34B015C017801F6E411
:10548000EF0EF11CAC019B01BCD4F70120813181EE
:1054900042815381B6D46B017C01F801EE5BFF4F72
:1054A0002081318142815381C501B401AAD49B017D
:1054B000AC01C701B6018DD2F801FE962081318181
:1054C0004281538186D2EC81FD8160837183828326
:1054D0009383832D29960FB6F894DEBF0FBECDBF00
:1054E000DF91CF911F910F91FF90EF90DF90CF90C0
:1054F000BF90AF909F908F907F906F905F904F90F4
:105500003F90089587E795E0FDCCEF92FF920F93CF
:105510001F93CF93DF9300D000D01F921F92CDB77F
:10552000DEB77C018B0187E795E052DE682F880F9C
:10553000770B880B990B37D5BE016F5F7F4F87E7DD
:1055400095E05CDE63E087E795E0BEDE682F880FBC
:10555000770B880B990B27D5AE014F5F5F4FBE01CC
:105560006B5F7F4F87E795E0DDDE8D819E81AF81A8
:10557000B885F70180839183A283B38389819A815F
:10558000AB81BC81F80180839183A283B383289689
:105590000FB6F894DEBF0FBECDBFDF91CF911F9144
:1055A0000F91FF90EF9008950895E6E3F6E01382DF
:1055B000128288EE93E0A0E0B0E084839583A68316
:1055C000B7838EEB92E091838083089540E855E2A3
:1055D00060E070E090E080E000C08130910571F003
:1055E0001CF4892B39F008958230910559F0039706
:1055F00069F0089526E08CE996E006C726E089E385
:1056000097E0FBCF26E086ED97E0F7CF26E083E733
:1056100098E0F3CF1F920F920FB60F9211240BB6A2
:105620000F922F933F934F935F936F937F938F933B
:105630009F93AF93BF93EF93FF9386E09FEF909379
:10564000250180932401B9D0FF91EF91BF91AF91D3
:105650009F918F917F916F915F914F913F912F918A
:105660000F900BBE0F900FBE0F901F90189586E005
:105670009FEF9093250180932401A3E7B0E08C91E4
:105680008E7F8C93E0E2F1E080818C7F8083E1E289
:10569000F1E08081877E8083808183608083808148
:1056A0008B7F80838C9181608C930895E3E7F0E099
:1056B000808190819E7F90838170089581E008951C
:1056C00010928C06089568EE73E080E090E06BD451
:1056D00090E080E0089526E040E052EC61E070E068
:1056E0008CE996E091D68CE996E0C4D5892B21F01F
:1056F0008CE996E0D9D5F7CF90E080E00895CF927D
:10570000DF92EF92FF920F931F93CF93DF936B0182
:105710007A01E901198218828CE996E0ABD5892BD0
:1057200069F18601CC24C39482E0D82E80918C0646
:10573000811110C08CE996E0B7D50297B9F7C092F5
:105740008C06F801D1928F01888199810196998305
:105750008883ECCF888199818E159F0578F48CE938
:1057600096E0A2D58F3F9807A9F3F80181938F01A6
:1057700088819981019699838883ECCF90E080E0BD
:10578000DF91CF911F910F91FF90EF90DF90CF901D
:1057900008950F931F93CF93DF93EA0189018CE95A
:1057A00096E00E949434F801D183C08390E080E0B9
:1057B000DF91CF911F910F910895CF92DF92EF92D9
:1057C000FF920F931F93CF93DF931F921F92CDB73A
:1057D000DEB780918F0691E0980F90938F06882313
:1057E00099F021E030E03093920620939106809367
:1057F0008F060F900F90DF91CF911F910F91FF9027
:10580000EF90DF90CF900895CE0101960E94C402E0
:10581000789400912E0210912F02F801C28CD38C43
:10582000E48CF58C0E941B03B701A60190E080E098
:105830000E943702F89480918F06815080938F06E2
:105840008A81882389F080918E0691E0980F909349
:105850008E06882349F021E030E0309392062093B1
:10586000910680938E06C5CF80918E06882309F419
:10587000C0CF809190068111BCCF81E080939006CB
:105880007894F80122A133A144A155A1A4E6B0E087
:105890000E94EC346B017C010E946003B701A601F9
:1058A00081E090E00E943702F89480918E0681504A
:1058B00080938E068091900681508093900699CFB8
:1058C0000F931F93CF93DF9310922D0910922C0901
:1058D000A0D37CDEC0912E02D0912F0219821882B3
:1058E0006FEF7FEFCB010E94B90270E060E090E0C3
:1058F00080E00E943B01009709F03AC00E94FE033D
:10590000F8947894BE01685D7F4F8A819B810E94E4
:105910003E01892B59F46FEF7FEFCB010E94CD013F
:105920000E94B302882311F081E08CA7F8949FDED7
:105930000E94B602882311F080E008C00E94B302E2
:105940008111FACF81E09CA59111F6CF80932C09AB
:1059500078940E94960A8C01789480912C09811188
:105960000CC00E946E040E949902F89490E080E0BE
:10597000DF91CF911F910F9108950E9497020E948D
:10598000B6028823D9F081E080932D0990912D09EA
:1059900081E0911180E080932C0980912D09811183
:1059A00085DE0130110529F40E94960A892B09F43D
:1059B00087DE0E94960A8C0181DECFCF0E94B3025F
:1059C0008111E1CF81E09CA59111DECF80E0DCCF99
:1059D0005058BB27AA270ED0BFC1B0D130F0B5D1E7
:1059E00020F031F49F3F11F41EF4A5C10EF4E095B0
:1059F000E7FB72C1E92FC1D180F3BA1762077307C1
:105A00008407950718F071F49EF5F0C10EF4E09547
:105A10000B2EBA2FA02D0B01B90190010C01CA0168
:105A2000A0011124FF27591B99F0593F50F4503E13
:105A300068F11A16F040A22F232F342F4427585F05
:105A4000F3CF469537952795A795F0405395C9F71D
:105A50007EF41F16BA0B620B730B840BBAF09150D5
:105A6000A1F0FF0FBB1F661F771F881FC2F70EC074
:105A7000BA0F621F731F841F48F487957795679547
:105A8000B795F7959E3F08F0B3CF9395880F08F030
:105A90009927EE0F97958795089591D180F09F37BC
:105AA00040F491110EF4A3C160E070E080E89FE340
:105AB000089526F01B16611D711D811D13C12DC196
:105AC000E7D008F481E008950CD046C13ED140F003
:105AD00035D130F021F45F3F19F0FEC0511187C17C
