:1000000010C100003FC100003DC100003BC1000025
:1000100039C1000037C1000035C1000033C1000004
:1000200031C100002FC100002DC100002BC1000014
:1000300029C1000027C1000025C1000023C1000024
:1000400021C100001FC100001DC100001BC1000034
:1000500019C1000017C1000015C100000C94D8316F
:1000600011C100000C94E4340C941A350BC100004B
:1000700009C1000007C1000005C1000003C1000064
:1000800001C10000FFC00000FDC00000FBC0000077
:100090000C9470350C94A635F5C000000C94E8253E
:1000A000F1C00000EFC00000EDC00000EBC0000098
:1000B000E9C00000E7C00000E5C00000E3C00000A8
:1000C000E1C00000DFC000000C94F82C0C94FC355B
:1000D0000C943236D7C000000C9488360C94BE368F
:1000E000D1C00000084AD73B3BCE016E84BCBFFDA7
:1000F000C12F3D6C74319ABD56833DDA3D00C77FF8
:1001000011BED9E4BB4C3E916BAAAABE0000008090
:100110003F0000000A0B02090C0D0E080703040142
:1001200000000000000000000000000000000000CF
:10013000000000000000000000000000000012119C
:10014000100000000000000000000000000000009F
:10015000000000000000000001021020200808102C
:100160002040102040800201020108040201010227
:100170000408102040808040201008040201800400
:10018000020180402010080402010804020101025B
:10019000040810204080010204081020408005055A
:1001A0000505070508080808020202020A0A0808ED
:1001B000040404040101010101010101030303031B
:1001C00003030303040707070C0C0C0C0C0C0C0CAA
:1001D0000202020206060606060606060B0B0B0BBB
:1001E0000B0B0B0B00002200250028002B002E001B
:1001F0003100340002010000050108010B0100007C
:100200002100240027002A002D00300033000101C6
:100210000000040107010A01C02C4335CF355B36CD
:10022000E73611241FBECFEFD1E2DEBFCDBF00E025
:100230000CBF12E0A0E0B2E0ECE4FFE600E00BBF90
:1002400002C007900D92AE3DB107D9F729E0AEED9F
:10025000B2E001C01D92AA34B207E1F711E0C1E19A
:10026000D1E000E006C021970109802FFE010E9425
:100270007337CC30D10780E00807A9F70E94FA2D28
:100280000C94A437BDCE611102C00C94513361307F
:10029000E1F362E0FACF662319F061E00C948D334C
:1002A00060E0FCCF90E080E008950F931F930097EB
:1002B00009F483C06115710509F47FC00091100233
:1002C0001091110220911202309113020E3F1F4F24
:1002D0002F4F3F4F09F062C04FEF5FEFBA014093DD
:1002E0001002509311026093120270931302409116
:1002F0001002509111026091120270911302DC0100
:100300001296ED91FC9180819181A281B3818093BD
:10031000440390934503A0934603B093470384811D
:100320009581A681B7818093400390934103A09368
:100330004203B093430380859185A285B385809362
:100340003C0390933D03A0933E03B0933F03848509
:100350009585A685B7858093380390933903A0933C
:100360003A03B0933B03109234031092350310927A
:10037000360310923703BAD48BE996E09093DF02EC
:100380008093DE02A2D3009731F421E030E0309375
:100390004903209348031F910F9108950091100283
:1003A000109111022091120230911302DB010D9382
:1003B0001D932D933C9313979ACF8FEF9FEFEBCF25
:1003C0008F929F92AF92BF92CF92DF92EF92FF9265
:1003D0001F93CF93DF934B015C0110914B0382E09D
:1003E00090E0909349038093480381149104A10401
:1003F000B10441F480914B03811104C080914A0300
:10040000C1E08111C0E0C12CD12C760180914B0359
:10041000811106C080914A03811102C0CC23D1F022
:1004200083E090E09093490380934803CC2371F1DB
:10043000CCE9DFEF111101C0E2D7CE01DF91CF91FE
:100440001F91FF90EF90DF90CF90BF90AF909F9063
:100450008F9008956AE070E080E090E00E9453324F
:1004600080E1C80E87E2D81EE11CF11C8FEF8816D0
:100470009806A806B80631F0C1E08C149D04AE04BD
:10048000BF0408F0C0E080E054D3C0CFD0E0C0E0AB
:10049000D1CFCF92DF92EF92FF921F93CF93DF9352
:1004A0008F3F910511F008F04BC020914803309127
:1004B00049032330310539F0209148033091490335
:1004C0002130310531F424E030E0309349032093AA
:1004D00048036A017B01EC01892B99F011E0AE0120
:1004E000C701B601F1D2AB01BC01CE011123E1F08D
:1004F000DF91CF911F91FF90EF90DF90CF900C9400
:10050000280C8091DE029091DF02892B39F30E9442
:10051000320C029719F7E091DE02F091DF0290E0D1
:1005200080E01995182FDBCF0E944A0C90E080E004
:10053000DF91CF911F91FF90EF90DF90CF900895C2
:100540008FEF9FEFF5CF80E0F4C2CF93DF9386E08B
:1005500090E0909349038093480344D3EC011092B8
:10056000DF021092DE02E3D6109249031092480394
:10057000CE01DF91CF91089580914A030895809133
:100580003303089560931002709311028093120256
:100590009093130290E080E00895CF92DF92EF9263
:1005A000FF926B017C019F7720E030E040E859E545
:1005B0000E945C2F87FF2BC020E030E040E05FE32B
:1005C000C701B6010E941E3187FD0EC020E030E059
:1005D00040E05FE3C701B6010E94832EFF90EF90D9
:1005E000DF90CF900C94313020E030E040E05FEBC2
:1005F000C701B6010E941E31181684F420E030E0D5
:10060000A901C701B6010E9429316B017C01C70114
:10061000B601FF90EF90DF90CF90089520E030E09A
:1006200040E05FE3C701B6010E94822EFF90EF9089
:10063000DF90CF900C94492F4F925F926F927F92F0
:100640008F929F92AF92BF92CF92DF92EF92FF92E2
:10065000C0903809D0903909E0903A09F0903B09F0
:10066000C701B6010E94F62F2B013C012091080220
:100670003091090240910A0250910B020E945C2FB6
:1006800087FF91C0F7FC8FC080900002909001021C
:10069000A0900202B090030220E030E040E85FE367
:1006A0006091040270910502809106029091070208
:1006B0000E94822E9B01AC01C301B2010E941E3137
:1006C00087FD75C0109238091092390910923A09C5
:1006D00010923B09C501B40160DF6B017C0120E091
:1006E00030E040E853E40E945C2F6FEF87FF0EC0BC
:1006F00020E030E0A901C701B6010E941E3160E090
:1007000087FD04C0C701B6010E94C82F8DE0C3DD7C
:1007100024E339E044E459E060E479E08CE399E0D3
:100720000E94862C24E339E044E459E060E479E057
:100730008CE399E00E94BF2C60910A0370910B0337
:1007400080910C0390910D036F5F7F4F8F4F9F4FF0
:1007500060930A0370930B0380930C0390930D0333
:100760000E94F42F9B01AC0160910E0370910F0366
:1007700080911003909111030E9429316093060328
:10078000709307038093080390930903FF90EF9001
:10079000DF90CF90BF90AF909F908F907F906F90A1
:1007A0005F904F900895812C912C540175CF8FEF5D
:1007B000C81AD80AE80AF80AC0923809D09239094A
:1007C000E0923A09F0923B0985CFCF93DF93E0EFB7
:1007D000F2E080E090E0A0E8BFEB82A393A3A4A3A3
:1007E000B5A38DEC9CECACECBDE3868F978FA0A3FA
:1007F000B1A38DE991E7A7E4B2EF84839583A68343
:10080000B7838AE099ECAAEFB6ED80879187A2873B
:10081000B3878FE699E3A0EEBAEB84879587A68726
:10082000B7878CEE92ECAFEFB4E0808B918BA28B0C
:10083000B38BA4EEB2E0B383A283E0EEF2E01196B4
:10084000FC93EE938DE292E0918380839383828385
:1008500084E093E015969C938E93149784EF92E036
:1008600013969C938E93129786E093E017969C9331
:100870008E93169784E399E00E946F2CCCE2D9E026
:10088000188619861A861B86188281E090E0A0E0FF
:10089000B0E089839A83AB83BC8361E08DE0F3DCB5
:1008A00081E08D83DF91CF91089580912C09811192
:1008B00003C081E080932C0908954F925F926F925C
:1008C0007F928F929F92AF92BF92CF92DF92EF92E0
:1008D000FF920F931F93F8944090230350902403AA
:1008E0006090250370902603C0901703D0901803E2
:1008F000E0901903F0901A03452B09F0A6C09B0164
:10090000AC01241935094609570929013A0100911A
:100910001F031091200320912103309122034801ED
:100920005901840C951CA61CB71C80169106A206C2
:10093000B306A0F400911B0310911C0320911D032A
:1009400030911E030F5F1F4F2F4F3F4F00931B032C
:1009500010931C0320931D0330931E0380921F03EA
:1009600090922003A0922103B092220300911B03D6
:1009700010911C0320911D0330911E0380922703C8
:1009800090922803A0922903B0922A0300932B038C
:1009900010932C0320932D0330932E036093230395
:1009A000709324038093250390932603A30192015F
:1009B00060EA76E881E090E00E9442376C0D7D1D90
:1009C0008E1D9F1D60931703709318038093190366
:1009D00090931A03009110021091110220911202BB
:1009E000309113020F3F1F4F2F4F3F4FF1F00091F7
:1009F00010021091110220911202309113020E3F49
:100A00001F4F2F4F3F4F89F0C0901002D09011021E
:100A1000E0901202F090130221E08C149D04AE04C9
:100A2000BF0408F420E02093330378941F910F91C2
:100A3000FF90EF90DF90CF90BF90AF909F908F90FE
:100A40007F906F905F904F9008954B015C018418E8
:100A50009508A608B708A3019201261B370B480B7F
:100A6000590B6415750586059705E0F08216930607
:100A7000A406B50640F420E030E0A90181149104F9
:100A8000A104B104A1F460EA76E881E090E00E945C
:100A90004237A7019601261B370B480B590BCA0199
:100AA000B901C3CF82169306A406B50660F7A50167
:100AB000940160EA76E881E090E00E9442376C0D94
:100AC0007D1D8E1D9F1DB1CFF8CECF93DF9300D03B
:100AD0001F92CDB7DEB71C821B821A821982109238
:100AE0002F03109230031092310310923203BE0193
:100AF0006F5F7F4FCE0103960E941F2269817A812A
:100B00008B819C810E94411B009761F4BE016F5F45
:100B10007F4FCE0103960E942B2269817A818B81BF
:100B20009C812ED50F900F900F900F90DF91CF9159
:100B30000895FF920F931F93CF93DF93082F60E0E8
:100B400070E0CB010E945332FF24F3940E942A1AD2
:100B5000EC01892B89F010E0CE3F8FEFD80769F0C8
:100B6000002361F160E070E0CB010E94533281E02C
:100B700090E0892B59F322C011E025D5EC01892B97
:100B800021F0CE3F8FEFD80759F711111EC011E0A9
:100B9000229609F410E00E94DA19EC01892B21F069
:100BA000CE3F8FEFD807E1F6111111C011E0CE3F13
:100BB0008FEFD80709F410E001110BC0CE01DF91CF
:100BC000CF911F910F91FF90089511E0E4CF11E0B4
:100BD000F3CF60E070E0CB010E9453321F25812FDC
:100BE00090E0C7CFCF93DF9380913303882321F028
:100BF00060E070E0CB014CD635D6D0E0C0E0892B68
:100C000071F06AE070E080E090E00E94533281E091
:100C100090DF28D62196C03D27E0D20781F727D65E
:100C20000E94951B10924B0310924A0310924403AA
:100C3000109245031092460310924703109240030E
:100C400010924103109242031092430310923C030E
:100C500010923D0310923E0310923F03109238030E
:100C60001092390310923A0310923B03109234030E
:100C70001092350310923603109237034EEF5FEF58
:100C80006FEF7FEF409310025093110260931202B6
:100C90007093130210923303E7E2F3E028E0DF01E0
:100CA0001D922A95E9F710922303109224031092C3
:100CB00025031092260310921F0310922003109216
:100CC00021031092220310921B0310921C03109216
:100CD0001D0310921E031092170310921803109216
:100CE000190310921A03DF91CF91089510925703C0
:100CF000109258031092590310925A0310925603FF
:100D000080915F0390916003909355038093540307
:100D1000109253031092520310924E0310924F03FD
:100D2000109250031092510310925C0310925B03D7
:100D300090E080E00895CF92DF92EF92FF920F93C0
:100D40001F93CF938C01892B09F055C020915F032D
:100D500030916003809154039091550340915F035B
:100D6000509160035093550340935403281739075B
:100D700081F0109253031092520310924E0310927E
:100D80004F03109250031092510310925C03109283
:100D90005B0380915F0390916003019761F58091FF
:100DA0005B0390915C03892B21F4809114028111E3
:100DB00012C080915B0390915C030197E1F48091F4
:100DC0004E0390914F03A0915003B09151030197AE
:100DD000A105B10581F410924E0310924F031092B9
:100DE0005003109251031092140282E090E090930D
:100DF0005C0380935B0380915F0390916003019794
:100E000009F01CC1809175039091760380179107BA
:100E100009F014C18091710390917203A091730342
:100E2000B0917403009709F409C120917003211156
:100E30000DC04091710350917203609173037091E2
:100E40007403452B462B472B09F4F8C020915B0314
:100E500030915C032230310509F0F0C0209152033B
:100E60002111ECC0FC01C080D180E280F380809130
:100E70005603882309F4D3C08091620390916303E1
:100E8000892B09F4FDC0209162033091630381E056
:100E90002230310509F080E0209162033091630334
:100EA000C1E02130310549F02091620330916303A4
:100EB000C1E02230310509F0C0E0882309F456C0B2
:100EC00020916C0330916D0340916E0350916F033C
:100ED000C701B6010E941E3187FD14C020916C032A
:100EE00030916D0340916E0350916F0360915703F1
:100EF000709158038091590390915A030E945C2F7E
:100F000087FD22C020916C0330916D0340916E03E8
:100F100050916F03C701B6010E941E31181634F5B7
:100F200020916C0330916D0340916E0350916F03DB
:100F300060915703709158038091590390915A031F
:100F40000E945C2F811112C080916403909165030F
:100F5000A0916603B0916703892B8A2B8B2B19F420
:100F600081E08093530381E080935203CC2309F402
:100F700056C020916C0330916D0340916E035091E7
:100F80006F03C701B6010E945C2F87FF14C0209138
:100F90006C0330916D0340916E0350916F0360912B
:100FA0005703709158038091590390915A030E94FE
:100FB0001E3187FF22C020916C0330916D03409158
:100FC0006E0350916F03C701B6010E945C2F81111F
:100FD00026C020916C0330916D0340916E035091B7
:100FE0006F0360915703709158038091590390915A
:100FF0005A030E941E31181694F480916403909154
:101000006503A0916603B0916703892B8A2B8B2B14
:1010100019F481E08093530381E08093520381E0CF
:1010200090915203911180E080935603C092570330
:10103000D0925803E0925903F0925A03012B09F021
:1010400067C180915B0390915C03892BD9F4109266
:1010500061031092520380911402882379F082E098
:1010600090E090935C0380935B03109214022091B4
:101070005F033091600381E0232BE9F080E01BC027
:1010800081E00ACF1092140280916103882349F015
:101090001092530310925C0310925B031092610351
:1010A000EDCF80915F0390916003892BE1F08091F7
:1010B00052031092520320915B0330915C03223063
:1010C000310509F45EC088F42115310509F448C0E2
:1010D0002130310509F4F3C01092530310925203EA
:1010E0001092610338C081E0E6CF2330310509F466
:1010F000B1C02430310581F740914E0350914F0328
:1011000060915003709151034115510561057105BE
:1011100061F0415051096109710940934E035093A8
:101120004F03609350037093510340914E035091CD
:101130004F036091500370915103452B462B472B71
:10114000D9F420915D0330915E032130310509F01F
:1011500046C01092530310925C0310925B030CC0C4
:1011600080911402882341F082E090E090935C0328
:1011700080935B031092140210924C0380915303EE
:10118000CEC08823C9F38091640390916503A09138
:101190006603B0916703181619061A061B060CF0B1
:1011A0007DC080915F0390916003019709F076C044
:1011B0008091640390916503A0916603B0916703E9
:1011C00080934E0390934F03A0935003B093510329
:1011D00083E090E090935C0380935B03CDCF4091DC
:1011E00068035091690360916A0370916B03452B0A
:1011F000462B472BA9F010925303809168039091DE
:101200006903A0916A03B0916B0380934E0390939E
:101210004F03A0935003B093510381E090E0DACFE5
:10122000882399F08091150290911602A0911702DF
:10123000B091180280934E0390934F03A0935003F4
:10124000B093510384E090E0C5CF1092530382E045
:1012500090E0C0CF80914E0390914F03A091500336
:10126000B09151030097A105B10559F00197A1096B
:10127000B10980934E0390934F03A0935003B09312
:10128000510380914E0390914F03A0915003B09170
:101290005103892B8A2B8B2B09F06ECF809115027D
:1012A00090911602A0911702B0911802892B8A2BF7
:1012B0008B2B09F44ECF81E080935303B3CF409141
:1012C0004E0350914F0360915003709151034115AB
:1012D00051056105710561F04150510961097109BC
:1012E00040934E0350934F03609350037093510308
:1012F00040914E0350914F03609150037091510300
:10130000452B462B472B09F037CF8111C7CF9FCFF5
:1013100080914C03882309F431CF80914D03CF9104
:101320001F910F91FF90EF90DF90CF900895109252
:101330005703109258031092590310925A031092B7
:10134000560310925C0310925B03109255031092A7
:101350005403109276031092750310925303109267
:10136000520310924E0310924F03109250031092AA
:10137000510310924D0310924C031092710310927E
:101380007203109273031092740310927003109200
:101390006C0310926D0310926E0310926F0388EE2F
:1013A00093E0A0E0B0E08093150290931602A09322
:1013B0001702B093180210926803109269031092FA
:1013C0006A0310926B0310926403109265031092EB
:1013D000660310926703109263031092620381E028
:1013E00080931402109261031092600310925F03C5
:1013F00010925E0310925D0390E080E0089580916A
:101400005F0390916003892B19F580911402882362
:1014100051F080916103811106C081E080934D03FA
:1014200080934C030895209161033091140281E070
:1014300090E0332311F090E080E030E082239323AA
:10144000892B21F010924D0381E0EACF10924C03DA
:10145000089582E090E0FA01918380838FEF9FEFFF
:101460000895CF93DF93EA01009711F00E94C31C07
:101470001982188290E080E0DF91CF910895DB011E
:10148000009719F48FEF8C9308952EEF2C93FC01A5
:101490003F96EF30F10508F034C08827ED5AF54F3C
:1014A0008F4F0C9473377F0A7D0A7B0A790A770A7B
:1014B000730A750A710A6F0A6D0A6A0A660A620A75
:1014C000680A810A80E311968C93089589E2FBCF24
:1014D00082E2F9CF11961C92089583E2F4CF81E263
:1014E000F2CF81E1F0CF87E2EECF8AE2ECCF80E16C
:1014F000EACF84E2E8CF88E2E6CF86E2E4CF81E378
:10150000E2CF80E2E0CF809183039091840308953D
:1015100090938403809383030895809182030895B8
:1015200090918203892B809382030895982F909540
:10153000809182038923809382030895809181039F
:10154000089580917F03909180030895611571053E
:1015500059F0FB0130E020E070E060E0241735072F
:1015600019F06115710511F0CB010895A081B181C9
:10157000A817B90709F4BF012F5F3F4F3696EECF8A
:101580008091850381111CC060D266D2909378034C
:10159000809377030E94C3140E94D51490937C0318
:1015A00080937B030E9442190E94491990937A0309
:1015B0008093790381E08093850390E080E0089533
:1015C00084EF9FEF08958F929F92AF92BF92CF9238
:1015D000DF92EF92FF920F931F93CF93DF9300D090
:1015E00000D000D01F92CDB7DEB71A8619861886B4
:1015F0001F821E821D821C821B821A821982809188
:10160000850307EF1FEF882309F49CC08E010D5F4F
:101610001F4F9E012B5F3F4FAE01495F5F4FBE01E1
:10162000675F7F4F90E080E00E94C61A8C010097B0
:1016300021F00596029708F0DBC029853A8521152F
:10164000310509F402C1ED80FE804B815C81B70158
:10165000640F751F8F8198858617970708F4F5C06A
:10166000E20EF31ED7019C91903C09F07FC04230FE
:10167000510508F47BC011968C91409183035091E1
:101680008403452B09F49CC0913F08F071C02CE104
:10169000290F2D3008F48BC02DE2290F203108F4DA
:1016A00089C0903C21F48150823008F483C088E3E3
:1016B000890F8B3008F481C09FE3C92E9AE0D92EA0
:1016C000E9E2FAE06D817E81AE014F5F5F4F89856F
:1016D0009A8519955C01C114D104A1F189809A8081
:1016E0008114910479F18B819C818815990508F406
:1016F00087C010E000E04B815C8170E060E0C701D2
:101700000E949D3701151105E9F449815A816985C7
:101710007A858D819E81680F791FC501F601199523
:10172000E980FA800D811E812F81388549855A858F
:101730006FEF7FEF81E090E00E94611A8C01892BAE
:1017400009F056C0C8012A960FB6F894DEBF0FBE46
:10175000CDBFDF91CF911F910F91FF90EF90DF9060
:10176000CF90BF90AF909F908F90089580E085CFED
:1017700030E020E0220F331FF901E958FC4F0190BF
:10178000F081E02D309709F497CF892F90E01995DB
:10179000009709F491CFDC011296ED91FC9113971B
:1017A0001496CD90DC90309709F08CCF1FC021E0CB
:1017B00030E0E0CF22E030E0DDCF23E030E0DACFF0
:1017C000D12CC12CE1E3FAE09F3F09F07BCFE091FF
:1017D0007703F0917803309721F4C90104EF1FEFEC
:1017E0000CC08FEF90E019950097A9F604EF1FEF5A
:1017F00089859A85009709F4A5CF0E94C31CA2CFC2
:101800000E94901B8C0189859A850E94C31C70E000
:1018100060E0C4010E94291B98878F830E945E1A92
:101820009E838D836F8178856115710559F0C8019C
:101830000E944F1E9A87898706EF1FEF892B09F0B8
:1018400058CF59CF08EF1FEF56CF08EF1FEFD0CF7B
:1018500020918503222319F020E00C94DA1487EFFD
:101860009FEF0895809183039091840308950E94CF
:101870004E190E94A818F5D0E7E7F3E088E0DF01F1
:101880001D928A95E9F71092850390E080E0089513
:101890000C94081721E040E050E0BA010C94DA14EF
:1018A00086E090E0FA019183808390E080E00895E3
:1018B00047E050E060E372E049CEDF92EF92FF92A2
:1018C0000F931F93CF93DF938A01EC01C60FD71FAD
:1018D000E0908903F0908A03D9800E94781BD81683
:1018E000190678F082E090E0F801918380838EEF12
:1018F0009FEFDF91CF911F910F91FF90EF90DF90BD
:101900000895EF2841F482E090E0F801918380830C
:1019100084EF9FEFEECF89818093880390E001965A
:10192000F8019183808390E080E0E3CFCF93DF9351
:10193000EA010E94B917882321F00E94851B0E94AA
:10194000BA1782E090E0998388838BEF9FEFDF9155
:10195000CF910895CF93DF93EB0186E0FB011192C5
:101960008A95E9F78FEF8883D8DD8983E7DD8A835D
:10197000E8DD9D838C83DF91CF910895CF93DF9332
:10198000EA010E94BC17811109C082E090E09983AE
:10199000888385EF9FEFDF91CF91089590E080E0FD
:1019A000B7DD81E090E09983888390E080E0F3CF19
:1019B0000F931F93CF93DF93EA018C01060F171F3C
:1019C0000E94BC1781110BC082E090E0998388834C
:1019D00085EF9FEFDF91CF911F910F910895F8014F
:1019E0008181823038F082E090E0998388838EEFA5
:1019F0009FEFF0CF81E090E08BDD88E090E099836D
:101A0000888390E080E0E6CFCF93DF930097D1F416
:101A1000EB01FB01329686E0DF011D928A95E9F722
:101A20008FEF888385E089831A820E94781B8B83DD
:101A30000E94771B9D838C8381E08E838F83DF914F
:101A4000CF910895DF91CF911ACD88E59CE09093D6
:101A5000870380938603089580918603909187037E
:101A60000895109287031092860308958091890348
:101A700090918A030895411105C061157105810592
:101A8000910561F06093890370938A0380938B03BF
:101A900090938C0340938D0381E0089580E0089536
:101AA000FF920F931F93CF93DF938A01EC01C60F30
:101AB000D71FF9800E94781BF816190668F082E09B
:101AC00090E0F801918380838EEF9FEFDF91CF91BB
:101AD0001F910F91FF9008956C817D818E819F8170
:101AE0004B81C9DF811108C082E090E0F801918349
:101AF000808384EF9FEFEACF89818093880390E011
:101B00000196F8019183808390E080E0DFCFCF934E
:101B1000DF93EA01FC01E60FF71F6481758186817E
:101B200097814381A8DF811109C082E090E0998309
:101B3000888384EF9FEFDF91CF91089581E090E05B
:101B40009983888390E080E0F6CFE9E8F3E0408174
:101B5000518162817381480F511D611D711D408348
:101B60005183628373830895CF93C09188034C2F70
:101B700050E06091890370918A0301960E94943726
:101B80008C2FE3DF10928803CF910895009799F48A
:101B90008091890390918A032FEFFB012083892B89
:101BA00059F02091880330E02F5F3F4F241735070D
:101BB00019F4CB01D9CF63CC0895009799F48091A3
:101BC000890390918A032FEFFB012083892B59F021
:101BD0002091880330E02F5F3F4F2417350719F419
:101BE000CB01C2CF4CCC089523E1AC01249FC001AE
:101BF000259F900D1124E0919203F0919303E80F3B
:101C0000F91F238134812250310981E022303105CE
:101C100008F080E008950F931F93CF93DF93009116
:101C2000940310919503D0E0C0E080E00C171D07ED
:101C300049F491E0811190E0892FDF91CF911F91BC
:101C40000F9108958111F5CFCE01CEDF2196EECF11
:101C5000A0919203B0919303109729F120919403DE
:101C60003091950382179307F0F453E1589F900148
:101C7000599F300D1124A20FB31FED91FC911197C4
:101C8000309789F012968C91681768F48BE0689F02
:101C9000E00DF11D112480819181892B21F081E0DB
:101CA0009281491708F080E008959C0143E1429F2A
:101CB000C001439F900D1124E0919203F091930392
:101CC000E80FF91F8385823091F481E090E065810F
:101CD00076814091190250911A026417750711F428
:101CE00090E080E0892B19F081E0232B09F080E05F
:101CF0000895EF92FF920F931F93CF93DF93EA0122
:101D0000FC01E60FF71F02811381E480F5804F2D5F
:101D10006E2DC8019DDF81110DC082E090E0998396
:101D200088838EEF9FEFDF91CF911F910F91FF90EE
:101D3000EF900895C80158DF882339F082E090E0E1
:101D40009983888388EF9FEFEECF10932002009352
:101D50001F02E0922102F092220281E090E099833A
:101D6000888390E080E0DFCFCF92DF92EF92FF9206
:101D70000F931F93CF93DF937A01EC01C60FD71F08
:101D8000C0901F02D09020020091210210912202E7
:101D9000412F602FC6015CDF811110C082E090E00E
:101DA000F701918380838AEF9FEFDF91CF911F919D
:101DB0000F91FF90EF90DF90CF900895C60114DF50
:101DC000882341F082E090E0F7019183808388EFDF
:101DD0009FEFEBCF4C815D816E817F819A818981FC
:101DE0008F3F41F082E090E0F701918380838EEF96
:101DF0009FEFDBCFE3E1EC9D9001ED9D300D1124D1
:101E0000E0919203F0919303E20FF31F0190F081B0
:101E1000E02D2BE0029FE00DF11D11240190F081D7
:101E2000E02D27E0129FE00DF11D112480839183A6
:101E30008B81828343835483658376831F5F1093F2
:101E4000220281E090E0F7019183808390E080E0BE
:101E5000ACCFEF92FF920F931F93CF93DF937A0152
:101E60008C01060F171FC0919203D0919303209706
:101E700081F021E030E0F801828193814091940368
:101E8000509195038417950710F030E020E0232B44
:101E900071F482E090E0F701918380838EEF9FEFF1
:101EA000DF91CF911F910F91FF90EF90089543E143
:101EB000489F9001499F300D1124C20FD31F94DE1B
:101EC000882341F082E090E0F7019183808388EFDE
:101ED0009FEFE6CFF8012481358120383105C8F61F
:101EE00087818111D6CF4181842F90E08F7E00972A
:101EF00041F082E090E0F7019183808386EF9FEFCD
:101F0000CFCF4F833E832D832681288719862230A9
:101F100010F421E0288721E030E0F70131832083AD
:101F2000BFCF88E090E0FA019183808390E080E069
:101F30000895FB018FEF808381E181838FEF9FEF15
:101F40009383828380E890E095838483168217824E
:101F50000895FB018FEF808391E0918382839383C7
:101F6000848384E3858381E090E09783868308956A
:101F7000DF92EF92FF920F931F93CF93DF93EA01CB
:101F8000FC01E60FF71F8181813071F082E090E063
:101F9000998388838FEF9FEFDF91CF911F910F91EE
:101FA000FF90EF90DF90089582819381D480258106
:101FB000E680F780009192031091930301151105BB
:101FC00039F482E090E0998388838CEF9FEFE4CF2F
:101FD00040919403509195038417950738F082E05F
:101FE00090E0998388838EEF9FEFD6CF892B39F0CD
:101FF00082E090E09983888386EF9FEFCDCF8D2D8F
:102000008D7FB1F72130A1F781E0D11006C091E0BA
:10201000E916F10431F080E004C0E2E0EE16F104CC
:10202000D0F3882329F390E080E0DEDD882339F0C7
:1020300082E090E09983888388EF9FEFADCFF8012D
:10204000D38681E08487F686E586108A178681E04C
:1020500090E09983888390E080E09ECF4CE050E050
:102060006AE572E073CA8F929F92BF92CF92DF921D
:10207000EF92FF920F931F93CF93DF93EA01FC013E
:10208000E60FF71F828193810481B580E09192036E
:10209000F0919303309791F482E090E099838883E4
:1020A0008CEF9FEFDF91CF911F910F91FF90EF90F9
:1020B000DF90CF90BF909F908F90089520919403D0
:1020C000309195038217930738F082E090E099836E
:1020D00088838EEF9FEFE6CF23E1289F6001299F41
:1020E000D00C1124EC0DFD1DE080F180E114F10411
:1020F00099F28281081748F78BE0089F800111242C
:10210000E00EF11EF70180819181892B29F6BB2019
:10211000E1F2F7E0BF9E40011124C4010E94751C4A
:10212000F70191838083E0919203F0919303EC0D8A
:10213000FD1D0190F081E02DE00FF11F8081918164
:10214000009739F482E090E0998388838DEF9FEFC8
:10215000A9CFA40170E060E00E949D3780919203B6
:1021600090919303C80ED91EF60180819181080FCA
:10217000191FF801B28281E090E09983888390E092
:1021800080E090CFAF92BF92CF92DF92FF920F93F9
:102190001F93CF93DF93EA01FC01E60FF71F8281C3
:1021A0009381F4800091920310919303011511051E
:1021B00081F482E090E0998388838CEF9FEFDF9138
:1021C000CF911F910F91FF90DF90CF90BF90AF9074
:1021D000089520919403309195038217930738F066
:1021E00082E090E0998388838EEF9FEFE8CF2FEF16
:1021F0002F0D2C3FA8F723E1289F6001299FD00CC9
:1022000011240C0D1D1DF80180819181892B89F607
:10221000FBE0FF9E50011124C5010E94751CF801CE
:1022200091838083E0919203F0919303EC0DFD1D67
:1022300080819181009739F482E090E099838883CE
:102240008DEF9FEFBCCFA50170E060E00E949D374D
:10225000E0919203F0919303EC0DFD1DF28281E079
:1022600090E09983888390E080E0A9CFCF92DF92BD
:10227000EF92FF920F931F93CF93DF93860F971FD9
:10228000FC01028113818091920390919303892B29
:1022900081F082E090E0FA01918380838CEF9FEFE0
:1022A000DF91CF911F910F91FF90EF90DF90CF9032
:1022B0000895C801B0E0A0E00197A109B1098F3FDE
:1022C0009F4FA105B10540F082E090E0FA019183B3
:1022D00080838EEF9FEFE4CF7A0183E1809F6001DE
:1022E000819FD00C1124C6010E94751CEC0100973F
:1022F00041F482E090E0F701918380838DEF9FEFBE
:10230000CFCFA60170E060E00E949D37D093930389
:10231000C0939203109395030093940390E080E0A0
:102320002FEF3FEF41E061E070E08017910741F44B
:1023300081E090E0F7019183808390E080E0B0CF6E
:102340003A8B298B1B864C877E876D87188A1F8660
:1023500001966396EACFCF92DF92EF92FF920F93AE
:102360001F93CF93DF93EC01D12CC12C10E000E040
:10237000F12CE12C6A816017110609F0CCF483E09E
:10238000689FB0011124AE014F5E5F4FC7010E94EC
:10239000EF1C009721F02FEF3FEF3A8B298BDF9155
:1023A000CF911F910F91FF90EF90DF90CF90089504
:1023B000E881F981EC0DFD1D438154818D859E8559
:1023C000489F9001499F300D589F300D1124C9013D
:1023D00001960115110519F44F8144FD049661E041
:1023E00070E00E94291BE816F90608F47C010F5FD3
:1023F0001F4F8BE0C80ED11CBDCFF89420919003E5
:102400003091910381E02115310509F080E0232B03
:1024100009F0789408952F923F924F925F926F92B5
:102420007F928F929F92AF92BF92CF92DF92EF9264
:10243000FF920F931F93CF93DF933C01660E771E9D
:10244000F301828193814C01B12CA12CC0919203A4
:10245000D0919303209769F021E030E060919403DC
:10246000709195038617970710F030E020E0232B3A
:10247000D1F482E090E0FA01918380838EEF9FEFA8
:10248000DF91CF911F910F91FF90EF90DF90CF9050
:10249000BF90AF909F908F907F906F905F904F9084
:1024A0003F902F9008958092230290922402A09250
:1024B0002502B092260263E1689F9001699F300D6A
:1024C0001124C20FD31FF3018181833040F082E0D9
:1024D00090E0FA019183808386EF9FEFD1CF2A01AC
:1024E0002B813C81232BF1F4288139819F8191FF3D
:1024F0002EC0232B09F46FC0209197039A81422F9D
:10250000490F5527551FBA0141E050E06138710568
:1025100014F050E040E0452B09F45DC02A87920F8B
:10252000909397038150823008F481C066DF88233E
:1025300009F4D6C0F3018181813009F48DC008F41B
:102540007BC0823009F4C4C090E080E0ADC0232B92
:1025500009F441C0209196039A81E22FE90FFF27E9
:10256000FF1F41E050E0ED3FF10514F050E040E086
:10257000452B89F12A87920F90939603D3CFA081A0
:10258000B181A20FB31F11966C91060F111D019618
:10259000295F3F4F8417950794F38D859E85089F8B
:1025A0001001099F300C189F300C1124C114D10464
:1025B000D1F48F8184FF17C00E94771BF5E02F0EA6
:1025C000311C21E08215930508F420E0A701455F46
:1025D0005F4F21110EC082E090E0F2019183808371
:1025E00087EF9FEF4DCF0E94771B2FEF221A320A01
:1025F000E8CF88819981E80EF91EF70114830383DF
:10260000FFEFCF1ADF0A7A018A818C151D0409F0C9
:102610000CF48CCFE881F981EE0DFF1D428150E072
:1026200030E020E010E000E090E080E0B3CFF12C5B
:10263000E12CD12CC12CE8CF81E090E09C838B83EE
:10264000EADA882309F480CF81E090E00E94880ACA
:1026500080E40E94960A78CF89899A89019661F070
:1026600083E090E09C838B8382E090E00E94880A64
:1026700080E40E94900A68CF2D813E8180911902EA
:1026800090911A0228173907D1F460911D027091B8
:102690001E02AE014F5E5F4F80911B0290911C02A3
:1026A0000E940E1E0097E1F2789422E030E0F201E1
:1026B00031832083892B89F08DEF9FEFE1CE89282C
:1026C0008A288B2869F6CE0146DE188A1F86EACF53
:1026D00082E090E09C838B8337CF90E080E0D0CE87
:1026E00082E090E0F2019183808385EF9FEFC8CE76
:1026F0008F929F92AF92BF92CF92DF92EF92FF9212
:102700000F931F93CF93DF93EA018C01060F171FDE
:10271000F8018181833098F082E090E0998388838A
:1027200086EF9FEFDF91CF911F910F91FF90EF9078
:10273000DF90CF90BF90AF909F908F900895809141
:10274000920390919303892B61F081E090E02091B6
:10275000940330919503232B11F490E080E0892BB2
:1027600039F482E090E0998388838EEF9FEFDACF8F
:1027700044DE882309F4DDC0F8018181813009F449
:1027800093C0E8F0823099F420919403309195033E
:10279000E0919203F091930390E080E041E050E0FB
:1027A0002817390709F0BBC036DA811117C07894B1
:1027B00081E090E09983888390E080E0B3CF20911E
:1027C000940330919503E0919203F091930390E08C
:1027D00080E041E050E02817390741F481E090E0C3
:1027E0000E94880A80E40E94960AE1CF6381748186
:1027F000672B11F05483438301967396ECCFE091DD
:102800009203F0919303E00FF11F23813481223072
:102810003105D9F4218932892F3F3F4FB1F44581E9
:1028200056812091190230911A024217530761F51F
:10283000AF014F5E5F4F60911D0270911E0280914B
:102840001B0290911C020E940E1EEFEFCE1ADE0AB0
:10285000EE0AFE0A0D5E1F4F4091940350919503BE
:1028600070E060E0C416D506E606F7062CF5009782
:1028700031F27894892B09F49BCF82E090E0998320
:1028800088838DEF9FEF4ECFC114D104E104F10492
:10289000E1F6CF0160DDE0919203F0919303E00F48
:1028A000F11F108A1786D1CF10E000E090E080E0A1
:1028B000C12CD12C7601D0CF0097D9F610E000E0E2
:1028C000812C912C540183E0E82EF12C1AC0E09168
:1028D0009203F0919303E00FF11F8381948102979B
:1028E00049F4F482E38282E090E00E94880A80E466
:1028F0000E94900AFFEF8F1A9F0AAF0ABF0A0D5E6F
:102900001F4F8091940390919503B0E0A0E088164A
:102910009906AA06BB06DCF290E080E0AACF6381AC
:1029200074816230710511F4548343830196739668
:1029300037CF82E090E09983888385EF9FEFF2CED6
:102940000097B9F48FEFFB0180832091230230912F
:10295000240243E1429FC001439F900D1124E09166
:102960009203F0919303E80FF91F8285FB018183A5
:1029700008950C943F0A88E090E0FA0191838083E7
:1029800090E080E008951092910310929003E2E9A4
:10299000F3E086E0DF011D928A95E9F78EE290E18F
:1029A00090938F0380938E03089580918E0390916E
:1029B0008F0308952F923F924F925F926F927F9272
:1029C0008F929F92AF92BF92CF92DF92EF92FF923F
:1029D0000F931F93CF93DF93CDB7DEB760970FB6FA
:1029E000F894DEBF0FBECDBFF894E0919003F09154
:1029F00091033196F0939103E09390037894A09122
:102A00009203B0919303BA83A983109709F4FAC192
:102A1000E0919403F0919503EF2B09F4F3C128871B
:102A20004B875C876D877E879A878987B88BAF874E
:102A3000312C212CF12C512C412C8091940390911C
:102A400095032816390610F4FF2029F1F894809197
:102A50009003909191030197909391038093900339
:102A60007894C20160960FB6F894DEBF0FBECDBF5A
:102A7000DF91CF911F910F91FF90EF90DF90CF905A
:102A8000BF90AF909F908F907F906F905F904F908E
:102A90003F902F900895B10190E080E086D4682E99
:102AA000EF85F889878181FD3DC0838194810397FB
:102AB000C9F5258136813C832B8389859A85281722
:102AC000390781F5C101F1D8782E8823A9F1AF85A6
:102AD000B8891F968D919C915097019621E01D9683
:102AE0004D915C918417950709F020E02F83B12C5C
:102AF000A12CEF85F88982818A151B0419F014F046
:102B0000FF20E9F0F885FF2309F46CC1AF85B8898F
:102B100050961C921E921F97662021F0B10190E002
:102B200080E045D4FFEF2F1A3F0A2F8538892D5EAC
:102B30003F4F388B2F8781CFB1E0BF83D8CFBED432
:102B40009E838D83E885EE23E9F0772009F43CC16C
:102B5000AF85B8891F968D919C91892B79F0BBE048
:102B6000BA9DC001BB9D900D1124AF85B889ED9130
:102B7000FC91E80FF91F8581968105D7BFEFAB1A4D
:102B8000BB0AB7CF81E0772039F0EF85F889278538
:102B90003089232B09F080E0F82EE12CA114B10438
:102BA00039F4AF85B8891796EC90E4FAEE24E0F892
:102BB000BBE0BA9D6001BB9DD00C1124882309F4B1
:102BC00024C1AF85B889ED91FC911197EC0DFD1DE5
:102BD000438154811D962D913C91429FC001439F9A
:102BE000900D529F900D1124E1105DC001969087C9
:102BF000878361E070E0878190852BD5EF85F88928
:102C000021893289008111810C0D1D1D2F3F320752
:102C100009F44BC0BC01C9010E944F1ED801169691
:102C20009C938E931597AF85B889ED91FC91119780
:102C3000EC0DFD1D058116810115110509F4CDC0AE
:102C4000ED81FE810E0F1F1F1A968C918A0DD801FF
:102C50008C93E1102FC00F5F1F4FAF85B889ED91A6
:102C6000FC91EC0DFD1D12870187AF85B889ED91B0
:102C7000FC91EC0DFD1D85819681892B09F4A4C082
:102C80008091190290911A022B813C8128173907F3
:102C900009F465C0772011F001851285912C812CF3
:102CA0001A8219824AC00596A2CF1FD6F8019683D0
:102CB0008583B9CF8B859C85AD85BE85F8018183E1
:102CC0009283A383B4830B5F1F4FC7CFE080F18053
:102CD000E80CF91CD70113966D917C9114978C9197
:102CE0008F3F09F473C0E1E0F0E002C0EE0FFF1F78
:102CF0008A95E2F7CF01092E000CAA0BBB0BFB0152
:102D0000408151816281738184239523A623B72357
:102D100021E0892B8A2B8B2B09F420E0D8012C93FE
:102D2000D70111968C91080F111DE981FA81319616
:102D3000FA83E983F7E08F0E911CAF85B889ED9196
:102D4000FC91EC0DFD1D828129813A8182171306C9
:102D500011F00CF0BBCF772011F0128701873F8173
:102D6000332391F1AF85B889ED91FC91EC0DFD1DF8
:102D700061E070E0878190856CD4AF85B889ED9172
:102D8000FC91EC0DFD1DE780F08445815681E1E06A
:102D9000F0E0662011F0F0E0E0E00D811E819C0182
:102DA000B101882799278E1B9F0B8BD32C01892B70
:102DB00059F0EF85F88980819181C80ED91ED6011E
:102DC00015968D919C91DFD5F12CD8CEF7014181DC
:102DD00050E0C8010E949437A3CF86EF482E5524B7
:102DE0005A94CCCEEF85F889878590890196908B8F
:102DF0008787258536858217930709F08DCE108A3F
:102E000017868ACE512C412C21CE10E000E02DCF28
:102E10002F923F924F925F926F927F928F929F92EA
:102E2000AF92BF92CF92DF92EF92FF920F931F93D8
:102E3000CF93DF93809192039091930310E000E091
:102E4000892BA9F0DADA0AEF1FEF882381F02090AE
:102E5000940330909503C0919203D0919303D12CA9
:102E6000C12C10E000E02C143D04A9F47894C801B2
:102E7000DF91CF911F910F91FF90EF90DF90CF9056
:102E8000BF90AF909F908F907F906F905F904F908A
:102E90003F902F900895C6010E94550E882309F196
:102EA0008B819C810397E9F48F859889892BC9F0E0
:102EB000B60190E080E079D221E030E0882311F083
:102EC00030E020E044245524421A530AB12CA12CAE
:102ED000912C812C8A818815190409F038F4188AFC
:102EE0001F864FEFC41AD40A6396BDCFE881F981DB
:102EF000EA0DFB1D85819681892BA1F161E070E0CF
:102F000087819085A6D33C01D9D28C01E881F981D3
:102F1000EA0DFB1D8185928525813681200F311FA9
:102F2000AC01421B530B9A0147815085421B530B46
:102F300070E060E00E949D37E881F981EA0DFB1D99
:102F4000E780F084458156819301B601C201B9D270
:102F50008C01892B39F0E881F981EA0DFB1D85810F
:102F6000968111D55FEF851A950A8BE0A80EB11CEA
:102F7000B1CF43CA789408952F923F924F925F92B7
:102F80006F927F929F92AF92BF92CF92DF92EF9219
:102F9000FF920F931F93CF93DF9300D000D0CDB754
:102FA000DEB7009192031091930399249394011535
:102FB000110509F43EC0A0909403B09095031DDA6A
:102FC000982E8823B1F110929303109292031092DD
:102FD00095031092940310929603109297038FEF2B
:102FE0009FEFDC018093230290932402A09325029B
:102FF000B093260278947DD31E830D83C12CD12CEF
:103000007601C501B0E0A0E089839A83AB83BC83DD
:1030100022242A94322C89819A81AB81BC81C816E2
:10302000D906EA06FB06F4F0C801ADD480E40E949C
:10303000960A892D26960FB6F894DEBF0FBECDBF37
:10304000DF91CF911F910F91FF90EF90DF90CF9084
:10305000BF90AF909F907F906F905F904F903F9008
:103060002F900895AD81BE8115962D913C911697B4
:103070008091190290911A0228173907D1F45196BC
:103080008D919C91FAD5ED81FE8180819181B12C49
:10309000A12C412C512C3201892B79F5BFEFCB1A91
:1030A000DB0AEB0AFB0AED81FE817396FE83ED835A
:1030B000B2CFC114D104E104F10429F7ED81FE81FE
:1030C000818992898F3F980709F037D5AD81BE81FC
:1030D00052963C922E925197D6CF8A0D9B1DDC01C1
:1030E0008D919C91009709F04ED4BFEF4B1A5B0A6B
:1030F0006B0A7B0AEBE0AE0EB11CAD81BE818D91F7
:103100009C91119712964C9150E070E060E044164B
:103110005506660677060CF336D4C0CFCF93DF93FF
:10312000EA012ADF811109C082E090E09983888357
:1031300085EF9FEFDF91CF91089581E090E00E94AD
:10314000880A81E090E09983888390E080E0F2CF64
:1031500013DF10928F0310928E03089542E050E027
:1031600062EA72E00C94A60AFF920F931F93CF932A
:10317000DF938A01EC01C60FD71FF980B9D20897F7
:10318000F816190671F068F082E090E0F80191837A
:1031900080838EEF9FEFDF91CF911F910F91FF9072
:1031A00008956C817D818E819F814B810E943B0DB2
:1031B000811108C082E090E0F8019183808384EF60
:1031C0009FEFE9CFF9800E94360D4F2D50E0BE01F0
:1031D000685F7F4F0E94943789810E94A50D81E02E
:1031E00090E0F8019183808390E080E0D4CFDF927B
:1031F000EF92FF920F931F93CF93DF938A01EC011D
:10320000C60FD71F0E94360D7C01D98071D2DD20F8
:1032100059F0029721E030E0D816190619F010F0A5
:1032200030E020E0232B79F482E090E0F8019183F4
:1032300080838EEF9FEFDF91CF911F910F91FF90D1
:10324000EF90DF900895EF2841F482E090E0F801DC
:103250009183808384EF9FEFEECFF9800E94360D3B
:103260004F2D50E0BE016E5F7F4F0E9494378981E1
:103270000E94A50D81E090E0F8019183808390E0A9
:1032800080E0D9CF8EEA98E19093990380939803D8
:103290000895809198039091990308950895FC01F1
:1032A00011821082938382830895DB011D921C9208
:1032B000DC011296ED91FC91139771836083139654
:1032C0007C936E9312970895FC0180819181DB01BC
:1032D0008D939C93A081B181109741F08D919C9129
:1032E00091838083892B11F4F383E2830895FC0199
:1032F00080819181DB018D939C93892B11F47383E1
:103300006283718360830895FC011182108293832C
:1033100082830895CF93DF931F921F92CDB7DEB7BC
:103320001A821982F894BE016F5F7F4F8FE993E094
:10333000CBDF89819A81009709F025D389819A8111
:10334000892B89F7BE016F5F7F4F83EA93E0BCDF73
:1033500089819A81009709F016D389819A81892BF6
:1033600089F778940F900F90DF91CF910895CF93C4
:10337000DF931F921F92CDB7DEB71A821982F8949D
:10338000BE016F5F7F4F8BE993E09EDF89819A8159
:10339000009709F0F8D289819A81892B89F778946E
:1033A0000F900F90DF91CF91089581E0089590E004
:1033B00080E00895EF92FF920F931F93CF93DF93D6
:1033C0001F921F92CDB7DEB71A82198280919A039D
:1033D00007EF1FEF8823A1F1F894BE016F5F7F4FC5
:1033E00083EA93E071DF789489819A81EE24E394F3
:1033F000F12C892B51F4F894BE016F5F7F4F8FE958
:1034000093E062DF7894F12CE12C89819A810EEFB0
:103410001FEF0097A9F0FC014281538164E070E046
:1034200042D68C01892B61F0F89469817A81C701B9
:10343000880F991F880F991F81569C4F58DF7894E9
:10344000C8010F900F90DF91CF911F910F91FF90C6
:10345000EF9008950F931F93CF93DF9300D01F92A7
:10346000CDB7DEB71C821B821A82198280919A0323
:1034700007EF1FEF8823C1F0AE014D5F5F4F64E09F
:1034800070E0CE01019682D68C01892B69F4E98126
:10349000FA818B819C8193838283F89469817A81FC
:1034A0008BE993E002DF7894C8010F900F900F90A2
:1034B0000F90DF91CF911F910F91089587D70496B8
:1034C00008958F929F92AF92BF92CF92DF92EF9228
:1034D000FF920F931F93CF93DF931F921F92CDB74D
:1034E000DEB71A821982BC016F5F7F4F63307105AE
:1034F00098F0AA24AA94BA2CC5010F900F90DF91DE
:10350000CF911F910F91FF90EF90DF90CF90BF90E0
:10351000AF909F908F9008954115510551F3480148
:1035200059018A016C01CADF8815990511F7E11468
:10353000F104F9F28E0D9F1DA816B906D0F2809104
:103540009A038823F1F0F894B5016450710997014A
:10355000AE014F5F5F4FC8010496ADD65C01892B69
:1035600071F489819A81F80193838283C601880F5F
:10357000991F880F991FB80181569C4F96DE789449
:10358000BBCF87EFA82EBB24BA94B6CFAF92BF9221
:10359000CF92DF92EF92FF920F931F93CF93DF931F
:1035A0001F921F92CDB7DEB71A821982892B09F0BC
:1035B00047C06115710509F443C04115510509F46F
:1035C0003FC02115310509F43BC001151105C1F1BA
:1035D00080919A038823B9F179016A015B01F8941B
:1035E000BE016F5F7F4F8BE993E06EDE7894898137
:1035F0009A81009759F1DC0112966D917C91A80196
:10360000049672D68C01E981FA81D501ED93FC9381
:10361000828193810496F601918380834FDFD701E5
:103620008D939C93C8010F900F90DF91CF911F91C4
:103630000F91FF90EF90DF90CF90BF90AF900895E3
:103640000FEF1FEFEFCF07EF1FEFECCF0EEF1FEFE6
:10365000E9CFCF93DF93EC01672B71F4C0D68C17C1
:103660009D0760F0B3D62496C80FD91FB2D68C0F31
:103670009D1FDF91CF910895AFD6F1CF90E080E00C
:10368000F8CF0F931F93CF93DF9320919A032111CB
:103690002BC08B01EC018FE993E001DE83EA93E01C
:1036A000FEDD8BE993E0FBDD97D00097C1F497D660
:1036B00070E060E0CEDF47E252E062E070E08FD180
:1036C000009769F480912702909128029AD6B80158
:1036D000CE01CFD4009719F421E020939A03DF9113
:1036E000CF911F910F91089584EF9FEFF8CF74C68B
:1036F00076C6CF93DF9376D6EC01892B11F40ADEE0
:1037000036DECE01DF91CF910895CF93DF936AD655
:10371000EC01892B09F4FEDDCE01DF91CF910895F4
:1037200080912702909128020895CF93DF93809192
:103730009A03D0E0C0E08823D1F068D6EC01892B51
:10374000B1F4E8DD14DE8091270290912802F5D1D2
:10375000F6D2EC01892B59F48FE993E0D5DD83EAA9
:1037600093E0D2DD8BE993E0CFDD10929A03CE0196
:10377000DF91CF910895EF92FF920F931F93CF9314
:10378000DF93EC017A018B010F5F1F4F0E9DA001AB
:103790000F9D500D1E9D500D112470E060E00E94A1
:1037A0009D3790E080E0F0E0E0E02FEFE816F906CA
:1037B00039F4DF91CF911F910F91FF90EF90089511
:1037C0001A8219822883309711F0D283C18301961F
:1037D000FE01C00FD11FEACFCF92DF92EF92FF928E
:1037E0000F931F93CF93DF930CED14E00C7F8EEAC1
:1037F000E82E82E0F82E94EBC92E92E0D92ECBE48D
:10380000D5E0D7014D915D917D01F60161917191F6
:103810006F01198308835D834C835B834A837F83B5
:103820006E839B012F5F3F4F249FC001259F900D0A
:10383000349F900D1124998788870115110511F087
:10384000C80199DF88859985080F191F2A96F4EB1E
:10385000EF16F2E0FF06A9F6E9EAF3E080E391E073
:10386000DF019C011D9221503040E1F71092A80326
:103870001092A70310926A051092690510926E05C6
:1038800010926D0510926C0510926B0510927005E8
:1038900010926F05109272051092710510927405C6
:1038A00010927305109278051092770510927605A4
:1038B0001092750510927A051092790510927C0588
:1038C00010927B05109248051092470510924A0508
:1038D0001092490590E080E0DF91CF911F910F9108
:1038E000FF90EF90DF90CF900895009799F1F894B2
:1038F0008931910550F480914D0590914E05892BA9
:1039000039F020E090E080E018C08132910550F459
:103910008091570590915805892B31F021E081E085
:1039200090E00BC0C197A8F4809161059091620569
:10393000892B79F022E082E090E0EAE0E89FD00174
:10394000E99FB00D1124A55BBA4F8D919C91009712
:1039500021F4789490E080E00895E29FF001112432
:10396000E55BFA4FDC0111964D915C9151834083E8
:10397000428153814150510953834283FC01219379
:10398000CF0178940895009749F1DC018E9185303C
:1039900041F4E0914905F0914A053097F9F0CD01E5
:1039A00019948530D8F4282F30E0F8948FEF8C9359
:1039B0008AE0829FF001839FF00D1124E55BFA4FAE
:1039C0008081918112969C938E931197B183A083ED
:1039D0008281938101969383828378940895CF9214
:1039E000DF92EF92FF920F931F93CF93DF939C018F
:1039F0008CEA93E08C7F4115510509F49BC0211599
:103A0000310509F497C06115710509F493C07A0175
:103A1000AB01B9016D5F7F4F6C7F9B012F5F3F4F03
:103A2000249F8001259F100D349F100D1124F894C0
:103A30002091690530916A05232B59F42091710575
:103A4000309172052115310569F12017310708F011
:103A500058C02091730530917405232B91F4209167
:103A6000710530917205820F931F20917B05309173
:103A70007C052115310509F441C02017310708F0F4
:103A800056C07894CFEFDFEF86EF9FEFF701D18339
:103A9000C083DF91CF911F910F91FF90EF90DF9046
:103AA000CF900895C3E0D0E0C090A703D090A803C2
:103AB0002DE231E02C193D092017310710F32AE0DF
:103AC0002C9FF0012D9FF00D1124E55BFA4F91839F
:103AD000808355834483538342837783668311872E
:103AE0000087009709F047DE0C0D1D1D1093A803F9
:103AF0000093A703789490E080E0C8CFC4E0D0E0C2
:103B0000D3CFC3E0D0E02AE02C9FF0012D9FF00D31
:103B10001124E55BFA4F918380835583448353835B
:103B2000428377836683009729F325DEE3CFC4E0E1
:103B3000D0E0E9CF8FEF9FEFACCF9C0103970297C6
:103B400008F069C0F89484E09AE0482F50E0241708
:103B500035070CF44DC091E08AE0829FF001839F0D
:103B6000F00D1124E55BFA4F118210821582148248
:103B700013821282178216829923B1F18091730504
:103B800090917405892BA9F420917B0530917C05D7
:103B90002115310571F08091A7039091A803821B34
:103BA000930B9093A8038093A70310927C05109227
:103BB0007B058091690590916A05892BA9F4209174
:103BC0007105309172052115310571F08091A703BF
:103BD0009091A803821B930B9093A8038093A70353
:103BE0001092720510927105789490E080E008952B
:103BF000949FF001959FF00D1124E55BFA4F4081F1
:103C00005181452B31F440855185452B11F481506C
:103C10009CCF90E0A1CF8FEF9FEF08954115510504
:103C200049F1009739F16115710521F1F89420915E
:103C3000470530914805232BB9F42091490530916F
:103C40004A05232B89F49093480580934705709388
:103C50004A0560934905789425E030E090E080E0E3
:103C6000FA0131832083089578942FEF3FEF86EF98
:103C70009FEFF6CF8FEF9FEF0895059769F4F894C3
:103C8000109248051092470510924A051092490576
:103C9000789490E080E008958FEF9FEF089561158C
:103CA000710519F4F0E0E0E011C08530910581F470
:103CB000E0914705F09148053097A1F3CB010196BB
:103CC0001995009779F3FC0185E08193CF01089560
:103CD0009C01235031092230310520F72AE0289F2A
:103CE000D001299FB00D1124A55BBA4F2D913C91B5
:103CF0001197232BB9F216962D913C911797261701
:103D0000370780F2F89412962D913C911397211564
:103D1000310529F0ED91FC911197309711F47894C9
:103D2000C1CF4181528111965C934E93215031094C
:103D300013963C932E93129781937894C7CFE9ED15
:103D4000F4E08EE6DF011D928A95E9F7E9EAF3E0F7
:103D500080E391E0DF019C011D9221503040E1F7AA
:103D60001092A8031092A703EBE4F5E082E3DF01D1
:103D70001D928A95E9F7E7E4F5E084E0DF011D9202
:103D80008A95E9F790E080E00895CF93DF93C091A2
:103D90002902D0912A02CF3FDC0761F40E94592DFD
:103DA00090932A028093290297FF09C0D0932A0298
:103DB000C093290284EF9FEFDF91CF91089590E0A7
:103DC00080E0FACF8230910528F480937D0590E061
:103DD00080E008958FEF9FEF08954F925F926F926A
:103DE0007F92AF92BF92CF92DF92EF92FF920F93AA
:103DF0001F93CF93DF931F921F92CDB7DEB71A8226
:103E00001982009709F47AC06115710509F476C02A
:103E10002091290230912A0207EF1FEF2F3F3F4FD9
:103E200009F446C06B015C01412C512C3201F12C8C
:103E3000E12C10E000E09E012F5F3F4FA6014E19DC
:103E40005F09B5016E0D7F1D8091290290912A02B4
:103E50000E94B72D892B09F04BC089819A81009768
:103E600041F4E114F10429F420917D05222309F4A1
:103E700042C0E80EF91EEC14FD04D0F480E84816A8
:103E800084E858068EE16806710420F560E070E071
:103E9000CB010E9453322AE0420E511C611C711C5E
:103EA0000A3F4FEF140721F0043F8FEF1807A1F4EA
:103EB000C8010F900F90DF91CF911F910F91FF904C
:103EC000EF90DF90CF90BF90AF907F906F905F901A
:103ED0004F90089501EF1FEF81E090E0013F2FEF39
:103EE000120711F090E080E0892B09F4A4CFE0CF15
:103EF00004EF1FEFDDCF0AEF1FEFDACF0FEF1FEF59
:103F0000D7CF4F925F926F927F92AF92BF92CF9234
:103F1000DF92EF92FF920F931F93CF93DF931F9245
:103F20001F92CDB7DEB71A821982009709F47AC0C2
:103F30006115710509F476C02091290230912A0299
:103F400007EF1FEF2F3F3F4F09F446C06B015C01A5
:103F5000412C512C3201F12CE12C10E000E09E01AB
:103F60002F5F3F4FA6014E195F09B5016E0D7F1DF2
:103F70008091290290912A020E946D2D892B09F0CF
:103F80004BC089819A81009741F4E114F10429F42E
:103F900020917D05222309F442C0E80EF91EEC149D
:103FA000FD04D0F480E8481686E9580688E96806DA
:103FB000710420F560E070E0CB010E9453322AE0EA
:103FC000420E511C611C711C0E3F4FEF140721F073
:103FD000043F8FEF1807A1F4C8010F900F90DF91F5
:103FE000CF911F910F91FF90EF90DF90CF90BF90F6
:103FF000AF907F906F905F904F90089502EF1FEF0A
:1040000081E090E0023F2FEF120711F090E080E096
:10401000892B09F4A4CFE0CF04EF1FEFDDCF0EEF23
:104020001FEFDACF0FEF1FEFD7CF809129029091CA
:104030002A028F3F980751F00E94512D892B49F495
:104040008FEF9FEF90932A028093290290E080E007
:10405000089584EF9FEF0895FC01680F791F90E0A9
:1040600080E0E617F70709F408952191820F911D6A
:10407000F8CF20917E05211113C087DE009791F4BF
:10408000109284051092830510928205109281058A
:104090001092800510927F0521E020937E050895FF
:1040A00084EF9FEF0895AF92BF92CF92DF92EF928D
:1040B000FF920F931F93CF93DF93009709F460C093
:1040C0004630510508F45CC020917E05C7EFDFEF54
:1040D000222309F449C08C01060F171FF801C08084
:1040E000D180C114D10409F44EC096012A5F3F4F1C
:1040F0004217530708F447C07C01809183059091D3
:10410000840593838283B6016C5F7F4F5801A60EAE
:10411000B71EC801A1DFF5019183808364E070E0E0
:10412000C8015BDEEC01892BF9F481E090E04ADE06
:10413000B601C801049651DEEC01892B91F462E0CE
:1041400070E0C5014ADEEC01892B59F4C7011BDC84
:1041500080918305909184050196909384058093C6
:10416000830590E080E02EDECE01DF91CF911F919C
:104170000F91FF90EF90DF90CF90BF90AF90089598
:10418000CFEFDFEFF1CFC9EFDFEFEECF6F927F928E
:104190008F929F92AF92BF92CF92DF92EF92FF9257
:1041A0000F931F93CF93DF9300D01F92CDB7DEB74D
:1041B000009709F47AC04115510509F476C02091A1
:1041C0007E0507EF1FEF222309F44DC03A017B0162
:1041D0005C0164E070E0CE01019693DE8C01892BD6
:1041E00009F041C009811A810115110509F45AC06D
:1041F000480186E0880E911CB701680D791D8091F9
:104200002B0290912C024BDD6C01009709F450C0F9
:10421000A70170E060E00E949D3789819A81AB819F
:10422000BC81EC0CFD1CF70181939193A193B19398
:104230007F0181E090E0C6DDB801C70162DE892B15
:1042400031F562E070E0C701800F911F5ADE8C01EA
:10425000892BE9F490E080E0B5DDF501D182C082E0
:10426000F30191828082C8010F900F900F900F9000
:10427000DF91CF911F910F91FF90EF90DF90CF9042
:10428000BF90AF909F908F907F906F90089590E037
:1042900080E098DDF50111821082F3011182108215
:1042A000C60171DB09EF1FEFDECF0FEF1FEFDBCF92
:1042B00006EF1FEFD8CF0097A1F04115510589F007
:1042C0002115310571F0F90136966E177F0748F018
:1042D000DC012D933C93DA01ED93FC9390E080E0B8
:1042E00008958FEF9FEF0895AF92BF92CF92DF9224
:1042F000EF92FF920F931F93CF93DF93009709F4F0
:104300005FC04115510509F45BC06530710508F4C3
:1043100057C020917E05C7EFDFEF222391F1DC012A
:10432000CD90DC9011971296ED91FC9196012A5F49
:104330003F4FC9EFDFEF2617370719F5C0917F050B
:10434000D0918005209749F521E030E03093800539
:1043500020937F057A018C01F0938205E09381051B
:104360005601B4E0AB0EB11CB50176DE0A0D1B1D83
:10437000F801208131818217930729F5D701CD9269
:10438000DC92CE01DF91CF911F910F91FF90EF90C2
:10439000DF90CF90BF90AF9008952091810530912C
:1043A00082052F5F3F4FCCEFDFEFE217F30790F26C
:1043B000CBEFDFEF2E173F0768F2D0E0C0E0CACFA7
:1043C000CFEFDFEFDECFC3EFDFEFDBCF84E090E0B6
:1043D000089582E090E008958CEF9FEF089580E2C9
:1043E00090E0089510928405109283051092820542
:1043F000109281051092800510927F0590E080E078
:10440000089590932C0280932B02089580917E054D
:10441000882391F00ADE009789F4109284051092A7
:1044200083051092820510928105109280051092EA
:104430007F0510927E05089590E080E00895009732
:1044400049F06115710531F0FC0111821082FB0108
:10445000118210820895F3CF90E080E0089580915A
:10446000890690918A06891B990B089590918A0676
:10447000809189062FEF3FEF981748F4E92FF0E07D
:10448000E557F94F208130E09F5F90938A06C9017C
:104490000895E0918A0680918906E81730F4F0E0EB
:1044A000E557F94F808190E008958FEF9FEF0895D1
:1044B0000895CF93DF93EC01E0916106F0916206DD
:1044C0003097F1F090918A06809189069817C0F094
:1044D00090E0292F30E02617370754F4DE01A20FB1
:1044E000B31F4C912557394FD9014C939F5FF1CFA2
:1044F00010928A0660938906CB01DF91CF911994BF
:10450000DF91CF910895E0916306F09164063097B2
:1045100029F010926706109266061994089581E0BA
:10452000809365066093880610926706109266066F
:1045300008951092540681E080935206109251061D
:1045400061E084E10E948D3361E085E10E948D335A
:10455000E9EBF0E080818E7F808380818D7F808396
:1045600088E48093B80085E48093BC00089510929D
:104570008A06109289061092670610926606D9DFA5
:1045800083E892E290934A068093490689E592E295
:1045900090934806809347060895ECEBF0E0808105
:1045A0008A7B808360E084E10E948D3360E085E156
:1045B0000C948D3320910306260F3327331F2132AD
:1045C0003105E4F4209154062430D1F4FC0190E04C
:1045D00080E0861760F4A09103062191AC014B5F47
:1045E000594FA40FB52FB11D2C930196F2CF809196
:1045F0000306680F6093030680E0089581E0089544
:1046000082E00895CF93DF931F92CDB7DEB7698321
:10461000209165062223F9F020916606203258F099
:1046200021E030E0FC013383228390E080E00F90B2
:10463000DF91CF91089580916706E82FF0E0E85967
:10464000F94F998190838F5F809367068093660608
:1046500081E090E0ECCF61E0CE010196ABDFF8CFD6
:10466000CF92DF92EF92FF920F931F93CF93DF933E
:104670007C01CB018A0120916506222389F0EB01A0
:104680006B01C40ED51ECC15DD0561F06991D70113
:10469000ED91FC910190F081E02DC7011995F3CFC8
:1046A000642F88DFC801DF91CF911F910F91FF9098
:1046B000EF90DF90CF90089585EC8093BC0010922E
:1046C00054060895CF93DF9391E090934C0688238E
:1046D00051F0C091B800D091BA005FDF2ADFD093CB
:1046E000BA00C093B800DF91CF9108954F925F92C6
:1046F0006F927F928F929F92AF92BF92CF92DF92F2
:10470000EF92FF920F931F93CF93DF93D82F162F23
:10471000072FC42FB22E413250F50E942E326B016A
:104720007C01809154068823A9F180914D069091D7
:104730004E06A0914F06B0915006892B8A2B8B2BE9
:1047400081F30E942E3240904D0650904E066090AC
:104750004F06709050066C197D098E099F09461608
:10476000570668067906E8F680914B06ABDFC0E095
:104770008C2FDF91CF911F910F91FF90EF90DF90E1
:10478000CF90BF90AF909F908F907F906F905F90F1
:104790004F90089581E080935406B09252069FEFA7
:1047A0009093E105109226069C0F90932506809326
:1047B000530680915306DD0FD82BD093530680917A
:1047C0005106813009F05AC0109251060E942E32D3
:1047D0006B017C01809153068093BB0080914D0654
:1047E00090914E06A0914F06B0915006892B8A2BCE
:1047F0008B2B79F58091BC0083FDECCF85EC809309
:10480000BC000E942E326B017C01809154068130E5
:10481000B9F580914D0690914E06A0914F06B0914A
:104820005006892B8A2B8B2B81F30E942E3280908D
:104830004D0690904E06A0904F06B09050066C1911
:104840007D098E099F0986169706A806B906E8F61F
:104850008BCF0E942E3280904D0690904E06A090F5
:104860004F06B09050066C197D098E099F09861677
:104870009706A806B90608F0BDCF76CF85EEBFCF64
:10488000809126068C1710F4C0912606A7E2B6E0A8
:10489000912FE12FF02F8E2F891B8C1708F068CFF6
:1048A0008D918193F8CF4F925F926F927F928F920A
:1048B0009F92AF92BF92EF92FF920F931F93CF936D
:1048C000DF93413208F0D2C0F22ED42FE72E162FFC
:1048D000C82F0E942E324B015C0180915406882320
:1048E00091F180914D0690914E06A0914F06B091A6
:1048F0005006892B8A2B8B2B81F30E942E324090FD
:104900004D0650904E0660904F0670905006681904
:1049100079098A099B094616570668067906E8F65A
:1049200080914B06CFDE85E0DF91CF911F910F91F3
:10493000FF90EF90BF90AF909F908F907F906F907F
:104940005F904F90089582E0809354060093520642
:104950008FEF8093E10510922606D0932506912FC4
:10496000A7E2B6E0E12FFE2D8E2F891B8D1718F4DC
:1049700081918D93F9CF1092530680915306CC0FFD
:10498000C82BC093530680915106813009F041C075
:10499000109251060E942E324B015C018091530609
:1049A0008093BB0080914D0690914E06A0914F06DA
:1049B000B0915006892B8A2B8B2BB9F48091BC00C7
:1049C00083FDECCF85EC8093BC000E942E324B011E
:1049D0005C01FF2021F0809154068230E1F080914B
:1049E000E1058F3FC9F580E09FCF0E942E320091F4
:1049F0004D0610914E0620914F06309150066819D1
:104A000079098A099B090617170728073907B0F69D
:104A100087CF85EED8CF80914D0690914E06A0911C
:104A20004F06B0915006892B8A2B8B2B91F20E9456
:104A30002E3200914D0610914E0620914F06309176
:104A40005006681979098A099B090617170728076C
:104A5000390708F0BECF64CF8091E105803241F084
:104A60008091E105803331F084E05ECF81E05CCF5E
:104A700082E05ACF83E058CF0F93062F21E0409178
:104A8000660668E676E0809188060DDF109267067C
:104A900010926606109265060F9108954F925F92EC
:104AA0006F927F92AF92BF92CF92EF92FF920F934D
:104AB0001F93CF93DF935C01F62ED42F2801390189
:104AC000EE2009F12CDDCE2DC43008F0C3E0C1503A
:104AD000B8F028E0C29FC0011124A301920104C0D4
:104AE00056954795379527958A95D2F7B901D501FF
:104AF000ED91FC910190F081E02DC5011995E7CF72
:104B000060E0C501B9DF4D2FD13208F040E22C2D15
:104B10006BE876E08F2DEADD10928A068093890695
:104B2000DF91CF911F910F91FF90EF90CF90BF90A9
:104B3000AF907F906F905F904F900895CF92EF92DB
:104B40000F931F93C22EE12C00E010E09801A6DF26
:104B50001F910F91EF90CF90089521E0EFCF61E08A
:104B60008BCF85ED8093BC0080914D0690914E06D1
:104B7000A0914F06B09150060796A11DB11D23E0EC
:104B8000B695A795979587952A95D1F72091BC0062
:104B900024FF1BC040914D0650914E0660914F0678
:104BA00070915006452B462B472B81F30097A105AA
:104BB000B10541F02AE22A95F1F700C00197A10959
:104BC000B109E4CF80914B067DCD10925406089533
:104BD0001F920F920FB60F9211240BB60F922F93C4
:104BE0003F934F935F936F937F938F939F93AF9375
:104BF000BF93EF93FF938091B900887F803609F4CB
:104C00004CC008F03FC0883209F4A8C028F58031B4
:104C100009F49CC0C8F4882309F4F8C0883009F46A
:104C200095C0FF91EF91BF91AF919F918F917F912F
:104C30006F915F914F913F912F910F900BBE0F900D
:104C40000FBE0F901F901895883109F487C08032ED
:104C500041F78093E10514C0803409F49CC040F40E
:104C60008033B9F38833E9F68093E10525DDD9CFA8
:104C7000803509F484C0883509F495C0883489F6F4
:104C800070DFCFCF883909F48CC038F5883729F028
:104C900050F4883611F0803721F683E08093540673
:104CA0001092E20557C0883809F47BC0803919F0AA
:104CB000803809F0B6CF8091E205803208F071C0EB
:104CC000E091E20581E08E0F8093E2058091BB00C8
:104CD000F0E0ED51FA4F80833DC0803B39F0E0F4C5
:104CE000803A09F479C0883A09F09BCF84E0809338
:104CF00054061092040610920306E0914906F091C2
:104D00004A0619958091030681110FC081E08093B6
:104D100003061092050609C0803C09F475C0883C62
:104D200009F472C0883B09F07CCFE091040681E071
:104D30008E0F80930406F0E0EB5FF94F8081809343
:104D4000BB00909104068091030629C08091530610
:104D50008093BB0085EC8093BC0063CF90912606C6
:104D600080912506981758F5E091260681E08E0F70
:104D700080932606F0E0E95DF94F8081E9CFE0916C
:104D8000260681E08E0F809326068091BB00F0E01E
:104D9000E95DF94F8083909126068091250698174A
:104DA000C8F285E8D8CFE091260681E08E0F809387
:104DB00026068091BB00F0E0E95DF94F8083809189
:104DC000520681115DCF81E08093510684EA809381
:104DD000BC001092540625CF6FDC8091E205803232
:104DE00030F4E091E205F0E0ED51FA4F108260916D
:104DF000E20570E0E0914706F091480683EE95E009
:104E000019951092E2050DCF85ECE1CF1092E105E6
:104E100037CFFC01108288E6838372836183DF01D0
:104E2000A85ABF4F48E451EE6AE77FE34D935D9384
:104E30006D937C9313971486158616861786108AB1
:104E4000118A128A138A148A158A168A178A108E72
:104E5000118E128E138E148E158E168E178E10A232
:104E600011A212A213A208950F931F93CF93DF9361
:104E7000EC01062F142F6B8189819A8150DB898187
:104E80009A81DC01ED91FC910190F081E02D602F81
:104E9000199589819A81DC01ED91FC910190F08155
:104EA000E02D612F199589819A81DF91CF911F9112
:104EB0000F9155CE6130710511F124F4672B99F0F3
:104EC00081E008956230710529F163307105C1F701
:104ED00043E353E363E871E4FC0144835583668351
:104EE000778348E10AC040E050E063E073E4FC01EE
:104EF000448355836683778340E06BE1B5CF40E020
:104F000050E063E872E4FC01448355836683778351
:104F100048E0F3CF43E353E363E072E4FC014483EE
:104F200055836683778340E1E8CF6130710511F1E5
:104F300024F4672B99F081E008956230710529F11E
:104F400063307105C1F740E050E060E075E4FC01BA
:104F5000408751876287738748E10AC040E050E08C
:104F600060E876E4FC01408751876287738740E000
:104F70006CE17ACF40E050E060E076E4FC014087ED
:104F800051876287738748E0F3CF40E050E060E8E4
:104F900075E4FC01408751876287738740E1E8CF61
:104FA0008F929F92AF92BF92CF92DF92EF92FF9239
:104FB0000F931F93CF93DF93CDB7DEB72E970FB626
:104FC000F894DEBF0FBECDBF8C01DC0113966C914F
:104FD000139711968D919C91A2DAF80181819281AB
:104FE000DC01ED91FC910190F081E02D6BE31995CE
:104FF00060E0F801818192813FDD4EE0D801139697
:105000006C91139711968D919C91A7DDFE013196BD
:105010007F015E01FFE0AF0EB11CD80111968D91AA
:105020009C91DC01ED91FC910284F385E02D1995B2
:10503000982EF80181819281DC01ED91FC9102842E
:10504000F385E02D1995C12C8C299929F7018193BD
:1050500091937F01EA15FB0501F7D8011896CD90D1
:10506000DD90ED90FC901B9769817A81072E000CF2
:10507000880B990BBBD7A701960122D7F801208D89
:10508000318D428D538D3ED6D80198966D937D9388
:105090008D939C939B976B817C81072E000C880BD2
:1050A000990BA4D7A70196010BD7F801248D358D54
:1050B000468D578D27D6D8019C966D937D938D9301
:1050C0009C939F978C9161E06827681B770B072E54
:1050D000000C880B990B8AD74B015C016D817E8196
:1050E000072E000C880B990B81D79B01AC01C501E1
:1050F000B4010E942931A7019601E2D6F80120A14E
:1051000031A142A153A1FED5D801D0966D937D93D4
:105110008D939C93D3976F817885072E000C880B15
:10512000990B64D720E030EF41E456E4ECD520E061
:1051300030E04AEA53E4C4D6F80164A375A386A319
:1051400097A3C480D580E680F78069857A85072E8D
:10515000000C880B990B4AD7A7019601B1D6D8014C
:105160001C962D913D914D915C911F97CBD5F801E7
:1051700064AB75AB86AB97AB6B857C85072E000C5B
:10518000880B990B33D7A70196019AD6D801509670
:105190002D913D914D915C915397B4D5F80160AF3D
:1051A00071AF82AF93AF6D857E85072E000C880BA3
:1051B000990B1CD7A701960183D6D80154962D913F
:1051C0003D914D915C9157979DD5F80164AF75AFB6
:1051D00086AF97AF2E960FB6F894DEBF0FBECDBF49
:1051E000DF91CF911F910F91FF90EF90DF90CF90C3
:1051F000BF90AF909F908F9008952F923F924F92C3
:105200005F926F927F928F929F92AF92BF92CF9256
:10521000DF92EF92FF920F931F93CF93DF93CDB75F
:10522000DEB72E970FB6F894DEBF0FBECDBF9E87B8
:105230008D87062F142F662369F0FC0114861586CE
:1052400016861786108A118A128A138A148A158A7A
:10525000168A178A112371F0ED85FE85108E118E46
:10526000128E138E148E158E168E178E10A211A20A
:1052700012A213A284EF282E3324339419861A869F
:105280001B861C8619821A821B821C821D821E822A
:105290001F821886412C512C3201530142017301A7
:1052A00062018D859E857CDEED85FE8520A531A57C
:1052B00042A553A5C301B20126D52B013C01ED85C2
:1052C000FE8524A535A546A557A5C501B4011BD566
:1052D0004B015C0120E030E040E85FE3ED85FE85B6
:1052E00060A971A982A993A90DD59B01AC01C70141
:1052F000B60109D56B017C01ED85FE8524A935A990
:1053000046A957A96D817E818F819885FCD46D83D4
:105310007E838F839887ED85FE8520AD31AD42ADCC
:1053200053AD69817A818B819C81EDD469837A83C5
:105330008B839C83ED85FE8524AD35AD46AD57ADA1
:1053400069857A858B859C85DED469877A878B878A
:105350009C8761E070E080E090E00E945332F1E0D1
:105360002F1A310809F09DCF112339F120E030E0E8
:105370004AEF53E4C301B201A3D5ED85FE85608FEA
:10538000718F828F938F20E030E04AEF53E4C501A4
:10539000B40196D5ED85FE85648F758F868F978FC6
:1053A00020E030E04AEF53E4C701B60189D5ED852E
:1053B000FE8560A371A382A393A3002369F120E07B
:1053C00030E04AEF53E46D817E818F81988578D5F6
:1053D000ED85FE85648775878687978720E030E0B6
:1053E0004AEF53E469817A818B819C8169D5ED858F
:1053F000FE85608B718B828B938B20E030E04AEFCF
:1054000053E469857A858B859C855AD5ED85FE8523
:10541000648B758B868B978B2E960FB6F894DEBFB8
:105420000FBECDBFDF91CF911F910F91FF90EF90F5
:10543000DF90CF90BF90AF909F908F907F906F90B4
:105440005F904F903F902F9008954F925F926F9290
:105450007F928F929F92AF92BF92CF92DF92EF9204
:10546000FF920F931F93CF93DF93CDB7DEB72C97A7
:105470000FB6F894DEBF0FBECDBF8C0191DDD80111
:10548000D096CD90DD90ED90FC90D39720E030E069
:10549000A901C701B60110D587FDB0C020E030E0FA
:1054A00040E85FE32D833E834F835887A701960131
:1054B000C701B601CED62B013C01D8019896CD90FC
:1054C000DD90ED90FC909B97A7019601C701B60176
:1054D000C0D6A301920117D423D7F80184A495A4C0
:1054E000A6A4B7A42D813E814F815885B2D69B01D9
:1054F000AC01C501B4017AD49801205C3F4F3A87D2
:10550000298721EE3EE245E652E4A3D6A985BA8575
:105510006D937D938D939C931397A5019401C50181
:10552000B40197D6A3019201EED3FAD69B01AC0148
:10553000C701B6015BD47801B4E4EB0EF11C9058BE
:1055400021EE3EE245E652E484D6F70160837183A2
:105550008283938377D74B015C017801F4E5EF0EEA
:10556000F11CF70180819181A281B381A501940191
:10557000281B390B4A0B5B0BCA01B90135D52FE645
:1055800032E143E85AE365D62B013C01D7018D9205
:105590009D92AD92BC921397F801E85AFF4F20817B
:1055A00031814281538129833A834B835C83A9856E
:1055B000BA858D909D90AD90BC90F80124A935A935
:1055C00046A957A946D6F801E85BFF4F20813181F3
:1055D0004281538198D3A501940194D36B017C013E
:1055E00020E030E044E353E429D6181684F420E0A8
:1055F00030E044EB53E4C701B601EFCF80E090E028
:10560000A0E8BFEB8D839E83AF83B8874FCF20E0A8
:1056100030E044E353ECC701B6014ED487FF0AC023
:1056200020E030E044EB53E4C701B6016CD36B01DA
:105630007C01EDCF29813A814B815C8160E070E093
:1056400080E89FE35FD369877A878B879C87A70170
:105650009601C501B40157D329813A814B815C8100
:10566000F8D56B017C0129853A854B855C85C501A0
:10567000B401EFD59B01AC01C701B60144D36B0166
:105680007C0120E030E044E353E4D8D5181644F41C
:1056900020E030E044EB53E4C701B60133D3EFCF51
:1056A00020E030E044E353ECC701B60105D487FFA6
:1056B0000AC020E030E044EB53E4C701B60123D335
:1056C0006B017C01EDCFF801E85BFF4FC082D18216
:1056D000E282F382349780809180A280B380D801E7
:1056E000D8962D913D914D915C91DB976D817E8196
:1056F0008F819885AED5A3019201ABD5F801E45B0B
:10570000FF4FFE83ED832081318142815381FBD2A3
:10571000A5019401F7D26B017C0120E030E044EB5D
:1057200052E48CD518163CF420E030E044E353E416
:10573000C701B601EFCF20E030E044EB52ECC701E7
:10574000B601BAD387FF0AC020E030E044E353E457
:10575000C701B601D8D26B017C01EDCFA70196013C
:10576000C501B401D0D229813A814B815C8171D5C8
:105770006B017C01A501940169857A858B859C85E7
:1057800068D59B01AC01C701B601BDD26B017C019C
:1057900020E030E044EB52E451D5181644F420E008
:1057A00030E044E353E4C701B601ACD2EFCF20E0D0
:1057B00030E044EB52ECC701B6017ED387FF0AC04C
:1057C00020E030E044E353E4C701B6019CD26B0112
:1057D0007C01EDCFAD81BE81CD92DD92ED92FC9248
:1057E0001397F801E05BFF4FFA83E983D801DC9659
:1057F0002D913D914D915C91DF97C301B20129D567
:10580000E981FA8120813181428153817CD2A98151
:10581000BA816D937D938D939C9313972C960FB6BD
:10582000F894DEBF0FBECDBFDF91CF911F910F91D6
:10583000FF90EF90DF90CF90BF90AF909F908F90B0
:105840007F906F905F904F900895CF92DF92EF928C
:10585000FF921F93CF93DF93EC016B017A0141E03C
:105860006BE602DB182F40E069E1CE01FDDA40E093
:105870006AE1CE01F9DAB601CE011CDBB701CE0137
:1058800054DBCE01E2DDFE01E85BFF4FDE01A05CF0
:10589000BF4F8D919D910D90BC91A02D80839183E0
:1058A000A283B3833496DE01AC5BBF4F8D919D9193
:1058B0000D90BC91A02D80839183A283B383C2D528
:1058C000CC5ADF4F688379838A839B83812FDF9152
:1058D000CF911F91FF90EF90DF90CF90089585E5D5
:1058E00096E00E94B72250E040E061E070E085E879
:1058F00095E0ABDF8111FECF68EE73E080E090E0D1
:10590000D2D541E061E085E895E077CCEF92FF9257
:105910000F931F93CF93DF937C018B01EA0185E8FE
:1059200095E093DD8091CD059091CE05A091CF05B6
:10593000B091D005F70180839183A283B3838091D6
:10594000D1059091D205A091D305B091D405F8016D
:1059500080839183A283B3838091D5059091D605EE
:10596000A091D705B091D80588839983AA83BB837A
:10597000DF91CF911F910F91FF90EF9008950895BF
:10598000E5E5F6E01382128288EE93E0A0E0B0E055
:1059900084839583A683B7838EEB92E09183808383
:1059A000BF0185E895E035CA40E855E260E070E067
:1059B00090E080E000C08130910571F01CF4892BEB
:1059C00039F008958230910559F0039769F00895F0
:1059D00026E088EB96E098C726E085E597E0FBCFC8
:1059E00026E082EF97E0F7CF26E08FE898E0F3CF4C
:1059F0001F920F920FB60F9211240BB60F922F9396
:105A00003F934F935F936F937F938F939F93AF9346
:105A1000BF93EF93FF9386E997EE909325018093D0
:105A20002401B9D0FF91EF91BF91AF919F918F91D8
:105A30007F916F915F914F913F912F910F900BBE8E
:105A40000F900FBE0F901F90189586E997EE9093D8
:105A5000250180932401A3E7B0E08C918E7F8C9385
:105A6000E0E2F1E080818C7F8083E1E2F1E08081FF
:105A7000877E808380818460808380818C7F808327
:105A80008C9181608C930895E3E7F0E080819081B0
:105A90009E7F90838170089581E008951092AB06F7
:105AA000089568EE73E080E090E0FDD490E080E03F
:105AB000089526E040E052EC61E070E088EB96E06B
:105AC00023D788EB96E056D6892B21F088EB96E019
:105AD0006BD6F7CF90E080E00895CF92DF92EF92FF
