:10000000F8C0000027C1000025C1000023C1000086
:1000100021C100001FC100001DC100001BC1000064
:1000200019C1000017C1000015C1000013C1000074
:1000300011C100000FC100000DC100000BC1000084
:1000400009C1000007C1000005C1000003C1000094
:100050000C94F523FFC00000FDC000000C9426287E
:10006000F9C000000C94FA2B0C94302CF3C0000063
:10007000F1C00000EFC00000EDC00000EBC00000C8
:10008000E9C00000E7C00000E5C00000E3C00000D8
:100090000C94862C0C94BC2CDDC00000DBC000004E
:1000A000D9C00000D7C00000D5C00000D3C00000F8
:1000B000D1C00000CFC000000C94F824CBC00000D9
:1000C000C9C00000C7C000000C94C8240C94122DB5
:1000D0000C94482DBFC000000C949E2D0C94D42D80
:1000E000B9C0000000000A0B02090C0D0E0807033E
:1000F00004010000000000000000000000000000FB
:1001000000000000000000000000000000000000EF
:1001100012111000000000000000000000000000AC
:100120000000000000000000000001021020200874
:100130000810204010204080020102010804020142
:1001400001020408102040808040201008040201B1
:10015000800402018040201008040201080402010A
:100160000102040810204080010204081020408091
:1001700005050505070508080808020202020A0A23
:100180000808040404040101010101010101030341
:10019000030303030303040707070C0C0C0C0C0CEC
:1001A0000C0C0202020206060606060606060B0BE9
:1001B0000B0B0B0B0B0B00002200250028002B0063
:1001C0002E003100340002010000050108010B017E
:1001D00000002100240027002A002D0030003300F9
:1001E00001010000040107010A01592CE52C712DC1
:1001F000FD2D11241FBECFEFD1E2DEBFCDBF00E049
:100200000CBF12E0A0E0B2E0E8E7FDE500E00BBFC4
:1002100002C007900D92A03CB107D9F727E0A0ECEF
:10022000B2E001C01D92A03FB207E1F710E0C9EFB4
:10023000D0E000E006C021970109802FFE010E9456
:10024000892EC53FD10780E00807A9F70E945026F4
:100250000C94BA2ED5CECF92DF92EF92FF92CF932D
:10026000882351F16A017B01CFEFC80F20E030E015
:10027000A901CB01B6010E94D82687FF11C0C70192
:10028000B60190580E94E1269B01AC016C2F70E0F2
:1002900090E080E0CF91FF90EF90DF90CF90B2C0E0
:1002A000C701B6010E94DC268C2FCF91FF90EF9002
:1002B000DF90CF900C942D29CF91FF90EF90DF909D
:1002C000CF9008950F931F938B019C0183E0369587
:1002D0002795179507958A95D1F700541D4F462FFE
:1002E000477021E030E0F90102C0EE0FFF1F4A9590
:1002F000E2F7AF01F80120812423CB0101962111FF
:1003000002C090E080E01F910F9108950F931F931A
:100310008B019C0183E036952795179507958A9563
:10032000D1F7677081E090E001C0880F6A95EAF725
:10033000F801E054FD4F2081452B31F48095822354
:1003400080831F910F910895822BFACF2F923F92B5
:100350004F925F926F927F928F929F92AF92BF92D5
:10036000CF92DF92EF92FF920F931F93CF93DF9381
:10037000D62EC72E782E692E49015A01280161E038
:100380008D2D0E94672ACD2DDC2D8E010F5F1F4F12
:10039000A8016D2D7C2D872D962DB8DF20E030E053
:1003A000A901C201B7010E949727181664F4C2017F
:1003B000B7010E94E1262B01C501B4010E94E1268C
:1003C000A201CE0123D0C801DF91CF911F910F91DF
:1003D000FF90EF90DF90CF90BF90AF909F908F9065
:1003E0007F906F905F904F903F902F90089588235B
:1003F00041F08150682F70E090E080E050E040E0F4
:1004000085CF0895862FB9010C942D299C01FC01FC
:10041000EC51FF4FE491E150E231E0F4F0E0882745
:10042000EB5EFD4F8F4F0C94892E27022E02310276
:1004300048025D022A0272027E0282029902AE0224
:10044000C302DA02EF022A0204031B03300384B55D
:10045000806884BD60E0822F0C94A32A84B58062FA
:10046000F8CF809180008C7F8260809380008091A3
:100470008100807E8061682B6093810050938700AB
:100480004093860080918000806880938000E2CF56
:10049000809180008C7F82608093800080918100B9
:1004A000807E8061682B6093810050938700409329
:1004B0008600809180008062E8CF809180008C7FF0
:1004C00082608093800080918100807E8061682BB3
:1004D0006093810050938700409386008091800054
:1004E0008860D3CF8091B00080688093B000809105
:1004F000B100887F682B6093B100ACCF8091B000D1
:100500008062F3CF809190008C7F82608093900016
:1005100080919100807E8061682B60939100509360
:10052000970040939600809190008068809390009F
:1005300091CF809190008C7F826080939000809119
:100540009100807E8061682B6093910050939700AA
:1005500040939600809190008062E8CF8091900057
:100560008C7F82608093900080919100807E80617A
:10057000682B609391005093970040939600809170
:1005800090008860D3CF8091A0008C7F82608093A0
:10059000A0008091A100807E8061682B6093A10003
:1005A0005093A7004093A6008091A000806880939C
:1005B000A00050CF8091A0008C7F82608093A0002B
:1005C0008091A100807E8061682B6093A100509390
:1005D000A7004093A6008091A0008062E8CF8091A0
:1005E000A0008C7F82608093A0008091A100807E1B
:1005F0008061682B6093A1005093A7004093A600F0
:100600008091A0008860D3CF809120018C7F826090
:100610008093200180912101807E8061682B60930E
:100620002101509327014093260180912001806889
:10063000809320010FCF809120018C7F8260809376
:10064000200180912101807E8061682B60932101CF
:100650005093270140932601809120018062E8CFCA
:10066000809120018C7F8260809320018091210104
:10067000807E8061682B6093210150932701409315
:100680002601809120018860D3CF90E080E008951A
:100690000F931F93009709F483C06115710509F446
:1006A0007FC0009104021091050220910602309152
:1006B00007020E3F1F4F2F4F3F4F09F062C04FEF11
:1006C0005FEFBA0140930402509305026093060263
:1006D0007093070240910402509105026091060256
:1006E00070910702DC011296ED91FC91808191815D
:1006F000A281B3818093310390933203A09333039B
:10070000B093340384819581A681B78180932D03B2
:1007100090932E03A0932F03B0933003808591858F
:10072000A285B3858093290390932A03A0932B037A
:10073000B0932C0384859585A685B7858093250382
:1007400090932603A0932703B093280310922103CC
:1007500010922203109223031092240372D486E491
:1007600098E09093CA028093C9025AD3009731F45B
:1007700021E030E030933603209335031F910F9131
:100780000895009104021091050220910602309113
:100790000702DB010D931D932D933C9313979ACF82
:1007A0008FEF9FEFEBCF8F929F92AF92BF92CF923E
:1007B000DF92EF92FF921F93CF93DF934B015C0187
:1007C0001091380382E090E09093360380933503D4
:1007D00081149104A104B10441F480913803811182
:1007E00004C080913703C1E08111C0E0C12CD12C3D
:1007F000760180913803811106C080913703811101
:1008000002C0CC23D1F083E090E090933603809334
:100810003503CC2371F1CCE9DFEF111101C09AD778
:10082000CE01DF91CF911F91FF90EF90DF90CF909D
:10083000BF90AF909F908F9008956AE070E080E045
:1008400090E00E94952880E1C80E87E2D81EE11C46
:10085000F11C8FEF88169806A806B80631F0C1E0A3
:100860008C149D04AE04BF0408F0C0E080E00CD3FB
:10087000C0CFD0E0C0E0D1CFCF92DF92EF92FF9215
:100880001F93CF93DF938F3F910511F008F04BC07A
:1008900020913503309136032330310539F0209112
:1008A0003503309136032130310531F424E030E056
:1008B00030933603209335036A017B01EC01892BC9
:1008C00099F011E0AE01C701B601A9D2AB01BC019C
:1008D000CE011123E1F0DF91CF911F91FF90EF90B6
:1008E000DF90CF900C94D30D8091C9029091CA02F1
:1008F000892B39F30E94DD0D029719F7E091C902A7
:10090000F091CA0290E080E01995182FDBCF0E9489
:10091000F50D90E080E0DF91CF911F91FF90EF9077
:10092000DF90CF9008958FEF9FEFF5CF80E0ACC2BE
:10093000CF93DF9386E090E0909336038093350366
:10094000FCD2EC011092CA021092C9029BD61092FE
:10095000360310923503CE01DF91CF910895809137
:1009600037030895809120030895609304027093E3
:100970000502809306029093070290E080E00895BC
:10098000CF92DF92EF92FF92CF93DF9362E070E01D
:1009900080E090E097DCEC019093ED078093EC070A
:1009A000C0900002D0900102E0900202F090030299
:1009B00020E030E04FE753E4C701B6010E94D8269B
:1009C00018160CF448C020E030E0A901C701B601B8
:1009D0000E94972787FF03C0C12CD12C7601B70155
:1009E000A601CE0138DC4FED57E06BED77E080E3F8
:1009F0000E94B3256091F7027091F8028091F9028C
:100A00009091FA026F5F7F4F8F4F9F4F6093F70275
:100A10007093F8028093F9029093FA020E940D27D6
:100A20009B01AC016091FB027091FC028091FD0280
:100A30009091FE020E949B276093F3027093F40250
:100A40008093F5029093F602DF91CF91FF90EF90A3
:100A5000DF90CF900895C12CD12C8FE7E82E83E44E
:100A6000F82EBDCF8F929F92AF92BF92EF92FF92DE
:100A70000F931F93CF93DF93EDEDF2E080E090E0D2
:100A8000A0E8BFEB82A393A3A4A3B5A38DEC9CEC39
:100A9000ACE4BEE3868F978FA0A3B1A38AE293E76D
:100AA000A0E7B9E784839583A683B78389EC96E0B2
:100AB000A4E0B3E280879187A287B3878DEC9CEF97
:100AC000A6EDB6EE84879587A687B7878FE991EE66
:100AD000AAE2BDEA808B918BA28BB38BA1EDB2E031
:100AE000B383A283EBECF2E01196FC93EE9381E2E8
:100AF00092E091838083938382839583848381EFC3
:100B000092E015969C938E93149781EE92E0139643
:100B10009C938E93129783EF92E017969C938E93FB
:100B20001697C0EED7E01E821B86812C912C5401B3
:100B300083948F829886A986BA86E12CF12C87014E
:100B4000A801970162E070E080E090E0FFDB9D8704
:100B50008C8711E01B87188289829A82AB82BC82C3
:100B600080E30E9495251D83DF91CF911F910F9106
:100B7000FF90EF90BF90AF909F908F9008958091DD
:100B8000E60781112AC081E08093E6078091E7079C
:100B90009091E807A091E907B091EA070197A105B4
:100BA000B105D9F48091EB078823B9F062E070E0D9
:100BB00080E090E087DB9093ED078093EC0740E0C6
:100BC00050E0BA0148DB62E070E080E090E07ADB60
:100BD0009093ED078093EC070ADC8091E007811188
:100BE00016C081E08093E0078091E1079091E207D1
:100BF000A091E307B091E4070197A105B10539F48D
:100C00008091E507882319F080E30C941A26089553
:100C10004F925F926F927F928F929F92AF92BF920C
:100C2000CF92DF92EF92FF920F931F93F894409030
:100C30001003509011036090120370901303C09042
:100C40000403D0900503E0900603F0900703452BC2
:100C500009F0A6C09B01AC012419350946095709C2
:100C600029013A0100910C0310910D0320910E030C
:100C700030910F0348015901840C951CA61CB71C28
:100C800080169106A206B306A0F400910803109105
:100C9000090320910A0330910B030F5F1F4F2F4F61
:100CA0003F4F009308031093090320930A033093E6
:100CB0000B0380920C0390920D03A0920E03B0924E
:100CC0000F03009108031091090320910A0330914A
:100CD0000B038092140390921503A0921603B09216
:100CE0001703009318031093190320931A033093EA
:100CF0001B0360931003709311038093120390936E
:100D00001303A301920160E47DE083E090E00E9480
:100D1000582E6C0D7D1D8E1D9F1D609304037093D6
:100D2000050380930603909307030091040210913A
:100D3000050220910602309107020F3F1F4F2F4FEF
:100D40003F4FF1F00091040210910502209106023C
:100D5000309107020E3F1F4F2F4F3F4F89F0C09039
:100D60000402D0900502E0900602F090070221E014
:100D70008C149D04AE04BF0408F420E020932003EB
:100D800078941F910F91FF90EF90DF90CF90BF90DC
:100D9000AF909F908F907F906F905F904F9008954D
:100DA0004B015C0184189508A608B708A3019201BD
:100DB000261B370B480B590B6415750586059705DF
:100DC000E0F082169306A406B50640F420E030E079
:100DD000A90181149104A104B104A1F460E47DE0AF
:100DE00083E090E00E94582EA7019601261B370B46
:100DF000480B590BCA01B901C3CF82169306A4064A
:100E0000B50660F7A501940160E47DE083E090E021
:100E10000E94582E6C0D7D1D8E1D9F1DB1CFF8CEEA
:100E2000CF93DF9300D01F92CDB7DEB71C821B8219
:100E30001A82198210921C0310921D0310921E0335
:100E400010921F03BE016F5F7F4FCE0103960E9479
:100E5000C42369817A818B819C810E94EC1C00975C
:100E600061F4BE016F5F7F4FCE0103960E94D023D5
:100E700069817A818B819C812ED50F900F900F9084
:100E80000F90DF91CF910895FF920F931F93CF930F
:100E9000DF93082F60E070E0CB010E949528FF24CB
:100EA000F3940E94D51BEC01892B89F010E0CE3F12
:100EB0008FEFD80769F0002361F160E070E0CB01AB
:100EC0000E94952881E090E0892B59F322C011E01F
:100ED00025D5EC01892B21F0CE3F8FEFD80759F7AC
:100EE00011111EC011E0229609F410E00E94851B2A
:100EF000EC01892B21F0CE3F8FEFD807E1F61111DD
:100F000011C011E0CE3F8FEFD80709F410E00111B6
:100F10000BC0CE01DF91CF911F910F91FF900895EB
:100F200011E0E4CF11E0F3CF60E070E0CB010E946C
:100F300095281F25812F90E0C7CFCF93DF93809115
:100F40002003882321F060E070E0CB014CD635D639
:100F5000D0E0C0E0892B71F06AE070E080E090E0C2
:100F60000E94952881E090DF28D62196C03D27E099
:100F7000D20781F727D60E94401D109238031092A5
:100F80003703109231031092320310923303109200
:100F9000340310922D0310922E0310922F031092FF
:100FA00030031092290310922A0310922B031092FF
:100FB0002C031092250310922603109227031092FF
:100FC00028031092210310922203109223031092FF
:100FD00024034EEF5FEF6FEF7FEF409304025093D7
:100FE0000502609306027093070210922003E4E169
:100FF000F3E028E0DF011D922A95E9F71092100333
:1010000010921103109212031092130310920C030A
:1010100010920D0310920E0310920F03109208030A
:101020001092090310920A0310920B03109204030A
:10103000109205031092060310920703DF91CF91DF
:1010400008951092440310924503109246031092A3
:1010500047031092430380914C0390914D0390936A
:101060004203809341031092400310923F03109279
:101070003B0310923C0310923D0310923E031092EA
:1010800049031092480390E080E00895CF92DF92E8
:10109000EF92FF920F931F93CF938C01892B09F04E
:1010A00055C020914C0330914D03809141039091A4
:1010B000420340914C0350914D035093420340939F
:1010C00041032817390781F01092400310923F0323
:1010D00010923B0310923C0310923D0310923E038A
:1010E000109249031092480380914C0390914D0354
:1010F000019761F58091480390914903892B21F470
:1011000080910802811112C0809148039091490397
:101110000197E1F480913B0390913C03A0913D0342
:10112000B0913E030197A105B10581F410923B03F4
:1011300010923C0310923D0310923E03109208025D
:1011400082E090E0909349038093480380914C03A0
:1011500090914D03019709F01CC180916203909119
:1011600063038017910709F014C180915E03909189
:101170005F03A0916003B0916103009709F409C176
:1011800020915D0321110DC040915E0350915F03DA
:101190006091600370916103452B462B472B09F446
:1011A000F8C020914803309149032230310509F0FD
:1011B000F0C020913F032111ECC0FC01C080D18020
:1011C000E280F38080914303882309F4D3C08091A7
:1011D0004F0390915003892B09F4FDC020914F03D8
:1011E0003091500381E02230310509F080E02091F8
:1011F0004F0330915003C1E02130310549F0209177
:101200004F0330915003C1E02230310509F0C0E0B6
:10121000882309F456C02091590330915A03409114
:101220005B0350915C03C701B6010E94972787FDBD
:1012300014C02091590330915A0340915B0350919F
:101240005C03609144037091450380914603909143
:1012500047030E94D82687FD22C020915903309170
:101260005A0340915B0350915C03C701B6010E9491
:101270009727181634F52091590330915A0340915D
:101280005B0350915C03609144037091450380912E
:101290004603909147030E94D826811112C0809185
:1012A000510390915203A0915303B0915403892BA1
:1012B0008A2B8B2B19F481E08093400381E080938B
:1012C0003F03CC2309F456C02091590330915A03AF
:1012D00040915B0350915C03C701B6010E94D82680
:1012E00087FF14C02091590330915A0340915B034A
:1012F00050915C03609144037091450380914603D3
:10130000909147030E94972787FF22C0209159039D
:1013100030915A0340915B0350915C03C701B601C1
:101320000E94D826811126C02091590330915A037A
:1013300040915B0350915C036091440370914503BD
:1013400080914603909147030E949727181694F4C2
:101350008091510390915203A0915303B091540393
:10136000892B8A2B8B2B19F481E08093400381E039
:1013700080933F0381E090913F03911180E080933F
:101380004303C0924403D0924503E0924603F09297
:101390004703012B09F067C18091480390914903ED
:1013A000892BD9F410924E0310923F0380910802CA
:1013B000882379F082E090E090934903809348037A
:1013C0001092080220914C0330914D0381E0232BB1
:1013D000E9F080E01BC081E00ACF10920802809102
:1013E0004E03882349F01092400310924903109253
:1013F000480310924E03EDCF80914C0390914D0322
:10140000892BE1F080913F0310923F032091480324
:10141000309149032230310509F45EC088F421156A
:10142000310509F448C02130310509F4F3C01092A8
:10143000400310923F0310924E0338C081E0E6CF84
:101440002330310509F4B1C02430310581F74091D2
:101450003B0350913C0360913D0370913E03411565
:1014600051056105710561F041505109610971092A
:1014700040933B0350933C0360933D0370933E03C2
:1014800040913B0350913C0360913D0370913E03BA
:10149000452B462B472BD9F420914A0330914B031F
:1014A0002130310509F046C01092400310924903E3
:1014B000109248030CC080910802882341F082E01A
:1014C00090E0909349038093480310920802109291
:1014D000390380914003CEC08823C9F38091510322
:1014E00090915203A0915303B0915403181619061A
:1014F0001A061B060CF07DC080914C0390914D03A1
:10150000019709F076C08091510390915203A09108
:101510005303B091540380933B0390933C03A093F7
:101520003D03B0933E0383E090E0909349038093A2
:101530004803CDCF40915503509156036091570316
:1015400070915803452B462B472BA9F0109240036E
:101550008091550390915603A0915703B091580381
:1015600080933B0390933C03A0933D03B0933E03D1
:1015700081E090E0DACF882399F080910902909180
:101580000A02A0910B02B0910C0280933B0390934E
:101590003C03A0933D03B0933E0384E090E0C5CFAD
:1015A0001092400382E090E0C0CF80913B03909185
:1015B0003C03A0913D03B0913E030097A105B10506
:1015C00059F00197A109B10980933B0390933C0323
:1015D000A0933D03B0933E0380913B0390913C0365
:1015E000A0913D03B0913E03892B8A2B8B2B09F0F0
:1015F0006ECF8091090290910A02A0910B02B091E6
:101600000C02892B8A2B8B2B09F44ECF81E080931F
:101610004003B3CF40913B0350913C0360913D03A5
:1016200070913E03411551056105710561F041500E
:1016300051096109710940933B0350933C03609346
:101640003D0370933E0340913B0350913C036091F6
:101650003D0370913E03452B462B472B09F037CFB6
:101660008111C7CF9FCF80913903882309F431CFEF
:1016700080913A03CF911F910F91FF90EF90DF90EF
:10168000CF900895109244031092450310924603A0
:10169000109247031092430310924903109248039B
:1016A000109242031092410310926303109262035E
:1016B0001092400310923F0310923B0310923C03A0
:1016C00010923D0310923E0310923A031092390398
:1016D00010925E0310925F031092600310926103F8
:1016E00010925D031092590310925A0310925B03FB
:1016F00010925C0388EE93E0A0E0B0E080930902D2
:1017000090930A02A0930B02B0930C02109255031F
:1017100010925603109257031092580310925103DF
:1017200010925203109253031092540310925003DC
:1017300010924F0381E08093080210924E031092A2
:101740004D0310924C0310924B0310924A0390E009
:1017500080E0089580914C0390914D03892B19F5F9
:1017600080910802882351F080914E03811106C0B8
:1017700081E080933A0380933903089520914E03CA
:101780003091080281E090E0332311F090E080E096
:1017900030E082239323892B21F010923A0381E0D9
:1017A000EACF10923903089582E090E0FA01918324
:1017B00080838FEF9FEF0895CF93DF93EA01009727
:1017C00011F00E946E1E1982188290E080E0DF9175
:1017D000CF910895DB01009719F48FEF8C93089552
:1017E0002EEF2C93FC013F96EF30F10508F034C04A
:1017F0008827E250F44F8F4F0C94892E2A0C280C26
:10180000260C240C220C1E0C200C1C0C1A0C180C80
:10181000150C110C0D0C130C2C0C80E311968C93F1
:10182000089589E2FBCF82E2F9CF11961C920895C8
:1018300083E2F4CF81E2F2CF81E1F0CF87E2EECF15
:101840008AE2ECCF80E1EACF84E2E8CF88E2E6CF1B
:1018500086E2E4CF81E3E2CF80E2E0CF80917003C3
:10186000909171030895909371038093700308958C
:1018700080916F03089590916F03892B80936F037C
:101880000895982F909580916F03892380936F031B
:10189000089580916E03089580916C0390916D037B
:1018A00008956115710559F0FB0130E020E070E00A
:1018B00060E02417350719F06115710511F0CB01AF
:1018C0000895A081B181A817B90709F4BF012F5F5E
:1018D0003F4F3696EECF8091720381111CC060D2CB
:1018E00066D290936503809364030E946E160E94F3
:1018F000801690936903809368030E94ED1A0E94FA
:10190000F41A909367038093660381E080937203D7
:1019100090E080E0089584EF9FEF08958F929F926A
:10192000AF92BF92CF92DF92EF92FF920F931F93ED
:10193000CF93DF9300D000D000D01F92CDB7DEB799
:101940001A86198618861F821E821D821C821B829F
:101950001A8219828091720307EF1FEF882309F41E
:101960009CC08E010D5F1F4F9E012B5F3F4FAE014C
:10197000495F5F4FBE01675F7F4F90E080E00E944C
:10198000711C8C01009721F00596029708F0DBC0CE
:1019900029853A852115310509F402C1ED80FE80C3
:1019A0004B815C81B701640F751F8F819885861705
:1019B000970708F4F5C0E20EF31ED7019C91903C06
:1019C00009F07FC04230510508F47BC011968C911C
:1019D0004091700350917103452B09F49CC0913FD5
:1019E00008F071C02CE1290F2D3008F48BC02DE2D6
:1019F000290F203108F489C0903C21F481508230B5
:101A000008F483C088E3890F8B3008F481C09AEE14
:101A1000C92E9BE0D92EE4EDFBE06D817E81AE0105
:101A20004F5F5F4F89859A8519955C01C114D10478
:101A3000A1F189809A808114910479F18B819C8134
:101A40008815990508F487C010E000E04B815C819F
:101A500070E060E0C7010E94B32E01151105E9F4A2
:101A600049815A8169857A858D819E81680F791FA8
:101A7000C501F6011995E980FA800D811E812F813B
:101A8000388549855A856FEF7FEF81E090E00E94AD
:101A90000C1C8C01892B09F056C0C8012A960FB680
:101AA000F894DEBF0FBECDBFDF91CF911F910F9194
:101AB000FF90EF90DF90CF90BF90AF909F908F906E
:101AC000089580E085CF30E020E0220F331FF90138
:101AD000EC59FC4F0190F081E02D309709F497CF3D
:101AE000892F90E01995009709F491CFDC011296A7
:101AF000ED91FC9113971496CD90DC90309709F0FE
:101B00008CCF1FC021E030E0E0CF22E030E0DDCF1D
:101B100023E030E0DACFD12CC12CECEDFBE09F3F8D
:101B200009F07BCFE0916403F0916503309721F4D5
:101B3000C90104EF1FEF0CC08FEF90E019950097DB
:101B4000A9F604EF1FEF89859A85009709F4A5CFC0
:101B50000E946E1EA2CF0E943B1D8C0189859A8532
:101B60000E946E1E70E060E0C4010E94D41C988741
:101B70008F830E94091C9E838D836F8178856115F8
:101B8000710559F0C8010E94FA1F9A87898706EFEC
:101B90001FEF892B09F058CF59CF08EF1FEF56CF11
:101BA00008EF1FEFD0CF20917203222319F020E01D
:101BB0000C94851687EF9FEF0895809170039091A4
:101BC000710308950E94F91A0E94531AF5D0E4E6B1
:101BD000F3E088E0DF011D928A95E9F71092720325
:101BE00090E080E008950C94B31821E040E050E0CC
:101BF000BA010C94851686E090E0FA019183808307
:101C000090E080E0089547E050E064E272E049CE61
:101C1000DF92EF92FF920F931F93CF93DF938A018E
:101C2000EC01C60FD71FE0907603F0907703D980C0
:101C30000E94231DD816190678F082E090E0F80182
:101C4000918380838EEF9FEFDF91CF911F910F9152
:101C5000FF90EF90DF900895EF2841F482E090E04C
:101C6000F8019183808384EF9FEFEECF8981809389
:101C7000750390E00196F8019183808390E080E005
:101C8000E3CFCF93DF93EA010E946419882321F008
:101C90000E94301D0E94651982E090E0998388833C
:101CA0008BEF9FEFDF91CF910895CF93DF93EB01FF
:101CB00086E0FB0111928A95E9F78FEF8883D8DDE2
:101CC0008983E7DD8A83E8DD9D838C83DF91CF9173
:101CD0000895CF93DF93EA010E946719811109C02B
:101CE00082E090E09983888385EF9FEFDF91CF9129
:101CF000089590E080E0B7DD81E090E099838883EB
:101D000090E080E0F3CF0F931F93CF93DF93EA012E
:101D10008C01060F171F0E94671981110BC082E00A
:101D200090E09983888385EF9FEFDF91CF911F919A
:101D30000F910895F8018181823038F082E090E0BF
:101D4000998388838EEF9FEFF0CF81E090E08BDD69
:101D500088E090E09983888390E080E0E6CFCF939D
:101D6000DF930097D1F4EB01FB01329686E0DF01AF
:101D70001D928A95E9F78FEF888385E089831A821F
:101D80000E94231D8B830E94221D9D838C8381E0F2
:101D90008E838F83DF91CF910895DF91CF911ACDFC
:101DA00083E09EE090937403809373030895809181
:101DB0007303909174030895109274031092730347
:101DC000089580917603909177030895411105C09D
:101DD000611571058105910561F06093760370933B
:101DE0007703809378039093790340937A0381E09B
:101DF000089580E00895FF920F931F93CF93DF9390
:101E00008A01EC01C60FD71FF9800E94231DF81626
:101E1000190668F082E090E0F801918380838EEFEC
:101E20009FEFDF91CF911F910F91FF9008956C81EB
:101E30007D818E819F814B81C9DF811108C082E045
:101E400090E0F8019183808384EF9FEFEACF89814E
:101E50008093750390E00196F8019183808390E070
:101E600080E0DFCFCF93DF93EA01FC01E60FF71F9D
:101E700064817581868197814381A8DF811109C0C2
:101E800082E090E09983888384EF9FEFDF91CF9188
:101E9000089581E090E09983888390E080E0F6CF18
:101EA000E6E7F3E04081518162817381480F511D63
:101EB000611D711D40835183628373830895CF93A5
:101EC000C09175034C2F50E06091760370917703B9
:101ED00001960E94AA2E8C2FE3DF10927503CF91FA
:101EE0000895009799F480917603909177032FEFEE
:101EF000FB012083892B59F02091750330E02F5F7F
:101F00003F4F2417350719F4CB01D9CF63CC08957F
:101F1000009799F480917603909177032FEFFB015E
:101F20002083892B59F02091750330E02F5F3F4FBC
:101F30002417350719F4CB01C2CF4CCC089523E107
:101F4000AC01249FC001259F900D1124E0917F03D7
:101F5000F0918003E80FF91F238134812250310969
:101F600081E02230310508F080E008950F931F933F
:101F7000CF93DF930091810310918203D0E0C0E002
:101F800080E00C171D0749F491E0811190E0892F42
:101F9000DF91CF911F910F9108958111F5CFCE015F
:101FA000CEDF2196EECFA0917F03B09180031097F2
:101FB00029F1209181033091820382179307F0F475
:101FC00053E1589F9001599F300D1124A20FB31F68
:101FD000ED91FC911197309789F012968C916817CA
:101FE00068F48BE0689FE00DF11D112480819181E0
:101FF000892B21F081E09281491708F080E0089553
:102000009C0143E1429FC001439F900D1124E09148
:102010007F03F0918003E80FF91F8385823091F4EC
:1020200081E090E06581768140910D0250910E0231
:102030006417750711F490E080E0892B19F081E0B6
:10204000232B09F080E00895EF92FF920F931F93E6
:10205000CF93DF93EA01FC01E60FF71F02811381A2
:10206000E480F5804F2D6E2DC8019DDF81110DC0DC
:1020700082E090E0998388838EEF9FEFDF91CF918C
:102080001F910F91FF90EF900895C80158DF8823AA
:1020900039F082E090E09983888388EF9FEFEECF5C
:1020A0001093140200931302E0921502F0921602AC
:1020B00081E090E09983888390E080E0DFCFCF9249
:1020C000DF92EF92FF920F931F93CF93DF937A01EA
:1020D000EC01C60FD71FC0901302D09014020091DC
:1020E000150210911602412F602FC6015CDF81118D
:1020F00010C082E090E0F701918380838AEF9FEF28
:10210000DF91CF911F910F91FF90EF90DF90CF90D3
:102110000895C60114DF882341F082E090E0F701C2
:102120009183808388EF9FEFEBCF4C815D816E813F
:102130007F819A8189818F3F41F082E090E0F701B1
:10214000918380838EEF9FEFDBCFE3E1EC9D9001E5
:10215000ED9D300D1124E0917F03F0918003E20F9B
:10216000F31F0190F081E02D2BE0029FE00DF11DA7
:1021700011240190F081E02D27E0129FE00DF11D68
:102180001124808391838B8182834383548365836D
:1021900076831F5F1093160281E090E0F701918330
:1021A000808390E080E0ACCFEF92FF920F931F937B
:1021B000CF93DF937A018C01060F171FC0917F0325
:1021C000D0918003209781F021E030E0F8018281F6
:1021D000938140918103509182038417950710F0F9
:1021E00030E020E0232B71F482E090E0F70191834E
:1021F00080838EEF9FEFDF91CF911F910F91FF9022
:10220000EF90089543E1489F9001499F300D1124BC
:10221000C20FD31F94DE882341F082E090E0F701E3
:102220009183808388EF9FEFE6CFF8012481358189
:1022300020383105C8F687818111D6CF4181842F9E
:1022400090E08F7E009741F082E090E0F70191836B
:10225000808386EF9FEFCFCF4F833E832D832681F0
:1022600028871986223010F421E0288721E030E009
:10227000F70131832083BFCF88E090E0FA0191839A
:10228000808390E080E00895FB018FEF808381E1FF
:1022900081838FEF9FEF9383828380E890E0958323
:1022A0008483168217820895FB018FEF808391E06B
:1022B000918382839383848384E3858381E090E0A8
:1022C000978386830895DF92EF92FF920F931F9377
:1022D000CF93DF93EA01FC01E60FF71F8181813084
:1022E00071F082E090E0998388838FEF9FEFDF9118
:1022F000CF911F910F91FF90EF90DF900895828111
:102300009381D4802581E680F78000917F0310912E
:1023100080030115110539F482E090E099838883E8
:102320008CEF9FEFE4CF409181035091820384179B
:10233000950738F082E090E0998388838EEF9FEFD5
:10234000D6CF892B39F082E090E09983888386EF9D
:102350009FEFCDCF8D2D8D7FB1F72130A1F781E09B
:10236000D11006C091E0E916F10431F080E004C01C
:10237000E2E0EE16F104D0F3882329F390E080E048
:10238000DEDD882339F082E090E09983888388EF4E
:102390009FEFADCFF801D38681E08487F686E5868E
:1023A000108A178681E090E09983888390E080E02E
:1023B0009ECF4CE050E06EE472E073CA8F929F9221
:1023C000BF92CF92DF92EF92FF920F931F93CF9322
:1023D000DF93EA01FC01E60FF71F828193810481FC
:1023E000B580E0917F03F0918003309791F482E013
:1023F00090E0998388838CEF9FEFDF91CF911F91BD
:102400000F91FF90EF90DF90CF90BF909F908F90B3
:10241000089520918103309182038217930738F049
:1024200082E090E0998388838EEF9FEFE6CF23E1EF
:10243000289F6001299FD00C1124EC0DFD1DE08028
:10244000F180E114F10499F28281081748F78BE0DA
:10245000089F80011124E00EF11EF7018081918117
:10246000892B29F6BB20E1F2F7E0BF9E4001112441
:10247000C4010E94201EF70191838083E0917F03B5
:10248000F0918003EC0DFD1D0190F081E02DE00F37
:10249000F11F80819181009739F482E090E0998367
:1024A00088838DEF9FEFA9CFA40170E060E00E94C8
:1024B000B32E80917F0390918003C80ED91EF60140
:1024C00080819181080F191FF801B28281E090E0AC
:1024D0009983888390E080E090CFAF92BF92CF92B3
:1024E000DF92FF920F931F93CF93DF93EA01FC01DA
:1024F000E60FF71F82819381F48000917F03109192
:1025000080030115110581F482E090E099838883AE
:102510008CEF9FEFDF91CF911F910F91FF90DF9094
:10252000CF90BF90AF9008952091810330918203A6
:102530008217930738F082E090E0998388838EEFCA
:102540009FEFE8CF2FEF2F0D2C3FA8F723E1289F17
:102550006001299FD00C11240C0D1D1DF8018081F4
:102560009181892B89F6FBE0FF9E50011124C50162
:102570000E94201EF80191838083E0917F03F091F7
:102580008003EC0DFD1D80819181009739F482E07C
:1025900090E0998388838DEF9FEFBCCFA50170E019
:1025A00060E00E94B32EE0917F03F0918003EC0D78
:1025B000FD1DF28281E090E09983888390E080E0C5
:1025C000A9CFCF92DF92EF92FF920F931F93CF93F9
:1025D000DF93860F971FFC010281138180917F0397
:1025E00090918003892B81F082E090E0FA01918341
:1025F00080838CEF9FEFDF91CF911F910F91FF9020
:10260000EF90DF90CF900895C801B0E0A0E001976F
:10261000A109B1098F3F9F4FA105B10540F082E0AC
:1026200090E0FA01918380838EEF9FEFE4CF7A01EF
:1026300083E1809F6001819FD00C1124C6010E941C
:10264000201EEC01009741F482E090E0F7019183B5
:1026500080838DEF9FEFCFCFA60170E060E00E94F6
:10266000B32ED0938003C0937F0310938203009313
:10267000810390E080E02FEF3FEF41E061E070E008
:102680008017910741F481E090E0F7019183808306
:1026900090E080E0B0CF3A8B298B1B864C877E87F9
:1026A0006D87188A1F8601966396EACFCF92DF92D4
:1026B000EF92FF920F931F93CF93DF93EC01D12CF6
:1026C000C12C10E000E0F12CE12C6A8160171106AA
:1026D00009F0CCF483E0689FB0011124AE014F5E95
:1026E0005F4FC7010E949A1E009721F02FEF3FEF26
:1026F0003A8B298BDF91CF911F910F91FF90EF9033
:10270000DF90CF900895E881F981EC0DFD1D4381A4
:1027100054818D859E85489F9001499F300D589F1B
:10272000300D1124C90101960115110519F44F81CD
:1027300044FD049661E070E00E94D41CE816F9069E
:1027400008F47C010F5F1F4F8BE0C80ED11CBDCF7A
:10275000F89420917D0330917E0381E021153105AD
:1027600009F080E0232B09F0789408952F923F928E
:102770004F925F926F927F928F929F92AF92BF9291
:10278000CF92DF92EF92FF920F931F93CF93DF933D
:102790003C01660E771EF301828193814C01B12CBE
:1027A000A12CC0917F03D0918003209769F021E094
:1027B00030E060918103709182038617970710F0D3
:1027C00030E020E0232BD1F482E090E0FA01918305
:1027D00080838EEF9FEFDF91CF911F910F91FF903C
:1027E000EF90DF90CF90BF90AF909F908F907F90B1
:1027F0006F905F904F903F902F90089580921702B6
:1028000090921802A0921902B0921A0263E1689F96
:102810009001699F300D1124C20FD31FF3018181F4
:10282000833040F082E090E0FA019183808386EF6C
:102830009FEFD1CF2A012B813C81232BF1F42881FA
:1028400039819F8191FF2EC0232B09F46FC0209105
:1028500084039A81422F490F5527551FBA0141E041
:1028600050E06138710514F050E040E0452B09F468
:102870005DC02A87920F909384038150823008F4C0
:1028800081C066DF882309F4D6C0F30181818130DD
:1028900009F48DC008F47BC0823009F4C4C090E014
:1028A00080E0ADC0232B09F441C0209183039A81BD
:1028B000E22FE90FFF27FF1F41E050E0ED3FF10558
:1028C00014F050E040E0452B89F12A87920F909355
:1028D0008303D3CFA081B181A20FB31F11966C9156
:1028E000060F111D0196295F3F4F8417950794F33A
:1028F0008D859E85089F1001099F300C189F300C14
:102900001124C114D104D1F48F8184FF17C00E9417
:10291000221DF5E02F0E311C21E08215930508F4ED
:1029200020E0A701455F5F4F21110EC082E090E0DB
:10293000F2019183808387EF9FEF4DCF0E94221D8C
:102940002FEF221A320AE8CF88819981E80EF91E0A
:10295000F70114830383FFEFCF1ADF0A7A018A811C
:102960008C151D0409F00CF48CCFE881F981EE0D73
:10297000FF1D428150E030E020E010E000E090E0F8
:1029800080E0B3CFF12CE12CD12CC12CE8CF81E039
:1029900090E09C838B83EADA882309F480CF81E07E
:1029A00090E00E94330C80E40E94410C78CF89892A
:1029B0009A89019661F083E090E09C838B8382E0AA
:1029C00090E00E94330C80E40E943B0C68CF2D8184
:1029D0003E8180910D0290910E0228173907D1F4A3
:1029E0006091110270911202AE014F5E5F4F8091B3
:1029F0000F02909110020E94B91F0097E1F27894A3
:102A000022E030E0F20131832083892B89F08DEFC1
:102A10009FEFE1CE89288A288B2869F6CE0146DE11
:102A2000188A1F86EACF82E090E09C838B8337CFA1
:102A300090E080E0D0CE82E090E0F201918380834C
:102A400085EF9FEFC8CE8F929F92AF92BF92CF92A9
:102A5000DF92EF92FF920F931F93CF93DF93EA01E0
:102A60008C01060F171FF8018181833098F082E0F6
:102A700090E09983888386EF9FEFDF91CF911F913C
:102A80000F91FF90EF90DF90CF90BF90AF909F900D
:102A90008F90089580917F0390918003892B61F03E
:102AA00081E090E02091810330918203232B11F487
:102AB00090E080E0892B39F482E090E0998388836C
:102AC0008EEF9FEFDACF44DE882309F4DDC0F801F2
:102AD0008181813009F493C0E8F0823099F420912B
:102AE000810330918203E0917F03F091800390E0B5
:102AF00080E041E050E02817390709F0BBC036DA22
:102B0000811117C0789481E090E09983888390E0E8
:102B100080E0B3CF2091810330918203E0917F0365
:102B2000F091800390E080E041E050E02817390701
:102B300041F481E090E00E94330C80E40E94410C5B
:102B4000E1CF63817481672B11F054834383019635
:102B50007396ECCFE0917F03F0918003E00FF11FBB
:102B60002381348122303105D9F4218932892F3FE4
:102B70003F4FB1F44581568120910D0230910E02F4
:102B80004217530761F5AF014F5E5F4F609111022D
:102B90007091120280910F02909110020E94B91F51
:102BA000EFEFCE1ADE0AEE0AFE0A0D5E1F4F4091CD
:102BB00081035091820370E060E0C416D506E606FA
:102BC000F7062CF5009731F27894892B09F49BCF06
:102BD00082E090E0998388838DEF9FEF4ECFC11400
:102BE000D104E104F104E1F6CF0160DDE0917F035F
:102BF000F0918003E00FF11F108A1786D1CF10E00B
:102C000000E090E080E0C12CD12C7601D0CF00977D
:102C1000D9F610E000E0812C912C540183E0E82EDD
:102C2000F12C1AC0E0917F03F0918003E00FF11FB7
:102C300083819481029749F4F482E38282E090E0F8
:102C40000E94330C80E40E943B0CFFEF8F1A9F0A16
:102C5000AF0ABF0A0D5E1F4F8091810390918203DE
:102C6000B0E0A0E088169906AA06BB06DCF290E068
:102C700080E0AACF638174816230710511F45483BE
:102C800043830196739637CF82E090E099838883DF
:102C900085EF9FEFF2CE0097B9F48FEFFB018083B1
:102CA000209117023091180243E1429FC001439FD7
:102CB000900D1124E0917F03F0918003E80FF91F3C
:102CC0008285FB01818308950C94EA0B88E090E0F3
:102CD000FA019183808390E080E0089510927E0352
:102CE00010927D03EFE7F3E086E0DF011D928A9505
:102CF000E9F789ED91E190937C0380937B0308953C
:102D000080917B0390917C0308952F923F924F9284
:102D10005F926F927F928F929F92AF92BF92CF926B
:102D2000DF92EF92FF920F931F93CF93DF93CDB774
:102D3000DEB760970FB6F894DEBF0FBECDBFF89434
:102D4000E0917D03F0917E033196F0937E03E09352
:102D50007D037894A0917F03B0918003BA83A98307
:102D6000109709F4FAC1E0918103F0918203EF2BEF
:102D700009F4F3C128874B875C876D877E879A8724
:102D80008987B88BAF87312C212CF12C512C412C09
:102D900080918103909182032816390610F4FF2058
:102DA00029F1F89480917D0390917E03019790938F
:102DB0007E0380937D037894C20160960FB6F894E9
:102DC000DEBF0FBECDBFDF91CF911F910F91FF905E
:102DD000EF90DF90CF90BF90AF909F908F907F90BB
:102DE0006F905F904F903F902F900895B10190E0C9
:102DF00080E086D4682EEF85F889878181FD3DC00B
:102E0000838194810397C9F5258136813C832B8387
:102E100089859A852817390781F5C101F1D8782E5F
:102E20008823A9F1AF85B8891F968D919C91509701
:102E3000019621E01D964D915C918417950709F04C
:102E400020E02F83B12CA12CEF85F88982818A158F
:102E50001B0419F014F0FF20E9F0F885FF2309F4B2
:102E60006CC1AF85B88950961C921E921F97662040
:102E700021F0B10190E080E045D4FFEF2F1A3F0A26
:102E80002F8538892D5E3F4F388B2F8781CFB1E05A
:102E9000BF83D8CFBED49E838D83E885EE23E9F02F
:102EA000772009F43CC1AF85B8891F968D919C911C
:102EB000892B79F0BBE0BA9DC001BB9D900D112418
:102EC000AF85B889ED91FC91E80FF91F8581968156
:102ED00005D7BFEFAB1ABB0AB7CF81E0772039F037
:102EE000EF85F88927853089232B09F080E0F82EBB
:102EF000E12CA114B10439F4AF85B8891796EC9090
:102F0000E4FAEE24E0F8BBE0BA9D6001BB9DD00C72
:102F10001124882309F424C1AF85B889ED91FC916F
:102F20001197EC0DFD1D438154811D962D913C910F
:102F3000429FC001439F900D529F900D1124E110BC
:102F40005DC001969087878361E070E087819085FE
:102F50002BD5EF85F88921893289008111810C0DEB
:102F60001D1D2F3F320709F44BC0BC01C9010E944F
:102F7000FA1FD80116969C938E931597AF85B88942
:102F8000ED91FC911197EC0DFD1D05811681011548
:102F9000110509F4CDC0ED81FE810E0F1F1F1A9699
:102FA0008C918A0DD8018C93E1102FC00F5F1F4FB9
:102FB000AF85B889ED91FC91EC0DFD1D128701875D
:102FC000AF85B889ED91FC91EC0DFD1D8581968151
:102FD000892B09F4A4C080910D0290910E022B81DF
:102FE0003C812817390709F465C0772011F0018565
:102FF0001285912C812C1A8219824AC00596A2CF83
:103000001FD6F80196838583B9CF8B859C85AD85C6
:10301000BE85F80181839283A383B4830B5F1F4F26
:10302000C7CFE080F180E80CF91CD70113966D91B1
:103030007C9114978C918F3F09F473C0E1E0F0E02C
:1030400002C0EE0FFF1F8A95E2F7CF01092E000C98
:10305000AA0BBB0BFB0140815181628173818423E8
:103060009523A623B72321E0892B8A2B8B2B09F4E8
:1030700020E0D8012C93D70111968C91080F111DD7
:10308000E981FA813196FA83E983F7E08F0E911C8A
:10309000AF85B889ED91FC91EC0DFD1D82812981F0
:1030A0003A818217130611F00CF0BBCF772011F094
:1030B000128701873F81332391F1AF85B889ED9164
:1030C000FC91EC0DFD1D61E070E0878190856CD472
:1030D000AF85B889ED91FC91EC0DFD1DE780F08482
:1030E00045815681E1E0F0E0662011F0F0E0E0E09B
:1030F0000D811E819C01B101882799278E1B9F0B92
:103100008BD32C01892B59F0EF85F889808191812F
:10311000C80ED91ED60115968D919C91DFD5F12C44
:10312000D8CEF701418150E0C8010E94AA2EA3CF5A
:1031300086EF482E55245A94CCCEEF85F8898785A2
:1031400090890196908B878725853685821793070E
:1031500009F08DCE108A17868ACE512C412C21CEB3
:1031600010E000E02DCF2F923F924F925F926F922E
:103170007F928F929F92AF92BF92CF92DF92EF9207
:10318000FF920F931F93CF93DF9380917F039091D2
:10319000800310E000E0892BA9F0DADA0AEF1FEFD4
:1031A000882381F02090810330908203C0917F03B7
:1031B000D0918003D12CC12C10E000E02C143D04F0
:1031C000A9F47894C801DF91CF911F910F91FF90DE
:1031D000EF90DF90CF90BF90AF909F908F907F90B7
:1031E0006F905F904F903F902F900895C6010E947E
:1031F0000010882309F18B819C810397E9F48F8566
:103200009889892BC9F0B60190E080E079D221E05D
:1032100030E0882311F030E020E044245524421AA5
:10322000530AB12CA12C912C812C8A818815190468
:1032300009F038F4188A1F864FEFC41AD40A63962F
:10324000BDCFE881F981EA0DFB1D85819681892B2F
:10325000A1F161E070E087819085A6D33C01D9D2CD
:103260008C01E881F981EA0DFB1D8185928525811C
:103270003681200F311FAC01421B530B9A0147814D
:103280005085421B530B70E060E00E94B32EE88132
:10329000F981EA0DFB1DE780F08445815681930199
:1032A000B601C201B9D28C01892B39F0E881F981CC
:1032B000EA0DFB1D8581968111D55FEF851A950A70
:1032C0008BE0A80EB11CB1CF43CA789408952F9219
:1032D0003F924F925F926F927F929F92AF92BF9276
:1032E000CF92DF92EF92FF920F931F93CF93DF93D2
:1032F00000D000D0CDB7DEB700917F0310918003DE
:10330000992493940115110509F43EC0A0908103FE
:10331000B09082031DDA982E8823B1F110928003B9
:1033200010927F0310928203109281031092830304
:10333000109284038FEF9FEFDC018093170290932C
:103340001802A0931902B0931A0278947DD31E83B9
:103350000D83C12CD12C7601C501B0E0A0E089839A
:103360009A83AB83BC8322242A94322C89819A814C
:10337000AB81BC81C816D906EA06FB06F4F0C80189
:10338000ADD480E40E94410C892D26960FB6F894A6
:10339000DEBF0FBECDBFDF91CF911F910F91FF9088
:1033A000EF90DF90CF90BF90AF909F907F906F9005
:1033B0005F904F903F902F900895AD81BE811596FC
:1033C0002D913C91169780910D0290910E02281735
:1033D0003907D1F451968D919C91FAD5ED81FE81FA
:1033E00080819181B12CA12C412C512C3201892B4F
:1033F00079F5BFEFCB1ADB0AEB0AFB0AED81FE8100
:103400007396FE83ED83B2CFC114D104E104F104BD
:1034100029F7ED81FE81818992898F3F980709F014
:1034200037D5AD81BE8152963C922E925197D6CF20
:103430008A0D9B1DDC018D919C91009709F04ED463
:10344000BFEF4B1A5B0A6B0A7B0AEBE0AE0EB11CB6
:10345000AD81BE818D919C91119712964C9150E057
:1034600070E060E044165506660677060CF336D425
:10347000C0CFCF93DF93EA012ADF811109C082E038
:1034800090E09983888385EF9FEFDF91CF91089536
:1034900081E090E00E94330C81E090E09983888382
:1034A00090E080E0F2CF13DF10927C0310927B0358
:1034B000089542E050E066E972E00C94510CFF92EE
:1034C0000F931F93CF93DF938A01EC01C60FD71F91
:1034D000F980B9D20897F816190671F068F082E001
:1034E00090E0F801918380838EEF9FEFDF91CF9181
:1034F0001F910F91FF9008956C817D818E819F8136
:103500004B810E94E60E811108C082E090E0F80134
:103510009183808384EF9FEFE9CFF9800E94E10ED1
:103520004F2D50E0BE01685F7F4F0E94AA2E898117
:103530000E94500F81E090E0F8019183808390E039
:1035400080E0D4CFDF92EF92FF920F931F93CF933F
:10355000DF938A01EC01C60FD71F0E94E10E7C01A8
:10356000D98071D2DD2059F0029721E030E0D816E1
:10357000190619F010F030E020E0232B79F482E0F6
:1035800090E0F801918380838EEF9FEFDF91CF91E0
:103590001F910F91FF90EF90DF900895EF2841F475
:1035A00082E090E0F8019183808384EF9FEFEECF7B
:1035B000F9800E94E10E4F2D50E0BE016E5F7F4FFB
:1035C0000E94AA2E89810E94500F81E090E0F801AC
:1035D0009183808390E080E0D9CF89E59AE1909350
:1035E00086038093850308958091850390918603D7
:1035F00008950895FC0111821082938382830895B7
:10360000DB011D921C92DC011296ED91FC91139747
:103610007183608313967C936E9312970895FC01D7
:1036200080819181DB018D939C93A081B181109762
:1036300041F08D919C9191838083892B11F4F383C8
:10364000E2830895FC0180819181DB018D939C933D
:10365000892B11F473836283718360830895FC0165
:1036600011821082938382830895CF93DF931F92F8
:103670001F92CDB7DEB71A821982F894BE016F5F30
:103680007F4F8CE893E0CBDF89819A81009709F026
:1036900025D389819A81892B89F7BE016F5F7F4F7E
:1036A00080E993E0BCDF89819A81009709F016D305
:1036B00089819A81892B89F778940F900F90DF91F7
:1036C000CF910895CF93DF931F921F92CDB7DEB7AE
:1036D0001A821982F894BE016F5F7F4F88E893E0E9
:1036E0009EDF89819A81009709F0F8D289819A81B9
:1036F000892B89F778940F900F90DF91CF910895DF
:1037000081E0089590E080E00895EF92FF920F939A
:103710001F93CF93DF931F921F92CDB7DEB71A820C
:1037200019828091870307EF1FEF8823A1F1F89496
:10373000BE016F5F7F4F80E993E071DF78948981EC
:103740009A81EE24E394F12C892B51F4F894BE0174
:103750006F5F7F4F8CE893E062DF7894F12CE12C6F
:1037600089819A810EEF1FEF0097A9F0FC01428139
:10377000538164E070E03CD68C01892B61F0F894B1
:1037800069817A81C701880F991F880F991F845713
:103790009C4F58DF7894C8010F900F90DF91CF9124
:1037A0001F910F91FF90EF9008950F931F93CF9368
:1037B000DF9300D01F92CDB7DEB71C821B821A8226
:1037C00019828091870307EF1FEF8823C1F0AE01B4
:1037D0004D5F5F4F64E070E0CE0101967CD68C01B6
:1037E000892B69F4E981FA818B819C81938382839F
:1037F000F89469817A8188E893E002DF7894C801BF
:103800000F900F900F900F90DF91CF911F910F911C
:10381000089581D7049608958F929F92AF92BF9298
:10382000CF92DF92EF92FF920F931F93CF93DF938C
:103830001F921F92CDB7DEB71A821982BC016F5F4B
:103840007F4F6330710598F0AA24AA94BA2CC50161
:103850000F900F90DF91CF911F910F91FF90EF90FC
:10386000DF90CF90BF90AF909F908F9008954115BB
:10387000510551F3480159018A016C01CADF8815CD
:10388000990511F7E114F104F9F28E0D9F1DA816A8
:10389000B906D0F2809187038823F1F0F894B5013E
:1038A000645071099701AE014F5F5F4FC8010496E4
:1038B000A7D65C01892B71F489819A81F8019383E1
:1038C0008283C601880F991F880F991FB8018457FA
:1038D0009C4F96DE7894BBCF87EFA82EBB24BA947A
:1038E000B6CFAF92BF92CF92DF92EF92FF920F933B
:1038F0001F93CF93DF931F921F92CDB7DEB71A822B
:103900001982892B09F047C06115710509F443C07C
:103910004115510509F43FC02115310509F43BC09B
:1039200001151105C1F1809187038823B9F179014F
:103930006A015B01F894BE016F5F7F4F88E893E0F6
:103940006EDE789489819A81009759F1DC01129694
:103950006D917C91A80104966CD68C01E981FA8165
:10396000D501ED93FC93828193810496F6019183B6
:1039700080834FDFD7018D939C93C8010F900F90E8
:10398000DF91CF911F910F91FF90EF90DF90CF903B
:10399000BF90AF9008950FEF1FEFEFCF07EF1FEF2E
:1039A000ECCF0EEF1FEFE9CFCF93DF93EC01672B46
:1039B00071F4BAD68C179D0760F0ADD62496C80F67
:1039C000D91FACD68C0F9D1FDF91CF910895A9D63A
:1039D000F1CF90E080E0F8CF0F931F93CF93DF9368
:1039E0002091870321112BC08B01EC018CE893E01F
:1039F00001DE80E993E0FEDD88E893E0FBDD97D00F
:103A00000097C1F491D670E060E0CEDF4BE152E068
:103A100062E070E08FD1009769F480911B02909171
:103A20001C0294D6B801CE01C9D4009719F421E044
:103A300020938703DF91CF911F910F91089584EF19
:103A40009FEFF8CF6EC670C6CF93DF9370D6EC01B0
:103A5000892B11F40ADE36DECE01DF91CF91089575
:103A6000CF93DF9364D6EC01892B09F4FEDDCE0100
:103A7000DF91CF91089580911B0290911C020895CF
:103A8000CF93DF9380918703D0E0C0E08823D1F00B
:103A900062D6EC01892BB1F4E8DD14DE80911B02C3
:103AA00090911C02F5D1F6D2EC01892B59F48CE8E7
:103AB00093E0D5DD80E993E0D2DD88E893E0CFDDC7
:103AC00010928703CE01DF91CF910895EF92FF927C
:103AD0000F931F93CF93DF93EC017A018B010F5F5C
:103AE0001F4F0E9DA0010F9D500D1E9D500D1124C6
:103AF00070E060E00E94B32E90E080E0F0E0E0E053
:103B00002FEFE816F90639F4DF91CF911F910F914D
:103B1000FF90EF9008951A8219822883309711F050
:103B2000D283C1830196FE01C00FD11FEACFCF928D
:103B3000DF92EF92FF920F931F93CF93DF930FE9E2
:103B400014E00C7F82EAE82E82E0F82E98EAC92E73
:103B500092E0D92EC6E0D5E0D7014D915D917D016F
:103B6000F601619171916F01198308835D834C8324
:103B70005B834A837F836E839B012F5F3F4F249F2C
:103B8000C001259F900D349F900D1124998788873F
:103B90000115110511F0C80199DF88859985080F75
:103BA000191F2A96F8EAEF16F2E0FF06A9F6E6E9F1
:103BB000F3E086E091E0DF019C011D92215030404E
:103BC000E1F710929503109294031092250510923C
:103BD00024051092290510922805109227051092AD
:103BE000260510922B0510922A0510922D05109291
:103BF0002C0510922F0510922E051092330510926D
:103C00003205109231051092300510923505109250
:103C10003405109237051092360510920305109264
:103C20000205109205051092040590E080E0DF91F6
:103C3000CF911F910F91FF90EF90DF90CF9008955B
:103C4000009799F1F8948131910550F4809108051D
:103C500090910905892B39F020E090E080E018C0B0
:103C60008132910550F48091120590911305892BB2
:103C700031F021E081E090E00BC0C197A8F4809181
:103C80001C0590911D05892B79F022E082E090E0DF
:103C9000EAE0E89FD001E99FB00D1124AA5FBA4F76
:103CA0008D919C91009721F4789490E080E00895A4
:103CB000E29FF0011124EA5FFA4FDC0111964D9169
:103CC0005C91518340834281538141505109538318
:103CD0004283FC012193CF0178940895009749F124
:103CE000DC018E91853041F4E0910405F0910505E9
:103CF0003097F9F0CD0119948530D8F4282F30E0B1
:103D0000F8948FEF8C938AE0829FF001839FF00DEF
:103D10001124EA5FFA4F8081918112969C938E93D1
:103D20001197B183A08382819381019693838283CB
:103D300078940895CF92DF92EF92FF920F931F93A2
:103D4000CF93DF939C0189E993E08C7F4115510566
:103D500009F49BC02115310509F497C0611571055F
:103D600009F493C07A01AB01B9016D5F7F4F6C7F9D
:103D70009B012F5F3F4F249F8001259F100D349F93
:103D8000100D1124F8942091240530912505232B42
:103D900059F420912C0530912D052115310569F13B
:103DA0002017310708F058C020912E0530912F05BB
:103DB000232B91F420912C0530912D05820F931F18
:103DC00020913605309137052115310509F441C0A0
:103DD0002017310708F056C07894CFEFDFEF86EF59
:103DE0009FEFF701D183C083DF91CF911F910F9196
:103DF000FF90EF90DF90CF900895C3E0D0E0C090A7
:103E00009403D090950323E031E02C193D0920174D
:103E1000310710F32AE02C9FF0012D9FF00D1124A3
:103E2000EA5FFA4F918380835583448353834283AF
:103E30007783668311870087009709F047DE0C0DB2
:103E40001D1D1093950300939403789490E080E0F7
:103E5000C8CFC4E0D0E0D3CFC3E0D0E02AE02C9FAD
:103E6000F0012D9FF00D1124EA5FFA4F91838083BA
:103E7000558344835383428377836683009729F372
:103E800025DEE3CFC4E0D0E0E9CF8FEF9FEFACCFEA
:103E90009C010397029708F069C0F89484E09AE0C7
:103EA000482F50E0241735070CF44DC091E08AE00C
:103EB000829FF001839FF00D1124EA5FFA4F118277
:103EC000108215821482138212821782168299231D
:103ED000B1F180912E0590912F05892BA9F42091A5
:103EE0003605309137052115310571F08091940325
:103EF00090919503821B930B909395038093940369
:103F00001092370510923605809124059091250571
:103F1000892BA9F420912C0530912D05211531050F
:103F200071F08091940390919503821B930B909371
:103F300095038093940310922D0510922C0578948C
:103F400090E080E00895949FF001959FF00D11247A
:103F5000EA5FFA4F40815181452B31F4408551850C
:103F6000452B11F481509CCF90E0A1CF8FEF9FEFB4
:103F700008954115510549F1009739F16115710511
:103F800021F1F8942091020530910305232BB9F417
:103F90002091040530910505232B89F490930305A6
:103FA000809302057093050560930405789425E0DD
:103FB00030E090E080E0FA01318320830895789426
:103FC0002FEF3FEF86EF9FEFF6CF8FEF9FEF089534
:103FD000059769F4F8941092030510920205109267
:103FE000050510920405789490E080E008958FEF25
:103FF0009FEF08956115710519F4F0E0E0E011C03C
:104000008530910581F4E0910205F0910305309728
:10401000A1F3CB0101961995009779F3FC0185E096
:104020008193CF0108959C0123503109223031053D
:1040300020F72AE0289FD001299FB00D1124AA5F04
:10404000BA4F2D913C911197232BB9F216962D91D1
:104050003C9117972617370780F2F89412962D9106
:104060003C9113972115310529F0ED91FC911197A1
:10407000309711F47894C1CF4181528111965C93AD
:104080004E932150310913963C932E9312978193AE
:104090007894C7CFECE9F4E086E6DF011D928A95BB
:1040A000E9F7E6E9F3E086E091E0DF019C011D928B
:1040B00021503040E1F71092950310929403E6E00E
:1040C000F5E082E3DF011D928A95E9F7E2E0F5E091
:1040D00084E0DF011D928A95E9F790E080E0089581
:1040E000CF93DF93C0911D02D0911E02CF3FDC071A
:1040F00059F4DCD390931E0280931D0297FF09C0F0
:10410000D0931E02C0931D0284EF9FEFDF91CF91E9
:10411000089590E080E0FACF8230910528F48093F2
:10412000380590E080E008958FEF9FEF08954F925B
:104130005F926F927F92AF92BF92CF92DF92EF9297
:10414000FF920F931F93CF93DF931F921F92CDB7D0
:10415000DEB71A821982009709F478C061157105DB
:1041600009F474C020911D0230911E0207EF1FEF69
:104170002F3F3F4F09F444C06B015C01412C512C8F
:104180003201F12CE12C10E000E09E012F5F3F4F47
:10419000A6014E195F09B5016E0D7F1D80911D02AC
:1041A00090911E02E1D3892B09F04AC089819A813E
:1041B000009741F4E114F10429F4209138052223F9
:1041C00009F441C0E80EF91EEC14FD04C8F480E8BF
:1041D000481684E858068EE16806710418F560E018
:1041E00070E0CB01A2D72AE0420E511C611C711C69
:1041F0000A3F4FEF140721F0043F8FEF1807A1F497
:10420000C8010F900F90DF91CF911F910F91FF90F8
:10421000EF90DF90CF90BF90AF907F906F905F90C6
:104220004F90089501EF1FEF81E090E0013F2FEFE5
:10423000120711F090E080E0892B09F4A6CFE0CFBF
:1042400004EF1FEFDDCF0AEF1FEFDACF0FEF1FEF05
:10425000D7CF4F925F926F927F92AF92BF92CF92E1
:10426000DF92EF92FF920F931F93CF93DF931F92F2
:104270001F92CDB7DEB71A821982009709F478C071
:104280006115710509F474C020911D0230911E0260
:1042900007EF1FEF2F3F3F4F09F444C06B015C0154
:1042A000412C512C3201F12CE12C10E000E09E0158
:1042B0002F5F3F4FA6014E195F09B5016E0D7F1D9F
:1042C00080911D0290911E0205D3892B09F04AC0EE
:1042D00089819A81009741F4E114F10429F4209135
:1042E0003805222309F441C0E80EF91EEC14FD0440
:1042F000C8F480E8481686E9580688E9680671041B
:1043000018F560E070E0CB0110D72AE0420E511C96
:10431000611C711C0E3F4FEF140721F0043F8FEF1B
:104320001807A1F4C8010F900F90DF91CF911F9152
:104330000F91FF90EF90DF90CF90BF90AF907F9064
:104340006F905F904F90089502EF1FEF81E090E033
:10435000023F2FEF120711F090E080E0892B09F463
:10436000A6CFE0CF04EF1FEFDDCF0EEF1FEFDACFC8
:104370000FEF1FEFD7CF80911D0290911E028F3F4C
:10438000980749F08BD2892B49F48FEF9FEF9093D8
:104390001E0280931D0290E080E0089584EF9FEF5D
:1043A0000895FC01680F791F90E080E0E617F70799
:1043B00009F408952191820F911DF8CF20913905BC
:1043C000211113C08DDE009791F410923F051092D9
:1043D0003E0510923D0510923C0510923B0510924F
:1043E0003A0521E020933905089584EF9FEF089561
:1043F000AF92BF92CF92DF92EF92FF920F931F93F3
:10440000CF93DF93009709F460C04630510508F45C
:104410005CC020913905C7EFDFEF222309F449C0C2
:104420008C01060F171FF801C080D180C114D10480
:1044300009F44EC096012A5F3F4F4217530708F414
:1044400047C07C0180913E0590913F059383828314
:10445000B6016C5F7F4F5801A60EB71EC801A1DFE1
:10446000F5019183808364E070E0C80160DEEC01B7
:10447000892BF9F481E090E04FDEB601C801049683
:1044800056DEEC01892B91F462E070E0C5014FDE4D
:10449000EC01892B59F4C70121DC80913E059091F4
:1044A0003F05019690933F0580933E0590E080E0A4
:1044B00033DECE01DF91CF911F910F91FF90EF90EE
:1044C000DF90CF90BF90AF900895CFEFDFEFF1CFA7
:1044D000C9EFDFEFEECF6F927F928F929F92AF92F4
:1044E000BF92CF92DF92EF92FF920F931F93CF93E1
:1044F000DF9300D01F92CDB7DEB7009709F47AC0E2
:104500004115510509F476C02091390507EF1FEFD9
:10451000222309F44DC03A017B015C0164E070E0A4
:10452000CE01019696DE8C01892B09F041C00981EC
:104530001A810115110509F45AC0480186E0880E58
:10454000911CB701680D791D80911F029091200286
:1045500051DD6C01009709F450C0A70170E060E0E4
:104560000E94B32E89819A81AB81BC81EC0CFD1C29
:10457000F70181939193A193B1937F0181E090E042
:10458000CBDDB801C70165DE892B31F562E070E053
:10459000C701800F911F5DDE8C01892BE9F490E04B
:1045A00080E0BADDF501D182C082F3019182808280
:1045B000C8010F900F900F900F90DF91CF911F9136
:1045C0000F91FF90EF90DF90CF90BF90AF909F90B2
:1045D0008F907F906F90089590E080E09DDDF501D1
:1045E00011821082F30111821082C60177DB09EF7C
:1045F0001FEFDECF0FEF1FEFDBCF06EF1FEFD8CFA0
:104600000097A1F04115510589F02115310571F090
:10461000F90136966E177F0748F0DC012D933C9325
:10462000DA01ED93FC9390E080E008958FEF9FEF27
:104630000895AF92BF92CF92DF92EF92FF920F93C5
:104640001F93CF93DF93009709F45FC04115510585
:1046500009F45BC06530710508F457C02091390535
:10466000C7EFDFEF222391F1DC01CD90DC901197B1
:104670001296ED91FC9196012A5F3F4FC9EFDFEF53
:104680002617370719F5C0913A05D0913B052097B9
:1046900049F521E030E030933B0520933A057A015B
:1046A0008C01F0933D05E0933C055601B4E0AB0E60
:1046B000B11CB50176DE0A0D1B1DF8012081318188
:1046C0008217930729F5D701CD92DC92CE01DF91B5
:1046D000CF911F910F91FF90EF90DF90CF90BF90FF
:1046E000AF90089520913C0530913D052F5F3F4FDD
:1046F000CCEFDFEFE217F30790F2CBEFDFEF2E17EF
:104700003F0768F2D0E0C0E0CACFCFEFDFEFDECFE7
:10471000C3EFDFEFDBCF84E090E0089582E090E02C
:1047200008958CEF9FEF089580E290E00895109235
:104730003F0510923E0510923D0510923C051092E7
:104740003B0510923A0590E080E008959093200296
:1047500080931F02089580913905882391F00BDE24
:10476000009789F410923F0510923E0510923D0586
:1047700010923C0510923B0510923A0510923905B3
:10478000089590E080E00895009749F06115710563
:1047900031F0FC0111821082FB0111821082089518
:1047A000F3CF40E855E260E070E090E080E000C0C8
:1047B0008130910571F01CF4892B39F00895823015
:1047C000910559F0039769F0089526E087E695E092
:1047D000B1C726E084E096E0FBCF26E081EA96E0D0
:1047E000F7CF26E08EE397E0F3CF1F920F920FB63C
:1047F0000F9211240BB60F922F933F934F935F9319
:104800006F937F938F939F93AF93BF93EF93FF9398
:104810008BEC93EF909385008093840012D2FF91EC
:10482000EF91BF91AF919F918F917F916F915F9128
:104830004F913F912F910F900BBE0F900FBE0F9095
:104840001F9018958BEC93EF9093850080938400D4
:10485000AFE6B0E08C918E7F8C93E0E8F0E0808151
:104860008C7F8083E1E8F0E08081877E8083808197
:104870008560808380818D7F80838C9181608C9323
:104880000895EFE6F0E0808190819E7F90838170B3
:10489000089581E0089510924005089568EE73E050
:1048A00080E090E042D490E080E0089526E040E08F
:1048B00052EC61E070E087E695E03CD787E695E052
:1048C0006FD6892B21F087E695E084D6F7CF90E06C
:1048D00080E00895CF92DF92EF92FF920F931F93A3
:1048E000CF93DF936B017A01E9011982188287E681
:1048F00095E056D6892B69F18601CC24C39482E0D9
:10490000D82E80914005811110C087E695E062D6CF
:104910000297B9F7C0924005F801D1928F018881C2
:104920009981019699838883ECCF888199818E152E
:104930009F0578F487E695E04DD68F3F9807A9F359
:10494000F80181938F0188819981019699838883E9
:10495000ECCF90E080E0DF91CF911F910F91FF901D
:10496000EF90DF90CF9008950F931F93CF93DF9335
:10497000EA01890187E695E00E942A2EF801D18399
:10498000C08390E080E0DF91CF911F910F91089557
:104990001F920F920FB60F9211248F939F93AF9394
:1049A000BF938091530590915405A0915505B09106
:1049B00056050196A11DB11D809353059093540592
:1049C000A0935505B0935605DC019927882780935D
:1049D000430590934405A0934505B0934605BF91C8
:1049E000AF919F918F910F900FBE0F901F901895D0
:1049F0001F920F920FB60F9211244F935F936F93F4
:104A00007F938F939F93AF93BF9380912601909153
:104A10002701B0E0A0E08093570590935805A0933C
:104A20005905B0935A05D59A8091210186FF5BC044
:104A3000809121018F7B80932101809142058F5FBE
:104A400080934205813049F580914305909144055A
:104A5000A0914505B09146054091570550915805E4
:104A60006091590570915A05840F951FA61FB71FB5
:104A700080934F0590935005A0935105B093520534
:104A8000BF91AF919F918F917F916F915F914F9166
:104A90000F900FBE0F901F901895823089F71092DB
:104AA00042058091430590914405A0914505B09140
:104AB00046054091570550915805609159057091F0
:104AC0005A05840F951FA61FB71F80934705909323
:104AD0004805A0934905B0934A0581E080934105BC
:104AE00010927300CDCF80912101806480932101C9
:104AF0008091430590914405A0914505B0914605EC
:104B000040915705509158056091590570915A058B
:104B1000840F951FA61FB71F80934B0590934C05DC
:104B2000A0934D05B0934E05ABCF8033D9F460E030
:104B3000CED4109220011092210181E28ABB109202
:104B400025011092240110925305109254051092E1
:104B5000550510925605109242058093730081E42A
:104B60008093210108957F928F929F92AF92BF927E
:104B7000CF92DF92EF92FF920F931F93CF93DF9329
:104B8000782E8B01EA0180914105882309F444C005
:104B90001092410580904F0590905005A0905105CE
:104BA000B0905205C0904705D0904805E090490567
:104BB000F0904A05C818D908EA08FB0860E074E2DA
:104BC00084EF90E0A70196010E94672EF8012083F0
:104BD00031834283538320914B0530914C054091A2
:104BE0004D0550914E05281939094A095B09AFEF67
:104BF000B0E00E94912EA70196010E94672E2883A3
:104C0000F0E37F1209C091E29ABB80912101806498
:104C10008093210190937300DF91CF911F910F91A9
:104C2000FF90EF90DF90CF90BF90AF909F908F90CC
:104C30007F900895803321F4109273001092210127
:104C40000895CF92DF92EF92FF9280915B0591E001
:104C5000980F90935B05882369F021E030E0309352
:104C60005D0520935C0580935B05FF90EF90DF90DE
:104C7000CF9008957894E0912202F0912302C28CA3
:104C8000D38CE48CF58C0E94C004B701A60190E09F
:104C900080E00E943C04F89480915B058150E3CF52
:104CA0000F931F93CF93DF931092EF071092EE07AD
:104CB00072D277DDC0912202D0912302198218822C
:104CC0006FEF7FEFCB010E94B50470E060E090E0F1
:104CD00080E00E944503009709F03AC00E94320527
:104CE000F8947894BE016E5D7F4F8A819B810E940B
:104CF0004803892B59F46FEF7FEFCB010E94D30358
:104D00000E94AF04882311F081E08EA3F8949ADD0D
:104D10000E94B204882311F080E008C00E94AF0412
:104D20008111FACF81E09EA19111F6CF8093EE0719
:104D300078940E942E0C8C0178948091EE0781115A
:104D40000CC00E94BF050E949804F89490E080E097
:104D5000DF91CF911F910F9108950E9496040E94B8
:104D6000B2048823D9F081E08093EF079091EF0798
:104D700081E0911180E08093EE078091EF0781112F
:104D800080DD0130110529F40E942E0C892B09F4D5
:104D900082DD0E942E0C8C017CDDCFCF0E94AF04FF
:104DA0008111E1CF81E09EA19111DECF80E0DCCFC7
:104DB00071D008F481E0089504D06894B111B1C0B5
:104DC000089594D088F09F5790F0B92F9927B75144
:104DD000A0F0D1F0660F771F881F991F1AF0BA95BF
:104DE000C9F712C0B13081F09BD0B1E0089598C0EE
:104DF000672F782F8827B85F39F0B93FCCF38695B5
:104E000077956795B395D9F73EF490958095709511
:104E100061957F4F8F4F9F4F0895E89409C097FB8E
:104E20003EF490958095709561957F4F8F4F9F4F81
:104E30009923A9F0F92F96E9BB279395F6958795C5
:104E400077956795B795F111F8CFFAF4BB0F11F488
:104E500060FF1BC06F5F7F4F8F4F9F4F16C088232F
:104E600011F096E911C0772321F09EE8872F762F65
:104E700005C0662371F096E8862F70E060E02AF0A6
:104E80009A95660F771F881FDAF7880F9695879592
:104E900097F90895990F0008550FAA0BE0E8FEEF67
:104EA00016161706E807F907C0F012161306E407EE
:104EB000F50798F0621B730B840B950B39F40A26E7
:104EC00061F0232B242B252B21F408950A2609F4C5
:104ED000A140A6958FEF811D811D089557FD905823
:104EE000440F551F59F05F3F71F04795880F97FBAE
:104EF000991F61F09F3F79F0879508951216130668
:104F00001406551FF2CF4695F1DF08C01616170696
:104F10001806991FF1CF86957105610508940895CB
:104F2000E894BB2766277727CB0197F90895B2DF6E
:104F300008F48FEF08950BD078C069D028F06ED0B8
:104F400018F0952309F05AC05FC01124EACFC6DFDC
:104F5000A0F3959FD1F3950F50E0551F629FF0018C
:104F6000729FBB27F00DB11D639FAA27F00DB11DE5
:104F7000AA1F649F6627B00DA11D661F829F22276E
:104F8000B00DA11D621F739FB00DA11D621F839FF5
:104F9000A00D611D221F749F3327A00D611D231FCB
:104FA000849F600D211D822F762F6A2F11249F5719
:104FB00050408AF0E1F088234AF0EE0FFF1FBB1F3C
:104FC000661F771F881F91505040A9F79E3F5105DB
:104FD00070F014C0A6CF5F3FECF3983EDCF38695EB
:104FE00077956795B795F795E7959F5FC1F7FE2B86
:104FF000880F911D9695879597F9089597F99F6762
:1050000080E870E060E008959FEF80EC0895002450
:105010000A941616170618060906089500240A941D
:1050200012161306140605060895092E0394000CA3
:1050300011F4882352F0BB0F40F4BF2B11F460FF32
:1050400004C06F5F7F4F8F4F9F4F08951F920F9245
:105050000FB60F9211242F933F938F939F93AF938B
:10506000BF9380915F0590916005A0916105B0911B
:10507000620530915E0523E0230F2D3758F5019628
:10508000A11DB11D20935E0580935F05909360057F
:10509000A0936105B09362058091630590916405CA
:1050A000A0916505B09166050196A11DB11D809383
:1050B000630590936405A0936505B0936605BF9161
:1050C000AF919F918F913F912F910F900FBE0F90B5
:1050D0001F90189526E8230F0296A11DB11DD2CF6F
:1050E0003FB7F8948091630590916405A0916505A0
:1050F000B091660526B5A89B05C02F3F19F0019613
:10510000A11DB11D3FBFBA2FA92F982F8827BC0121
:10511000CD01620F711D811D911D42E0660F771F49
:10512000881F991F4A95D1F708958F929F92AF9249
:10513000BF92CF92DF92EF92FF926B017C01D0DFA2
:105140004B015C01C114D104E104F104D9F0AFD5E5
:10515000C7DF681979098A099B09683E7340810590
:10516000910580F321E0C21AD108E108F10888EE28
:10517000880E83E0981EA11CB11CC114D104E10467
:10518000F10431F7FF90EF90DF90CF90BF90AF9098
:105190009F908F900895789484B5826084BD84B583
:1051A000816084BD85B5826085BD85B5816085BD22
:1051B000EEE6F0E0808181608083E1E8F0E010823B
:1051C000808182608083808181608083E0E8F0E07C
:1051D000808181608083E1EBF0E080818460808366
:1051E000E0EBF0E0808181608083E1E9F0E08081A4
:1051F00082608083808181608083E0E9F0E080814B
:1052000081608083E1EAF0E0808182608083808138
:1052100081608083E0EAF0E0808181608083E1E268
:10522000F1E0808182608083808181608083E0E220
:10523000F1E0808181608083EAE7F0E08081846032
:10524000808380818260808380818160808380818F
:10525000806880831092C10008951F93CF93DF93DD
:10526000182FEB0161E033D1209731F460E0812FFA
:10527000DF91CF911F9167C1CF3FD10511F461E05C
:10528000F6CFE12FF0E0EC51FF4FE491E150E23135
:1052900008F0B2C0F0E08827E05BF64D8F4F39C5CB
:1052A00062296A296F2979298329FC298D29952961
:1052B0009D29A729B129BB29CA29D429FC29DE297E
:1052C000E829F22984B5806884BDC7BDDF91CF91FC
:1052D0001F91089584B5806284BDC8BDF7CF8091C9
:1052E0008000806880938000D0938900C0938800FC
:1052F000EDCF80918000806280938000D0938B00FE
:10530000C0938A00E3CF8091800088608093800002
:10531000D0938D00C0938C00D9CF8091B00080686D
:105320008093B000C093B300D1CF8091B000806271
:105330008093B000C093B400C9CF80919000806882
:1053400080939000D0939900C0939800BFCF809134
:105350009000806280939000D0939B00C0939A004D
:10536000B5CF80919000886080939000D0939D008D
:10537000C0939C00ABCF8091A00080688093A00078
:105380008091A0008F7B8093A000D093A900C09350
:10539000A8009CCF8091A00080628093A000D09351
:1053A000AB00C093AA0092CF8091A0008860809348
:1053B000A000D093AD00C093AC0088CF80912001B5
:1053C000806880932001D0932901C09328017ECF6B
:1053D00080912001806280932001D0932B01C093A3
:1053E0002A0174CF80912001886080932001D0939E
:1053F0002D01C0932C016ACFC038D1050CF03FCFEE
:1054000035CF8150823108F059C0E82FF0E088276D
:10541000E45FF54D8F4F7DC42C2A302A1E2A242AA2
:10542000282A5E2A332A392A3D2A432A472A4B2A28
:10543000512A552A5E2A592A5F2A632A80918000C0
:105440008F77809380000895809180008F7DF9CFC1
:1054500080918000877FF5CF84B58F7784BD0895D4
:1054600084B58F7DFBCF8091B0008F778093B000A3
:1054700008958091B0008F7DF9CF809190008F7753
:10548000809390000895809190008F7DF9CF809156
:105490009000877FF5CF8091A0008F778093A00048
:1054A00008958091A0008F7DF9CF8091A000877F23
:1054B000F5CF809120018F7780932001089580910E
:1054C00020018F7DF9CF80912001877FF5CFCF9389
:1054D000DF9390E0FC01E65DFE4F249180599E4FE2
:1054E000FC0184918823C9F090E0880F991FFC018A
:1054F000E053FE4FA591B491FC01EA54FE4FC591D3
:10550000D49161110DC09FB7F8948C91209582239E
:105510008C938881282328839FBFDF91CF910895A2
:10552000623051F49FB7F8943C91822F8095832389
:105530008C93E8812E2BEFCF8FB7F894EC912E2B24
:105540002C938FBFEACF1F93CF93DF93282F30E0A8
:10555000F901EC51FF4F8491F901E65DFE4FD491C2
:10556000F901E059FE4FC491CC23A1F0162F81110F
:1055700048DFEC2FF0E0EE0FFF1FEA54FE4FA5913D
:10558000B4918FB7F894EC91111108C0D095DE2337
:10559000DC938FBFDF91CF911F910895DE2BF8CF61
:1055A000FC01918D228D892F90E0805C9F4F821BA2
:1055B00091098F7399270895FC01918D828D981719
:1055C00031F0828DE80FF11D858D90E008958FEF09
:1055D0009FEF0895FC01918D828D981761F0A28D47
:1055E000AE0FBF2FB11D5D968C91928D9F5F9F7303
:1055F000928F90E008958FEF9FEF0895FC01538DF7
:10560000448D252F30E0842F90E0821B930B54179C
:1056100010F0CF96089501970895FC01A48DA80F6E
:10562000B92FB11DA35ABF4F2C91848D90E00196E4
:105630008F739927848FA689B7892C93A089B18904
:105640008C91837080648C93938D848D981306C0A5
:105650000288F389E02D80818F7D80830895CF9328
:10566000DF93EC01888D8823B1F0AA89BB89E88992
:10567000F9898C9185FD03C0808186FD0CC00FB631
:1056800007FCF7CF8C9185FFF2CF808185FFEDCFAE
:10569000CE01C3DFEACFDF91CF910895EF92FF9261
:1056A0000F931F93CF93DF93EC0181E0888F9B8D45
:1056B0008C8D98131AC0E889F989808185FF15C0FF
:1056C0009FB7F894EE89FF896083E889F989808122
:1056D0008370806480839FBF81E090E0DF91CF91F1
:1056E0001F910F91FF90EF900895F62E0B8D10E013
:1056F0000F5F1F4F0F731127E02E8C8D8E110BC083
:105700000FB607FCFACFE889F989808185FFF5CFCC
:10571000CE0183DFF2CFEB8DEC0FFD2FF11DE35AAD
:10572000FF4FF0829FB7F8940B8FEA89FB89808145
:105730008062D0CFCF92DF92EF92FF921F93CF93F0
:10574000DF93EC016A017B01122FE889F98982E07D
:105750008083C11481EED806E104F10499F060E081
:1057600079E08DE390E0A7019601B1D22150310993
:10577000410951095695479537952795211580E19F
:10578000380790F0E889F989108260E874E88EE1C2
:1057900090E0A70196019BD221503109410951099E
:1057A0005695479537952795EC85FD853083EE8591
:1057B000FF852083188EEC89FD891083EA89FB8997
:1057C000808180618083EA89FB8980818860808311
:1057D000EA89FB89808180688083EA89FB898081EE
:1057E0008F7D8083DF91CF911F91FF90EF90DF90AD
:1057F000CF9008951F920F920FB60F9211240BB6FF
:105800000F922F938F939F93EF93FF93E0917705E0
:10581000F09178058081E0917D05F0917E0582FD13
:105820001DC09081809180058F5F8F7320918105CD
:10583000821741F0E0918005F0E0E959FA4F958F29
:1058400080938005FF91EF919F918F912F910F9001
:105850000BBE0F900FBE0F901F9018958081F2CF56
:105860001F920F920FB60F9211240BB60F922F9327
:105870003F934F935F936F937F938F939F93AF93D8
:10588000BF93EF93FF9387E695E0C7DEFF91EF911B
:10589000BF91AF919F918F917F916F915F914F9148
:1058A0003F912F910F900BBE0F900FBE0F901F9046
:1058B0001895E7E6F5E01382128288EE93E0A0E007
:1058C000B0E084839583A683B78382EB92E09183D3
:1058D000808385EC90E09587848784EC90E09787BF
:1058E000868780EC90E0918B808B81EC90E0938BAD
:1058F000828B82EC90E0958B848B86EC90E0978B8A
:10590000868B118E128E138E148E08951F920F9215
:105910000FB60F9211240BB60F922F938F939F9374
:10592000EF93FF93E0911406F09115068081E091CA
:105930001A06F0911B0682FD1DC0908180911D0604
:105940008F5F8F7320911E06821741F0E0911D0634
:10595000F0E0EC5FF94F958F80931D06FF91EF917A
:105960009F918F912F910F900BBE0F900FBE0F90B4
:105970001F9018958081F2CF1F920F920FB60F9251
:1059800011240BB60F922F933F934F935F936F9316
:105990007F938F939F93AF93BF93EF93FF9384E095
:1059A00096E03BDEFF91EF91BF91AF919F918F9178
:1059B0007F916F915F914F913F912F910F900BBE0F
:1059C0000F900FBE0F901F901895E4E0F6E0138241
:1059D000128288EE93E0A0E0B0E084839583A683F2
:1059E000B78382EB92E0918380838DEC90E0958782
:1059F00084878CEC90E09787868788EC90E0918B89
:105A0000808B89EC90E0938B828B8AEC90E0958B75
:105A1000848B8EEC90E0978B868B118E128E138E7A
:105A2000148E08951F920F920FB60F9211240BB689
:105A30000F922F938F939F93EF93FF93E091B10673
:105A4000F091B2068081E091B706F091B80682FD30
:105A50001DC090818091BA068F5F8F732091BB0625
:105A6000821741F0E091BA06F0E0EF55F94F958FBB
:105A70008093BA06FF91EF919F918F912F910F9094
:105A80000BBE0F900FBE0F901F9018958081F2CF24
:105A90001F920F920FB60F9211240BB60F922F93F5
:105AA0003F934F935F936F937F938F939F93AF93A6
:105AB000BF93EF93FF9381EA96E0AFDDFF91EF9103
:105AC000BF91AF919F918F917F916F915F914F9116
:105AD0003F912F910F900BBE0F900FBE0F901F9014
