:10000000ECC000001BC1000019C1000017C10000B6
:1000100015C1000013C1000011C100000FC1000094
:100020000DC100000BC1000009C1000007C10000A4
:1000300005C1000003C1000001C10000FFC00000B5
:10004000FDC00000FBC00000F9C00000F7C00000C8
:10005000F5C00000F3C00000F1C000000C940D30AA
:10006000EDC000000C94DD320C941333E7C00000A7
:10007000E5C00000E3C00000E1C00000DFC00000F8
:10008000DDC00000DBC00000D9C00000D7C0000008
:100090000C9469330C949F33D1C000000C94EC2E67
:1000A000CDC00000CBC00000C9C00000C7C0000028
:1000B000C5C00000C3C00000C1C00000BFC0000038
:1000C000BDC00000BBC000000C948F270C94F5331A
:1000D0000C942B34B3C000000C9481340C94B734CE
:1000E000ADC0000000000A0B02090C0D0E0807034A
:1000F00004010000000000000000000000000000FB
:1001000000000000000000000000000000000000EF
:1001100012111000000000000000000000000000AC
:100120000000000000000000000001021020200874
:100130000810204010204080020102010804020142
:1001400001020408102040808040201008040201B1
:10015000800402018040201008040201080402010A
:100160000102040810204080010204081020408091
:1001700005050505070508080808020202020A0A23
:100180000808040404040101010101010101030341
:10019000030303030303040707070C0C0C0C0C0CEC
:1001A0000C0C0202020206060606060606060B0BE9
:1001B0000B0B0B0B0B0B00002200250028002B0063
:1001C0002E003100340002010000050108010B017E
:1001D000572C3C33C8335434E03411241FBECFEFC6
:1001E000D1E2DEBFCDBF00E00CBF12E0A0E0B2E084
:1001F000EEE3FBE600E00BBF02C007900D92A63DC8
:10020000B107D9F72AE0A6EDB2E001C01D92AD35E5
:10021000B207E1F710E0CDEED0E000E006C0219794
:100220000109802FFE010E946C35C83ED10780E095
:100230000807A9F70E9498280C949D35E1CECF922B
:10024000DF92EF92FF926B017C01C114D104E104B3
:10025000F10469F480910002811109C080910202C9
:10026000909103020E94C82B81E080930002C60196
:10027000880F991F880F991F80509E4FFF90EF9015
:10028000DF90CF900895009781F0FC01218121112A
:1002900004C040EA56E861E070E0FC01828193818D
:1002A0000E94D72B90E080E0089588E090E00895C8
:1002B0004F925F926F927F928F929F92AF92BF9276
:1002C000CF92DF92EF92FF920F931F93CF93DF9322
:1002D0000097C9F1280139017A01EC01402F8A8188
:1002E0009B810E94552C8A819B81DC01ED91FC91C0
:1002F0000084F185E02D1995892B01F16701812C8E
:10030000912C54018A819B81DC01ED91FC91008448
:10031000F185E02D1995892B91F184149504A6049B
:10032000B70469F18A819B81DC01ED91FC91028423
:10033000F385E02D19958F3F9807C1F484E0F7010C
:1003400011928A95E9F788E090E0DF91CF911F91B3
:100350000F91FF90EF90DF90CF90BF90AF909F9064
:100360008F907F906F905F904F900895FFEF8F1A5E
:100370009F0AAF0ABF0AD6018D936D01C3CF90E0EB
:1003800080E0E3CF8F929F92AF92BF92CF92DF92A5
:10039000EF920F931F93CF93DF930097F1F06A01D1
:1003A000EC018A819B810E94DA2B8A819B81DC018E
:1003B000ED91FC910280F381E02DA801B601199521
:1003C0008A819B8160E0E11001C061E00E94E42B22
:1003D000882389F08250823088F088E090E0DF91B5
:1003E000CF911F910F91EF90DF90CF90BF90AF9082
:1003F0009F908F90089590E080E0F1CF84E090E0AE
:10040000EECF08958130910579F01CF4892B39F0F5
:1004100008958230910561F0039771F0089526E008
:1004200080E997E00C947D3226E08DE298E0FACFE7
:1004300026E08AEC98E0F6CF26E087E699E0F2CF56
:100440008F929F92AF92BF92CF92DF92EF92FF92E4
:100450006B017C010E9457304B015C010E945730B8
:10046000681979098A099B09C616D706E806F906AC
:10047000A8F7FF90EF90DF90CF90BF90AF909F9044
:100480008F90089590E080E008950F931F93009758
:1004900009F485C06115710509F481C00091080255
:1004A0001091090220910A0230910B020E3F1F4F5A
:1004B0002F4F3F4F09F064C04FEF5FEFBA014093F9
:1004C00008025093090260930A0270930B02409154
:1004D00008025091090260910A0270910B02DC013E
:1004E0001296ED91FC9180819181A281B3818093DC
:1004F0003C0390933D03A0933E03B0933F0384815C
:100500009581A681B7818093380390933903A09396
:100510003A03B0933B0380859185A285B385809390
:10052000340390933503A0933603B0933703848547
:100530009585A685B7858093300390933103A0936A
:100540003203B093330310922C0310922D031092B8
:100550002E0310922F030E94D40B89EF9BE09093FF
:10056000D7028093D6020E94C30A009731F421E09B
:1005700030E030934103209340031F910F91089581
:10058000009108021091090220910A0230910B0299
:10059000DB010D931D932D933C93139798CF8FEF11
:1005A0009FEFEBCF8F929F92AF92BF92CF92DF924D
:1005B000EF92FF921F93CF93DF934B015C01109159
:1005C000430382E090E090934103809340038114C1
:1005D0009104A104B10441F480914303811104C04A
:1005E00080914203C1E08111C0E0C12CD12C760181
:1005F00080914303811106C080914203811102C0A2
:10060000CC23D9F083E090E09093410380934003A2
:10061000CC2379F1CCE9DFEF111102C00E945D0F0C
:10062000CE01DF91CF911F91FF90EF90DF90CF909F
:10063000BF90AF909F908F9008956AE070E080E047
:1006400090E00E94883080E1C80E87E2D81EE11C4D
:10065000F11C8FEF88169806A806B80631F0C1E0A5
:100660008C149D04AE04BF0408F0C0E080E0BFD746
:10067000BFCFD0E0C0E0D0CFCF92DF92EF92FF9219
:100680001F93CF93DF938F3F910511F008F04BC07C
:1006900020914003309141032330310539F02091FE
:1006A0004003309141032130310531F424E030E042
:1006B00030934103209340036A017B01EC01892BB5
:1006C00099F011E0AE01C701B6015CD7AB01BC01E6
:1006D000CE011123E1F0DF91CF911F91FF90EF90B8
:1006E000DF90CF900C9486118091D6029091D70222
:1006F000892B39F30E949011029719F7E091D602E5
:10070000F091D70290E080E01995182FDBCF0E947E
:10071000A81190E080E0DF91CF911F91FF90EF90C2
:10072000DF90CF9008958FEF9FEFF5CF80E05FC708
:10073000CF93DF9386E090E0909341038093400352
:10074000AFD7EC011092D7021092D6020E94F50E9C
:100750001092410310924003CE01DF91CF91089592
:1007600080914203089580912B03089560930802BD
:100770007093090280930A0290930B0290E080E04C
:1007800008954F925F926F927F928F929F92AF9255
:10079000BF92CF92DF92EF92FF920F931F93CF936E
:1007A000DF93CDB7DEB761970FB6F894DEBF0FBE0B
:1007B000CDBFC0900402D0900502E0900602F090F8
:1007C0000702A701960160910A0A70910B0A8091B5
:1007D0000C0A90910D0A0E948629882341F0C0924C
:1007E0000A0AD0920B0AE0920C0AF0920D0A1092BB
:1007F0001E0A8BE3898BC12CEE24E39401E010E008
:1008000020E030E0AE014F5E5F4F68E670E080911F
:10081000130A9091140AB6DD80933D0A882309F4E7
:10082000C1C11F82188619861A861B861C86809174
:100830003D0A882341F090911F0A992309F4CDC104
:1008400081E08093200A6F81788576276727762755
:10085000072E000C880B990B0E94F4294B015C01B8
:1008600069857A85762767277627072E000C880BFF
:10087000990B0E94F4296B017C016B857C8576279E
:1008800067277627072E000C880B990B0E94F42906
:100890002B013C018091200A882309F4A5C1109204
:1008A000210A1092220A1092230A1092240A10920E
:1008B000250A1092260A1092270A1092280A1092EE
:1008C000290A10922A0A10922B0A10922C0A83E409
:1008D000898BC12CEE24E39401E010E020E030E0AD
:1008E000AE014F5E5F4F68E670E08091130A909111
:1008F000140A48DD80933D0A882309F4B8C11F8299
:10090000188619861A861B861C8680913D0A8823C4
:1009100041F090911F0A992309F4C4C181E08093AA
:10092000200A6F817885762767277627072E000CA7
:10093000880B990B0E94F4294B015C0169857A852B
:10094000762767277627072E000C880B990B0E94C5
:10095000F4296B017C016B857C85762767277627D8
:10096000072E000C880B990B0E94F4292B013C01E7
:100970008091200A882309F49CC110922D0A1092BC
:100980002E0A10922F0A1092300A1092310A1092F9
:10099000320A1092330A1092340A1092350A1092D9
:1009A000360A1092370A1092380A81E4898BC12CDA
:1009B000EE24E39401E010E020E030E0AE014F5E71
:1009C0005F4F68E670E08091130A9091140ADADCB8
:1009D00080933D0A81119EC1CC24C394E12C02E096
:1009E00010E020E030E0AE01435F5F4F68E670E06A
:1009F0008091130A9091140A5BDC8D859E85988BFB
:100A00008F8780913D0A882341F090911F0A992396
:100A100009F483C181E08093200A8091200A882311
:100A200009F482C11092390A10923A0A10923B0AD4
:100A300010923C0A80E280933D0A8091210A9091B5
:100A4000220AA091230AB091240A80933E0A90932F
:100A50003F0AA093400AB093410A80912D0A9091D9
:100A60002E0AA0912F0AB091300A80934A0A9093DF
:100A70004B0AA0934C0AB0934D0A8091250A90919D
:100A8000260AA091270AB091280A8093420A9093DF
:100A9000430AA093440AB093450A8091310A909189
:100AA000320AA091330AB091340A80934E0A90938F
:100AB0004F0AA093500AB093510A8091290A90914D
:100AC0002A0AA0912B0AB0912C0A8093460A90938F
:100AD000470AA093480AB093490A8091350A909139
:100AE000360AA091370AB091380A8093520A90933F
:100AF000530AA093540AB093550A8091390A9091F1
:100B00003A0AA0913B0AB0913C0A8093560A90930E
:100B1000570AA093580AB093590A80913D0A8093CE
:100B20005A0A60910203709103038091040390912B
:100B300005036F5F7F4F8F4F9F4F6093020370934A
:100B4000030380930403909305030E94F2299B0101
:100B5000AC016091060370910703809108039091A6
:100B600009030E94A82A6093FE027093FF028093FB
:100B700000039093010361960FB6F894DEBF0FBE99
:100B8000CDBFDF91CF911F910F91FF90EF90DF903C
:100B9000CF90BF90AF909F908F907F906F905F901D
:100BA0004F900895CC24C394E12C06E010E020E09F
:100BB00030E0AE014F5F5F4F68E670E08091130A4E
:100BC0009091140A75DB86E0FE013196DE011796DE
:100BD00001900D928A95E1F72ACE90911E0A91110B
:100BE00032CE80931E0A2FCE2AE038EE4CE151E43B
:100BF000C501B4010E94A82A20E030E040E059E39A
:100C00000E94A82A6093210A7093220A8093230AE3
:100C10009093240A2AE038EE4CE151E4C701B60172
:100C20000E94A82A20E030E040E059E30E94A82A70
:100C30006093250A7093260A8093270A9093280AC6
:100C40002AE038EE4CE151E4C301B2010E94A82A27
:100C500020E030E040E059E30E94A82A6093290A8E
:100C600070932A0A80932B0A90932C0A30CECC24BE
:100C7000C394E12C06E010E020E030E0AE014F5FCD
:100C80005F4F68E670E08091130A9091140A10DBC0
:100C900086E0FE013196DE01179601900D928A954D
:100CA000E1F733CE90911E0A91113BCE80931E0A3C
:100CB00038CE20E030E04AE75CE3C501B4010E9491
:100CC000A82A60932D0A70932E0A80932F0A90937E
:100CD000300A20E030E04AE75CE3C701B6010E9439
:100CE000A82A6093310A7093320A8093330A909352
:100CF000340A20E030E04AE75CE3C301B2010E941D
:100D0000A82A6093350A7093360A8093370A909325
:100D1000380A4BCE1F86188A74CE90911E0A911104
:100D20007CCE80931E0A79CE6F85788976276727D7
:100D30007627072E000C880B990B0E94F42920E0DF
:100D400030E04AEA53E40E948A2928EB3EE142E17E
:100D500052E40E9422296093390A70933A0A8093E0
:100D60003B0A90933C0A80911E0A65CECF92EF9287
:100D7000FF920F931F93CF93DF9300D01F921F9288
:100D8000CDB7DEB780E090E0A0E8BFEB80930A0328
:100D900090930B03A0930C03B0930D038DEC9CEC8C
:100DA000ACE4BEE38093060390930703A09308038B
:100DB000B093090383E395EDA9E5B7E28093EC02D4
:100DC0009093ED02A093EE02B093EF028BE097E3D5
:100DD000A2E2B8E78093F0029093F102A093F202AE
:100DE000B093F3028EEB90E6A2EABDE58093F402A5
:100DF0009093F502A093F602B093F70289E795E687
:100E0000AAE9BBE68093F8029093F902A093FA0254
:100E1000B093FB028CED92E09093EB028093EA0298
:100E200088ED92E09093DD028093DC0285E292E00F
:100E30009093D9028093D8029093DB028093DA02D8
:100E40008CEF92E09093E1028093E0028CEE92E0CE
:100E50009093DF028093DE028EEF92E09093E302A4
:100E60008093E20210921E0A1092200A80E090E520
:100E7000A3ECB8E48093190A90931A0AA0931B0A72
:100E8000B0931C0A10920F0A1092100A1092110AC5
:100E90001092120A1092140A1092130A10920E0A5B
:100EA0001092040A8091040290910502A09106021A
:100EB000B091070280930A0A90930B0AA0930C0A40
:100EC000B0930D0A1092090A81E090E0A0E0B0E032
:100ED0008093050A9093060AA093070AB093080A24
:100EE000FF24F394F0921F0A50E040E060E070E0CD
:100EF000CB01A5D99093140A8093130A40EA56E8CF
:100F000061E070E04093150A5093160A6093170A47
:100F10007093180AB8D980E88A838BE6898389811F
:100F20009A819C838B83C12CE12C02E010E020E0AD
:100F300030E0AE014D5F5F4F68E670E08091130ACC
:100F40009091140A1FDA882339F090911F0A99238F
:100F500009F46BC1F092200A61E070E080E090E05B
:100F60006FDA1A8289819A819C838B83C12CE12C50
:100F700002E010E020E030E0AE014D5F5F4F68E638
:100F800070E08091130A9091140AFCD9882341F0F3
:100F900090911F0A992309F44FC181E08093200AA0
:100FA00064E670E080E090E04BDA85E78D83C12C49
:100FB000EE24E39401E010E020E030E0AE014B5F6E
:100FC0005F4F68E670E08091130A9091140ADAD9B5
:100FD000811169C1CC24C394E12C01E010E020E030
:100FE00030E0AE014B5F5F4F68E670E08091130A1E
:100FF0009091140A5DD99D8181E0983609F080E0D6
:1010000080931D0A983609F0FBC089E189838981A4
:101010009A819C838B83C12CE12C02E010E020E0BC
:1010200030E0AE014D5F5F4F68E670E08091130ADB
:101030009091140AA7D9882341F090911F0A99230F
:1010400009F406C181E08093200A8CE18D83C12CD4
:10105000EE24E39401E010E020E030E0AE014B5FCD
:101060005F4F68E670E08091130A9091140A8AD964
:10107000811124C1CC24C394E12C01E010E020E0D4
:1010800030E0AE014B5F5F4F68E670E08091130A7D
:101090009091140A0DD99D81977E98609A838CE176
:1010A000898389819A819C838B83C12CE12C02E006
:1010B00010E020E030E0AE014D5F5F4F68E670E089
:1010C0008091130A9091140A5DD9882341F0909180
:1010D0001F0A992309F4C8C081E08093200A8BE19C
:1010E0008D83C12CEE24E39401E010E020E030E099
:1010F000AE014B5F5F4F68E670E08091130A9091FC
:10110000140A40D98111E5C0CC24C394E12C01E03C
:1011100010E020E030E0AE014B5F5F4F68E670E02A
:101120008091130A9091140AC3D89D81977E98608C
:101130009A838BE1898389819A819C838B83C12CDB
:10114000E12C02E010E020E030E0AE014D5F5F4FA7
:1011500068E670E08091130A9091140A13D98823ED
:1011600041F090911F0A992309F48AC081E080938D
:10117000200A8AE18D83C12CEE24E39401E010E083
:1011800020E030E0AE014B5F5F4F68E670E0809199
:10119000130A9091140AF6D88111A6C0CC24C394E6
:1011A000E12C01E010E020E030E0AE014B5F5F4F4A
:1011B00068E670E08091130A9091140A79D89D81B5
:1011C000987F91609A838AE1898389819A819C833F
:1011D0008B83C12CE12C02E010E020E030E0AE0176
:1011E0004D5F5F4F68E670E08091130A9091140A9A
:1011F000C9D8882341F090911F0A992309F44CC063
:1012000081E08093200A10921F0A81E08093090AEE
:101210000F900F900F900F900F90DF91CF911F9133
:101220000F91FF90EF90CF90089590911E0A911129
:1012300093CE80931E0A90CE90911E0A9111B0CE4B
:1012400080931E0AADCE81E08093200A90E0D4CE38
:1012500090911E0A9111F9CE80931E0AF6CE81E07C
:101260008093200A90E018CF90911E0A911137CFF9
:1012700080931E0A34CF81E08093200A90E056CFFD
:1012800090911E0A911175CF80931E0A72CF81E052
:101290008093200A90E094CF90911E0A9111B3CFD1
:1012A00080931E0AB0CF90911F0A9111CCCF9091DC
:1012B0001E0A9111CBCF80931E0A9ECE90911F0AD9
:1012C0009111CDCF90911E0A9111CCCF80931E0A1F
:1012D000E3CE90911F0A9111CECF90911E0A9111E9
:1012E000CDCF80931E0A22CF90911F0A9111CFCFAC
:1012F00090911E0A9111CECF80931E0A61CF8091EA
:10130000040A811118C081E08093040A8091050AC3
:101310009091060AA091070AB091080A0197A105C9
:10132000B10549F48091090A882329F08091130AB4
:101330009091140A66D880910E0A81111BC081E039
:1013400080930E0A80910F0A9091100AA091110AC1
:10135000B091120A0197A105B10561F482E090E015
:10136000A0E0B0E080930F0A9093100AA093110AB6
:10137000B093120A08954F925F926F927F928F926C
:101380009F92AF92BF92CF92DF92EF92FF920F9314
:101390001F93F89440901B0350901C0360901D0312
:1013A00070901E03C0900F03D0901003E0901103C3
:1013B000F0901203452B09F0A6C09B01AC01241943
:1013C00035094609570929013A010091170310917F
:1013D00018032091190330911A0348015901840C14
:1013E000951CA61CB71C80169106A206B306A0F495
:1013F00000911303109114032091150330911603EB
:101400000F5F1F4F2F4F3F4F009313031093140391
:1014100020931503309316038092170390921803BC
:10142000A0921903B0921A030091130310911403B0
:10143000209115033091160380921F039092200390
:10144000A0922103B092220300932303109324035C
:10145000209325033093260360931B0370931C0392
:1014600080931D0390931E03A301920160E47DE02D
:1014700083E090E00E943B356C0D7D1D8E1D9F1D0D
:1014800060930F03709310038093110390931203E2
:10149000009108021091090220910A0230910B027A
:1014A0000F3F1F4F2F4F3F4FF1F000910802109157
:1014B000090220910A0230910B020E3F1F4F2F4F5D
:1014C0003F4F89F0C0900802D0900902E0900A02D4
:1014D000F0900B0221E08C149D04AE04BF0408F4CC
:1014E00020E020932B0378941F910F91FF90EF90B1
:1014F000DF90CF90BF90AF909F908F907F906F9034
:101500005F904F9008954B015C0184189508A608E0
:10151000B708A3019201261B370B480B590B641522
:10152000750586059705E0F082169306A406B506B4
:1015300040F420E030E0A90181149104A104B10439
:10154000A1F460E47DE083E090E00E943B35A701D8
:101550009601261B370B480B590BCA01B901C3CFA3
:1015600082169306A406B50660F7A501940160E40F
:101570007DE083E090E00E943B356C0D7D1D8E1D6B
:101580009F1DB1CFF8CECF93DF9300D01F92CDB780
:10159000DEB71C821B821A821982109227031092D6
:1015A00028031092290310922A03BE016F5F7F4F18
:1015B000CE0103960E947A2769817A818B819C8172
:1015C0000E949F20009761F4BE016F5F7F4FCE01A4
:1015D00003960E94862769817A818B819C812ED512
:1015E0000F900F900F900F90DF91CF910895FF9281
:1015F0000F931F93CF93DF93082F60E070E0CB0130
:101600000E948830FF24F3940E94881FEC01892BEC
:1016100089F010E0CE3F8FEFD80769F0002361F129
:1016200060E070E0CB010E94883081E090E0892B7F
:1016300059F322C011E025D5EC01892B21F0CE3FD2
:101640008FEFD80759F711111EC011E0229609F447
:1016500010E00E94381FEC01892B21F0CE3F8FEF64
:10166000D807E1F6111111C011E0CE3F8FEFD80776
:1016700009F410E001110BC0CE01DF91CF911F9151
:101680000F91FF90089511E0E4CF11E0F3CF60E0F7
:1016900070E0CB010E9488301F25812F90E0C7CFDA
:1016A000CF93DF9380912B03882321F060E070E0DB
:1016B000CB014CD635D6D0E0C0E0892B71F06AE082
:1016C00070E080E090E00E94883081E090DF28D6D2
:1016D0002196C03D27E0D20781F727D60E94F3204C
:1016E000109243031092420310923C0310923D0368
:1016F00010923E0310923F03109238031092390368
:1017000010923A0310923B03109234031092350367
:101710001092360310923703109230031092310367
:10172000109232031092330310922C0310922D0367
:1017300010922E0310922F034EEF5FEF6FEF7FEFAB
:10174000409308025093090260930A0270930B02BF
:1017500010922B03EFE1F3E028E0DF011D922A95C0
:10176000E9F710921B0310921C0310921D031092B4
:101770001E0310921703109218031092190310926F
:101780001A0310921303109214031092150310926F
:10179000160310920F03109210031092110310926F
:1017A0001203DF91CF91089510924F0310925003CE
:1017B000109251031092520310924E0380915703DE
:1017C0009091580390934D0380934C0310924B03D8
:1017D00010924A0310924603109247031092480356
:1017E00010924903109254031092530390E080E04A
:1017F0000895CF92DF92EF92FF920F931F93CF93B2
:101800008C01892B09F055C0209157033091580362
:1018100080914C0390914D03409157035091580390
:1018200050934D0340934C032817390781F01092D1
:101830004B0310924A0310924603109247031092F2
:10184000480310924903109254031092530380915D
:10185000570390915803019761F58091530390913C
:101860005403892B21F480910C02811112C08091C4
:101870005303909154030197E1F4809146039091B2
:101880004703A0914803B09149030197A105B10511
:1018900081F410924603109247031092480310926D
:1018A000490310920C0282E090E0909354038093DD
:1018B00053038091570390915803019709F01CC17D
:1018C00080916D0390916E038017910709F014C108
:1018D0008091690390916A03A0916B03B0916C03AE
:1018E000009709F409C12091680321110DC04091AE
:1018F000690350916A0360916B0370916C03452BEF
:10190000462B472B09F4F8C0209153033091540320
:101910002230310509F0F0C020914A032111ECC0BA
:10192000FC01C080D180E280F38080914E03882347
:1019300009F4D3C080915A0390915B03892B09F479
:10194000FDC020915A0330915B0381E022303105C4
:1019500009F080E020915A0330915B03C1E021300F
:10196000310549F020915A0330915B03C1E02230E8
:10197000310509F0C0E0882309F456C020916403C2
:10198000309165034091660350916703C701B6012A
:101990000E94A42A87FD14C020916403309165033E
:1019A000409166035091670360914F03709150031B
:1019B00080915103909152030E94862987FD22C095
:1019C0002091640330916503409166035091670351
:1019D000C701B6010E94A42A181634F520916403A9
:1019E00030916503409166035091670360914F0306
:1019F0007091500380915103909152030E94862967
:101A0000811112C080915C0390915D03A0915E03EF
:101A1000B0915F03892B8A2B8B2B19F481E0809383
:101A20004B0381E080934A03CC2309F456C02091F4
:101A30006403309165034091660350916703C701C9
:101A4000B6010E94862987FF14C02091640330915B
:101A50006503409166035091670360914F03709155
:101A6000500380915103909152030E94A42A87FF52
:101A700022C0209164033091650340916603509128
:101A80006703C701B6010E948629811126C02091F3
:101A90006403309165034091660350916703609140
:101AA0004F037091500380915103909152030E9413
:101AB000A42A181694F480915C0390915D03A09180
:101AC0005E03B0915F03892B8A2B8B2B19F481E085
:101AD00080934B0381E080934A0381E090914A0315
:101AE000911180E080934E03C0924F03D092500337
:101AF000E0925103F0925203012B09F067C18091EB
:101B0000530390915403892BD9F4109259031092E6
:101B10004A0380910C02882379F082E090E0909350
:101B200054038093530310920C0220915703309179
:101B3000580381E0232BE9F080E01BC081E00ACF4D
:101B400010920C0280915903882349F010924B03A4
:101B5000109254031092530310925903EDCF8091C9
:101B6000570390915803892BE1F080914A0310921A
:101B70004A0320915303309154032230310509F474
:101B80005EC088F42115310509F448C021303105C3
:101B900009F4F3C010924B0310924A0310925903B8
:101BA00038C081E0E6CF2330310509F4B1C02430DC
:101BB000310581F7409146035091470360914803F6
:101BC00070914903411551056105710561F041505E
:101BD000510961097109409346035093470360938B
:101BE0004803709349034091460350914703609125
:101BF000480370914903452B462B472BD9F420917C
:101C00005503309156032130310509F046C010923A
:101C10004B0310925403109253030CC080910C029A
:101C2000882341F082E090E0909354038093530323
:101C300010920C021092440380914B03CEC0882373
:101C4000C9F380915C0390915D03A0915E03B09114
:101C50005F03181619061A061B060CF07DC080914A
:101C6000570390915803019709F076C080915C0367
:101C700090915D03A0915E03B0915F038093460352
:101C800090934703A0934803B093490383E090E007
:101C90009093540380935303CDCF409160035091B0
:101CA00061036091620370916303452B462B472BC0
:101CB000A9F010924B038091600390916103A09171
:101CC0006203B09163038093460390934703A0930C
:101CD0004803B093490381E090E0DACF882399F07C
:101CE00080910D0290910E02A0910F02B09110020E
:101CF0008093460390934703A0934803B09349030E
:101D000084E090E0C5CF10924B0382E090E0C0CF1A
:101D10008091460390914703A0914803B0914903F5
:101D20000097A105B10559F00197A109B109809368
:101D3000460390934703A0934803B09349038091CF
:101D4000460390914703A0914803B0914903892B22
:101D50008A2B8B2B09F06ECF80910D0290910E0291
:101D6000A0910F02B0911002892B8A2B8B2B09F4C2
:101D70004ECF81E080934B03B3CF40914603509107
:101D8000470360914803709149034115510561056E
:101D9000710561F041505109610971094093460391
:101DA000509347036093480370934903409146035F
:101DB000509147036091480370914903452B462B8E
:101DC000472B09F037CF8111C7CF9FCF80914403B4
:101DD000882309F431CF80914503CF911F910F9152
:101DE000FF90EF90DF90CF90089510924F031092E4
:101DF0005003109251031092520310924E0310920E
:101E000054031092530310924D0310924C031092FE
:101E10006E0310926D0310924B0310924A031092BE
:101E20004603109247031092480310924903109200
:101E30004503109244031092690310926A031092B2
:101E40006B0310926C03109268031092640310925B
:101E50006503109266031092670388EE93E0A0E09A
:101E6000B0E080930D0290930E02A0930F02B09306
:101E7000100210926003109261031092620310929C
:101E8000630310925C0310925D0310925E03109244
:101E90005F0310925B0310925A0381E080930C025F
:101EA0001092590310925803109257031092560340
:101EB0001092550390E080E008958091570390912F
:101EC0005803892B19F580910C02882351F08091D9
:101ED0005903811106C081E0809345038093440338
:101EE00008952091590330910C0281E090E0332352
:101EF00011F090E080E030E082239323892B21F0E1
:101F00001092450381E0EACF10924403089582E0E5
:101F100090E0FA01918380838FEF9FEF0895CF9334
:101F2000DF93EA01009711F00E94222219821882A1
:101F300090E080E0DF91CF910895DB01009719F4E4
:101F40008FEF8C9308952EEF2C93FC013F96EF308A
:101F5000F10508F034C08827EF54F04F8F4F0C94F0
:101F60006C35DD0FDB0FD90FD70FD50FD10FD30F86
:101F7000CF0FCD0FCB0FC80FC40FC00FC60FDF0F91
:101F800080E311968C93089589E2FBCF82E2F9CF2A
:101F900011961C92089583E2F4CF81E2F2CF81E1A1
:101FA000F0CF87E2EECF8AE2ECCF80E1EACF84E2A5
:101FB000E8CF88E2E6CF86E2E4CF81E3E2CF80E2B9
:101FC000E0CF80917B0390917C03089590937C03F4
:101FD00080937B03089580917A03089590917A030A
:101FE000892B80937A030895982F909580917A0396
:101FF000892380937A0308958091790308958091CD
:1020000077039091780308956115710559F0FB01EC
:1020100030E020E070E060E02417350719F061152A
:10202000710511F0CB010895A081B181A817B907FE
:1020300009F4BF012F5F3F4F3696EECF80917D03AD
:1020400081111CC060D266D29093700380936F039D
:102050000E94211A0E94331A909374038093730391
:102060000E94A01E0E94A71E90937203809371038A
:1020700081E080937D0390E080E0089584EF9FEFFE
:1020800008958F929F92AF92BF92CF92DF92EF927C
:10209000FF920F931F93CF93DF9300D000D000D017
:1020A0001F92CDB7DEB71A86198618861F821E8248
:1020B0001D821C821B821A82198280917D0307EF88
:1020C0001FEF882309F49CC08E010D5F1F4F9E01F6
:1020D0002B5F3F4FAE01495F5F4FBE01675F7F4F90
:1020E00090E080E00E9424208C01009721F005966A
:1020F000029708F0DBC029853A852115310509F4DE
:1021000002C1ED80FE804B815C81B701640F751FB9
:102110008F8198858617970708F4F5C0E20EF31EA5
:10212000D7019C91903C09F07FC04230510508F4E2
:102130007BC011968C9140917B0350917C03452B81
:1021400009F49CC0913F08F071C02CE1290F2D309B
:1021500008F48BC02DE2290F203108F489C0903C8F
:1021600021F48150823008F483C088E3890F8B30DA
:1021700008F481C09DE9C92E9FE0D92EE7E8FFE071
:102180006D817E81AE014F5F5F4F89859A8519957C
:102190005C01C114D104A1F189809A808114910459
:1021A00079F18B819C818815990508F487C010E02E
:1021B00000E04B815C8170E060E0C7010E949635D1
:1021C00001151105E9F449815A8169857A858D8166
:1021D0009E81680F791FC501F6011995E980FA8083
:1021E0000D811E812F81388549855A856FEF7FEFDC
:1021F00081E090E00E94BF1F8C01892B09F056C03E
:10220000C8012A960FB6F894DEBF0FBECDBFDF918E
:10221000CF911F910F91FF90EF90DF90CF90BF90E3
:10222000AF909F908F90089580E085CF30E020E0C0
:10223000220F331FF901E159FC4F0190F081E02D8D
:10224000309709F497CF892F90E01995009709F4FA
:1022500091CFDC011296ED91FC9113971496CD90DD
:10226000DC90309709F08CCF1FC021E030E0E0CF48
:1022700022E030E0DDCF23E030E0DACFD12CC12CFA
:10228000EFE8FFE09F3F09F07BCFE0916F03F09113
:102290007003309721F4C90104EF1FEF0CC08FEFDA
:1022A00090E019950097A9F604EF1FEF89859A85AC
:1022B000009709F4A5CF0E942222A2CF0E94EE200F
:1022C0008C0189859A850E94222270E060E0C40119
:1022D0000E94872098878F830E94BC1F9E838D83D6
:1022E0006F8178856115710559F0C8010E94AE2390
:1022F0009A87898706EF1FEF892B09F058CF59CFAE
:1023000008EF1FEF56CF08EF1FEFD0CF20917D03CE
:10231000222319F020E00C94381A87EF9FEF0895DC
:1023200080917B0390917C0308950E94AC1E0E94D3
:10233000061EF5D0EFE6F3E088E0DF011D928A95F6
:10234000E9F710927D0390E080E008950C94661CFC
:1023500021E040E050E0BA010C94381A86E090E0A9
:10236000FA019183808390E080E0089547E050E097
:1023700068E272E049CEDF92EF92FF920F931F93D3
:10238000CF93DF938A01EC01C60FD71FE090810342
:10239000F0908203D9800E94D620D816190678F0D2
:1023A00082E090E0F801918380838EEF9FEFDF91D0
:1023B000CF911F910F91FF90EF90DF900895EF283C
:1023C00041F482E090E0F8019183808384EF9FEFF5
:1023D000EECF89818093800390E00196F80191838C
:1023E000808390E080E0E3CFCF93DF93EA010E9407
:1023F000171D882321F00E94E3200E94181D82E00F
:1024000090E0998388838BEF9FEFDF91CF910895C0
:10241000CF93DF93EB0186E0FB0111928A95E9F7F8
:102420008FEF8883D8DD8983E7DD8A83E8DD9D83AC
:102430008C83DF91CF910895CF93DF93EA010E94BF
:102440001A1D811109C082E090E09983888385EF8D
:102450009FEFDF91CF91089590E080E0B7DD81E0BC
:1024600090E09983888390E080E0F3CF0F931F93EF
:10247000CF93DF93EA018C01060F171F0E941A1DEC
:1024800081110BC082E090E09983888385EF9FEFF4
:10249000DF91CF911F910F910895F80181818230D2
:1024A00038F082E090E0998388838EEF9FEFF0CF41
:1024B00081E090E08BDD88E090E09983888390E074
:1024C00080E0E6CFCF93DF930097D1F4EB01FB01DF
:1024D000329686E0DF011D928A95E9F78FEF8883B7
:1024E00085E089831A820E94D6208B830E94D520A2
:1024F0009D838C8381E08E838F83DF91CF910895BC
:10250000DF91CF911ACD86EB91E190937F03809379
:102510007E03089580917E0390917F030895109229
:102520007F0310927E03089580918103909182032E
:102530000895411105C0611571058105910561F08E
:102540006093810370938203809383039093840349
:102550004093850381E0089580E00895FF920F93F2
:102560001F93CF93DF938A01EC01C60FD71FF98029
:102570000E94D620F816190668F082E090E0F80173
:10258000918380838EEF9FEFDF91CF911F910F9109
:10259000FF9008956C817D818E819F814B81C9DF81
:1025A000811108C082E090E0F8019183808384EF7C
:1025B0009FEFEACF89818093800390E00196F80134
:1025C0009183808390E080E0DFCFCF93DF93EA01B7
:1025D000FC01E60FF71F6481758186819781438135
:1025E000A8DF811109C082E090E09983888384EF9D
:1025F0009FEFDF91CF91089581E090E099838883E8
:1026000090E080E0F6CFE1E8F3E040815181628123
:102610007381480F511D611D711D40835183628379
:1026200073830895CF93C09180034C2F50E0609145
:1026300081037091820301960E948D358C2FE3DF18
:1026400010928003CF910895009799F480918103AF
:10265000909182032FEFFB012083892B59F0209169
:10266000800330E02F5F3F4F2417350719F4CB016B
:10267000D9CF63CC0895009799F48091810390910C
:1026800082032FEFFB012083892B59F020918003D7
:1026900030E02F5F3F4F2417350719F4CB01C2CF2D
:1026A0004CCC089523E1AC01249FC001259F900DDF
:1026B0001124E0918A03F0918B03E80FF91F238125
:1026C00034812250310981E02230310508F080E068
:1026D00008950F931F93CF93DF9300918C03109174
:1026E0008D03D0E0C0E080E00C171D0749F491E0B5
:1026F000811190E0892FDF91CF911F910F91089563
:102700008111F5CFCE01CEDF2196EECFA0918A03C5
:10271000B0918B03109729F120918C0330918D0398
:1027200082179307F0F453E1589F9001599F300DA1
:102730001124A20FB31FED91FC911197309789F0EE
:1027400012968C91681768F48BE0689FE00DF11D7C
:10275000112480819181892B21F081E09281491798
:1027600008F080E008959C0143E1429FC001439F2F
:10277000900D1124E0918A03F0918B03E80FF91F6B
:102780008385823091F481E090E06581768140918B
:102790001102509112026417750711F490E080E065
:1027A000892B19F081E0232B09F080E00895EF9246
:1027B000FF920F931F93CF93DF93EA01FC01E60F83
:1027C000F71F02811381E480F5804F2D6E2DC80123
:1027D0009DDF81110DC082E090E0998388838EEFA8
:1027E0009FEFDF91CF911F910F91FF90EF90089590
:1027F000C80158DF882339F082E090E0998388830C
:1028000088EF9FEFEECF1093180200931702E0922B
:102810001902F0921A0281E090E09983888390E097
:1028200080E0DFCFCF92DF92EF92FF920F931F9362
:10283000CF93DF937A01EC01C60FD71FC090170228
:10284000D09018020091190210911A02412F602FA6
:10285000C6015CDF811110C082E090E0F701918336
:1028600080838AEF9FEFDF91CF911F910F91FF90AF
:10287000EF90DF90CF900895C60114DF882341F0D8
:1028800082E090E0F7019183808388EF9FEFEBCFA8
:102890004C815D816E817F819A8189818F3F41F07A
:1028A00082E090E0F701918380838EEF9FEFDBCF92
:1028B000E3E1EC9D9001ED9D300D1124E0918A0340
:1028C000F0918B03E20FF31F0190F081E02D2BE0DC
:1028D000029FE00DF11D11240190F081E02D27E011
:1028E000129FE00DF11D1124808391838B818283DF
:1028F00043835483658376831F5F10931A0281E0BC
:1029000090E0F7019183808390E080E0ACCFEF927C
:10291000FF920F931F93CF93DF937A018C01060FE1
:10292000171FC0918A03D0918B03209781F021E07B
:1029300030E0F8018281938140918C0350918D03A6
:102940008417950710F030E020E0232B71F482E02B
:1029500090E0F701918380838EEF9FEFDF91CF911D
:102960001F910F91FF90EF90089543E1489F9001D0
:10297000499F300D1124C20FD31F94DE882341F0EC
:1029800082E090E0F7019183808388EF9FEFE6CFAC
:10299000F8012481358120383105C8F687818111FD
:1029A000D6CF4181842F90E08F7E009741F082E066
:1029B00090E0F7019183808386EF9FEFCFCF4F8325
:1029C0003E832D83268128871986223010F421E04A
:1029D000288721E030E0F70131832083BFCF88E0F2
:1029E00090E0FA019183808390E080E00895FB01FC
:1029F0008FEF808381E181838FEF9FEF93838283C9
:102A000080E890E095838483168217820895FB0105
:102A10008FEF808391E0918382839383848384E327
:102A2000858381E090E0978386830895DF92EF921B
:102A3000FF920F931F93CF93DF93EA01FC01E60F00
:102A4000F71F8181813071F082E090E09983888363
:102A50008FEF9FEFDF91CF911F910F91FF90EF903C
:102A6000DF90089582819381D4802581E680F7806C
:102A700000918A0310918B030115110539F482E04E
:102A800090E0998388838CEF9FEFE4CF40918C0393
:102A900050918D038417950738F082E090E0998378
:102AA00088838EEF9FEFD6CF892B39F082E090E0BC
:102AB0009983888386EF9FEFCDCF8D2D8D7FB1F7E2
:102AC0002130A1F781E0D11006C091E0E916F104B0
:102AD00031F080E004C0E2E0EE16F104D0F3882388
:102AE00029F390E080E0DEDD882339F082E090E099
:102AF0009983888388EF9FEFADCFF801D38681E07B
:102B00008487F686E586108A178681E090E09983AF
:102B1000888390E080E09ECF4CE050E062E572E078
:102B200073CA8F929F92BF92CF92DF92EF92FF92E1
:102B30000F931F93CF93DF93EA01FC01E60FF71F7A
:102B4000828193810481B580E0918A03F0918B03A7
:102B5000309791F482E090E0998388838CEF9FEF27
:102B6000DF91CF911F910F91FF90EF90DF90CF9069
:102B7000BF909F908F90089520918C0330918D038A
:102B80008217930738F082E090E0998388838EEF74
:102B90009FEFE6CF23E1289F6001299FD00C1124ED
:102BA000EC0DFD1DE080F180E114F10499F28281C9
:102BB000081748F78BE0089F80011124E00EF11EF2
:102BC000F70180819181892B29F6BB20E1F2F7E0A2
:102BD000BF9E40011124C4010E94D321F7019183BB
:102BE0008083E0918A03F0918B03EC0DFD1D019031
:102BF000F081E02DE00FF11F80819181009739F481
:102C000082E090E0998388838DEF9FEFA9CFA401A4
:102C100070E060E00E94963580918A0390918B036A
:102C2000C80ED91EF60180819181080F191FF80185
:102C3000B28281E090E09983888390E080E090CF39
:102C4000AF92BF92CF92DF92FF920F931F93CF93D9
:102C5000DF93EA01FC01E60FF71F82819381F48084
:102C600000918A0310918B030115110581F482E014
:102C700090E0998388838CEF9FEFDF91CF911F9134
:102C80000F91FF90DF90CF90BF90AF90089520916B
:102C90008C0330918D038217930738F082E090E027
:102CA000998388838EEF9FEFE8CF2FEF2F0D2C3F76
:102CB000A8F723E1289F6001299FD00C11240C0D57
:102CC0001D1DF80180819181892B89F6FBE0FF9E13
:102CD00050011124C5010E94D321F8019183808302
:102CE000E0918A03F0918B03EC0DFD1D80819181B1
:102CF000009739F482E090E0998388838DEF9FEF0D
:102D0000BCCFA50170E060E00E949635E0918A0397
:102D1000F0918B03EC0DFD1DF28281E090E0998330
:102D2000888390E080E0A9CFCF92DF92EF92FF926C
:102D30000F931F93CF93DF93860F971FFC010281A0
:102D4000138180918A0390918B03892B81F082E01B
:102D500090E0FA01918380838CEF9FEFDF91CF9118
:102D60001F910F91FF90EF90DF90CF900895C801D1
:102D7000B0E0A0E00197A109B1098F3F9F4FA105E5
:102D8000B10540F082E090E0FA01918380838EEFFC
:102D90009FEFE4CF7A0183E1809F6001819FD00C97
:102DA0001124C6010E94D321EC01009741F482E076
:102DB00090E0F701918380838DEF9FEFCFCFA60145
:102DC00070E060E00E949635D0938B03C0938A0335
:102DD00010938D0300938C0390E080E02FEF3FEF82
:102DE00041E061E070E08017910741F481E090E0FC
:102DF000F7019183808390E080E0B0CF3A8B298BFC
:102E00001B864C877E876D87188A1F86019663967E
:102E1000EACFCF92DF92EF92FF920F931F93CF935F
:102E2000DF93EC01D12CC12C10E000E0F12CE12C5F
:102E30006A816017110609F0CCF483E0689FB00145
:102E40001124AE014F5E5F4FC7010E944E220097D2
:102E500021F02FEF3FEF3A8B298BDF91CF911F911C
:102E60000F91FF90EF90DF90CF900895E881F98166
:102E7000EC0DFD1D438154818D859E85489F9001F9
:102E8000499F300D589F300D1124C901019601153D
:102E9000110519F44F8144FD049661E070E00E9431
:102EA0008720E816F90608F47C010F5F1F4F8BE0BE
:102EB000C80ED11CBDCFF8942091880330918903AE
:102EC00081E02115310509F080E0232B09F0789489
:102ED00008952F923F924F925F926F927F928F92BE
:102EE0009F92AF92BF92CF92DF92EF92FF920F9399
:102EF0001F93CF93DF933C01660E771EF30182810F
:102F000093814C01B12CA12CC0918A03D0918B03E9
:102F1000209769F021E030E060918C0370918D037F
:102F20008617970710F030E020E0232BD1F482E0E1
:102F300090E0FA01918380838EEF9FEFDF91CF9134
:102F40001F910F91FF90EF90DF90CF90BF90AF90C7
:102F50009F908F907F906F905F904F903F902F90B9
:102F6000089580921B0290921C02A0921D02B092C2
:102F70001E0263E1689F9001699F300D1124C20F0A
:102F8000D31FF3018181833040F082E090E0FA01A9
:102F90009183808386EF9FEFD1CF2A012B813C81E3
:102FA000232BF1F4288139819F8191FF2EC0232B9F
:102FB00009F46FC020918F039A81422F490F552742
:102FC000551FBA0141E050E06138710514F050E03E
:102FD00040E0452B09F45DC02A87920F90938F0340
:102FE0008150823008F481C066DF882309F4D6C09E
:102FF000F3018181813009F48DC008F47BC08230F7
:1030000009F4C4C090E080E0ADC0232B09F441C0B6
:1030100020918E039A81E22FE90FFF27FF1F41E0E5
:1030200050E0ED3FF10514F050E040E0452B89F110
:103030002A87920F90938E03D3CFA081B181A20FE4
:10304000B31F11966C91060F111D0196295F3F4F1A
:103050008417950794F38D859E85089F1001099F1D
:10306000300C189F300C1124C114D104D1F48F817D
:1030700084FF17C00E94D520F5E02F0E311C21E0FF
:103080008215930508F420E0A701455F5F4F2111E9
:103090000EC082E090E0F2019183808387EF9FEF82
:1030A0004DCF0E94D5202FEF221A320AE8CF888117
:1030B0009981E80EF91EF70114830383FFEFCF1AFD
:1030C000DF0A7A018A818C151D0409F00CF48CCF7B
:1030D000E881F981EE0DFF1D428150E030E020E0F3
:1030E00010E000E090E080E0B3CFF12CE12CD12C97
:1030F000C12CE8CF81E090E09C838B83EADA8823BF
:1031000009F480CF81E090E00E94E60F80E40E9405
:10311000F40F78CF89899A89019661F083E090E075
:103120009C838B8382E090E00E94E60F80E40E9403
:10313000EE0F68CF2D813E81809111029091120295
:1031400028173907D1F46091150270911602AE016B
:103150004F5E5F4F80911302909114020E946D2385
:103160000097E1F2789422E030E0F201318320838D
:10317000892B89F08DEF9FEFE1CE89288A288B2853
:1031800069F6CE0146DE188A1F86EACF82E090E01B
:103190009C838B8337CF90E080E0D0CE82E090E0BC
:1031A000F2019183808385EF9FEFC8CE8F929F922B
:1031B000AF92BF92CF92DF92EF92FF920F931F9345
:1031C000CF93DF93EA018C01060F171FF80181816D
:1031D000833098F082E090E09983888386EF9FEFB8
:1031E000DF91CF911F910F91FF90EF90DF90CF90E3
:1031F000BF90AF909F908F90089580918A03909197
:103200008B03892B61F081E090E020918C03309159
:103210008D03232B11F490E080E0892B39F482E0B8
:1032200090E0998388838EEF9FEFDACF44DE882386
:1032300009F4DDC0F8018181813009F493C0E8F020
:10324000823099F420918C0330918D03E0918A03B0
:10325000F0918B0390E080E041E050E028173907BF
:1032600009F0BBC036DA811117C0789481E090E094
:103270009983888390E080E0B3CF20918C033091D4
:103280008D03E0918A03F0918B0390E080E041E0B0
:1032900050E02817390741F481E090E00E94E60FE2
:1032A00080E40E94F40FE1CF63817481672B11F0F9
:1032B0005483438301967396ECCFE0918A03F09197
:1032C0008B03E00FF11F2381348122303105D9F4C3
:1032D000218932892F3F3F4FB1F44581568120919A
:1032E0001102309112024217530761F5AF014F5E90
:1032F0005F4F6091150270911602809113029091B8
:1033000014020E946D23EFEFCE1ADE0AEE0AFE0AC7
:103310000D5E1F4F40918C0350918D0370E060E073
:10332000C416D506E606F7062CF5009731F2789418
:10333000892B09F49BCF82E090E0998388838DEFFD
:103340009FEF4ECFC114D104E104F104E1F6CF01A7
:1033500060DDE0918A03F0918B03E00FF11F108A8A
:103360001786D1CF10E000E090E080E0C12CD12C96
:103370007601D0CF0097D9F610E000E0812C912C97
:10338000540183E0E82EF12C1AC0E0918A03F091F9
:103390008B03E00FF11F83819481029749F4F4823B
:1033A000E38282E090E00E94E60F80E40E94EE0F4C
:1033B000FFEF8F1A9F0AAF0ABF0A0D5E1F4F809161
:1033C0008C0390918D03B0E0A0E088169906AA06C0
:1033D000BB06DCF290E080E0AACF638174816230AA
:1033E000710511F4548343830196739637CF82E0BD
:1033F00090E09983888385EF9FEFF2CE0097B9F430
:103400008FEFFB01808320911B0230911C0243E16E
:10341000429FC001439F900D1124E0918A03F091D7
:103420008B03E80FF91F8285FB01818308950C94BB
:103430009D0F88E090E0FA019183808390E080E026
:1034400008951092890310928803EAE8F3E086E079
:10345000DF011D928A95E9F78CE895E19093870347
:103460008093860308958091860390918703089541
:103470002F923F924F925F926F927F928F929F9284
:10348000AF92BF92CF92DF92EF92FF920F931F9372
:10349000CF93DF93CDB7DEB760970FB6F894DEBF5A
:1034A0000FBECDBFF894E0918803F0918903319667
:1034B000F0938903E09388037894A0918A03B091F4
:1034C0008B03BA83A983109709F4FAC1E0918C03A6
:1034D000F0918D03EF2B09F4F3C128874B875C87AC
:1034E0006D877E879A878987B88BAF87312C212C8F
:1034F000F12C512C412C80918C0390918D03281636
:10350000390610F4FF2029F1F894809188039091F6
:103510008903019790938903809388037894C2016B
:1035200060960FB6F894DEBF0FBECDBFDF91CF918E
:103530001F910F91FF90EF90DF90CF90BF90AF90D1
:103540009F908F907F906F905F904F903F902F90C3
:103550000895B10190E080E086D4682EEF85F88967
:10356000878181FD3DC0838194810397C9F52581C1
:1035700036813C832B8389859A852817390781F505
:10358000C101F1D8782E8823A9F1AF85B8891F969B
:103590008D919C915097019621E01D964D915C91E3
:1035A0008417950709F020E02F83B12CA12CEF851B
:1035B000F88982818A151B0419F014F0FF20E9F0C4
:1035C000F885FF2309F46CC1AF85B88950961C9229
:1035D0001E921F97662021F0B10190E080E045D453
:1035E000FFEF2F1A3F0A2F8538892D5E3F4F388B0A
:1035F0002F8781CFB1E0BF83D8CFBED49E838D8388
:10360000E885EE23E9F0772009F43CC1AF85B8895D
:103610001F968D919C91892B79F0BBE0BA9DC001DA
:10362000BB9D900D1124AF85B889ED91FC91E80FF9
:10363000F91F8581968106D7BFEFAB1ABB0AB7CFBA
:1036400081E0772039F0EF85F88927853089232BB1
:1036500009F080E0F82EE12CA114B10439F4AF8513
:10366000B8891796EC90E4FAEE24E0F8BBE0BA9D36
:103670006001BB9DD00C1124882309F424C1AF85BF
:10368000B889ED91FC911197EC0DFD1D438154819A
:103690001D962D913C91429FC001439F900D529FDA
:1036A000900D1124E1105DC001969087878361E041
:1036B00070E0878190852BD5EF85F8892189328943
:1036C000008111810C0D1D1D2F3F320709F44BC0E5
:1036D000BC01C9010E94AE23D80116969C938E931B
:1036E0001597AF85B889ED91FC911197EC0DFD1DF3
:1036F000058116810115110509F4CDC0ED81FE810A
:103700000E0F1F1F1A968C918A0DD8018C93E11011
:103710002FC00F5F1F4FAF85B889ED91FC91EC0D65
:10372000FD1D12870187AF85B889ED91FC91EC0DE5
:10373000FD1D85819681892B09F4A4C08091110219
:10374000909112022B813C812817390709F465C03A
:10375000772011F001851285912C812C1A82198213
:103760004AC00596A2CF1FD6F80196838583B9CFAC
:103770008B859C85AD85BE85F80181839283A3836B
:10378000B4830B5F1F4FC7CFE080F180E80CF91CBA
:10379000D70113966D917C9114978C918F3F09F40A
:1037A00073C0E1E0F0E002C0EE0FFF1F8A95E2F780
:1037B000CF01092E000CAA0BBB0BFB0140815181EC
:1037C0006281738184239523A623B72321E0892B6B
:1037D0008A2B8B2B09F420E0D8012C93D70111966A
:1037E0008C91080F111DE981FA813196FA83E983E2
:1037F000F7E08F0E911CAF85B889ED91FC91EC0D2F
:10380000FD1D828129813A818217130611F00CF087
:10381000BBCF772011F0128701873F81332391F1CD
:10382000AF85B889ED91FC91EC0DFD1D61E070E074
:10383000878190856CD4AF85B889ED91FC91EC0DB2
:10384000FD1DE780F08445815681E1E0F0E06620CF
:1038500011F0F0E0E0E00D811E819C01B1018827AC
:1038600099278E1B9F0B8BD32C01892B59F0EF8549
:10387000F88980819181C80ED91ED60115968D9147
:103880009C91E0D5F12CD8CEF701418150E0C801E0
:103890000E948D35A3CF86EF482E55245A94CCCE66
:1038A000EF85F889878590890196908B8787258594
:1038B00036858217930709F08DCE108A17868ACE37
:1038C000512C412C21CE10E000E02DCF2F923F92C1
:1038D0004F925F926F927F928F929F92AF92BF9220
:1038E000CF92DF92EF92FF920F931F93CF93DF93CC
:1038F00080918A0390918B0310E000E0892BA9F05E
:10390000DADA0AEF1FEF882381F020908C033090E1
:103910008D03C0918A03D0918B03D12CC12C10E070
:1039200000E02C143D04A9F47894C801DF91CF91F4
:103930001F910F91FF90EF90DF90CF90BF90AF90CD
:103940009F908F907F906F905F904F903F902F90BF
:103950000895C6010E94B313882309F18B819C81CD
:103960000397E9F48F859889892BC9F0B60190E017
:1039700080E079D221E030E0882311F030E020E0CF
:1039800044245524421A530AB12CA12C912C812C89
:103990008A818815190409F038F4188A1F864FEFB8
:1039A000C41AD40A6396BDCFE881F981EA0DFB1DE4
:1039B00085819681892BA1F161E070E087819085F6
:1039C000A6D33C01D9D28C01E881F981EA0DFB1D17
:1039D0008185928525813681200F311FAC01421BE4
:1039E000530B9A0147815085421B530B70E060E0F6
:1039F0000E949635E881F981EA0DFB1DE780F0848D
:103A0000458156819301B601C201B9D28C01892B3F
:103A100039F0E881F981EA0DFB1D8581968112D587
:103A20005FEF851A950A8BE0A80EB11CB1CF43CA8F
:103A3000789408952F923F924F925F926F927F9267
:103A40009F92AF92BF92CF92DF92EF92FF920F932D
:103A50001F93CF93DF9300D000D0CDB7DEB7009196
:103A60008A0310918B03992493940115110509F48D
:103A70003EC0A0908C03B0908D031DDA982E882351
:103A8000B1F110928B0310928A0310928D03109261
:103A90008C0310928E0310928F038FEF9FEFDC0147
:103AA00080931B0290931C02A0931D02B0931E02F0
:103AB00078947DD31E830D83C12CD12C7601C50152
:103AC000B0E0A0E089839A83AB83BC8322242A944C
:103AD000322C89819A81AB81BC81C816D906EA064D
:103AE000FB06F4F0C801AED480E40E94F40F892DE7
:103AF00026960FB6F894DEBF0FBECDBFDF91CF91F3
:103B00001F910F91FF90EF90DF90CF90BF90AF90FB
:103B10009F907F906F905F904F903F902F9008956F
:103B2000AD81BE8115962D913C9116978091110221
:103B30009091120228173907D1F451968D919C91DA
:103B4000FBD5ED81FE8180819181B12CA12C412C8E
:103B5000512C3201892B79F5BFEFCB1ADB0AEB0A26
:103B6000FB0AED81FE817396FE83ED83B2CFC11413
:103B7000D104E104F10429F7ED81FE818189928964
:103B80008F3F980709F038D5AD81BE8152963C929F
:103B90002E925197D6CF8A0D9B1DDC018D919C9161
:103BA000009709F04FD4BFEF4B1A5B0A6B0A7B0AF0
:103BB000EBE0AE0EB11CAD81BE818D919C91119751
:103BC00012964C9150E070E060E04416550666068F
:103BD00077060CF337D4C0CFCF93DF93EA012ADF07
:103BE000811109C082E090E09983888385EF9FEF7F
:103BF000DF91CF91089581E090E00E94E60F81E08F
:103C000090E09983888390E080E0F2CF13DF1092F8
:103C1000870310928603089542E050E06AE972E05B
:103C20000C940410FF920F931F93CF93DF938A019C
:103C3000EC01C60FD71FF980B9D20897F8161906FC
:103C400071F068F082E090E0F801918380838EEF5C
:103C50009FEFDF91CF911F910F91FF9008956C819D
:103C60007D818E819F814B810E949912811108C0B4
:103C700082E090E0F8019183808384EF9FEFE9CFA9
:103C8000F9800E9494124F2D50E0BE01685F7F4F73
:103C90000E948D3589810E94031381E090E0F80134
:103CA0009183808390E080E0D4CFDF92EF92FF9207
:103CB0000F931F93CF93DF938A01EC01C60FD71F99
:103CC0000E9494127C01D98071D2DD2059F00297B4
:103CD00021E030E0D816190619F010F030E020E0AD
:103CE000232B79F482E090E0F801918380838EEFBA
:103CF0009FEFDF91CF911F910F91FF90EF90DF9099
:103D00000895EF2841F482E090E0F80191838083E8
:103D100084EF9FEFEECFF9800E9494124F2D50E078
:103D2000BE016E5F7F4F0E948D3589810E94031313
:103D300081E090E0F8019183808390E080E0D9CF2A
:103D40008CE09EE19093910380939003089580917D
:103D500090039091910308950895FC0111821082BF
:103D6000938382830895DB011D921C92DC011296DD
:103D7000ED91FC9113977183608313967C936E93FE
:103D800012970895FC0180819181DB018D939C93B2
:103D9000A081B181109741F08D919C919183808396
:103DA000892B11F4F383E2830895FC0180819181D2
:103DB000DB018D939C93892B11F473836283718350
:103DC00060830895FC011182108293838283089599
:103DD000CF93DF931F921F92CDB7DEB71A8219825D
:103DE000F894BE016F5F7F4F87E993E0CBDF898155
:103DF0009A81009709F026D389819A81892B89F7C6
:103E0000BE016F5F7F4F8BE993E0BCDF89819A81B0
:103E1000009709F017D389819A81892B89F77894C3
:103E20000F900F90DF91CF910895CF93DF931F9262
:103E30001F92CDB7DEB71A821982F894BE016F5F68
:103E40007F4F83E993E09EDF89819A81009709F093
:103E5000F9D289819A81892B89F778940F900F90F4
:103E6000DF91CF91089581E0089590E080E008957A
:103E7000EF92FF920F931F93CF93DF931F921F92A6
:103E8000CDB7DEB71A8219828091920307EF1FEF38
:103E90008823A1F1F894BE016F5F7F4F8BE993E017
:103EA00071DF789489819A81EE24E394F12C892B37
:103EB00051F4F894BE016F5F7F4F87E993E062DFB2
:103EC0007894F12CE12C89819A810EEF1FEF0097F5
:103ED000A9F0FC014281538164E070E03FD68C017F
:103EE000892B61F0F89469817A81C701880F991F45
:103EF000880F991F89569C4F58DF7894C8010F90FE
:103F00000F90DF91CF911F910F91FF90EF90089547
:103F10000F931F93CF93DF9300D01F92CDB7DEB7DF
:103F20001C821B821A8219828091920307EF1FEF75
:103F30008823C1F0AE014D5F5F4F64E070E0CE01B9
:103F400001967FD68C01892B69F4E981FA818B81F6
:103F50009C8193838283F89469817A8183E993E0D9
:103F600002DF7894C8010F900F900F900F90DF91AF
:103F7000CF911F910F91089584D7049608958F9241
:103F80009F92AF92BF92CF92DF92EF92FF920F93E8
:103F90001F93CF93DF931F921F92CDB7DEB71A8284
:103FA0001982BC016F5F7F4F6330710598F0AA24BE
:103FB000AA94BA2CC5010F900F90DF91CF911F9159
:103FC0000F91FF90EF90DF90CF90BF90AF909F90B8
:103FD0008F9008954115510551F3480159018A0107
:103FE0006C01CADF8815990511F7E114F104F9F2A3
:103FF0008E0D9F1DA816B906D0F2809192038823DA
:10400000F1F0F894B501645071099701AE014F5F6A
:104010005F4FC8010496AAD65C01892B71F489818F
:104020009A81F80193838283C601880F991F880FB4
:10403000991FB80189569C4F96DE7894BBCF87EFC5
:10404000A82EBB24BA94B6CFAF92BF92CF92DF9284
:10405000EF92FF920F931F93CF93DF931F921F92C4
:10406000CDB7DEB71A821982892B09F047C06115D6
:10407000710509F443C04115510509F43FC02115EC
:10408000310509F43BC001151105C1F1809192037E
:104090008823B9F179016A015B01F894BE016F5F71
:1040A0007F4F83E993E06EDE789489819A8100974F
:1040B00059F1DC0112966D917C91A80104966FD69E
:1040C0008C01E981FA81D501ED93FC938281938182
:1040D0000496F601918380834FDFD7018D939C93E3
:1040E000C8010F900F90DF91CF911F910F91FF901A
:1040F000EF90DF90CF90BF90AF9008950FEF1FEF3C
:10410000EFCF07EF1FEFECCF0EEF1FEFE9CFCF930D
:10411000DF93EC01672B71F4BDD68C179D0760F01F
:10412000B0D62496C80FD91FAFD68C0F9D1FDF9134
:10413000CF910895ACD6F1CF90E080E0F8CF0F9307
:104140001F93CF93DF932091920321112BC08B01FA
:10415000EC0187E993E001DE8BE993E0FEDD83E982
:1041600093E0FBDD97D00097C1F494D670E060E057
:10417000CEDF4FE152E062E070E090D1009769F449
:1041800080911F029091200297D6B801CE01CCD425
:10419000009719F421E020939203DF91CF911F91B2
:1041A0000F91089584EF9FEFF8CF71C673C6CF9338
:1041B000DF9373D6EC01892B11F40ADE36DECE01D3
:1041C000DF91CF910895CF93DF9367D6EC01892BD0
:1041D00009F4FEDDCE01DF91CF91089580911F0299
:1041E000909120020895CF93DF9380919203D0E0C5
:1041F000C0E08823D1F065D6EC01892BB1F4E8DD6D
:1042000014DE80911F0290912002F6D1F7D2EC01CA
:10421000892B59F487E993E0D5DD8BE993E0D2DD72
:1042200083E993E0CFDD10929203CE01DF91CF912D
:104230000895EF92FF920F931F93CF93DF93EC01BA
:104240007A018B010F5F1F4F0E9DA0010F9D500D36
:104250001E9D500D112470E060E00E94963590E0A4
:1042600080E0F0E0E0E02FEFE816F90639F4DF91A6
:10427000CF911F910F91FF90EF9008951A821982AC
:104280002883309711F0D283C1830196FE01C00FBD
:10429000D11FEACFCF92DF92EF92FF920F931F933D
:1042A000CF93DF9308EE15E00C7F86EAE82E82E0DC
:1042B000F82E9CEAC92E92E0D92ECFE7D6E0D7019E
:1042C0004D915D917D01F601619171916F011983AD
:1042D00008835D834C835B834A837F836E839B016A
:1042E0002F5F3F4F249FC001259F900D349F900D5D
:1042F0001124998788870115110511F0C80199DFEC
:1043000088859985080F191F2A96FCEAEF16F2E0B6
:10431000FF06A9F6E1EAF3E084E492E0DF019C0104
:104320001D9221503040E1F71092A00310929F039C
:1043300010929E0610929D061092A2061092A1065F
:104340001092A00610929F061092A4061092A30647
:104350001092A6061092A5061092A8061092A70623
:104360001092AC061092AB061092AA061092A90603
:104370001092AE061092AD061092B0061092AF06E3
:1043800010927C0610927B0610927E0610927D069B
:1043900090E080E0DF91CF911F910F91FF90EF901F
:1043A000DF90CF9008950097A1F1F89481329105A4
:1043B00050F48091810690918206892B39F020E09B
:1043C00090E080E019C08133910550F480918B0614
:1043D00090918C06892B39F021E081E090E00CC0AF
:1043E00081349105A8F48091950690919606892BC9
:1043F00079F022E082E090E0EAE0E89FD001E99FD6
:10440000B00D1124A158B94F8D919C91009721F4C2
:10441000789490E080E00895E29FF0011124E15843
:10442000F94FDC0111964D915C915183408342819B
:1044300053814150510953834283FC012193CF01A1
:1044400078940895009749F1DC018E91853041F40C
:10445000E0917D06F0917E063097F9F0CD01199438
:104460008530D8F4282F30E0F8948FEF8C938AE0D1
:10447000829FF001839FF00D1124E158F94F808154
:10448000918112969C938E931197B183A083828120
:10449000938101969383828378940895CF92DF92DB
:1044A000EF92FF920F931F93CF93DF939C0184EAC7
:1044B00093E08C7F4115510509F49BC0211531050E
:1044C00009F497C06115710509F493C07A01AB0135
:1044D000B9016D5F7F4F6C7F9B012F5F3F4F249F22
:1044E0008001259F100D349F100D1124F894209108
:1044F0009D0630919E06232B59F42091A5063091FC
:10450000A6062115310569F12017310708F058C0BA
:104510002091A7063091A806232B91F42091A5069F
:104520003091A606820F931F2091AF063091B006FE
:104530002115310509F441C02017310708F056C094
:104540007894CFEFDFEF86EF9FEFF701D183C08341
:10455000DF91CF911F910F91FF90EF90DF90CF905F
:104560000895C3E0D0E0C0909F03D090A00321E461
:1045700032E02C193D092017310710F32AE02C9F57
:10458000F0012D9FF00D1124E158F94F91838083A4
:1045900055834483538342837783668311870087DF
:1045A000009709F046DE0C0D1D1D1093A00300932B
:1045B0009F03789490E080E0C8CFC4E0D0E0D3CFF0
:1045C000C3E0D0E02AE02C9FF0012D9FF00D1124D4
:1045D000E158F94F91838083558344835383428309
:1045E00077836683009729F324DEE3CFC4E0D0E02D
:1045F000E9CF8FEF9FEFACCF9C010397029708F0B4
:1046000069C0F89484E09AE0482F50E024173507F9
:104610000CF44DC091E08AE0829FF001839FF00D81
:104620001124E158F94F11821082158214821382ED
:104630001282178216829923B1F18091A706909178
:10464000A806892BA9F42091AF063091B006211558
:10465000310571F080919F039091A003821B930B11
:104660009093A00380939F031092B0061092AF0620
:1046700080919D0690919E06892BA9F42091A50614
:104680003091A6062115310571F080919F0390911C
:10469000A003821B930B9093A00380939F0310921F
:1046A000A6061092A506789490E080E00895949F65
:1046B000F001959FF00D1124E158F94F408151818F
:1046C000452B31F440855185452B11F481509CCF09
:1046D00090E0A1CF8FEF9FEF08954115510549F16B
:1046E000009739F16115710521F1F89420917B064D
:1046F00030917C06232BB9F420917D0630917E0603
:10470000232B89F490937C0680937B0670937E061E
:1047100060937D06789425E030E090E080E0FA0137
:1047200031832083089578942FEF3FEF86EF9FEF3A
:10473000F6CF8FEF9FEF0895059769F4F8941092E4
:104740007C0610927B0610927E0610927D0678946D
:1047500090E080E008958FEF9FEF08956115710557
:1047600019F4F0E0E0E011C08530910581F4E091AA
:104770007B06F0917C063097A1F3CB010196199549
:10478000009779F3FC0185E08193CF0108959C01A6
:10479000235031092230310520F72AE0289FD0012B
:1047A000299FB00D1124A158B94F2D913C9111971B
:1047B000232BB9F216962D913C91179726173707A0
:1047C00080F2F89412962D913C91139721153105A2
:1047D00029F0ED91FC911197309711F47894C1CFA5
:1047E0004181528111965C934E9321503109139669
:1047F0003C932E93129781937894C7CFE5EEF5E022
:1048000086E9DF011D928A95E9F7E1EAF3E084E4A5
:1048100092E0DF019C011D9221503040E1F710929F
:10482000A00310929F03EFE7F6E082E3DF011D9201
:104830008A95E9F7EBE7F6E084E0DF011D928A95BF
:10484000E9F790E080E00895CF93DF93C0912102D3
:10485000D0912202CF3FDC0759F4C3D390932202B8
:104860008093210297FF09C0D0932202C0932102B6
:1048700084EF9FEFDF91CF91089590E080E0FACF31
:104880008230910528F48093B10690E080E008958D
:104890008FEF9FEF08954F925F926F927F92AF924A
:1048A000BF92CF92DF92EF92FF920F931F93CF931D
:1048B000DF931F921F92CDB7DEB71A82198200973D
:1048C00009F479C06115710509F475C020912102C0
:1048D0003091220207EF1FEF2F3F3F4F09F445C0F1
:1048E0006B015C01412C512C3201F12CE12C10E0C8
:1048F00000E09E012F5F3F4FA6014E195F09B501F1
:104900006E0D7F1D8091210290912202CED3892BC2
:1049100009F04BC089819A81009741F4E114F104B8
:1049200029F42091B106222309F442C0E80EF91EB1
:10493000EC14FD04D0F480E8481684E858068EE1B3
:104940006806710420F560E070E0CB010E948830B9
:104950002AE0420E511C611C711C0A3F4FEF1407E4
:1049600021F0043F8FEF1807A1F4C8010F900F90BA
:10497000DF91CF911F910F91FF90EF90DF90CF903B
:10498000BF90AF907F906F905F904F90089501EF30
:104990001FEF81E090E0013F2FEF120711F090E050
:1049A00080E0892B09F4A5CFE0CF04EF1FEFDDCF26
:1049B0000AEF1FEFDACF0FEF1FEFD7CF4F925F92C3
:1049C0006F927F92AF92BF92CF92DF92EF92FF925F
:1049D0000F931F93CF93DF931F921F92CDB7DEB734
:1049E0001A821982009709F479C06115710509F4DA
:1049F00075C0209121023091220207EF1FEF2F3F57
:104A00003F4F09F445C06B015C01412C512C320130
:104A1000F12CE12C10E000E09E012F5F3F4FA6013A
:104A20004E195F09B5016E0D7F1D80912102909195
:104A30002202EED2892B09F04BC089819A8100971E
:104A400041F4E114F10429F42091B106222309F480
:104A500042C0E80EF91EEC14FD04D0F480E84816BC
:104A600086E9580688E96806710420F560E070E080
:104A7000CB010E9488302AE0420E511C611C711C3F
:104A80000E3F4FEF140721F0043F8FEF1807A1F4FA
:104A9000C8010F900F90DF91CF911F910F91FF9060
:104AA000EF90DF90CF90BF90AF907F906F905F902E
:104AB0004F90089502EF1FEF81E090E0023F2FEF4B
:104AC000120711F090E080E0892B09F4A5CFE0CF28
:104AD00004EF1FEFDDCF0EEF1FEFDACF0FEF1FEF69
:104AE000D7CF80912102909122028F3F980749F001
:104AF0006FD2892B49F48FEF9FEF9093220280931E
:104B0000210290E080E0089584EF9FEF0895FC017A
:104B1000680F791F90E080E0E617F70709F4089521
:104B20002191820F911DF8CF2091B206211113C05F
:104B30008BDE009791F41092B8061092B70610928F
:104B4000B6061092B5061092B4061092B30621E094
:104B50002093B206089584EF9FEF0895AF92BF921D
:104B6000CF92DF92EF92FF920F931F93CF93DF9339
:104B7000009709F460C04630510508F45CC02091EC
:104B8000B206C7EFDFEF222309F449C08C01060FFC
:104B9000171FF801C080D180C114D10409F44EC0A0
:104BA00096012A5F3F4F4217530708F447C07C0124
:104BB0008091B7069091B80693838283B6016C5FAB
:104BC0007F4F5801A60EB71EC801A1DFF5019183E2
:104BD000808364E070E0C8015EDEEC01892BF9F4AB
:104BE00081E090E04DDEB601C801049654DEEC0190
:104BF000892B91F462E070E0C5014DDEEC01892B58
:104C000059F4C7011FDC8091B7069091B806019650
:104C10009093B8068093B70690E080E031DECE0135
:104C2000DF91CF911F910F91FF90EF90DF90CF9088
:104C3000BF90AF900895CFEFDFEFF1CFC9EFDFEF77
:104C4000EECF6F927F928F929F92AF92BF92CF9250
:104C5000DF92EF92FF920F931F93CF93DF9300D0D9
:104C60001F92CDB7DEB7009709F47AC04115510500
:104C700009F476C02091B20607EF1FEF222309F452
:104C80004DC03A017B015C0164E070E0CE01019609
:104C900095DE8C01892B09F041C009811A8101152B
:104CA000110509F45AC0480186E0880E911CB7012D
:104CB000680D791D80912302909124024FDD6C01D3
:104CC000009709F450C0A70170E060E00E9496359B
:104CD00089819A81AB81BC81EC0CFD1CF701819329
:104CE0009193A193B1937F0181E090E0C9DDB80178
:104CF000C70164DE892B31F562E070E0C701800FE7
:104D0000911F5CDE8C01892BE9F490E080E0B8DD36
:104D1000F501D182C082F30191828082C8010F9097
:104D20000F900F900F90DF91CF911F910F91FF90F7
:104D3000EF90DF90CF90BF90AF909F908F907F903B
:104D40006F90089590E080E09BDDF5011182108264
:104D5000F30111821082C60175DB09EF1FEFDECF70
:104D60000FEF1FEFDBCF06EF1FEFD8CF0097A1F0BB
:104D70004115510589F02115310571F0F90136967B
:104D80006E177F0748F0DC012D933C93DA01ED9319
:104D9000FC9390E080E008958FEF9FEF0895AF922D
:104DA000BF92CF92DF92EF92FF920F931F93CF9318
:104DB000DF93009709F45FC04115510509F45BC00A
:104DC0006530710508F457C02091B206C7EFDFEFD8
:104DD000222391F1DC01CD90DC9011971296ED9198
:104DE000FC9196012A5F3F4FC9EFDFEF2617370787
:104DF00019F5C091B306D091B406209749F521E08A
:104E000030E03093B4062093B3067A018C01F0931E
:104E1000B606E093B5065601B4E0AB0EB11CB50181
:104E200076DE0A0D1B1DF801208131818217930760
:104E300029F5D701CD92DC92CE01DF91CF911F9160
:104E40000F91FF90EF90DF90CF90BF90AF900895BB
:104E50002091B5063091B6062F5F3F4FCCEFDFEFC4
:104E6000E217F30790F2CBEFDFEF2E173F0768F260
:104E7000D0E0C0E0CACFCFEFDFEFDECFC3EFDFEF90
:104E8000DBCF84E090E0089582E090E008958CEF1D
:104E90009FEF089580E290E008951092B806109276
:104EA000B7061092B6061092B5061092B40610928C
:104EB000B30690E080E0089590932402809323024B
:104EC00008958091B206882391F00BDE009789F453
:104ED0001092B8061092B7061092B6061092B50658
:104EE0001092B4061092B3061092B206089590E0A4
:104EF00080E00895009749F06115710531F0FC01DB
:104F000011821082FB01118210820895F3CF40E8D4
:104F100055E260E070E090E080E00C9402021F92A5
:104F20000F920FB60F9211240BB60F922F933F934F
:104F30004F935F936F937F938F939F93AF93BF93A1
:104F4000EF93FF938BEC93EF9093250180932401D3
:104F5000C0D0FF91EF91BF91AF919F918F917F91C1
:104F60006F915F914F913F912F910F900BBE0F90DA
:104F70000FBE0F901F9018958BEC93EF9093250127
:104F800080932401A3E7B0E08C918E7F8C93E0E2C4
:104F9000F1E080818C7F8083E1E2F1E08081877E97
:104FA000808380818560808380818D7F80838C91E8
:104FB00081608C930895E3E7F0E0808190819E7F8B
:104FC00090838170089581E008951092B906089544
:104FD00068EE73E080E090E00E94883090E080E02E
:104FE000089526E040E052EC61E070E080E997E04F
:104FF0000E947D3280E997E00E94B331892B29F02D
:1050000080E997E00E94CD31F5CF90E080E00895EF
:10501000CF92DF92EF92FF920F931F93CF93DF9384
:105020006B017A01E9011982188280E997E00E94F8
:10503000B331892B79F18601CC24C39482E0D82E38
:105040008091B906811111C080E997E00E94CD31AD
:105050000297B1F7C092B906F801D1928F01888109
:105060009981019699838883EBCF888199818E15E8
:105070009F0580F480E997E00E94CD318F3F98072B
:10508000A1F3F80181938F01888199810196998319
:105090008883EBCF90E080E0DF91CF911F910F915B
:1050A000FF90EF90DF90CF9008950F931F93CF93D1
:1050B000DF93EA01890180E997E00E940D35F8014C
:1050C000D183C08390E080E0DF91CF911F910F9159
:1050D0000895CF92DF92EF92FF928091BA0691E00D
:1050E000980F9093BA06882369F021E030E030935E
:1050F000BC062093BB068093BA06FF90EF90DF902A
:10510000CF9008957894E0912602F0912702C28C06
:10511000D38CE48CF58C0E94C103B701A60190E00A
:1051200080E00E943C03F8948091BA068150E3CF5E
:105130000F931F93CF93DF9310925C0A10925B0A38
:105140000E94BE30E4DEC0912602D091270219826F
:1051500018826FEF7FEFCB010E94B60370E060E032
:1051600090E080E00E944202009709F03AC00E945D
:10517000B606F8947894BE016E5D7F4F8A819B815C
:105180000E944502892B59F46FEF7FEFCB010E94FB
:10519000D2020E94B003882311F081E08EA3F8941C
:1051A000EBDE0E94B303882311F080E008C00E9468
:1051B000B0038111FACF81E09EA19111F6CF8093C7
:1051C0005B0A78940E94E10F8C01789480915B0ACD
:1051D00081110CC00E947F090E949803F89490E00E
:1051E00080E0DF91CF911F910F9108950E94960367
:1051F0000E94B3038823D9F081E080935C0A9091E8
:105200005C0A81E0911180E080935B0A80915C0AE6
:105210008111D1DE0130110529F40E94E10F892BA3
:1052200009F4D3DE0E94E10F8C01CDDECFCF0E94C6
:10523000B0038111E1CF81E09EA19111DECF80E02A
:10524000DCCF5058BB27AA270ED044C135D130F04F
:105250003AD120F031F49F3F11F41EF42AC10EF42C
:10526000E095E7FB20C1E92F46D180F3BA1762072A
:1052700073078407950718F071F49EF55EC10EF46C
:10528000E0950B2EBA2FA02D0B01B90190010C0156
:10529000CA01A0011124FF27591B99F0593F50F46E
:1052A000503E68F11A16F040A22F232F342F4427C6
:1052B000585FF3CF469537952795A795F0405395BE
:1052C000C9F77EF41F16BA0B620B730B840BBAF08E
:1052D0009150A1F0FF0FBB1F661F771F881FC2F7F9
:1052E0000EC0BA0F621F731F841F48F4879577950D
:1052F0006795B795F7959E3F08F0B3CF9395880FC4
:1053000008F09927EE0F979587950895A8D008F48F
:1053100081E008950CD0DEC0D6D040F0CDD030F082
:1053200021F45F3F19F0BFC0511108C1C2C0E3D0E2
:1053300098F39923C9F35523B1F3951B550BBB275C
:10534000AA2762177307840738F09F5F5F4F220F09
:10535000331F441FAA1FA9F333D00E2E3AF0E0E802
:1053600030D091505040E695001CCAF729D0FE2F4E
:1053700027D0660F771F881FBB1F261737074807E0
:10538000AB07B0E809F0BB0B802DBF01FF27935896
:105390005F4F2AF09E3F510568F085C0CFC05F3F48
:1053A000ECF3983EDCF3869577956795B795F7957E
:1053B0009F5FC9F7880F911D9695879597F9089576
:1053C000E1E0660F771F881FBB1F62177307840712
:1053D000BA0720F0621B730B840BBA0BEE1F88F721
:1053E000E0950895E89409C097FB3EF49095809568
:1053F000709561957F4F8F4F9F4F9923A9F0F92F9B
:1054000096E9BB279395F695879577956795B79518
:10541000F111F8CFFAF4BB0F11F460FF1BC06F5FFE
:105420007F4F8F4F9F4F16C0882311F096E911C010
:10543000772321F09EE8872F762F05C0662371F031
:1054400096E8862F70E060E02AF09A95660F771F45
:10545000881FDAF7880F9695879597F90895990F21
:105460000008550FAA0BE0E8FEEF16161706E8072E
:10547000F907C0F012161306E407F50798F0621B4F
:10548000730B840B950B39F40A2661F0232B242B24
:10549000252B21F408950A2609F4A140A6958FEF43
:1054A000811D811D089597F99F6780E870E060E095
:1054B00008959FEF80EC089500240A9416161706AD
:1054C00018060906089500240A94121613061406F5
:1054D00005060895092E0394000C11F4882352F058
:1054E000BB0F40F4BF2B11F460FF04C06F5F7F4F10
:1054F0008F4F9F4F089557FD9058440F551F59F0F7
:105500005F3F71F04795880F97FB991F61F09F3FB0
:1055100079F087950895121613061406551FF2CFD9
:105520004695F1DF08C0161617061806991FF1CF29
:1055300086957105610508940895E894BB27662750
:105540007727CB0197F908958ADF08F48FEF089544
:105550000BD0C0CFB1DF28F0B6DF18F0952309F0EB
:10556000A2CFA7CF1124EACFC6DFA0F3959FD1F336
:10557000950F50E0551F629FF001729FBB27F00D01
:10558000B11D639FAA27F00DB11DAA1F649F662756
:10559000B00DA11D661F829F2227B00DA11D621FA5
:1055A000739FB00DA11D621F839FA00D611D221F5F
:1055B000749F3327A00D611D231F849F600D211D43
:1055C000822F762F6A2F11249F5750408AF0E1F0E6
:1055D00088234AF0EE0FFF1FBB1F661F771F881F2F
:1055E00091505040A9F79E3F510570F05CCFA6CF77
:1055F0005F3FECF3983EDCF3869577956795B7951A
:10560000F795E7959F5FC1F7FE2B880F911D969543
:10561000879597F9089590E080E008958091F106CC
:105620009091F206891B990B08959091F206809152
:10563000F1062FEF3FEF981748F4E92FF0E0ED5017
:10564000F94F208130E09F5F9093F206C9010895E1
:10565000E091F2068091F106E81730F4F0E0ED50A9
:10566000F94F808190E008958FEF9FEF089508959E
:10567000CF93DF93EC01E091C906F091CA06309711
:10568000F1F09091F2068091F1069817C0F090E049
:10569000292F30E02617370754F4DE01A20FB31F7D
:1056A0004C912D50394FD9014C939F5FF1CF1092FF
:1056B000F2066093F106CB01DF91CF911994DF914F
:1056C000CF910895E091CB06F091CC06309729F068
:1056D0001092CF061092CE0619940895CF93DF93BF
:1056E0001F92CDB7DEB769832091CD062223F9F052
:1056F0002091CE06203258F021E030E0FC013383C7
:10570000228390E080E00F90DF91CF910895809107
:10571000CF06E82FF0E0E053F94F998190838F5F37
:105720008093CF068093CE0681E090E0ECCF61E0DD
:10573000CE01019607D1F8CFCF92DF92EF92FF9280
:105740000F931F93CF93DF937C01CB018A012091AC
:10575000CD06222389F0EB016B01C40ED51ECC15BA
:10576000DD0561F06991D701ED91FC910190F08127
:10577000E02DC7011995F3CF642FE4D0C801DF9164
:10578000CF911F910F91FF90EF90DF90CF900895F0
:105790001092F2061092F1061092CF061092CE06E9
:1057A00097D082E69BE2FAD088E39BE2F2C0CB017D
:1057B000BA01B5C081E08093CD066093F0061092E7
:1057C000CF061092CE0608950F93062F21E0409148
:1057D000CE0660ED76E08091F006DCD11092CF0627
:1057E0001092CE061092CD060F9108954F925F92BF
:1057F0006F927F92AF92BF92CF92EF92FF920F93F0
:105800001F93CF93DF935C01F62ED42F280139012B
:10581000EE2009F1CFDFCE2DC43008F0C3E0C15037
:10582000B8F028E0C29FC0011124A301920104C076
:1058300056954795379527958A95D2F7B901D501A1
:10584000ED91FC910190F081E02DC5011995E7CF14
:1058500060E0C501B9DF4D2FD13208F040E22C2DB8
:1058600063EF76E08F2DB9D01092F2068093F106A7
:10587000DF91CF911F910F91FF90EF90CF90BF904C
:10588000AF907F906F905F904F900895CF92EF927E
:105890000F931F93C22EE12C00E010E09801A6DFC9
:1058A0001F910F91EF90CF90089521E0EFCFEDEB96
:1058B000F6E01382128288EE93E0A0E0B0E08483E9
:1058C0009583A683B78386EB92E0918380830895C6
:1058D0001092860781E0809384071092830761E02D
:1058E00084E114D561E085E111D5E9EBF0E0808138
:1058F0008E7F808380818D7F808388E48093B80051
:1059000085E48093BC000895ECEBF0E080818A7B15
:10591000808360E084E1FAD460E085E1F7C49B0114
:10592000AC0160E074E284EF90E00E944A352051BF
:105930003109410951095695479537952795209387
:10594000B800089520913507260F3327331F2132E1
:105950003105ECF420918607FC0190E080E02430D2
:1059600069F082E00895A09135072191AC01495C6E
:10597000584FA40FB52FB11D2C930196861798F39D
:1059800080913507680F6093350780E0089581E0C6
:10599000089590937A0780937907089590937C07F0
:1059A00080937B07089585EC8093BC001092860756
:1059B0000895CF93DF9391E090937E07882351F071
:1059C000C091B800D091BA009FDF82DFD093BA00B7
:1059D000C093B800DF91CF9108954F925F926F927C
:1059E0007F928F929F92AF92BF92CF92DF92EF926F
:1059F000FF920F931F93CF93DF93D82F162F072F6C
:105A0000C42FB22E413208F09DC05DD36B017C01E2
:105A100080918607811173C081E080938607B092E0
:105A200084079FEF90931307109258079C0F909351
:105A300057078093850780918507DD0FD82BD0937A
:105A4000850780918307813009F07EC0109283071B
:105A50003AD36B017C01809185078093BB008091D4
:105A60007F0790918007A0918107B0918207892BD1
:105A70008A2B8B2B99F027D380907F0790908007FB
:105A8000A0908107B09082076C197D098E099F094B
:105A900086169706A806B90608F451C08091BC0086
:105AA00083FDD9CF85EC8093BC000DD36B017C01C5
:105AB00080918607813009F449C0809158078C177E
:105AC00010F4C0915807A9E5B7E0912FE12FF02F0E
:105AD0008E2F891B8C1708F45AC08C2FDF91CF9121
